:020000040800F2
:10000000F0FF001079950408F1BE020865F50108BB
:1000100015960408159604081596040800000000BB
:10002000000000000000000000000000FDBE02080B
:10003000F9BE020800000000F5BE0208FDC3010879
:1000400015960408159604081596040815960408D4
:100050001596040815960408AD080208ED09020873
:10006000AD0902086D0902082D0902082D62030876
:100070001D6203080D620308FD610308E9610308BE
:10008000D5610308C1610308159604081596040894
:10009000159604081596040815960408ED0802083C
:1000A000159604084DBB0108159604080DBC0108FF
:1000B00015960408159604088DBA0108D967030837
:1000C000E1670308CD670308D567030815960408A0
:1000D00015960408ADC6010811C6010875C50108CA
:1000E0006D08020815960408F50D030841B80108CB
:1000F0000DB9010815960408CDB90108AD610308D2
:100100001596040815960408159604081596040813
:10011000D9C401083DC4010811660108FD65010844
:100120009961030885610308915A03087161030806
:100130005D610308159604081596040815960408D1
:1001400015960408159604081596040839D7020870
:100150004961030835610308216103081596040805
:10016000C1670308C96703081596040815960408B3
:1001700015960408159604081596040815960408A3
:08018000159604081596040809
:080188002091040001000000B9
:10019000F8210600EE2D0020D437002000000000DA
:1001A000F4060008031233001C310020143700202D
:1001B00000000000FA06000825009600C83500205F
:1001C0005E360020000000000000000015007000F6
:1001D0000D340020E034002000000000000000008A
:1001E0002A006000802E00208034002000000000E3
:1001F000E10804082C001000F43600200437002029
:1002000000000000359C00082B0024006B37002004
:100210004737002000000000059C000829107800E6
:10022000062E0020503500200000000000000000D5
:1002300028101000702D0020DC3700200000000086
:100240000180000814000300243300207D340020C6
:10025000000000002E070008070202008C3A002070
:10026000D03A0020000000003207000802000C0015
:10027000603A0020D43A0020000000000000000096
:1002800006020C00543A0020E03A00200000000072
:10029000A91B030808120900D8390020EC3A0020F5
:1002A00000000000B9120308F7010600D23900204F
:1002B000F83A002000000000340700080A020A0093
:1002C00040390020003B0020000000003A070008F1
:1002D00003000100283900200C3B00200000000032
:1002E0000000000010100200F8380020103B002031
:1002F00000000000440700081A023C002C3B0020CC
:10030000743F002000000000751A03082700040055
:10031000283B0020B03F00200000000046070008F6
:100320000E502001A6500020BC5800200000000004
:100330000909040809020100E0570020DC590020E7
:10034000000000004A0700080C106C000252002058
:10035000E059002000000000ED190108010205002D
:100360002A5000204C5A002000000000752B020883
:100370000002050038550020545A002000000000FB
:10038000000000001B020800145500205C5A0020E9
:10039000000000005912030801200800AC5600209C
:1003A000645A0020000000004C07000819000500F6
:1003B000505700206C5A002000000000540700082D
:1003C00037001E0028570020745A0020000000004B
:1003D0005A0700081E000500F0520020945A002021
:1003E00000000000780700081B00F400C03F002058
:1003F0009C5A002000000000813C02080E0202000E
:1004000044560020905B0020000000007E0700089A
:100410002F0011009C580020945B00200000000079
:10042000800700080510060008710020F475002000
:10043000000000009207000826000E000C76002045
:10044000FC7500200000000039B202081F201C00CB
:100450006C6500204076002000000000980700082E
:1004600005020400A07000205C760020000000005F
:10047000B407000803010A00D46D00206076002054
:1004800000000000B807000813020300D463002036
:100490006C76002000000000C20700081002010076
:1004A000109000200C90002000000000C6070008FB
:1004B0000400800068DD002020DE00200000000035
:1004C000000000002300100030DD0020A0DE00202E
:1004D00000000000198000080D00340084DC0020BA
:1004E000B0DE00200000000021D10308130004004A
:1004F0006CD30020E4DE002000000000C8070008E4
:10050000F6210C0070D30020E8DE0020000000007F
:10051000CC070008F5317000A8D20020F4DE0020DE
:1005200000000000753602080B20100098D2002051
:1005300064DF002000000000D8070008010104006B
:1005400094D2002074DF00200000000000000000B2
:100550000001040090D2002078DF0020000000009D
:10056000E8070008020103008CD200207CDF002095
:1005700000000000151A0108FD011E0058D20020DD
:1005800080DF002000000000F1A9010818202C00E5
:1005900028D20020A0DF002000000000451B030837
:1005A0000610180084C50020CCDF002000000000E9
:1005B00065090408FB01010080C50020E4DF00207C
:1005C00000000000191B0308FC0109004CC40020B6
:1005D000E8DF002000000000291B030834001000A1
:1005E00074C30020F4DF0020000000003909040873
:1005F000110208004CC3002004E0002000000000AD
:10060000EC0700081212040044C300200CE0002094
:1006100000000000F407000812200D0034C3002081
:1006200010E0002000000000F8070008F9010400B5
:10063000FCB7002020E000200000000069AA0108AB
:100640001802020000B2002024E000200000000098
:100650000000000017020B00F4B1002028E0002089
:100660000000000075120308FA010200D0B100205A
:1006700034E0002000000000DD1303080202030044
:1006800004AF002038E0002000000000000000005F
:100690000C020300C0AE00203CE00020000000007F
:1006A00065120308FE010900A0B1002040E000200F
:1006B00000000000F11203080A40360044B1002097
:1006C0004CE00020000000000608000816000800AA
:1006D000744601207C460120000000003C08000810
:1006E0001A000E00804801209849012000000000F7
:0406F00044080008B2
:1006F4000201F401190000000000000000000000E5
:1007040000000000000000000000000000000000E5
:1007140000000000000000000000000000000000D5
:100724000000000000000000010003000000023C83
:100734003F010000000000004A01B400D601260079
:100744000005200300000000E8036400040A00011F
:1007540000002801000020003200C800D0079600E5
:10076400140032002800B0044006000550001400B4
:100774000F0008010000010000000000000000005C
:100784000000000000000000000000000000200045
:10079400010100000000000000010000000500004D
:1007A400010203000000000000000000000000003F
:1007B40000000000040101006C16000000000000AD
:1007C40000000000080444300000000001000000A4
:1007D400020200002B21231E64010100000001001D
:1007E4000A012900FA0000000000000001010101D3
:1007F400FFFFFFFF000000010000054845535000C3
:1008040000000030010000000100000000000000B2
:100814000000000000000000020000019E077D00AF
:10082400000020000100B80BB80BB80B20005000EA
:100834005000500000000000C409000019012828DD
:0E0844007E05EA05B4053200E803D007000087
:10085200D60101006A000101FFFF0000FFFFFFFF58
:10086200010000000000803F0000000000000000C6
:1008720000000000FF00000000000000C03A00205D
:100882000800000000000000B03A0020080000004C
:1008920070D504080508040000000000ECDE04081E
:1008A200C4DF0408D8DE04080000000000000000D5
:1008B2009CD5040805080A0000000000ECDE0408CC
:1008C200C4DF0408C0DD04080000000000000000CE
:1008D200010102FFFF00000000000100E001010130
:1008E20001000000492F0208000000000802002059
:1008F200944D050800000000000000000000000008
:1009020000000000B84205080000000000000000DE
:100912009E02002004000000404D05080D0000006A
:100922003D5B02087C1D00200000000064460508B3
:100932000D000000655B0208701D00200000000031
:10094200CC4705080800000000000000641D0020DC
:1009520004000000D04605080D000000FD2F02082B
:10096200581D002000000000804705080300000019
:10097200615D02084C1D002000000000A44D050826
:1009820003000000615D0208401D0020000000001D
:100992000043050801000000000000000000000004
:1009A20000000000000000000E0000000000000037
:1009B2000000000000000000944D05080000000047
:1009C200000000000000000000000000B84205081E
:1009D20000000000000000009E0200200400000051
:1009E200EC4C05080300000065370208341D0020A6
:1009F20008000000D04605080D000000FD2F020887
:100A0200581D002000000000804705080300000078
:100A1200615D02084C1D002000000000A44D050885
:100A220003000000615D0208401D0020000000007C
:100A32000043050801000000000000000000000063
:100A420000000000000000000E0000000000000096
:100A52000000000000000000AC4D0508000000008E
:100A6200000000000000000000000000B84205087D
:100A720000000000000000009E02002004000000B0
:100A8200F44C050803000000615D0208881D002087
:100A92000000000000430508010000000000000003
:100AA2000000000000000000000000000E00000036
:100AB2000000000000000000000000002070002084
:100AC200702D7200FFFFFFFF010000000000803F59
:100AD200080000000000000000000000F0180020E4
:100AE200FA0000000100000001000000FFFF2D20BD
:100AF2002D2D202D2D2D2D202D2D2D00000000001F
:100B020000000000000000000000000000000000E3
:100B1200FFFFFFFFD4420508DC420508F842050842
:100B220000000000000000000000000000000000C3
:100B3200A640050804000000055902080000000054
:100B42000000000000430508010000000000000052
:100B52000000000000000000000000000E00000085
:100B620000000000000000000000000008DE00207D
:100B72000100C4090000000006DE00200100C409D3
:100B82000000000004DE00200100C4090000000093
:100B920002DE00200100C40900000000FEDD00208A
:100BA2000100C4090000000000DE00200100C409A9
:100BB20000000000FCDD00200100C409000000006C
:100BC200FADD00200100C409000000003C500020B2
:100BD2000100C800010000003A50002032003075C8
:100BE2003200000038500020055A05003550002020
:100BF20000FF01003750002001000000C402002065
:100C02003350002002000000F0DF040834500020BE
:100C120000FF01003650002001000000C402002045
:100C22003250002002000000F0DF040828500020AB
:100C320080C1803E050000002650002080C1803E19
:100C4200050000002450002080C1803E0500000005
:100C52002250002080C1803E05000000215000206B
:100C620000FF0100205000200A3201001F50002026
:100C720004000000A0DD04081E5000200200000055
:100C8200B4DD04080000000000000000CC020020D7
:100C9200507000209CFF2C01000000008E000020FC
:100CA2000A000000C0DD040814500020E0150C17F3
:100CB200000000009000002008000000C4DF0408CB
:100CC2008F00002005000000ECDE04081650002012
:100CD20002000000D8DD0408885200200100FF7FD6
:100CE200010000008752002002000000E4DD040839
:100CF200D651002000000000F4DD0408D551002088
:100D020000000000F4DD0408D451002000000000BF
:100D1200F4DD0408D25100200000C20101000000ED
:100D2200D05100200000C20101000000CE5100207D
:100D32000000C20101000000CA5100200000803EF4
:100D420032000000C85100200000803E3200000046
:100D5200C65100200000803E32000000CC5100202D
:100D620000002C0101000000E25100200000F4010B
:100D720001000000E05100200000F4010100000029
:100D8200DE5100200000F40101000000DC510020CF
:100D92000000F40101000000DA5100200000803E52
:100DA20001000000D85100200000803E0100000038
:100DB200FE510020E803D0070A000000FC51002089
:100DC200006401000A000000F151002000640100EB
:100DD200F051002000640100F8510020006401007D
:100DE2000A000000F7510020006401000A00000020
:100DF200F6510020006401000A000000FB510020AF
:100E0200006401000A000000FA51002000640100A1
:100E12000A000000F9510020006401000A000000ED
:100E2200F551002000FF01000A000000F4510020EB
:100E320000FF01000A000000F351002000FF010042
:100E42000A000000A25000200000F401010000008E
:100E5200A05000200000F401010000009E5000207C
:100E62000000F401010000009C5000200000F40189
:100E7200010000009A5000200000F401010000006F
:100E8200EE51002000640100EC5100201400E80340
:100E920001000000EA510020E80330750A0000005A
:100EA200E851002000C80100E751002000C80100FD
:100EB200E651002000C80100E55100200064010055
:100EC2000A0000007C5200200000D0070100000050
:100ED2007752002000C801007652002000C80100AD
:100EE2007552002000C801007A5200200000D0078D
:100EF200010000007452002000C80100735200205B
:100F020000C801007252002000C80100785200207F
:100F12000000D007010000007152002000C801004B
:100F22007052002000C801006F52002000C801006A
:100F32002843050800000000000000000000000037
:100F4200000000002C0C0508090000000000000051
:100F52007003002004000000340C050809000000A2
:100F6200000000006403002004000000DC4A0508C1
:100F720009000000000000005803002004000000E7
:100F8200A241050809000000000000004C030020F7
:100F920004000000384305080900000000000000BA
:100FA200400300200400000040430508090000003F
:100FB200000000003403002004000000484305083C
:100FC20009000000000000002803002004000000C7
:100FD2005043050809000000000000001C03002027
:100FE20004000000004305080100000000000000AA
:100FF2000000000000000000000000000E000000E1
:10100200000000000000000000000000504505083C
:1010120000000000000000000000000000000000CE
:10102200EC2D0508070000000000000094030020DA
:1010320000000000604505080800000000000000F4
:1010420088030020000000006C450508080000002D
:10105200000000007C03002000000000004305089F
:10106200010000000000000000000000000000007D
:10107200000000000E000000000000000000000060
:101082000000000074450508000000000000000098
:101092000000000000000000844505080D0000006B
:1010A20000000000D0030020000000008C4505086D
:1010B2000D00000000000000C4030020000000003A
:1010C200944505080700000000000000BC03002052
:1010D200000000009C4505080D0000000000000013
:1010E200B003002000000000A44505080D00000028
:1010F20000000000A403002000000000AC45050829
:1011020007000000000000009C0300200000000017
:10111200004305080100000000000000000000007C
:1011220000000000000000000E00000000000000AF
:101132000000000000000000B445050800000000A7
:10114200000000000000000000000000EC2D050877
:101152000C000000000000003E50002000000000D3
:10116200C84505080C0000000000000040500020A7
:1011720000000000D84505080C0000000000000037
:101182007650002000000000E84505080C00000031
:10119200000000006A50002000000000FC45050825
:1011A2000C0000000000000042500020000000007F
:1011B200084605080C000000000000004450002012
:1011C20000000000104605080C00000000000000AE
:1011D2004650002000000000244605080C000000D4
:1011E2000000000048500020000000002C460508C6
:1011F2000C000000000000004A5000200000000027
:10120200344605080C000000000000008850002051
:10121200000000004C4605080C0000000000000021
:101222004C50002000000000584605080C00000049
:10123200000000004E500020000000003C0C050899
:101242000C000000000000005050002000000000D0
:10125200604605080C00000000000000525000200B
:10126200000000006C4605080C00000000000000B1
:101272005450002000000000784605080C000000D1
:1012820000000000565000200000000084460508BF
:101292000C00000000000000585000200000000078
:1012A200904605080C000000000000005A50002083
:1012B200000000009C4605080C0000000000000031
:1012C2006E50002000000000A44605080C0000003B
:1012D200000000006C50002000000000AC46050831
:1012E2000C000000000000007A5000200000000006
:1012F200B84605080C000000000000007C500020E9
:1013020000000000C44605080C00000000000000B8
:101312008250002000000000F44305080C00000089
:10132200000000005C50002000000000D0460508CC
:101332000C000000000000006450002000000000CB
:10134200D84605080C000000000000005E50002096
:1013520000000000E44605080C0000000000000048
:101362006050002000000000F04605080C0000005C
:10137200000000006250002000000000F84605084E
:101382000C00000000000000665000200000000079
:101392000C2E05080C000000000000007050002018
:1013A20000000000044705080C00000000000000D7
:1013B2006850002000000000414205080C000000B7
:1013C20000000000785000200000000010470508CF
:1013D2000C0000000000000072500020000000001D
:1013E200184705080C00000000000000745000209F
:1013F20000000000204705080C000000000000006B
:101402007E50002000000000284705080C00000064
:101412000000000080500020000000003047050856
:101422000C000000000000009250002000000000AC
:101432000043050801000000000000000000000059
:1014420000000000000000000E000000000000008C
:1014520000000000000000003847050800000000FE
:1014620000000000000000000000000044470508E2
:101472000D00000000000000280400200000000011
:101482004C4705080D000000000000001C0400206D
:10149200000000005447050807000000000000009B
:1014A2001404002000000000604705080700000047
:1014B200000000000C040020000000006C4705083A
:1014C20009000000000000000004002000000000ED
:1014D200784705080900000000000000F40300201E
:1014E2000000000084470508090000000000000019
:1014F200E8030020000000009447050809000000EE
:1015020000000000DC03002000000000004305088A
:1015120001000000000000000000000000000000C8
:10152200000000000E0000000000000000000000AB
:1015320000000000A84705080000000000000000AD
:101542000000000000000000B84705080500000088
:101552000000000099500020000000000043050830
:101562000100000000000000000000000000000078
:10157200000000000E00000000000000000000005B
:1015820000000000C0470508000000000000000045
:101592000000000000000000B84205080000000042
:1015A20000000000241F0020040000009E410508E6
:1015B2000D000000695902087C04002000000000B0
:1015C200404D05080D000000012F020870040020A4
:1015D20000000000644605080D000000E52E020828
:1015E2006404002000000000CC4705080800000049
:1015F200000000005804002004000000D046050846
:101602000D0000002D2E02084C04002000000000F6
:10161200D447050809000000000000004004002033
:10162200040000008047050803000000615D020815
:1016320034040020000000000043050801000000FF
:101642000000000000000000000000000000000098
:101652000E0000000000000000000000000000007A
:10166200DC47050800000000000000000000000048
:1016720000000000EC4705080D000000000000001B
:101682009404002000000000F44705080A0000004E
:10169200000000000C560020000000000048050871
:1016A2000A000000000000001456002000000000A4
:1016B200084805080A000000000000001C5600202F
:1016C20000000000104805080800000000000000AB
:1016D20088040020000000001848050804000000EB
:1016E200955E0208000000000000000000430508AB
:1016F20001000000000000000000000000000000E7
:10170200000000000E0000000000000000000000C9
:10171200000000002448050800000000000000004E
:10172200000000000000000038480508000000002A
:1017320000000000000000000000000058480508FA
:1017420008000000000000000C050020000000005E
:1017520060480508080000000000000000050020A5
:1017620000000000684805080800000000000000B2
:10177200F404002000000000704805080800000082
:1017820000000000E804002000000000784805087E
:101792000800000000000000DC040020000000003F
:1017A200844805080800000000000000D004002062
:1017B200000000009048050808000000000000003A
:1017C200C404002000000000984805080D00000035
:1017D20000000000B804002000000000A048050836
:1017E2000D00000000000000AC040020000000001A
:1017F200AC4805080D00000000000000A004002015
:101802000000000000430508010000000000000085
:101812000000000000000000B448050802000000BB
:10182200E95E020802000000000000000000000063
:101832000E00000000000000000000000000000098
:10184200C048050800000000000000000000000081
:1018520000000000D4480508080000000000000055
:101862005405002000000000E048050808000000C0
:10187200000000004805002000000000EC480508B8
:1018820008000000000000003C05002000000000ED
:10189200F84805080800000000000000300500209C
:1018A20000000000044905080800000000000000D4
:1018B200240500200000000010490508080000006F
:1018C2000000000018050020000000000043050889
:1018D2000100000000000000000000000000000005
:1018E200000000000E0000000000000000000000E8
:1018F200000000001C490508000000000000000074
:101902006F02002000000000284905080B000000BB
:1019120000000000E805002000000000344905082E
:101922000B00000000000000DC05002000000000A9
:10193200404905080B00000000000000D00500200F
:10194200000000004C4905080B00000000000000E8
:10195200C405002000000000584905080B000000E3
:1019620000000000B80500200000000064490508DE
:101972000B00000000000000AC0500200000000089
:10198200704905080B00000000000000A0050020BF
:10199200000000007C4905080B0000000000000068
:1019A2009405002000000000884905080B00000093
:1019B200000000008805002000000000944905088E
:1019C2000700000000000000800500200000000069
:1019D2009C4905080700000000000000780500206F
:1019E20000000000A84905080B00000000000000EC
:1019F2006C05002000000000B44905080800000042
:101A020000000000600500200000000000430508FF
:101A120001000000000000000000000000000000C3
:101A2200000000000E0000000000000000000000A6
:101A320000000000C049050800000000000000008E
:101A42000000000000000000D44905080800000062
:101A5200000000002406002000000000E049050804
:101A6200080000000000000018060020000000002E
:101A7200EC49050808000000000000000C060020E8
:101A820000000000F84905080800000000000000FE
:101A92000006002000000000904805080800000031
:101AA20000000000F40500200000000000430508CB
:101AB2000100000000000000000000000000000023
:101AC200000000000E000000000000000000000006
:101AD20000000000044A05080000000000000000A9
:101AE2006C02002000000000144A05080B000000F0
:101AF200000000006806002000000000204A0508DF
:101B02000700000000000000600600200000000046
:101B12002C4A0508070000000000000058060020BB
:101B220000000000384A050807000000000000001D
:101B32005006002000000000444A0508080000008A
:101B42000000000044060020000000004C4A050886
:101B5200080000000000000038060020000000001D
:101B6200544A05080700000000000000300600206B
:101B72000000000000430508010000000000000012
:101B82000000000000000000000000000E00000045
:101B9200000000000000000000000000604A05088C
:101BA20000000000000000006C02002000000000A5
:101BB2006C4A05080700000000000000D80600205B
:101BC20000000000744A0508070000000000000041
:101BD200D0060020000000007C4A05080700000033
:101BE20000000000C806002000000000844A05082A
:101BF2000800000000000000BC06002000000000F9
:101C02008C4A05080700000000000000B40600200E
:101C120000000000944A05080700000000000000D0
:101C2200AC060020000000009C4A050807000000E6
:101C320000000000A406002000000000A44A0508DD
:101C420008000000000000009806002000000000CC
:101C5200AC4A0508070000000000000090060020C2
:101C620000000000B44A0508070000000000000060
:101C72008806002000000000BC4A0508070000009A
:101C8200000000008006002000000000C44A050891
:101C920008000000000000007406002000000000A0
:101CA20000430508010000000000000000000000E1
:101CB20000000000000000000E0000000000000014
:101CC2000000000000000000000000008132020855
:101CD200E0060020975000202B000000FCDD0408E5
:101CE2009650002000C8010094500020E803D0075D
:101CF2000100000048454C494F535052494E47009D
:101D02003150002000030100305000200003010088
:101D1200C9310208A1310208BC0700205D31020866
:101D2200113102083408002009320208F131020898
:101D3200E80800207530020821300208080C002053
:101D4200973202088D5B0208E40C00206D2E020817
:101D520000000000340D0020715E0208C135020847
:101D6200100E0020813302082D330208C40E002019
:101D720009340208D5330208F00F0020913402081A
:101D8200DD340208A4100020EF51002001060100FA
:101D9200F1320208BD320208E41100203D3402088B
:101DA200BD5B0208841200200D3502080D5C02089A
:101DB2004C130020E451002001030100CC4A050825
:101DC2000000000000000000000000000000000011
:101DD200D84A0508080000000000000098140020FE
:101DE20000000000E04A05080700000000000000B3
:101DF2009014002000000000F04A05080D000000C9
:101E0200000000008414002000000000FC4A0508C5
:101E120003000000615D0208781400200000000049
:101E2200004305080100000000000000000000005F
:101E320000000000000000000E0000000000000092
:101E42000000000000000000044B05080000000034
:101E5200000000000000000000000000144B050814
:101E62000A000000000000001C4B050800000000F2
:101E7200244B05080A000000000000004AFE040886
:101E8200000000002C4B05080A00000000000000C2
:101E92007E52002000000000344B05080A000000BA
:101EA20000000000A4140020000000000043050808
:101EB200010000000000000000000000000000001F
:101EC200000000000E000000000000000000000002
:101ED200000000003C4B050800000000000000006C
:101EE2000000000000000000484B0508030000004D
:101EF200615D0208D814002000000000544B050860
:101F020003000000615D0208CC1400200000000004
:101F12005C4B050803000000615D0208C01400204C
:101F220000000000644B05080500000000000000EE
:101F32002F500020000000006C4B05080700000035
:101F420000000000B814002000000000784B0508D3
:101F52000700000000000000B01400200000000094
:101F6200004305080100000000000000000000001E
:101F720000000000000000000E0000000000000051
:101F82000000000000000000844B05080000000073
:101F9200000000000000000000000000984B05084F
:101FA20003000000615D0208081500200000000027
:101FB200A44B050803000000615D020894000020A4
:101FC20000000000AC4B050803000000615D020840
:101FD200FC14002000000000B44B050803000000C0
:101FE200615D0208F014002000000000D0460508E0
:101FF20003000000615D0208E414002000000000FC
:10200200004305080100000000000000000000007D
:1020120000000000000000000E00000000000000B0
:102022000000000000000000C04B05080000000096
:10203200000000000000000000000000D04B050876
:1020420007000000695C020864150020000000001F
:10205200F446050803000000615D020858150020DF
:1020620000000000DC4B050803000000615D02086F
:102072004C15002000000000E44B0508030000009E
:10208200615D02084015002000000000EC4B0508CD
:10209200070000004D5C0208381500200000000017
:1020A200D84F050803000000615D02082C150020CE
:1020B20000000000F84B050803000000615D020803
:1020C2002015002000000000044C05080300000059
:1020D200615D02081415002000000000004305089D
:1020E20001000000000000000000000000000000ED
:1020F200000000000E0000000000000000000000D0
:102102000000000051320208213202086C15002042
:102112008D35020800000000F8150020ED3002089D
:10212200C9300208841600200000000000000000F0
:102132003817002065350208855C0208D817002090
:102142000C4C050800000000000000000000000028
:1021520000000000F411050803000000615D0208A0
:10216200E418002000000000184C050803000000DD
:10217200615D0208D818002000000000042F050845
:1021820003000000615D0208CC180020000000007E
:10219200244C050803000000615D0208C0180020FD
:1021A20000000000304C050803000000615D0208D9
:1021B200B418002000000000384C0508020000009E
:1021C200E95E02080000000000000000404C050823
:1021D20002000000E95E02080100000000000000A9
:1021E200B448050802000000E95E0208020000008F
:1021F20000000000000000000E00000000000000CF
:1022020000000000000000001A50002088136F1721
:10221200010000001C50002088136F17000000000E
:102222004C4C050800000000000000000000000007
:10223200000000005C4C05080800000000000000DF
:10224200C419002004000000684C050808000000C2
:1022520000000000B81900200000000080470508B7
:102262000400000091590208000000000000000074
:10227200004305080100000000000000000000000B
:1022820000000000000000000E000000000000003E
:1022920000000000000000001850002088136F1793
:1022A200010000008C70002088136F1700000000EE
:1022B200B12F020800000000D0190020B155002003
:1022C20001000000ACDE04088E7000200100000056
:1022D200B8DE04088470002002000000C0DE04089A
:1022E200BE6500200000000000000000BC65002068
:1022F2000000000000000000BA650020000000009D
:1023020000000000B865002000000000000000008E
:10231200B66500200000000000000000B465002047
:1023220000000000000000005C1F00200000000010
:10233200000000001750002002000000CCDE04085C
:10234200A44C05080000000000000000000000008E
:10235200000000005C4C05080800000000000000BE
:10236200541A002004000000684C05080800000010
:1023720000000000481A0020000000008047050805
:1023820004000000812F020800000000000000008D
:1023920000430508010000000000000000000000EA
:1023A20000000000000000000E000000000000001D
:1023B2000000000000000000B44C0508000000000E
:1023C200000000000000000000000000C44C0508EE
:1023D2000D000000E15A0208841A002004000000E7
:1023E200D04C05080D000000D92F0208781A0020F1
:1023F20004000000DC4C05080D000000A55A02088C
:102402006C1A002000000000E84C050803000000E0
:1024120085370208601A002008000000F44C050805
:1024220003000000615D0208881D0020000000001A
:102432000043050801000000000000000000000049
:1024420000000000000000000E000000000000007C
:102452000000000000000000F84205080000000033
:10246200000000000000000000000000A640050877
:1024720004000000A959020800000000000000004A
:1024820000430508010000000000000000000000F9
:1024920000000000000000000E000000000000002C
:1024A2000000000000000000484D05080000000088
:1024B200000000000000000000000000D01005082D
:1024C2000D00000000000000E41A002004000000DB
:1024D200584D05080800000000000000D81A00202E
:1024E20004000000644D0508080000000000000020
:1024F200CC1A0020040000006C4D05080800000002
:1025020000000000C01A002004000000744D0508FD
:102512000800000000000000B41A002004000000BF
:102522007C4D05080800000000000000A81A0020E9
:1025320004000000844D05080800000000000000AF
:102542009C1A0020040000008C4D050808000000C1
:1025520000000000901A002004000000004305085B
:102562000100000000000000000000000000000068
:10257200000000000E00000000000000000000004B
:1025820000000000992F020800000000F01A00204D
:102592000000000000000000681B00200000000096
:1025A20000000000081C00208A70002004000000C7
:1025B200D8DE040888700020E0150C170000000027
:1025C2008770002008000000C4DF04088670002025
:1025D20005000000ECDE040800000000000000001E
:1025E200581C00200403090412010002EF020140FA
:1025F20083045632000201020301000012010002AC
:10260200020200408304405700020102030100005D
:1026120009022000010104C0320904000002080678
:102622005005070581024000000705010240000035
:1026320009026400030100C0320904000001030022
:102642000000092111010001222600070583030869
:10265200000A080B01020202010009040100010242
:1026620002010005240010010524010002042402D5
:10267200020524060102070582030800FF0904027D
:1026820000020A0000000705010240000007058160
:102692000240000009024300020100C032090400A6
:1026A20000010202010005240010010524010001BD
:1026B200042402020524060001070582030800FF24
:1026C20009040100020A000000070501024000009F
:1026D2000705810240000000FF00000000FFFF002C
:1026E20000000000AA5505010000010005010905CE
:1026F200A101A10005010930093109320933093567
:102702000934094009381581257F75089508810229
:10271200C0C0000009022200010100E032090400E9
:102722000001030102000921110100012226000714
:1027320005830308000A00000000000001020304F0
:102742000102030406070809FDC80208C5CF0208F2
:1027520041CB0208BDA60208E1A80208CDA60208E4
:10276200E9A6020895A6020885A602080000000054
:10277200000000002D202D2D202D2D2D2D202D2D62
:102782002D2D0000000000000000000000000000ED
:10279200000000AA550B010000AA5507010000AA7B
:1027A200550902000000000001000000C012AA55F5
:1027B20003009F00FF1FFF1F010000001C76002086
:1027C20000000000C424002004000000382E050888
:1027D2008450050800000000291A0108A0860100A3
:1027E20004000000000000000000000000000000E3
:1027F20000000000000000000000000000000000D7
:10280200382E0508A4510508000000008DA8010813
:10281200E8030000040000000000000000000000C7
:1028220000000000000000000000000000000000A6
:1028320000000000F4460508480C050800000000EE
:10284200292201087D0000000600000000000000AF
:102852000000000000000000000000000000000076
:102862000000000000000000AC510508000000005C
:102872000000000025170208E80300000300000022
:102882000000000000000000000000000000000046
:10289200000000000000000000000000B051050828
:1028A2000000000000000000290C040810270000AE
:1028B2000300000000000000000000000000000013
:1028C2000000000000000000000000000000000006
:1028D200C04D05080000000001990008A5F5010897
:1028E2005F7600000500000000000000000000000C
:1028F20000000000000000000000000000000000D6
:102902000000000004300508000000000000000084
:10291200751C0208102700000100000000000000E2
:1029220000000000000000000000000000000000A5
:102932000000000000000000BC510508000000007B
:102942000000000091A80108E80300000500000053
:102952000000000000000000000000000000000075
:10296200000000000000000000000000C85105083F
:10297200000000000000000065950108204E0000E4
:102982000300000000000000000000000000000042
:102992000000000000000000000000000000000035
:1029A200D851050800000000000000005193010802
:1029B200204E0000030000000000000000000000A4
:1029C2000000000000000000000000000000000005
:1029D20000000000E85105080000000000000000AF
:1029E20079AA0108400D0300030000000000000066
:1029F20000000000000000000000000000000000D5
:102A02000000000000000000FC2E0508000000008D
:102A120000000000D1D903081027000001000000C7
:102A220000000000000000000000000000000000A4
:102A32000000000000000000000000000C3005084B
:102A420000000000000000003D7402081027000092
:102A52000300000000000000000000000000000071
:102A62000000000000000000000000000000000064
:102A7200F8510508000000000000000019AA000833
:102A8200A08601000100000000000000000000001C
:102A92000000000000000000000000000000000034
:102AA20000000000F44305080000000000000000E0
:102AB20095A70108A86100000100000000000000C5
:102AC2000000000000000000000000000000000004
:102AD2000000000000000000005205080000000095
:102AE20000000000F58F0208A0860100010000002E
:102AF20000000000000000000000000000000000D4
:102B02000000000000000000000000001030050876
:102B12000000000000000000FDC70108A00F000037
:102B220001000000000000000000000000000000A2
:102B32000000000000000000000000000000000093
:102B42000C5205080000000000000000693802086D
:102B5200102700000100000000000000000000003B
:102B62000000000000000000000000000000000063
:102B720000000000042F0508000000000000000013
:102B82002DED02081A4100000100000000000000C3
:102B92000000000000000000000000000000000033
:102BA2000000000000000000703005080000000076
:102BB20000000000EDAE0208102700000100000036
:102BC2000000000000000000000000000000000003
:102BD20000000000000000000000000098500508FE
:102BE2000000000000000000696002081A410000B5
:102BF20001000000000000000000000000000000D2
:102C020000000000000000000000000000000000C2
:102C1200185205080000000000000000A5E80208A4
:102C2200400D030000000000000000000000000052
:102C32000000000000000000000000000000000092
:102C42000000000020520508000000000000000003
:102C5200DFD00308400D0300000000000000000068
:102C62000000000000000000000000000000000062
:102C720000000000000000002852050800000000CB
:102C820000000000B981020850C3000003000000E8
:102C92000000000000000000000000000000000032
:102CA200000000000000000000000000345205088F
:102CB2000000000000000000C592010840420F0021
:102CC2000000000000000000000000000000000002
:102CD20000000000000000000000000000000000F2
:102CE200405205080000000000000000FDD103086A
:102CF20050C30000000000000000000000000000BF
:102D020000000000000000000000000000000000C1
:102D120000000000000200051002700B1A03000000
:102D220000000000000000000000000000000000A1
:102D32000000000000000000040309041201000268
:102D4200000000408304205700020102030100003A
:102D5200B93E030839130308351303083113030876
:102D6200491E03082D130308291303088CE20408E3
:102D720071D20208D1A7020859D10208000000004E
:102D8200000000008DC70208A9C60208000000006A
:102D9200000000000000000031A60208D113030861
:102DA200C5130308B1230308CD2303087D130308C9
:102DB2009523030879230308010000005001000055
:102DC20007000000020000000000000000000000F8
:102DD200010203040607080908000000C1A5020851
:102DE200BDA50208B9A50208ADA50208A9A5020859
:102DF200B5A50208B1A5020801000000006002406A
:102E0200106002400000000000000000000B000003
:102E1200000000000000000000000000006002400E
:102E2200286002400100000000000000060C0000C3
:102E320000000000000000000000000000600240EE
:102E4200406002400200000000000000100D00007F
:102E520000000000000000000000000000600240CE
:102E6200586002400300000000000000160E00003F
:102E720000000000000000000000000000600240AE
:102E8200706002400400000000000000200F0000FB
:102E9200000000000000000000000000006002408E
:102EA20088600240050000000000000026100000BB
:102EB200000000000000000000000000006002406E
:102EC200A060024006000000000000003011000077
:102ED200000000000000000000000000006002404E
:102EE200B86002400700000000000000362F00001A
:102EF200000000000000000000000000006402402A
:102F020010640240000000000000000000380000D1
:102F12000000000000000000000000000064024009
:102F22002864024001000000000000000639000091
:102F320000000000000000000000000000640240E9
:102F4200406402400200000000000000103A00004D
:102F520000000000000000000000000000640240C9
:102F6200586402400300000000000000163B00000D
:102F720000000000000000000000000000640240A9
:102F8200706402400400000000000000203C0000C9
:102F92000000000000000000000000000064024089
:102FA2008864024005000000000000002644000082
:102FB2000000000000000000000000000064024069
:102FC200A06402400600000000000000304500003E
:102FD2000000000000000000000000000064024049
:102FE200B8640240070000000000000036460000FE
:102FF20000000000000000000000000049AC0208D0
:1030020015A802081DCB02080000000081A60208D4
:10301200D1D20208FDAB020855C802080000000028
:10302200000000003DA60208D1A50208C5A50208BD
:10303200A1BF0208BDBF020885BF020869BF02081E
:103042004DBF020801AC0208F1A702085DCA0208DE
:103052000000000055A6020859C80208D1AB0208B8
:10306200B5C70208000000000000000049A60208DF
:103072000000803F0000000000000000000000008F
:103082000000803F0000000000000000000000007F
:10309200000000000000000000000000000000002E
:1030A2000000000000000000010000000000803F5E
:1030B2000000000000000000000000000000803F4F
:1030C2007428002000000000000000000000000042
:1030D20000000000000000000000000000000000EE
:1030E20000000000000000000000000000000000DE
:1030F20000000000000000000000000000000000CE
:1031020000000000000000000000000000000000BD
:1031120000000000000000000000000000000000AD
:083122000000000001000000A4
:1080000000230122C2708370038003714371837166
:10801000C37103724372704700230A2203604360F6
:10802000C381C0F80630C0F80A300280704700BF34
:108030002DE9F843704CE279237A9A427FD0E279B5
:10804000E379C2EBC20204EB8202C3EBC30304EB8D
:10805000830392F82B101E7C8B1E9E422CD0674A05
:10806000B4F864301278E16801339BB21B2AA4F89B
:10807000643067D00025E379614A0133A2FB030233
:10808000520802EB42029B1ADBB2E37100293BD09B
:1080900014F050F8D4F89830C01AB0F5FA7F04DB29
:1080A000002345F0040584F89630D4F89030002B76
:1080B00032D12846BDE8F883E37904F11007C3EB19
:1080C000C30307EB830361B11944002213F8015B7A
:1080D0002A44994292B2F9D1D3B203EB1222FF2A79
:1080E00038D0464AB4F864301278E16801339BB264
:1080F0001B2AA4F86430BDD1424BB4F864205A80E6
:1081000004229A800025B6E794F89630002BBFD160
:10811000D4F89030002BCCD03B4A1268D31AB3F578
:10812000FA7FC6D994F86630032B04BF0023A4F865
:108130008C300023C4F890302846BDE8F883E1680D
:108140000025A3E72F4BB4F864205A8003229A80BD
:10815000002590E7E37901221C2101FB0323FA1893
:10816000FD5C5DB3012D15D1082E3CD0234AB4F837
:1081700064301278E16801339BB21B2AA4F86430A2
:108180007FF478AF1F4BB4F864205A8006229A809F
:10819000002570E7194AB4F864301278E1680133B9
:1081A0009BB21B2AA4F864307FF464AF154BB4F87B
:1081B00064205A8005229A8000255CE7192EE16828
:1081C00024D00E4AB4F86430127801339BB21B2AD3
:1081D000A4F864307FF44FAF0A4BB4F864205A809F
:1081E00006229A8047E794F89430002B40F0E9800B
:1081F0001D46E1683FE700BFD8280020F5AE00200B
:10820000ABAAAAAAF8AE002094B0002092F802C04F
:108210005578036992F8038092F804909679D7799B
:1082200092F808E00CF0070C45EA0C2508F03F082E
:1082300092F80AC01D8095784FEA481848EAD50898
:10824000957BA3F8028092F803804FEA890040EA08
:10825000981092F8058008F0010840EA882098807C
:1082600006F00F06507992F80780F60146EA5000B2
:10827000567AD8804FEA4E0E4EEAD81E06F0030614
:1082800092F80680D07A07F07F074EEA462E3F012B
:10829000567BA3F80AE047EA18171F8106F0070784
:1082A000967A92F809E0C00040EA5610167B0CF06E
:1082B0001F0C46EA072605F03F05577BD8816D0164
:1082C0004FEA8C1C45EAD7004CEA9E0CA3F80CC080
:1082D0001E825882D07B92F80EE0D77C92F81280F2
:1082E00092F811C0967C557D800040EA9E1092F86D
:1082F00010E07F000EF0010E47EAD8170CF00F0CCB
:1083000092F8108040EA8E204FEACC1C92F814E0DC
:1083100098824CEA580C907DA3F816C006F07F06B0
:1083200092F811C00EF0030E47EA4E27360146EAD6
:108330001C165F8392F814C0577D1E8305F01F053D
:10834000AD01C00045EA9C0540EA5710D8839D83E3
:10835000D57D40F2147015F0010F14BF0646AD260E
:1083600015F0020F08BFAD201E8458842B0759D486
:1083700015F0040F0CBF0125092594F86630032B76
:108380001AD194F86700137E2B4FA26E04EB4006BF
:10839000C3EB8323A7FB0373B6F86C705B09D21B96
:1083A00001301A4400F00F0084F867001009A6F8A5
:1083B0006C30A266A4F88C00204B1B68C4F8903087
:1083C00059E65378102B14D01ED8D3B994F89530B1
:1083D000E168002B7FF44EAE94F89730012B23D93F
:1083E00019B10A78303A012A1ED9002584F897502D
:1083F00041E694F895300BB984F89550012384F840
:108400009630E168002536E6303B012BF9D852F86A
:10841000010FE46091889379A1802060A3710849DD
:10842000002528E60325A8E70133012284F89730C8
:1084300084F8962000251EE61F85EB5194B000209D
:10844000D828002010B5044613F074FE514B0022CA
:1084500083F89C2093F89D20012A19D9D3F8A020F5
:1084600040F6AC51821A8A4212DD4B49B3F86420BF
:108470000978013292B21B29A3F8642005D1474A3A
:10848000B3F86410518001219180002283F89D206F
:10849000E2B27E2A27D093F89D1019B393F89D106D
:1084A0001B2956D893F8AC1000296CD0002182F01B
:1084B000200283F8AC1093F89D10022903D1012A01
:1084C00008BF83F8A420197A93F89D4093F89D0083
:1084D000C1EBC10103EB810121440130C0B2CA7379
:1084E00083F89D0010BD93F89D20012A2BD91A7A9C
:1084F0002B49DC790132A1FB02C1490801EB4101A2
:10850000521AD2B294420AD093F89D40197A1A7244
:10851000C1EBC10103EB8101621E81F82B2093F8AE
:10852000A4203AB10121002283F89C1083F8A420F2
:10853000C3F89800184A12781B2A1ED00022C3F8EC
:10854000A80083F8AC20012283F89D20C3F8A00086
:1085500010BD002283F89D200F49B3F864200978EC
:10856000013292B21B29A3F86420BBD10B4AB3F8A5
:10857000643053800223938010BDD3F8A8200749AC
:10858000821A0A80DAE77D2A95D1012283F8AC208D
:1085900010BD00BFD8280020F5AE0020F8AE0020A6
:1085A000ABAAAAAA03788B4283BF034B03EB41011A
:1085B000B1F8B00000207047D8280020044B93F891
:1085C000C80018B1002283F8C8200120704700BFFE
:1085D000D8280020F0B4C24D95F8EF6005F1CC0228
:1085E0000244B41E1444A24200F07881013A013CD6
:1085F000002341F2210112F8017F83EA07231FB211
:10860000BBB2002FACBF5B0081EA43039BB21F04E7
:1086100054BF5B0081EA43039BB21F0454BF5B005D
:1086200081EA43039BB21F0454BF5B0081EA43030A
:108630009BB21F0454BF5B0081EA43039BB21F043B
:1086400054BF5B0081EA43039BB21F0454BF5B002D
:1086500081EA43039BB21F0454BF5B0081EA4303DA
:10866000A2429BB2C7D10644B21E013E2A442E4408
:1086700092F8CC1096F8CC2002EB012292B29A42EA
:1086800001D0F0BC704795F8F020002A00F021815D
:10869000431CDBB25C1C2C442B444FF4AF6193F8B9
:1086A000CC6094F8CC3003EB06239BB201FB03F3C0
:1086B0001B1303F54873012AA5F8B03000F00981B7
:1086C000C31CDBB25C1C2C442B44022A93F8CC6004
:1086D00094F8CC3003EB06239BB201FB03F34FEA83
:1086E000233303F54873A5F8B23000F0F280431D40
:1086F000DBB25C1C2C442B44032A93F8CC6094F826
:10870000CC3003EB06239BB201FB03F34FEA233388
:1087100003F54873A5F8B43000F0DB80C31DDBB26D
:108720005C1C2C442B44042A93F8CC6094F8CC3085
:1087300003EB06239BB201FB03F34FEA233303F55C
:108740004873A5F8B63000F0C48000F10903DBB22D
:108750005C1C2C442B44052A93F8CC6094F8CC3054
:1087600003EB06239BB201FB03F34FEA233303F52C
:108770004873A5F8B83000F0AC8000F10B03DBB211
:108780005C1C2C442B44062A93F8CC6094F8CC3023
:1087900003EB06239BB201FB03F34FEA233303F5FC
:1087A0004873A5F8BA3000F0948000F10D03DBB2F5
:1087B0005C1C2C442B44072A93F8CC6094F8CC30F2
:1087C00003EB06239BB201FB03F34FEA233303F5CC
:1087D0004873A5F8BC307CD000F10F03DBB25C1C01
:1087E0002C442B44082A93F8CC6094F8CC3003EB4B
:1087F00006239BB201FB03F34FEA233303F54873CF
:10880000A5F8BE3065D000F11103DBB25C1C2C442E
:108810002B44092A93F8CC6094F8CC3003EB062360
:108820009BB201FB03F34FEA233303F54873A5F82A
:10883000C0304ED000F11303DBB25C1C2C442B443F
:108840000A2A93F8CC6094F8CC3003EB06239BB251
:1088500001FB03F34FEA233303F54873A5F8C23055
:1088600037D000F11503DBB25C1C2C442B440B2ADF
:1088700093F8CC6094F8CC3003EB06239BB201FB59
:1088800003F34FEA233303F54873A5F8C43020D02F
:1088900000F11703DBB25C1C2C442B440C2A93F828
:1088A000CC6094F8CC3003EB06239BB201FB03F3BE
:1088B0004FEA233303F54873A5F8C63009D000F119
:1088C0001903DBB25A1C2A442B4493F8CC3092F89B
:1088D000CC30012385F8C830F0BC70470023C2E6D5
:1088E000D828002070B55C4C064613F023FCD4F861
:1088F000F430C4F8F400C01AB0F5FA5F1AD90023B6
:1089000084F8F83084F8F930A12E2FD0A22E00F090
:108910009C8094F8F92094F8EF300025A2B16A1CED
:108920006119D5B2F6B29D4281F8CC6084F8F85056
:108930000CD070BD94F8F850002DE5D094F8F920D3
:1089400094F8EF30002AEAD19D42F2D194F8FA303F
:10895000052B72D0062B03D194F8CD301E2B0DD0F1
:10896000002384F8F93084F8F83070BD01221B230D
:1089700084F8F92084F8EF300025D0E76A1E002A39
:108980004FF0000150DD08460B462344013093F8B8
:10899000CC30DBB283EA0105ED074FEA530348BF51
:1089A00083F08C0383EA5105EE074FEA530348BF77
:1089B00083F08C0383EA9105ED074FEA530344BF2C
:1089C00083F08C03DBB283EAD105EE074FEA530351
:1089D00044BF83F08C03DBB283EA1115ED074FEA45
:1089E000530344BF83F08C03DBB283EA5115EE07D7
:1089F0004FEA530344BF83F08C03DBB283EA911543
:108A0000ED074FEA530344BF83F08C03DBB283EAE4
:108A1000D1155908EB0748BF81F08C01C0B248BF9F
:108A2000C9B282420346B0DC224492F8CC308B4279
:108A300096D10320FFF7CEFD92E70020FFF7CAFD95
:108A400094F8CD301E2B8BD198E70122232384F894
:108A5000F92084F8EF308FE7D828002007299DBF40
:108A6000034B03EB8101B1F8FC000020704700BF0D
:108A7000D82800201A4B93F81C2132B193F82021FA
:108A80000021A82A83F81C1101D00020704793F818
:108A90003321002AF9D110B4DFED126A03F5907189
:108AA00003F1F80003F59872B4EE047ACC780B79F0
:108AB00003EB042307EE903AF8EEE77AB0EE666A2D
:108AC000A7EE876A02318A42FCEEC67A17EE903A28
:108AD00040F8043FEAD101205DF8044B704700BF25
:108AE000D82800200080BBC310B5044613F022FB39
:108AF0000F4BD3F83821C3F83801801A41F288327D
:108B00009042E4B205D983F82041012283F83C2148
:108B100010BD93F83C219918142A81F8204103D103
:108B2000012283F81C2110BD0132D2B2EEE700BF52
:108B3000D8280020034B03EB4101B1F84001C008E5
:108B4000704700BFD8280020724B93F86021002A9C
:108B500000F0C28070B493F86141B3F8625103EB46
:108B60004401002091F8676191F8682183F8600161
:108B700042EA0622954202D0002070BC704793F86A
:108B80006521012A00F0AA80812AF6D10320102C49
:108B900040F2A68093F8694193F8675193F8681101
:108BA00093F86A2141EA052142EA04221024A3F83D
:108BB0004011A3F8422183F8614193F86B1193F8B7
:108BC0006C21032C42EA0122A3F84421D5D093F86A
:108BD0006D1193F86E21042C42EA0122A3F846217C
:108BE000CBD093F86F1193F87021052C42EA012243
:108BF000A3F84821C1D093F8711193F87221062C83
:108C000042EA0122A3F84A21B7D093F8731193F8EE
:108C10007421072C42EA0122A3F84C21ADD093F82D
:108C2000751193F87621082C42EA0122A3F84E210F
:108C3000A3D093F8771193F87821092C42EA012206
:108C4000A3F8502199D093F8791193F87A210A2C3E
:108C500042EA0122A3F852218FD093F87B1193F8B6
:108C60007C210B2C42EA0122A3F8542185D093F8F1
:108C70007D1193F87E210C2C42EA0122A3F85621A3
:108C80003FF47BAF93F87F1193F880210D2C42EADB
:108C90000122A3F858213FF470AF93F8811193F8A3
:108CA00082210E2C42EA0122A3F85A213FF465AF3B
:108CB00093F8831193F88421102C42EA0122A3F83F
:108CC0005C217FF45AAF93F8851193F8862142EA2C
:108CD0000122A3F85E2150E700207047104656E7B6
:108CE000002C3FF44AAF93F8671193F86821012CE8
:108CF00042EA0122A3F840213FF43FAF93F8691103
:108D000093F86A21022C42EA0122A3F842217FF45F
:108D100054AF32E7D828002038B5044613F00AFAD9
:108D2000444AD2F88C31C31AB3F57A6F16D892F848
:108D30009031C2F88C01B3B1022B1FD0242B92F8D2
:108D4000611175D901330231DBB249008B4282F8DF
:108D500090311BDB01318B4263D038BD0023C2F858
:108D60008C0182F89031A82CF7D1002382F8603171
:108D7000A2F8623192F86111204603E0E0B282F875
:108D800061010146D51885F86401DBE7B2F862316C
:108D9000E4B283EA042424B2002CB8BF41F22101DA
:108DA000A3B2B4BF81EA43035B009BB21C0446BF7D
:108DB00041F2210181EA43035B009BB2180446BFE4
:108DC00041F2210181EA43035B009BB2190446BFD3
:108DD00041F2210181EA43035B009BB21D0446BFBF
:108DE00041F2210181EA43035B009BB21C0446BFB0
:108DF00041F2210181EA43035B009BB2180446BFA4
:108E000041F2210181EA43035B009BB2190446BF92
:108E100041F2210181EA43035B009BB2A2F8623177
:108E200038BD0021012382F8901182F8603138BDED
:108E3000E0B2A7E7D8280020F8B5134D95F8A9218E
:108E40000AB90120F8BD114B1C6823685E6A46B15F
:108E5000204605F5CA71B047002385F8A9310120E5
:108E6000F8BD05F5CA77BE1800E023689B68204668
:108E700098470028F9D0236817F8011B1B68204683
:108E80009847B742F1D1E7E7D8280020F0750020D5
:108E900003788B4210D9094B03EB810193F8DC3145
:108EA000D1F8AC011BB900F5777080B2704740086B
:108EB00000F5777080B2704700207047D8280020F6
:108EC0002DE9F84313F036F9CD4C054694F8DD0151
:108ED00080B9042294F8A93153B1D4F800323BB1DF
:108EE000ED1AB5F57A7F03DB00231046C4F8003293
:108EF000BDE8F88394F8DE11002384F8DD31002901
:108F000000F0308194F8E031BE4F94F8F0215BB26C
:108F100013F1630FB8BF97F90030002A41D013F165
:108F2000310F80F2B18113F1380F80F2B18113F16A
:108F30003D0F80F2B18113F1420F80F2B18113F144
:108F4000450F80F2B18113F1470F80F2B18113F127
:108F5000490F80F2B18113F14A0F00F0B18113F192
:108F60004B0F00F0B08113F14C0F00F0B08113F102
:108F70004D0F00F0AF8113F15C0FB8BF642680F293
:108F80004981D4F8F401DFF888C200FB06F08CFBBD
:108F900000C6C017C0EB661004EB820680B2C6F8AC
:108FA000AC013B7094F8EC7194F8ED3194F8EE015B
:108FB00094F8EF611B0443EA0763334343EA002359
:108FC00003F0F020B0F1E02F00F0C380102794F8F8
:108FD000040294F8E231D4F8086294F80CC23678AE
:108FE000034103F00F039E4210D90B2B0ED8002A29
:108FF00040F0F38094F8E28194F8E3E104EB83031A
:109000000CEA08080EEB082EC3F8ACE194F8E43142
:10901000034103F00F039E4210D90B2B0ED8002AF8
:1090200040F0DF8094F8E48194F8E5E104EB8303F9
:109030000CEA08080EEB082EC3F8ACE194F8E63110
:10904000034103F00F039E4210D90B2B0ED8002AC8
:1090500040F0CB8094F8E68194F8E7E104EB8303D9
:109060000CEA08080EEB082EC3F8ACE194F8E831DE
:10907000034103F00F039E4210D90B2B0ED8002A98
:1090800040F0B78094F8E88194F8E9E104EB8303B9
:109090000CEA08080EEB082EC3F8ACE194F8EA31AC
:1090A000034103F00F039E423ED80D2F32DD94F8AA
:1090B000EC31034103F00F039E4210D90B2B0ED865
:1090C0000AB19A420BD094F8EC8194F8EDE104EBEC
:1090D00083030CEA08080EEB082EC3F8ACE1102F4E
:1090E00018D194F8EE3143FA00F000F00F008642F8
:1090F00010D90B280ED80AB190420BD094F8EE216B
:1091000094F8EF3104EB800002EA0C0C03EB0C2323
:10911000C0F8AC31D1B194F8E2311B0616D4C4F8D2
:10912000005205220120D5E60B2BBED80AB19A4287
:10913000BBD094F8EA8194F8EBE104EB83030CEAEA
:1091400008080EEB082EC3F8ACE1AEE705220120BB
:10915000C0E694F8E20100063FF538AF2A480C2734
:10916000036034E712F0E6FF2649284B4A78A3FB58
:1091700000035B0C12B394F8E00194F8E121D2B241
:10918000122A18BF012A08D002F0EF02A2F1A202AF
:10919000B2FA82F2520902B94A70D4F8F81194F87E
:1091A000F02199B18B4228D0591A012956D094F850
:1091B000DE11A4F8FC01C4F8F831F3E694F8E021DC
:1091C00094F8E10100EB022080B2E6E7A4F8FC018C
:1091D000C4F8F83194F8DE11E4E693427FF40AAF64
:1091E00014E793427FF41EAF28E793427FF432AF37
:1091F0003CE793427FF446AF50E794F8DE11D1E6A6
:10920000D828002000000020641F002083DE1B43BC
:109210001F85EB516FF05B080C26304806F1FF39D3
:1092200000EB490E00EB46069EF801E096F801C0FF
:1092300010F91960ACEB0E0C981B00FB0CF0A8EBBE
:10924000060690FBF6F0704440B2002801DA0026D2
:1092500097E66428A8BF6420064692E6002AA6D0B6
:10926000B4F8FC61D4F8F4111D4F861B143E01FBC9
:1092700006F187FB0176C917A1EBE60104EB820634
:1092800089B2C6F8AC1192E76FF030080126C4E746
:109290006FF037080226C0E76FF03C080326BCE7F2
:1092A0006FF041080426B8E76FF044080526B4E7DC
:1092B0006FF046080626B0E76FF048080726ACE7CF
:1092C00098460826A9E76FF04A080926A5E79846B8
:1092D0000A26A2E798460B269FE700BF48AF04087E
:1092E00067666666344B5B68C3F3080370B4CBB93A
:1092F000EFF31183B3B9314A314E324D1368AC6884
:1093000011688B42FAD131688C42F7D82E4A156821
:109310004FF47A7101FB05F2141BB4FBF5F401FB69
:10932000034321E0EFF31181102383F3128803F14B
:10933000E023C9B29D681A6812F4803F234A1EBF19
:10934000012414609D681D4B1E68136881F3118809
:109350001D4A14684FF47A71334401FB04F2521B26
:10936000B2FBF4F201FB0323194AD2F81012C2F83F
:1093700010325B1A41F288318B420AD9C0B2012304
:1093800082F8E00182F81432002382F8DD3170BCEB
:10939000704792F814320F2BF9D8D1180133DBB291
:1093A000C0B2102B81F8E00182F81432ECD1012315
:1093B00082F8DD3170BC704700ED00E094B0002011
:1093C0008CC0002010E000E088C0002084C0002095
:1093D000D8280020036933F8110000EB8000C0108A
:1093E00000F55C7080B27047436993F82320002A2F
:1093F00000F0CF802DE9F0477B4ADE7D1278002116
:109400001A2A06F0040506F0080483F8231000F079
:10941000C280002D40F0CC80002C40F0D980254641
:1094200093F802A093F8068093F801E00269DF78D0
:1094300093F8049093F807C00AF0070008F00F01B2
:109440004FEAC1184EEA002107F03F07187A118051
:10945000997893F805A093F80AE07F0147EAD107CD
:10946000D97857804FEA890949EA9119997B0AF01E
:10947000010A01F03F014F0149EA8A21918059799F
:1094800048EA5101D1800CF07F0C997993F807805C
:109490004FEA0C1C4CEA111C597AA2F808C0400093
:1094A00040EAD81001F0030140EA412093F80DC0D2
:1094B000D97A50810EF01F0E587A4FEA8E1E4EEA6E
:1094C00090009081187B93F80AE00CF0070C40EABA
:1094D0000C20C90093F80DC0108241EA5E11D181C1
:1094E00047EADC01518293F80FE093F80E80597C33
:1094F000DF7C93F812C0587D4FEA8E0E4EEA981E1C
:1095000093F8108008F001084EEA882E01F00F0150
:1095100093F81280A2F814E093F810E07F00C901DC
:1095200041EA5E0147EAD81793F814E093F81180F6
:10953000D1820CF07F0C4FEA0C1C997D0EF0030ECB
:109540004CEA181C47EA4E2716F0010F93F814E076
:10955000A2F818C000F01F0093F815C0578340F21E
:10956000147314BF1F46AD278001C90016F0020F07
:1095700040EA9E0041EA5C1108BFAD239083D1838D
:10958000178453840CBB002D0CBF01200920BDE8BB
:10959000F0871046704715491F8C0E8075B147F053
:1095A00002021A8412B274B147F003021A8409E06D
:1095B0001A8C94B942F002021A8431E78CB147F058
:1095C00001021A8412B24A802AE70320BDE8F0871C
:1095D0001A8C42F001021A8422E742F003021A8434
:1095E0001EE73AB22546EEE7F5AE0020F8AE0020C1
:1095F0003B4B5B68C3F30803F0B42BBBEFF3118361
:1096000013BB384A384F394E1368B5681468A34203
:10961000FAD13C68A542F7D8354A16684FF47A74F7
:1096200004FB06F2551BCA69B5FBF6F504FB0353B0
:109630009A1A40F6AC54A2422EDC91F8224074B340
:10964000182C38D9F0BC7047EFF31184102383F342
:10965000128803F1E023E4B29E681A6812F4803F96
:10966000244A1EBF012515609E681E4B1F681368A3
:1096700084F311881E4A15684FF47A7404FB05F2CE
:109680003B44921BB2FBF5F204FB0323CA6940F68C
:10969000AC549A1AA242D0DD002281F822200F2871
:1096A000D0D10122CB61087081F82220002381F8FB
:1096B0002330F0BC7047631CDBB2192B81F82230D9
:1096C0000855F3D10C4B1B781A2B08BF0B4B4FF0EE
:1096D000010081F8230008BF9A80F0BC704700BFEA
:1096E00000ED00E094B000208CC0002010E000E00D
:1096F00088C0002084C00020F5AE0020F8AE002015
:10970000094BDFED0A6ADFED0A7A03EB810191ED87
:10971000867AB8EE477AE7EE267AFCEEE77A17EE1D
:10972000903A98B2704700BFD828002001F11F3F3F
:1097300000405C44714A92F8583233B192F85E327C
:109740000021162B82F8581201D00020704792F8A1
:109750005D32022BF0B440F2CE8002F5177018444F
:1097600002F25E21D32311F8014F634013F0800F02
:109770004FEA430318BF83F0D503DBB213F0800F29
:109780004FEA430318BF83F0D503DBB213F0800F19
:109790004FEA430318BF83F0D503DBB213F0800F09
:1097A0004FEA430318BF83F0D503DBB213F0800FF9
:1097B0004FEA430318BF83F0D503DBB213F0800FE9
:1097C0004FEA430318BF83F0D503DBB213F0800FD9
:1097D0004FEA430318BF83F0D503DBB213F0800FC9
:1097E0004FEA430318BF83F0D5038842DBB2BAD1F6
:1097F00092F87512994202D00020F0BC704792F89E
:10980000640292F8636292F8681292F86C3292F8ED
:10981000704292F86052B2F860C2D2F8607200F002
:109820000F00C00140EA560001F01F0192F8676284
:10983000C2F82402890141EA960103F03F0392F83D
:109840006B6292F86F02C2F830125B0143EAD603F2
:1098500092F85F12C2F83C3204F07F04B2F864322E
:10986000D2F86462240105F0070544EA101041EAC9
:109870000521C3F30A13C2F84802B2F86852C2F8CD
:109880001812B2F86A42D2F86C02B2F86E12C2F83C
:109890002832D2F87032C0F38A10C1F34A01C3F300
:1098A000CA13CCF3CA0CC7F38A37C6F3CA366D099C
:1098B000C4F30A04C2F84002C2F84412C2F81CC23F
:1098C000C2F82072C2F82C62C2F83452C2F8384290
:1098D000C2F84C3292F8743292F87302B2F87212F3
:1098E000DB0043EA5013C1F38A01C2F85432C2F8D4
:1098F0005012012081E7D3237AE700BFD828002047
:10990000F8B5674B1C68E707054616D5654B93F815
:109910009C2293F89D1291423BD1D3F8A022AA42F7
:1099200002D8614A00211170D3F8C002281A002819
:1099300021DD012083F8C402F8BD14F4005449D19C
:109940005A4883689847C6071CD5594A554BC0F3F7
:10995000400110F00A0F917093F866202AD0052A72
:109960006BD04207D9D5012283F8C522D3F8A022B3
:10997000AA42D9D8D5E793F8C4020028DCD193F8DD
:10998000C502F8BD4107474BC7D5012283F8C52260
:10999000ECE7D3F8A402464C434983F89D222844BF
:1099A00001220025C3F8A0020120A5700A7083F8E7
:1099B000C402C1E7D3F8A412052A0D44C3F8A0528B
:1099C00051D0400767D4384A01210120117083F833
:1099D000C402B1E7334BB3F8A82212BBB3F8AA22F2
:1099E000FAB9B3F8AC22E2B9B3F8AE22CAB9B3F807
:1099F000B022B2B9B3F8B2229AB9B3F8B42282B99C
:109A0000B3F8B6226AB9B3F8B82252B9B3F8BA2299
:109A10003AB9B3F8BC2222B9B3F8BE22002A3FF407
:109A20007CAFD3F8A42222481F492A440024C3F85B
:109A3000A022012284700A7076E793F86720996E5D
:109A400003EB42060132B6F86C70A6F86C40C91BF5
:109A50000C0902F00F02A3F88C40440783F867203A
:109A6000996680D459E793F867109A6E03EB410426
:109A700002F2FF32B4F86C500131521B01F00F01B9
:109A800040F2FF3583F867101109A4F86C509A660C
:109A9000A3F88C1095E7012283F8C52293E700BF55
:109AA00078D20020D82800203D410020BC5700205B
:109AB0000000002000207047002070470120704700
:109AC000024B03EB4101B1F8C8027047D8280020CF
:109AD000044B93F8EC0218B1002283F8EC22012029
:109AE000704700BFD8280020024B03EB8101B1F87A
:109AF000F0027047D828002003788B4283BF034BC5
:109B000003EB4101B1F8280300207047D82800205A
:109B100038B5394C054612F00DFBD4F87C33C4F847
:109B20007C03C01AB0F57A7F1CDD0023282284F85C
:109B3000803384F8823384F8833384F881233D2D85
:109B400042D03E2D0DD12D4AC4F88423012384F840
:109B500082330123157084F8803394F881239A426C
:109B600020D038BD94F88023002AE8D0531CDBB203
:109B7000D4F8841384F88033062B8D54EDD194F8F7
:109B80008233012B27D094F88333012B27D0002375
:109B9000282284F8803384F8823384F8833384F86D
:109BA000812338BD94F88233012B04BF022384F84B
:109BB000823394F88333012B15D00022282384F8B4
:109BC000802384F8813338BD0D4AC4F884230123EF
:109BD00084F88333BDE78B78282BD4D8F1E78B78D2
:109BE000092BD4D8EDE7022384F8833312F0A2FACC
:109BF000C4F88803E1E700BFD82800202C2C0020FF
:109C0000202C002030B40246002305251E2400E04D
:109C10000232032BD4BF0021012100F813100133BD
:109C2000042B04D0122B5470F2D130BC7047557005
:109C3000EEE700BF024B036043608360C360704780
:109C4000E803D007024B03EB4101B1F8A8027047CB
:109C5000D8280020024B03EB4101B1F8A80270475D
:109C6000D828002030B4264C94F88233022B02D03E
:109C7000002030BC704794F85653EDB1013D04F21A
:109C8000553353FA85F504F55570002210F8013B61
:109C9000534083EA0313DBB2120AD90042EA0322DB
:109CA000854281EA131382EA0302EFD122B1002038
:109CB00084F8820330BC7047B4F854335BBA9BB26B
:109CC00043F60162934209D043F60362934205D002
:109CD000002384F88233012030BC7047094AA2F186
:109CE0002E0102F12005D0799379023203EB002393
:109CF000C3F3CC03AA4221F8023FF4D1E8E700BF46
:109D0000D82800202C2C0020504B5B68C3F308039C
:109D100070B4CBB9EFF31183B3B94D4A4D4E4E4DEC
:109D20001368AC6811688B42FAD131688C42F7D85D
:109D30004A4A15684FF47A7101FB05F2141BB4FB13
:109D4000F5F401FB034321E0EFF31181102383F3CA
:109D5000128803F1E023C9B29D681A6812F4803FAB
:109D60003F4A1EBF012414609D68394B1E6813686A
:109D700081F31188394A14684FF47A71334401FB36
:109D800004F2521BB2FBF4F201FB0323354AD2F872
:109D90008C13591AB1F5FA7F14D90021C2F88C330B
:109DA00082F8901382F89113C3B2042B26D0202B93
:109DB00024D092F8941309B9552838D0814216D18D
:109DC000002109E092F8911399B992F89013C2F822
:109DD0008C33C3B20029E8D092F8920354180138AA
:109DE000814284F89C331DD0013182F8901370BCFD
:109DF0007047013982F8911370BC7047002102242A
:109E00004FF6FF7082F89843A2F896035418581E34
:109E1000814282F8943382F8923382F8931384F863
:109E20009C33E1D1012382F8BC3370BC704701241C
:109E30001F2582F89403A2F8961382F89C3382F8C7
:109E4000934382F8984382F89253CDE700ED00E007
:109E500094B000208CC0002010E000E088C00020FA
:109E600084C00020D82800200D49B1F8BD3330B59A
:109E700008224AF2010580EA030414F0010F4FEAB8
:109E8000530318BF6B4002F1FF3218BF9BB212F0B0
:109E9000FF024FEA5000EED1A1F8BD3330BD00BF44
:109EA000D828002008461FF057BB00BF0FB400B5EC
:109EB00083B004AB054953F8042B0193002029F02B
:109EC00025F803B05DF804EB04B07047A59E0008C8
:109ED000F8B50F4BD3F8C053D3F8C443D3F8C863D5
:109EE000A9B1831E00EB410727441E4404441D44CE
:109EF00034F9022B36F9023F35F9020F134403EB14
:109F0000D373A0EB63001FF00EFCA742F0D1F8BDA5
:109F1000D8280020F8B5254C3C22002120463FF0EF
:109F200017FC234B234AB3F86010D67817792184A5
:109F300010330FCB04F10805102E84F8247085E847
:109F40000F0009D801231C48B340184020B90EB9AE
:109F50003046F8BD012EFCD0184A19491368194E35
:109F6000216043F002034FF48071174D0F481360D6
:109F70006560218327F056FAB6F8CC334FF47A7235
:109F8000A26283B106F5747506F23C47B6F8CC338D
:109F9000A16A00EE103A2846B8EE400A243529F0AE
:109FA00083FAAF42F2D10120F8BD00BF180B0010B8
:109FB000540B001030DD0020011D010050DD002099
:109FC00025140308D8280020F51303082DE9F04FC5
:109FD0002DED068BC84EDFF8BC93B37D012B8FB0FF
:109FE00000F0D383022B0CBF0723002389F8003035
:109FF0007379C24CDFF8A083F27988F83D240033EE
:10A0000018BF0123202284F865302320002384F820
:10A01000692084F8623088F83C3412F04BF9B84A71
:10A02000A369626102222274002B00F0D6841420FE
:10A03000A36111F0DDFB98F83E54E061002D00F0C3
:10A040005D83B04F94F86030E26DC8F840240D2B6A
:10A0500040F04483AC49F2780B68AC48206043F090
:10A0600001030B604FF07E53A9492362012A4FF090
:10A070000F03E16584F86B3040F2BE8300239FED4F
:10A08000A57A84F86330012307EE903AF8EEE77A78
:10A09000A14D3179994884F8662067EE877A013BB3
:10A0A000FCEEE77A84F86830C5ED007A84F8671032
:10A0B0002BF02EFA002318463289F17D84F86A309D
:10A0C0002FF06CF97289317EDFF8D08201202FF0F9
:10A0D00065F9B2892968914BB3FBF1F39342C4F857
:10A0E0009881F08980F0748483422BD99AB248B366
:10A0F00007EE900A07EE102AF8EE677AB8EE478A64
:10A1000027EEE77A68EE277AA8EE087A844B85482E
:10A11000C4F89831C7EE878AB0EE480AF0EE680AB4
:10A120002EF006F9F0EE680AB0EE480A29687E487B
:10A130002EF0FEF8F0EE680AB0EE480A29687B4877
:10A140002EF0F6F8328A2968744BB3FBF1F3934290
:10A15000C4F80882708A80F0368483422BD99AB280
:10A1600048B307EE900A07EE102AF8EE677AB8EEC9
:10A17000478A27EEE77A68EE277AA8EE087A684BD6
:10A180006B48C4F80832C7EE878AB0EE480AF0EE92
:10A19000680A2EF0CDF8F0EE680AB0EE480A296899
:10A1A00064482EF0C5F8F0EE680AB0EE480A296857
:10A1B00061482EF0BDF8614BC4F878821B689B00A3
:10A1C0001AD55F4BDFED5F0A29689FED5F0A5F4894
:10A1D000C4F878322EF0ACF8DFED5A0A29689FED0A
:10A1E0005A0A5B482EF0A4F8DFED560A29689FED65
:10A1F000560A58482EF09CF8D5F800A09FED560A54
:10A2000007EE90AAF8EE677A032580EE270A3FF062
:10A21000B5FB40F2355390FBF5F59D42A8BF1D46B6
:10A220001FFA85F84FEA58034FEA980BA9F8103047
:10A23000A9F80480A9F808B007EE908A9FED477A44
:10A24000DFED476AF8EE677A87EE270A67EEA67AAF
:10A25000B7EE087A30EE470AC9ED037A3FF08EFB7D
:10A260000128B8BF01203F499FED3F5ADFED3F5A1B
:10A27000DFED3F3A9FED3F2ADFED3F2A9FED3F3A6A
:10A280009FED3F1ADFED3F1ADFED3F6A89F81400BA
:10A29000002307E00133F6EE007A202BE1EC017A8F
:10A2A00000F0AB8007EE903AB8EEE77A27EE057A39
:10A2B00077EE257ABDEEE76A16EE102A2032402AA4
:10A2C000E8D8B4EEE57AF1EE10FA40F3AB829FEDF8
:10A2D0002F6A01E0F0EE477AF4EEC67AF1EE10FA5A
:10A2E00037EEE67AF6DCB4EEE37AF1EE10FA40F1FE
:10A2F00096829FED276A55E044B10020540B001070
:10A30000003001400000002050DD002011550308FE
:10A310004123030800007A44E011001020A1070047
:10A32000A1110308F00C0010140D0010380D0010DE
:10A33000600D0010840D0010A80D001078D20020D0
:10A34000E911030885F99D410000C843D00D0010B4
:10A35000F40D0010180E001000247449000034455C
:10A360000000003D200000103C8C4F3EDB0FC93F39
:10A37000DB0F49C092E741B99730083C15A82ABEC7
:10A38000DB0FC9BFDB0F4940DB0FC940E4CB1641EF
:10A39000E4CB16C108000010D8280020551203088D
:10A3A000B0EE677AB4EEC67AF1EE10FA77EE267A5E
:10A3B000F6D4F4EEE57AF1EE10FA40F3288271EE6D
:10A3C000E77A27EEA76AB0EE624AA6EE024A0133A8
:10A3D000202BF0EE430AE4EE060AB7EE007A66EEB2
:10A3E000674A77EE677AB6EE007AE4EEA07A67EE17
:10A3F000877AE1EC017A7FF455AFB17FA4F810358C
:10A4000006EE901A0C2303FB0AF3E24A9FEDE25A90
:10A41000B2FBFAF1F8EEE66AB2FBF5FA9A4538BFFC
:10A420009A4685EE261A89B2B1FBF8F1C9B292FBC1
:10A43000F5F3F07F84F8F912D84AA2F5437606EED8
:10A4400090AA07EE901AB8EE665AF8EEE75ABCEEFC
:10A45000C55AF7EE004ADFEDD21ADFEDD20A9FEDC2
:10A46000D24A9FEDD27A9FEDD28A9FEDD26A9FEDBC
:10A47000D23ADFEDD23A9FEDD22ADFEDD22A84EE36
:10A48000A50AB8EE455A05EE903A25EE215A07EE98
:10A49000900AF8EEE55A06EE90BA65EEA05AF8EE8C
:10A4A000666AF8EEE77A75EE040A65EEA65A77EE6C
:10A4B000677ABDEEE07A75EE841A17EE10EABDEE0B
:10A4C000C57AC14BC4F8083517EE10CABDEEE17A63
:10A4D00003F1280117EE105ABDEEE57AA833C4F84F
:10A4E000143517EE100A102367EE887AA4F80035A9
:10A4F0001423A4F80C35C4F80415A2F55E730EF10C
:10A50000200E0CF1200C84EDBF0A20352030C9ED5F
:10A51000267AC821402822F8021B00F2DA81F4EEE4
:10A52000C35AF1EE10FA40F36482B0EE657A9FED03
:10A53000AD0ADFEDAB6A01E0B0EE677AB4EEE67A21
:10A54000F1EE10FA77EE407AF6DCF4EEE37AF1EE13
:10A5500010FA40F151829FEDA30ADFEDA36A01E0FA
:10A56000F0EE477AF4EEE67AF1EE10FA37EE807A02
:10A57000F6D4B4EEC47AF1EE10FA40F3068233EE6C
:10A58000477A67EE076AB0EE628AA6EE828A402DAD
:10A59000DFED967AE8EE267A27EE260AA0EE277AF5
:10A5A00067EE016A36EEA49A34EEE60AC4EE897AC2
:10A5B00066EEA76A20EE270AF1EE669A40F29481D1
:10A5C000B0EE467ABCF1400FC3ED006A83ED016A3C
:10A5D000C3ED029A83ED037A83ED040A83ED066AE4
:10A5E00083ED056A83ED086A83ED076A00F21D8139
:10A5F000B4EEC35AF1EE10FA40F3F881B0EE457AAA
:10A600009FED780ADFED766A01E0B0EE677AB4EE8E
:10A61000E67AF1EE10FA77EE407AF6DCF4EEE37AC1
:10A62000F1EE10FA40F1DF819FED6E0ADFED6E6A08
:10A6300001E0F0EE477AF4EEE67AF1EE10FA37EE4A
:10A64000807AF6D4B4EEC47AF1EE10FA40F3938136
:10A6500033EE477A67EE077AB0EE628AA7EE828A17
:10A66000BEF1400FDFED616A9FED580AE8EE276A00
:10A6700067EE277AB0EE648AA7EEA67AF0EE647AE7
:10A68000A7EE008AE7EE407AC7EE888A40F2D580CE
:10A69000B0EE467AF6EE006AB7EE000AC4EE887AAB
:10A6A0002433C3EDBE8A66EEA76A20EE270A67EE62
:10A6B000277AC3EDBA6AC3EDBC6A83EDBB0AC3ED6A
:10A6C000BD7A83EDC06A83EDBF6A83EDC26A83ED14
:10A6D000C16A9E427FF41DAF012002E0002084F891
:10A6E0006B00BB7923B194F86A30003318BF0123A3
:10A6F000BB710FB0BDEC068BBDE8F08F2CF068F994
:10A7000010B12023C5718371402114F061FE6420D3
:10A7100011F062FDA06918B11C2200238271C3717F
:10A72000092114F055FEA069294FDFF8ACA014F000
:10A73000F1FE012388F83E344FF0000B254B052530
:10A740001C60002301AA792150462AF01FFE28B17F
:10A75000BDF80C30BB80BB88692B12D8013DF0D10D
:10A760000BF1010B42F20F73BBF1030FBB803FF4FF
:10A7700069AC2BF079F8C82000FB0BF011F09AFDC2
:10A78000DCE70D2384F860305CE4042389F80030B2
:10A790002EE400BF40420F0000004842D8110010D4
:10A7A000E5A6C53927D4D236DB0FC93F0000C84221
:10A7B0000AD7233C00000000DB0F4940DB0F49C0F3
:10A7C00092E741B99730083C64AF0408F304353F81
:10A7D00000000020B8B10020540B00100000FA4225
:10A7E000E4CB1641DB0FC940E4CB16C115A82ABE45
:10A7F000DB0FC9BF0000FA41B179B378002940F0FE
:10A800000181032184F863101FED0C7A3CE4F4EE1F
:10A81000C17AF1EE10FA48BF73EEE77AD1E5F0EEB7
:10A82000477AC6E5B0EE677A5DE5F7EE008ABEF1DD
:10A83000400FB0EE688A3FF62BAFB4EEC45AF1EE8B
:10A8400010FA40F3E680B0EE607A1FED1A0A5FED71
:10A850001C6A01E0B0EE677AB4EEE67AF1EE10FA27
:10A8600077EE407AF6DCF4EEE37AF1EE10FA0FD5EB
:10A87000B0EE677A1FED250A5FED256A01E0B0EEC4
:10A88000677AB4EEE67AF1EE10FA77EE807AF6D4D3
:10A89000F4EEC47AF1EE10FA40F38B8073EE677A2F
:10A8A00027EEA77AB0EE629AA7EE029A5FED316AC0
:10A8B000E7EE096A27EE270AB8EE007AE0EE267A7C
:10A8C000F6EE006A34EEE70A27EE877A60EE266A33
:10A8D000E4E6B7EE000A402DB0EE409AF0EE469A5C
:10A8E000F0EE466A3FF66CAEF4EEC45AF1EE10FAA2
:10A8F00040F38580B0EE617A5FED468A1FED488AAD
:10A9000001E0B0EE677AB4EEC87AF1EE10FA77EEB5
:10A91000687AF6DCF4EEE37AF1EE10FA0FD5B0EED9
:10A92000677A5FED508A1FED508A01E0B0EE677ADA
:10A93000B4EEC87AF1EE10FA77EEA87AF6D4F4EE17
:10A94000C47AF1EE10FA2ADD73EE677A27EEA77A61
:10A95000B0EE62AAA7EE02AA1FED5C8AAAEE078AF1
:10A9600067EE878AB8EE007AE8EE887A67EE877A33
:10A9700087EE897A26E65FED627AB4EEE77AF1EE49
:10A9800010FA48BF33EEC77A64E65FED677AB4EE3B
:10A99000E77AF1EE10FA48BF33EEC77AF1E51FED22
