:020000040800F2
:10000000F0FF0010C98F04083D8B020855A90008B5
:100010009190040891900408919004080000000059
:10002000000000000000000000000000498B0208F2
:10003000458B020800000000418B020881A20008E5
:1000400091900408919004089190040891900408FC
:10005000919004089190040825B0000851B100085F
:1000600015B10008D9B000089DB0000865950308D7
:100070005595030845950308359503082195030810
:100080000D950308F99403089190040891900408D1
:1000900091900408919004089190040861B00008C0
:1000A00091900408D199000891900408919A000851
:1000B000919004089190040811990008119B03087D
:1000C000199B0308059B03080D9B030891900408E6
:1000D0009190040831A5000895A40008F9A3000830
:1000E000E9AF00089190040811DA0208C5960008EB
:1000F000919700089190040851980008E59403082E
:10010000919004089190040891900408919004083B
:100110005DA30008C1A2000861F002084DF00208CA
:10012000D1940308BD940308C98D0308A99403085A
:100130009594030891900408919004089190040804
:1001400091900408919004089190040885A30208F6
:10015000819403086D94030859940308919004084E
:10016000F99A0308019B03089190040891900408F0
:1001700091900408919004089190040891900408CB
:100180009190040891900408708B04000100000015
:100190001A023C0080280020302A002000000000C5
:1001A000A95C0308270004007C2800206C2A00209A
:1001B00000000000F4060008F8210600122F0020BD
:1001C000B438002000000000F806000803123300D5
:1001D000F0300020F437002000000000FE06000888
:1001E00025009600B83600204E37002000000000A1
:1001F00000000000F6210C00D4340020343600202A
:10020000000000003407000815007000E0340020F2
:10021000C435002000000000000000002A0060003B
:100220002C2F00206435002000000000A9F90308ED
:100230002C00100050350020E437002000000000A2
:10024000711901082B0024004B38002027380020AA
:10025000000000004119010829107800E033002057
:1002600040360020000000000000000028101000B0
:100270000C330020BC3800200000000019FD0008ED
:1002800014000300F8320020603500200000000058
:10029000400700080E502001CA490020E05100200C
:1002A00000000000D1F9030813000400CC4E002028
:1002B0000053002000000000440700080101040072
:1002C0004649002004530020000000000000000008
:1002D000000104003E4900200853002000000000F7
:1002E0004807000802010300394900200C53002090
:1002F00000000000E9E102080902010004510020A9
:1003000010530020000000004C0700080C106C0087
:10031000224B00201453002000000000C1E102081D
:10032000010205004E49002080530020000000001B
:10033000FD94010800020500504E00208853002063
:1003400000000000000000001B020800D850002040
:100350009053002000000000A9530308012008006A
:10036000C84F002098530020000000004E070008EE
:10037000190005006C500020A05300200000000070
:100380005607000837001E0044500020A8530020E4
:10039000000000005C0700081E000500104C002053
:1003A000C8530020000000007A0700081B00F4007A
:1003B000D8380020D053002000000000B1A501086B
:1003C0000E020200604F0020C45400200000000014
:1003D000800700082F001100C0510020C8540020E1
:1003E000000000008207000816000800EC540020FE
:1003F000B057002000000000940700080510060018
:10040000B06D002098720020000000009C070008DA
:10041000F5317000106D0020A07200200000000077
:10042000A59F010826000E002073002010730020F5
:1004300000000000897E02080B201000306A0020B6
:100440005473002000000000A20700081F201C00B9
:10045000806100206473002000000000B2070008E3
:1004600005020400D86C002080730020000000000A
:10047000CE07000803010A00E86900208473002009
:1004800000000000D207000813020300E85F00200C
:100490009073002000000000DC0700080702020043
:1004A00084860020C886002000000000E0070008C5
:1004B00002000C0058860020CC86002000000000BE
:1004C0000000000006020C004C860020D8860020A8
:1004D00000000000015B030808120900D08500201D
:1004E000E48600200000000009540308F70106001C
:1004F000CA850020F086002000000000E207000806
:100500000A020A0010850020F88600200000000082
:10051000E807000803000100C085002004870020D0
:10052000000000000000000010020100A890002060
:10053000A490002000000000F207000804008000E2
:10054000B0D6002068D700200000000000000000A6
:100550002300100068D60020E8D70020000000002B
:1005600031FD00080D003400C8D50020F8D7002068
:100570000000000049E30208FD011E0004CD002038
:100580002CD80020000000006181000818202C00F9
:10059000D4CC00204CD80020000000009D5A030855
:1005A0000610180030C0002078D80020000000009D
:1005B0002DFA0308FB0101002CC0002090D8002078
:1005C00000000000715A0308FC010900F8BE002079
:1005D00094D8002000000000815A03083400100065
:1005E00020BE0020A0D800200000000001FA03086F
:1005F00011020800F8BD0020B0D800200000000063
:10060000F407000812120400F0BD0020B8D8002042
:1006100000000000FC07000812200D00E0BD0020D3
:10062000BCD800200000000000080008F901040008
:1006300084B80020CCD8002000000000D981000838
:100640001802020088B20020D0D80020000000006C
:100650000000000017020B007CB20020D4D800205C
:1006600000000000C5530308FA01020058B2002040
:10067000E0D80020000000002D550308020203000E
:1006800094AF0020E4D8002000000000000000002B
:100690000C02030050AF0020E8D80020000000004A
:1006A000B5530308FE0109002CB20020ECD800204D
:1006B00000000000415403080A403200D4B1002079
:1006C000F8D80020000000000E08000810100200FA
:1006D0008CDC002094DC00200000000040080008B2
:1006E0001A000E0024DB002098DC0020000000002F
:1006F00042080008200300000201F4011900000074
:1007000000000000000000000000000000000000E9
:1007100000000000000000000000000000000000D9
:1007200000000000000000000000000000000000C9
:1007300001000000000000000100000002020000B3
:100740000300000008044430FA0000000000E80341
:100750006400040A000100002801000020003200AB
:10076000C800D0079600140032002800B0044006EC
:100770000005500014000F000801000001000000F7
:100780000000000000000000000000000000000069
:1007900000000000C4090000190128282000010100
:1007A00000002B21231E64010100000001000A014A
:1007B0002900000000000001000000050000010207
:1007C0000300000000000000000000000000000026
:1007D0000000040101006C16000000000000000091
:1007E000023C3F010000000000004A01B400D601B5
:1007F000260000000000000001010101FFFFFFFFD3
:100800000000000100000548455350000000003082
:1008100001000000010000000000000000000000D6
:1008200000000000020000019E077D000000200083
:100830000100B80BB80BB80B20005000500050005E
:1008400000057E05EA05B4053200E803D007000084
:10085000FF000000D6010000510B0108000000005D
:1008600000000000010000000001010100006A001A
:1008700001FFFF00FFFFFFFF01000000000001007B
:10088000E001010101000000D19801080000000012
:10089000AC0100203C410508000000000000000001
:1008A0000000000000000000803605080000000085
:1008B000000000004202002004000000E84005089B
:1008C0000D0000004DC30108A41C00200000000022
:1008D0002C3A05080D00000075C30108981C002083
:1008E00000000000943B0508080000000000000024
:1008F0008C1C002004000000983A05080D00000040
:1009000085990108801C002000000000483B050874
:100910000300000069C50108741C002000000000ED
:100920004C4105080300000069C50108681C00204F
:1009300000000000C83605080100000000000000AB
:100940000000000000000000000000000E00000099
:100950000000000000000000000000003C4105080D
:100960000000000000000000000000000000000087
:100970008036050800000000000000004202002050
:1009800004000000944005080300000095A0010841
:100990005C1C002008000000983A05080D000000CB
:1009A00085990108801C002000000000483B0508D4
:1009B0000300000069C50108741C0020000000004D
:1009C0004C4105080300000069C50108681C0020AF
:1009D00000000000C836050801000000000000000B
:1009E0000000000000000000000000000E000000F9
:1009F0000000000000000000000000005441050855
:100A000000000000000000000000000000000000E6
:100A100080360508000000000000000042020020AF
:100A2000040000009C4005080300000069C501089F
:100A3000B01C002000000000C836050801000000BE
:100A400000000000000000000000000000000000A6
:100A50000E00000000000000000000000000000088
:100A600020700020702D7200FFFFFFFF01000000CA
:100A70000000803F080000000000000000000000AF
:100A800018180020FA00000001000000010000001A
:100A9000FFFF2D202D2D202D2D2D2D202D2D2D0036
:100AA0000000000000000000000000000000000046
:100AB00000000000FFFFFFFF9C360508A436050874
:100AC000C036050800000000000000000000000023
:100AD000000000007B3405080400000015C1010877
:100AE0000000000000000000C836050801000000FA
:100AF00000000000000000000000000000000000F6
:100B00000E000000000000000000000000000000D7
:100B100050D700200100C409000000004ED700207B
:100B20000100C409000000004CD700200100C409E6
:100B3000000000004AD700200100C40900000000A6
:100B400046D700200100C4090000000048D700205B
:100B50000100C4090000000044D700200100C409BE
:100B60000000000042D700200100C409000000007E
:100B7000604900200100C800010000005E4900201B
:100B800032003075320000005C490020055A050033
:100B90005949002000FF01005B49002001000000CE
:100BA0006802002057490020020000007CD9040898
:100BB0005849002000FF01005A49002001000000B0
:100BC0006802002056490020020000007CD9040879
:100BD0004C49002080C1803E050000004A490020A9
:100BE00080C1803E050000004449002080C1803E55
:100BF000050000004249002080C1803E0500000041
:100C00003C49002000FF0100384900200A32010061
:100C1000374900200400000034D20408364900207F
:100C20000200000048D2040800000000000000009C
:100C300070020020886C00209CFF2C010000000046
:100C4000320000200A00000054D204082C49002081
:100C5000E0150C1700000000340000200800000020
:100C600050D90408330000200500000078D30408A0
:100C70002E490020020000006CD20408A84B00207E
:100C80000100FF7F01000000A74B002002000000D0
:100C900078D20408F64A00200000C20101000000DA
:100CA000F24A00200000C20101000000F44A0020C6
:100CB0000000C20101000000EE4A00200000803E5A
:100CC00032000000EC4A00200000803E32000000AC
:100CD000EA4A00200000803E32000000F04A002076
:100CE00000002C0101000000024B00200000F40174
:100CF00001000000004B00200000F4010100000092
:100D0000FE4A00200000F40101000000FC4A00201F
:100D10000000F40101000000FA4A00200000803EBB
:100D200001000000F84A00200000803E01000000A1
:100D30001E4B0020E803D0070A0000001C4B0020D7
:100D4000006401000A000000114B00200064010053
:100D5000104B002000640100184B002000640100CB
:100D60000A000000174B0020006401000A00000088
:100D7000164B0020006401000A0000001B4B0020FD
:100D8000006401000A0000001A4B0020006401000A
:100D90000A000000194B0020006401000A00000056
:100DA000154B002000FF01000A000000144B00203A
:100DB00000FF01000A000000134B002000FF0100AB
:100DC0000A000000C64900200000F40101000000F4
:100DD000C44900200000F40101000000C2490020C5
:100DE0000000F40101000000C04900200000F401EF
:100DF00001000000BE4900200000F40101000000D5
:100E00000C4B00201400E803010000000A4B0020F6
:100E1000E80330750A000000084B002000C80100FC
:100E2000074B002000C80100064B002000C801004D
:100E3000054B0020006401000A0000009C4B0020CC
:100E40000000D00701000000974B002000C80100FF
:100E5000964B002000C80100954B002000C80100FF
:100E60009A4B00200000D00701000000944B0020A6
:100E700000C80100934B002000C80100924B0020E5
:100E800000C80100984B00200000D00701000000BE
:100E9000914B002000C80100904B002000C80100C9
:100EA0008F4B002000C80100F0360508000000004C
:100EB000000000000000000000000000A40605087B
:100EC00009000000000000001403002004000000DE
:100ED000AC0605080900000000000000080300201F
:100EE000040000007C3E050809000000000000002E
:100EF000FC02002004000000723505080900000013
:100F000000000000F0020020040000000037050887
:100F10000900000000000000E402002004000000BE
:100F2000083705080900000000000000D802002072
:100F30000400000010370508090000000000000050
:100F4000CC0200200400000018370508090000004A
:100F500000000000C002002004000000C8360508A0
:100F60000100000000000000000000000000000080
:100F7000000000000E000000000000000000000063
:100F80000000000018390508000000000000000003
:100F9000000000000000000098270508070000007E
:100FA0000000000038030020000000002839050878
:100FB00008000000000000002C03002000000000DA
:100FC000343905080800000000000000200300205C
:100FD00000000000C8360508010000000000000005
:100FE0000000000000000000000000000E000000F3
:100FF0000000000000000000000000003C3905086F
:1010000000000000000000000000000000000000E0
:101010004C3905080D00000000000000740300209A
:1010200000000000543905080D0000000000000019
:1010300068030020000000005C390508070000007C
:101040000000000060030020000000006439050873
:101050000D0000000000000054030020000000000C
:101060006C3905080D000000000000004803002056
:1010700000000000743905080700000000000000AF
:101080004003002000000000C836050801000000F1
:101090000000000000000000000000000000000050
:1010A0000E00000000000000000000000000000032
:1010B0007C3905080000000000000000000000006E
:1010C00000000000982705080C0000000000000048
:1010D0006249002000000000903905080C00000063
:1010E000000000006449002000000000A03905084D
:1010F0000C000000000000009A49002000000000E1
:10110000B03905080C000000000000008E490020E6
:1011100000000000C43905080C00000000000000B9
:101120006649002000000000D03905080C000000CE
:10113000000000006849002000000000D8390508C0
:101140000C000000000000006A49002000000000C0
:10115000EC3905080C000000000000006C4900207C
:1011600000000000F43905080C0000000000000039
:101170006E49002000000000FC3905080C0000004A
:1011800000000000AC49002000000000143A0508EF
:101190000C0000000000000070490020000000006A
:1011A000203A05080C0000000000000072490020F1
:1011B00000000000B40605080C000000000000005C
:1011C0007449002000000000283A05080C000000C7
:1011D000000000007649002000000000343A0508B5
:1011E0000C00000000000000784900200000000012
:1011F000403A05080C000000000000007A49002079
:10120000000000004C3A05080C000000000000003F
:101210007C49002000000000583A05080C0000003E
:10122000000000007E49002000000000643A05082C
:101230000C000000000000009249002000000000A7
:101240006C3A05080C0000000000000090490020E6
:1012500000000000743A05080C00000000000000C7
:101260009E49002000000000803A05080C000000A4
:1012700000000000A0490020000000008C3A050892
:101280000C00000000000000A64900200000000043
:10129000BC3705080C000000000000008049002059
:1012A00000000000983A05080C0000000000000053
:1012B0008849002000000000A03A05080C0000004A
:1012C000000000008249002000000000AC3A050840
:1012D0000C00000000000000844900200000000015
:1012E000B83A05080C000000000000008649002004
:1012F00000000000C03A05080C00000000000000DB
:101300008A49002000000000B82705080C000000F2
:10131000000000009449002000000000CC3A0508BD
:101320000C000000000000008C49002000000000BC
:10133000083605080C000000000000009C49002051
:1013400000000000D83A05080C0000000000000072
:101350009649002000000000E03A05080C0000005B
:10136000000000009849002000000000E83A05084D
:101370000C00000000000000A24900200000000056
:10138000F03A05080C00000000000000A44900200D
:1013900000000000F83A05080C0000000000000002
:1013A000B649002000000000C83605080100000012
:1013B000000000000000000000000000000000002D
:1013C0000E0000000000000000000000000000000F
:1013D000003B0508000000000000000000000000C5
:1013E000000000000C3B05080D000000000000009C
:1013F000CC03002000000000143B05080D00000095
:1014000000000000C0030020000000001C3B050895
:101410000700000000000000B803002000000000EA
:10142000283B05080700000000000000B003002072
:1014300000000000343B0508090000000000000027
:10144000A403002000000000403B05080900000044
:101450000000000098030020000000004C3B05083D
:1014600009000000000000008C03002000000000C4
:101470005C3B05080900000000000000800300201C
:1014800000000000C8360508010000000000000050
:101490000000000000000000000000000E0000003E
:1014A000000000000000000000000000703B050884
:1014B000000000000000000000000000000000002C
:1014C000803B05080500000000000000BD49002029
:1014D00000000000C8360508010000000000000000
:1014E0000000000000000000000000000E000000EE
:1014F000000000000000000000000000883B05081C
:1015000000000000000000000000000000000000DB
:10151000803605080000000000000000541E002076
:10152000040000006E3505080D00000079C10108B7
:101530002004002000000000E84005080D00000025
:101540008998010814040020000000002C3A0508C6
:101550000D0000006D980108080400200000000044
:10156000943B05080800000000000000FC03002078
:1015700004000000983A05080D000000B597010826
:10158000F0030020000000009C3B0508090000005B
:1015900000000000E403002004000000483B0508B0
:1015A0000300000069C50108D80300200000000006
:1015B000C83605080100000000000000000000001F
:1015C00000000000000000000E000000000000000D
:1015D0000000000000000000A43B0508000000001F
:1015E000000000000000000000000000B43B0508FF
:1015F0000D00000000000000380400200000000082
:10160000BC3B05080A00000000000000284F002035
:1016100000000000C83B05080A00000000000000B0
:10162000304F002000000000D03B05080A000000F9
:1016300000000000384F002000000000D83B0508E3
:1016400008000000000000002C0400200000000042
:10165000E03B0508040000009DC6010800000000F2
:1016600000000000C836050801000000000000006E
:101670000000000000000000000000000E0000005C
:10168000000000000000000000000000EC3B050826
:10169000000000000000000000000000000000004A
:1016A000003C0508000000000000000000000000F1
:1016B00000000000203C05080800000000000000B9
:1016C0008C04002000000000283C050808000000F1
:1016D000000000008004002000000000303C0508ED
:1016E000080000000000000074040020000000005A
:1016F000383C0508080000000000000068040020D5
:1017000000000000403C0508080000000000000048
:101710005C040020000000004C3C050808000000AC
:10172000000000005004002000000000583C0508A4
:101730000800000000000000440400200000000039
:10174000C83605080100000000000000000000008D
:1017500000000000603C050802000000F1C601081E
:101760000200000000000000000000000E00000069
:101770000000000000000000000000006C3C0508B4
:101780000000000000000000000000000000000059
:10179000803C05080800000000000000D404002080
:1017A000000000008C3C050808000000000000005C
:1017B000C804002000000000983C05080800000054
:1017C00000000000BC04002000000000A43C05084C
:1017D0000800000000000000B0040020000000002D
:1017E000B03C05080800000000000000A404002030
:1017F00000000000BC3C05080800000000000000DC
:101800009804002000000000C83605080100000010
:1018100000000000000000000000000000000000C8
:101820000E000000000000000000000000000000AA
:10183000C83C050800000000000000001302002062
:1018400000000000D43C05080B0000000000000070
:101850006805002000000000E03C05080B000000C7
:10186000000000005C05002000000000EC3C0508C2
:101870000B000000000000005005002000000000E8
:10188000F83C05080B0000000000000044050020A3
:1018900000000000043D05080B00000000000000EF
:1018A0003805002000000000103D05080B00000076
:1018B000000000002C050020000000001C3D050871
:1018C0000B000000000000002005002000000000C8
:1018D000283D05080B000000000000001405002052
:1018E00000000000343D05080B000000000000006F
:1018F0000805002000000000403D0508070000002A
:10190000000000000005002000000000483D050820
:101910000700000000000000F804002000000000A4
:10192000543D05080B00000000000000EC040020FE
:1019300000000000603D05080800000000000000F5
:10194000E004002000000000C83605080100000087
:101950000000000000000000000000000000000087
:101960000E00000000000000000000000000000069
:101970006C3D0508000000000000000000000000B1
:1019800000000000803D0508080000000000000085
:10199000A4050020000000008C3D050808000000A0
:1019A000000000009805002000000000983D050898
:1019B00008000000000000008C050020000000006E
:1019C000A43D05080800000000000000800500207C
:1019D00000000000583C050808000000000000005E
:1019E0007405002000000000C83605080100000052
:1019F00000000000000000000000000000000000E7
:101A00000E000000000000000000000000000000C8
:101A1000B03D05080000000000000000100200209A
:101A200000000000C03D05080B00000000000000A1
:101A3000E005002000000000CC3D05080700000084
:101A400000000000D805002000000000D83D050877
:101A50000700000000000000D0050020000000008A
:101A6000E43D05080700000000000000C805002054
:101A700000000000F03D0508080000000000000024
:101A8000BC05002000000000F83D0508080000002B
:101A900000000000B005002000000000C836050866
:101AA0000100000000000000000000000000000035
:101AB000000000000E000000000000000000000018
:101AC00000000000003E05080000000000000000CB
:101AD00010020020000000000C3E05080700000076
:101AE000000000005006002000000000143E050821
:101AF0000700000000000000480600200000000071
:101B00001C3E050807000000000000004006002001
:101B100000000000243E050808000000000000004E
:101B200034060020000000002C3E050807000000DD
:101B3000000000002C06002000000000343E0508D4
:101B40000700000000000000240600200000000044
:101B50003C3E050807000000000000001C060020B5
:101B600000000000443E05080800000000000000DE
:101B700010060020000000004C3E05080700000091
:101B8000000000000806002000000000543E050888
:101B90000700000000000000000600200000000018
:101BA0005C3E05080700000000000000F80500206A
:101BB00000000000643E050808000000000000006E
:101BC000EC05002000000000C836050801000000F8
:101BD0000000000000000000000000000000000005
:101BE0000E000000000000000000000000000000E7
:101BF00000000000F99B010858060020BB490020A6
:101C00002B00000088D20408BA49002000C8010057
:101C1000B8490020E803D0070100000048454C49BE
:101C20004F535052494E47005549002000030100D0
:101C30005449002000030100419B0108199B010841
:101C400034070020D59A0108899A0108AC070020C2
:101C5000819B0108699B010860080020F599010833
:101C6000A9990108800B00200F9C01089DC3010861
:101C70005C0C0020F597010800000000AC0C00206F
:101C800079C60108F19E0108880D0020D99C010841
:101C90009D9C01083C0E0020499D0108159D0108EE
:101CA0002C0F0020C59D0108119E0108E00F0020A7
:101CB0000E4B002001060100699C0108359C0108BB
:101CC000201100207D9D0108CDC30108C011002016
:101CD000419E010815C4010874120020044B002025
:101CE000010301006C3E0508000000000000000038
:101CF0000000000000000000783E05080800000019
:101D000000000000C013002000000000803E050815
:101D10000700000000000000B813002000000000D1
:101D2000903E05080D00000000000000AC130020EC
:101D3000000000009C3E05080300000069C5010882
:101D4000A013002000000000C836050801000000B4
:101D50000000000000000000000000000000000083
:101D60000E00000000000000000000000000000065
:101D7000A43E050800000000000000000000000074
:101D800000000000B43E05080A000000000000004A
:101D9000BC3E050800000000C43E05080A00000023
:101DA0000000000021FA040800000000CC3E0508F5
:101DB0000A000000000000009E4B00200000000010
:101DC000D43E05080A00000000000000CC130020EB
:101DD00000000000C83605080100000000000000F7
:101DE0000000000000000000000000000E000000E5
:101DF000000000000000000000000000DC3E0508BC
:101E000000000000000000000000000000000000D2
:101E1000E83E05080300000069C501080014002021
:101E200000000000F43E05080300000069C5010839
:101E3000F413002000000000FC3E05080300000031
:101E400069C50108E813002000000000043F0508F0
:101E500005000000000000005349002000000000C1
:101E60000C3F05080700000000000000E013002000
:101E700000000000183F05080700000000000000F7
:101E8000D813002000000000C8360508010000003B
:101E90000000000000000000000000000000000042
:101EA0000E00000000000000000000000000000024
:101EB000243F0508000000000000000000000000B2
:101EC00000000000383F05080300000069C5010854
:101ED0003014002000000000443F0508030000000B
:101EE00069C5010838000020000000004C3F0508CB
:101EF0000300000069C50108241400200000000050
:101F0000543F05080300000069C5010818140020AB
:101F100000000000983A05080300000069C50108A8
:101F20000C14002000000000C83605080100000065
:101F300000000000000000000000000000000000A1
:101F40000E00000000000000000000000000000083
:101F5000603F0508000000000000000000000000D5
:101F600000000000703F05080700000071C4010870
:101F70008C14002000000000BC3A0508030000009B
:101F800069C5010880140020000000007C3F05089E
:101F90000300000069C5010874140020000000005F
:101FA000843F05080300000069C50108681400208B
:101FB000000000008C3F05080700000055C4010820
:101FC00060140020000000008C430508030000009E
:101FD00069C501085414002000000000983F05085E
:101FE0000300000069C5010848140020000000003B
:101FF000A43F05080300000069C501083C14002047
:1020000000000000C83605080100000000000000C4
:102010000000000000000000000000000E000000B2
:10202000000000000000000000000000C99B010843
:10203000999B010894140020BD9E01080000000037
:1020400020150020659A0108419A0108AC1500206E
:10205000000000000000000060160020959E0108AE
:102060008DC4010800170020AC3F050800000000E7
:10207000000000000000000000000000B83F05085C
:102080000300000069C501080C18002000000000D2
:10209000C03F05080300000069C5010800180020C2
:1020A00000000000B02805080300000069C5010811
:1020B000F417002000000000CC3F050803000000DA
:1020C00069C50108E817002000000000D83F050896
:1020D0000300000069C50108DC17002000000000B3
:1020E000E03F050802000000F1C601080000000002
:1020F00000000000E83F050802000000F1C60108EA
:102100000100000000000000603C05080200000023
:10211000F1C60108020000000000000000000000FD
:102120000E000000000000000000000000000000A1
:102130003249002088136F17010000003449002045
:1021400088136F1700000000F43F0508000000002E
:10215000000000000000000000000000044005082E
:102160000800000000000000EC180020040000003F
:10217000104005080800000000000000E0180020E2
:1021800000000000483B050804000000A1C1010850
:102190000000000000000000C83605080100000033
:1021A000000000000000000000000000000000002F
:1021B0000E00000000000000000000000000000011
:1021C0003049002088136F1701000000C46C002004
:1021D00088136F1700000000399901080000000003
:1021E000F8180020C94E00200100000038D3040870
:1021F000C66C00200100000044D30408BC6C002021
:10220000020000004CD30408D2610020000000004E
:1022100000000000D061002000000000000000006D
:10222000CE6100200000000000000000CC61002012
:102230000000000000000000CA6100200000000053
:1022400000000000C8610020000000000000000045
:102250008C1E002000000000000000002F4900201C
:102260000200000058D304084C400508000000009C
:10227000000000000000000000000000044005080D
:1022800008000000000000007C190020040000008D
:102290001040050808000000000000007019002030
:1022A00000000000483B05080400000009990108EF
:1022B0000000000000000000C83605080100000012
:1022C000000000000000000000000000000000000E
:1022D0000E000000000000000000000000000000F0
:1022E0005C40050800000000000000000000000045
:1022F000000000006C4005080D000000F1C201085C
:10230000AC19002004000000784005080D00000012
:1023100061990108A019002004000000844005080C
:102320000D000000B5C20108941900200000000053
:102330009040050803000000B5A00108881900209E
:10234000080000009C4005080300000069C5010862
:10235000B01C002000000000C83605080100000085
:10236000000000000000000000000000000000006D
:102370000E0000000000000000000000000000004F
:10238000C03605080000000000000000000000004A
:10239000000000007B34050804000000B9C10108FA
:1023A0000000000000000000C83605080100000021
:1023B000000000000000000000000000000000001D
:1023C0000E000000000000000000000000000000FF
:1023D000F0400508000000000000000000000000C0
:1023E00000000000D40A05080D00000000000000F5
:1023F0000C1A00200400000000410508080000003D
:1024000000000000001A0020040000000C41050834
:102410000800000000000000F41900200400000083
:10242000144105080800000000000000E819002021
:10243000040000001C410508080000000000000026
:10244000DC190020040000002441050808000000F9
:1024500000000000D0190020040000002C410508F5
:102460000800000000000000C41900200400000063
:10247000344105080800000000000000B8190020E1
:1024800004000000C836050801000000000000003C
:102490000000000000000000000000000E0000002E
:1024A0000000000000000000000000002199010869
:1024B00000000000181A00200000000000000000CA
:1024C000901A00200000000000000000301B0020D7
:1024D000C26C00200400000064D30408C06C00201B
:1024E000E0150C1700000000BF6C00200800000081
:1024F00050D90408BE6C00200500000078D3040801
:102500000000000000000000801B0020010102FF0D
:10251000FF0000000403090412010002EF02014061
:10252000830456320002010203010000120100027E
:102530000202004083044057000201020301000030
:1025400009022000010104C032090400000208064B
:102550005005070581024000000705010240000008
:1025600009026400030100C03209040000010300F5
:10257000000009211101000122260007058303083C
:10258000000A080B01020202010009040100010215
:1025900002010005240010010524010002042402A8
:1025A000020524060102070582030800FF09040250
:1025B00000020A0000000705010240000007058133
:1025C0000240000009024300020100C03209040079
:1025D0000001020201000524001001052401000190
:1025E000042402020524060001070582030800FFF7
:1025F00009040100020A0000000705010240000072
:102600000705810240000000FF00000000FFFF00FE
:1026100000000000AA5505010000010005010905A0
:10262000A101A10005010930093109320933093539
:102630000934094009381581257F750895088102FC
:10264000C0C0000009022200010100E032090400BC
:1026500000010301020009211101000122260007E7
:1026600005830308000A00000000000001020304C3
:10267000010203040607080949950208119C020893
:102680008D9702080D730208317502081D73020848
:1026900039730208E5720208D572020800000000D2
:1026A000000000002D202D2D202D2D2D2D202D2D35
:1026B0002D2D0000000000000000000000000000C0
:1026C000000000AA550B010000AA5507010000AA4E
:1026D000550902000000000001000000C012AA55C8
:1026E00003009F00FF1FFF1F010000003073002048
:1026F00000000000F423002004000000E427050887
:102700003844050800000000FDE10208A086010031
:1027100004000000000000000000000000000000B5
:1027200000000000000000000000000000000000A9
:10273000E42705082C460508000000000180000879
:10274000E80300000400000000000000000000009A
:102750000000000000000000000000000000000079
:1027600000000000BC3A0508C00605080000000093
:102770001D0A03087D0000000600000000000000A4
:102780000000000000000000000000000000000049
:1027900000000000000000003C27050800000000C9
:1027A00000000000A1E60008E803000003000000AC
:1027B0000000000000000000000000000000000019
:1027C0000000000000000000000000003446050882
:1027D0000000000000000000F1FC030810270000CA
:1027E00003000000000000000000000000000000E6
:1027F00000000000000000000000000000000000D9
:1028000074410508000000003D16010831BC0008B5
:102810005F760000050000000000000000000000DE
:1028200000000000000000000000000000000000A8
:1028300000000000A42905080000000000000000BE
:10284000F1F1000810270000010000000000000066
:102850000000000000000000000000000000000078
:1028600000000000000000004046050800000000D5
:102870000000000005800008E803000005000000DB
:102880000000000000000000000000000000000048
:102890000000000000000000000000004C46050899
:1028A000000000000000000035F50208204E000086
:1028B0000300000000000000000000000000000015
:1028C0000000000000000000000000000000000008
:1028D0005C460508000000000000000021F302082B
:1028E000204E000003000000000000000000000077
:1028F00000000000000000000000000000000000D8
:10290000000000006C460508000000000000000008
:1029100051850008400D0300030000000000000086
:1029200000000000000000000000000000000000A7
:102930000000000000000000A828050800000000BA
:1029400000000000214303081027000001000000E0
:102950000000000000000000000000000000000077
:1029600000000000000000000000000054270508DF
:10297000000000000000000045DC010810270000F6
:102980000300000000000000000000000000000044
:102990000000000000000000000000000000000037
:1029A0007C460508000000000000000025580108D2
:1029B000A0860100010000000000000000000000EF
:1029C0000000000000000000000000000000000007
:1029D00000000000BC3705080000000000000000F7
:1029E000750C0208A8610000010000000000000052
:1029F00000000000000000000000000000000000D7
:102A000000000000000000008446050800000000EF
:102A10000000000049F80108A08601000100000044
:102A200000000000000000000000000000000000A6
:102A3000000000000000000000000000AC290508B4
:102A4000000000000000000035200208A00F000078
:102A50000100000000000000000000000000000075
:102A60000000000000000000000000000000000066
:102A700090460508000000000000000099A1010830
:102A8000102700000100000000000000000000000E
:102A90000000000000000000000000000000000036
:102AA00000000000B0280508000000000000000041
:102AB00079B902081A41000001000000000000007E
:102AC0000000000000000000000000000000000006
:102AD00000000000000000000C2A050800000000B3
:102AE000000000003D7B02081027000001000000EC
:102AF00000000000000000000000000000000000D6
:102B00000000000000000000000000004C44050828
:102B1000000000000000000071C801081A41000018
:102B200001000000000000000000000000000000A4
:102B30000000000000000000000000000000000095
:102B40009C4605080000000000000000F1B40208E7
:102B5000400D030000000000000000000000000025
:102B60000000000000000000000000000000000065
:102B700000000000A446050800000000000000005E
:102B8000310C0208400D03000000000000000000AE
:102B90000000000000000000000000000000000035
:102BA0000000000000000000AC4605080000000026
:102BB00000000000C1E9010850C30000030000004C
:102BC0000000000000000000000000000000000005
:102BD000000000000000000000000000B8460508EA
:102BE000000000000000000095F2020840420F00C3
:102BF00000000000000000000000000000000000D5
:102C000000000000000000000000000000000000C4
:102C1000C4460508000000000000000059450308F4
:102C200050C3000000000000000000000000000091
:102C30000000000000000000000000000000000094
:102C400000000000000200051002700B00000000F0
:102C5000B88600200800000000000000A8860020C0
:102C60000800000099780208657402086997020854
:102C700000000000D17202081D9F02084D78020872
:102C8000A194020800000000000000008D720208FC
:102C90002172020815720208ED8B0208098C0208E5
:102CA000D18B0208B58B0208998B02085178020873
:102CB00041740208A996020800000000A5720208EB
:102CC000A59402082178020801940208000000007F
:102CD00000000000997202080000803F0000000020
:102CE00000000000000000002CE1040805080400BA
:102CF0000000000078D3040850D9040864D3040805
:102D0000000000000000000058E1040805080A0067
:102D10000000000078D3040850D9040854D20408F5
:102D200000000000000000001A0300000000000086
:102D30000000000000000000000000000000000093
:102D4000000000000403090412010002000000401A
:102D500083042057000201020301000015730308D9
:102D6000895403088554030881540308315E03081D
:102D70007D5403087954030824E30408BD9E020827
:102D800021740208A59D0208000000000000000058
:102D9000D9930208F592020800000000000000002C
:102DA0000000000081720208215503081555030830
:102DB000816303089D630308CD540308656303081A
:102DC00049630308010000005001000007000000F3
:102DD00002000000000000000000000001020304E7
:102DE0000607080908000000117202080D720208A7
:102DF00009720208FD710208F971020805720208E1
:102E000001720208010000000060024010600240F0
:102E10000000000000000000000B000000000000A7
:102E20000000000000000000006002402860024036
:102E30000100000000000000060C0000000000007F
:102E400000000000000000000060024040600240FE
:102E50000200000000000000100D00000000000053
:102E600000000000000000000060024058600240C6
:102E70000300000000000000160E0000000000002B
:102E8000000000000000000000600240706002408E
:102E90000400000000000000200F000000000000FF
:102EA0000000000000000000006002408860024056
:102EB00005000000000000002610000000000000D7
:102EC000000000000000000000600240A06002401E
:102ED00006000000000000003011000000000000AB
:102EE000000000000000000000600240B8600240E6
:102EF0000700000000000000362F00000000000066
:102F00000000000000000000006402401064024065
:102F10000000000000000000003800000000000079
:102F2000000000000000000000640240286402402D
:102F30000100000000000000063900000000000051
:102F400000000000000000000064024040640240F5
:102F50000200000000000000103A00000000000025
:102F600000000000000000000064024058640240BD
:102F70000300000000000000163B000000000000FD
:102F80000000000000000000006402407064024085
:102F90000400000000000000203C000000000000D1
:102FA000000000000000000000640240886402404D
:102FB00005000000000000002644000000000000A2
:102FC000000000000000000000640240A064024015
:102FD0000600000000000000304500000000000076
:102FE000000000000000000000640240B8640240DD
:102FF000070000000000000036460000000000004E
:1030000000000000000000000000803F0000000001
:1030100000000000000000000000803F00000000F1
:1030200000000000000000000000000000000000A0
:103030000000000000000000000000000000000090
:10304000010000000000803F0000000000000000C0
:10305000000000000000803F010000001028002058
:103060000000000000000000000000000000000060
:103070000000000000000000000000000000000050
:103080000000000000000000000000000000000040
:103090000000000000000000000000000000000030
:1030A0000000000000000000000000000000000020
:1030B0000000000000000000000000000000000010
:1030C00001000000000000000000000000000000FF
:1030D00000000000000000000000000000000000F0
:1030E00000000000000000000000000000000000E0
:1030F00000000000000000000000000000000000D0
:1031000000000000000000000000000000000000BF
:10800000704700BF38B50B4C23688BB15A68821A91
:10801000002A054604DA0BE05A68AA1A002A07DB90
:108020009A68226018461A6890472368002BF3D19B
:1080300038BD00BF502C0020436A8269D154436A86
:108040000169C26B01338B4228BF00234362DAB15E
:10805000EFF31183502282F31288C26B1168C907B3
:108060000ED470B45468FCB9D0E909518D4211D1D5
:10807000012280F86020DBB283F3118870BC704766
:10808000DBB283F311887047C26DD36843F080037D
:10809000D360704786690E44D6600ED9691A516064
:1080A0008562002180F86010116841F00101DBB2A7
:1080B000116083F3118870BC70470569691A5160BB
:1080C0008462EEE7034610B4846BD968406954B10A
:1080D0001A6D8C1A013A005D5DF8044B08BF0A4620
:1080E000C0B21A6570471A6A805C01328A4228BFA2
:1080F0002246C0B21A625DF8044B7047C36B13B1DD
:1081000090F860007047D0E90903181AB0FA80F0BF
:1081100040097047D0E909120369914238BFC91874
:108120008A1AC16B013B19B149680A449A4201D2CB
:10813000981A704700207047836B43B1026D5B68EB
:108140009A4291BF981AC0689B1AC0187047D0E92C
:1081500007239A422FBFD01AC0688018C01A7047F0
:108160000A4B30B503F1140493F900205D78072A17
:10817000C8BF143A811804338D7213F8025C855419
:1081800013F8012C0A759C42EED130BDC0A9040839
:1081900003682DE9F0415D6A1DB12B46BDE8F04151
:1081A0001847002A174611DD04460E460F4400E02A
:1081B00023689B68204698470028F9D0236816F862
:1081C000011B1B6820469847BE42F1D1BDE8F081F3
:1081D00003681B69184700BF002327220270437001
:1081E0008370C370704700BF0028F0B403DA2D23FA
:1081F0000B7040420131092804464FF0010307DDAE
:1082000003EB83035B00B0FBF3F2092AF8D883B1D8
:108210000F48A0FB0326B4FBF3F2092A02F1570C26
:1082200002F1300709DD03FB1244F30801F801CB2A
:10823000EFD100230B70F0BC704703FB1244F3082E
:1082400001F8017BE5D100230B70F0BC704700BF43
:10825000CDCCCCCC884270B44FF0010442D301FBAA
:1082600004F4B0FBF4F58D42F9D2ECB142BB092D18
:1082700004FB150005F1570605F130020EDDB4FBD5
:10828000F1F403F8016B7CB1B0FBF4F5092D04FBAC
:10829000150005F1570605F13002F0DCB4FBF1F4EE
:1082A00003F8012B002CEFD100221A7070BC70472C
:1082B00003F8016BB4FBF1F4002CF5D0B0FBF4F53E
:1082C000092D04FB150005F1370605F13002EFDC3E
:1082D000B4FBF1F403F8012B002CEFD100221A704B
:1082E00070BC70470546002AEAD1C0E72DE9F04787
:1082F00014461D4606464FF47A720023204629464E
:1083000040F096FC4D4BDFF850814D4A4D4F0344F1
:1083100088FB03101844D91782FB032CC1EB6010B3
:1083200088FB002887FB03279C44474AC1EBEC2CC1
:10833000C0EB001E82FB0C29A3EB8E0E1F44434AA8
:1083400086F806E0C1EB27474FEAEC7E08EB000A0F
:10835000CEEBA90E82FB07824FEAE0780EEB4E0EC1
:10836000C8EB6A18ACEBCE0CC8EB0818DFF8ECE0F1
:1083700086F804C0A0EB880070718EFB0303F81729
:10838000C0EBE21240F2B55000FB1272C1EBE353B6
:10839000B2F5896F4FEA83073FDA40F2DA239A4257
:1083A00043DCB2F5B77FB4BF4FF0000E4FF0010EC3
:1083B0004FEA4E08264B08EB0E0103EBC1031FFAF0
:1083C0008EFC588D234908EB0E0301EBC3011631D7
:1083D0000B2301E031F8020D90421BDD013BF9D186
:1083E0001B4BC64403EBCE0E0123BEF81400B37042
:1083F00007F5FA670132121ABC44F270A6F800C001
:10840000204629464FF47A72002340F011FC328155
:10841000BDE8F0870133DBB2E9E74FF0030CE64635
:1084200040F296504FF00608CCE74FF0020CE646BB
:1084300040F229404FF00408C4E700BF80BC92C757
:10844000C5B3A29107452EC2ABAAAA2A73B06D1676
:10845000C0A90408D4A9040889888888792D031143
:1084600030B403888278174DC478A3F5FA6303F01B
:10847000030101EB4101013A02EB810205EB4202EB
:10848000611E958A027940F2B5549B0804FB0313E0
:108490002B4403EB430302EBC303427984790A497B
:1084A0000089C3EB031302EB83032144C3EB0313E3
:1084B00001EB83034FF47A720021C2FB030130BC4D
:1084C000704700BFC0A9040880436D3803685A1C78
:1084D00002601970704700BF2DE9F047089C2578AD
:1084E000002B804689460CBF4FF0200A4FF0300A1F
:1084F000661C25B3002A26DD334601E0024698B10A
:1085000013F8011B501E0029F8D1971E60B13D469B
:10851000013D51464046C8476B1C002BF8DC2578CE
:1085200027EAE770013045B1041B29464046C84799
:10853000301916F8015B002DF7D1BDE8F087002A4D
:1085400003DC2846F9E70020EEE7571EDFE700BF0F
:108550002DE9F0478C4A8D4B12781C78D2070646DD
:1085600048D58B4D012C00F091801ED3022C40F099
:108570009B808849884A09881288884F914201D98E
:1085800001241C70EB7AFBB12B89EBB1844B1B7877
:10859000D3B126F09BFD002800F0E2802B7B8342C4
:1085A0002CBF012300233B700FE0DFF8E8C17B4FB5
:1085B0007C4CBCF800002288697B521A8242DFDAC8
:1085C000EB7A0024002BDFD13B782A79632A07D885
:1085D0007549022C087800F0B880002840F0A0808F
:1085E0007249AA7A9C4238BF1C460C70002A44D1BA
:1085F000BDE8F087DFF89CC1654DBCF80000BCF811
:10860000021095F803E06A4F411A0029A4F1030211
:10861000B8BF4942704597F80080D2B211D32F7885
:1086200087420ED3012A45D9B8F1020F9AD15C488E
:10863000604A007890800229CCBF00210121D180BE
:1086400090E7B0EB4E0FEDDC012A40F28C8002295E
:10865000EADC0324514F524852494F4A1C70B8F18A
:10866000020F4FF000033C7003700B80138089D120
:10867000504A01219380D18084E7012C6BD0022CD9
:10868000B6D10720BDE8F04727F0DCBC424A41499B
:108690001288687B0988121A914207DD414A1288C4
:1086A0008A423CBF00241C703C4F6BE702241C70C4
:1086B0003A4F67E70229B7DC95F800E090FBFEFE31
:1086C0000EF1010EBEF1080FDFF8D4A0AA78697888
:1086D000DFF8C490334C314FA8BF4FF0080E8AF832
:1086E00000E01FFA8EFA11FB0AF112FB0AF2DFF822
:1086F000B8A0A9F8001092B200214FF06409B8F1B7
:10870000020F228039701970CAF804108AF801909B
:108710007FF452AF274A0121A2F804E0D18048E754
:108720004868301A244EB042C8BF4A703FF758AF6D
:10873000C2F16402214E00FB02F086FB0062C0170A
:10874000A0EBA250643048704AE70028E8D1012726
:108750004E600F70ECE70820BDE8F04727F072BCD0
:1087600002233B7031E7032C7FF471AFB8F1020FA5
:108770009AD10B4A0F4B12789A800229CCBF002164
:108780000121D980054FFDE6A0D600206C84002091
:10879000306A0020186A002070840020CC840020F9
:1087A0001E6A00206E84002074840020C46D0020A6
:1087B00085AF002088AF00207F9698006BCA5F6B62
:1087C00070B53C4B3C481A785B783C493C4C3D4D7D
:1087D00002EB420203EBC30301EB430300EB421243
:1087E0002B6022603DF062FC00213022364840F0D0
:1087F000EDFC20683AF0B2F8344B256803F17801BB
:1088000002E006338B4252D01A78002AF9D19C78C4
:10881000D878844202D358790028F2D02C492D4BC5
:108820000C792D4EC820642111FB040159602B4C9A
:108830002B4832700021C3E90211C3E90411C3E9D6
:10884000061183F8201083F82110264B0560236061
:108850000DF0BCF8A3889FED245A244AA1799FED1E
:10886000246A507906EE903AF8EEE66A1388C5EE6F
:10887000265A07EE103A1F4B1960538812791E4989
:1088800007EE903AB8EEC77A1C4BC1ED005AF8EEED
:10889000E77A18725A7227EE067A67EE867ABDE892
:1088A000704083ED017AC3ED007A14F0E5BC01223B
:1088B000B4E700BFE0BD0020CA490020224B0020E1
:1088C000A86F0020AC6F0020F0DB0020E033002018
:1088D000C84F0020F46900200828002078280020D4
:1088E00024DC00206ED60020C0C9FB48EC540020D8
:1088F00017B7D13874D9002078D900204CD900207E
:1089000030B50446C06D21718389A26823F40053F9
:108910001B041B0C838185B06379009213F0040F54
:108920004FEA03324FEA03230CBF00254FF4805572
:1089300003F4806302F40052ADF80450ADF808303F
:10894000002511F00103ADF80620ADF80C501CD144
:10895000ADF80A3008238A07694648BFADF80A30E7
:1089600022F02AF8637913F0080FE36D9A8A05BFA5
:1089700022F00802120442F00802120C9A829A892C
:1089800042F400529A8105B030BD0423ADF80A309C
:108990000C23E0E730B50446C06DA160838923F461
:1089A00000531B041B0C8381637985B013F0040F03
:1089B000009108BF0025217918BF4FF48055ADF80C
:1089C00004501A0300251B0203F48063ADF80A501B
:1089D000ADF80C50CD07ADF8083002F4005244BF9A
:1089E0000423ADF80A30ADF806204CBF0C23082351
:1089F0008A07694648BFADF80A3021F0DDFF637988
:108A000013F0080FE36D9A8A05BF22F008021204E2
:108A100042F00802120C9A829A8942F400529A811A
:108A200005B030BDF8B50468C4F30D0405460E4624
:108A300004B32F6821F07CFA092840F08880454C67
:108A4000236923F440732361236943F40073236192
:108A5000236943F0010323613E6021F069FA236931
:108A6000092823F00103236171D12B6804332B60A3
:108A7000002035E0384B394A93422BD902F5804229
:108A8000934226D902F5804293422AD902F58042C8
:108A9000934228D902F58032934226D902F500325A
:108AA000934224D902F50032934222D902F50032D2
:108AB000934220D902F5003293421ED902F580225A
:108AC00093421CD9B3F1016F1BD332F071FF30F028
:108AD00031FB082421F02CFA092814D04FF0FF3084
:108AE000F8BD1024F6E71824F4E72024F2E7282440
:108AF000F0E73024EEE73824ECE74024EAE74824A6
:108B0000E8E75824E6E7134F3B6923F440733B61E1
:108B10003B6943F400733B613B6923F0F8033B611D
:108B20003B6943F002031C433C613B6943F48033DF
:108B30003B6121F0FDF93B6923F002033B613B6996
:108B4000092823F0F8033B613FF473AFC6E76FF0E9
:108B50000100C5E7003C024000400008FF3F00085C
:108B6000F8B504460D468E180027B542206900D19D
:108B7000F8BDE368591CE160234415F8012B1A7213
:108B80000429F2D118B9A1682046FFF74BFFC4E9C8
:108B90000370EAE702280FD8094A0A4B0A4910B4C1
:108BA00000EB40041070013003EB4413C0B25DF8D9
:108BB000044B0B6027F084BA0130C0B227F080BAB2
:108BC000E0BD0020CA490020A86F0020DFED2B7A0D
:108BD000B4EEE70AF1EE10FA4ADDDFED296A9FED07
:108BE000297A01E0B0EE670AB4EEC70AF1EE10FA96
:108BF00070EE667AF6DC9FED247AF4EEC77AF1EE39
:108C000010FA38D5DFED1E6A9FED207A01E0F0EE14
:108C1000407AF4EEC77AF1EE10FA37EEA60AF6D4EF
:108C2000DFED1B7AB4EEE70AF1EE10FA14DDDFEDAA
:108C3000137A37EEC00A60EE006A9FED166A9FED68
:108C4000167ADFED167AA6EE867A20EE266AE6EE32
:108C5000877AA6EE270A7047DFED117AB4EEE70AAD
:108C6000F1EE10FA44BFDFED087A37EEC00AE2E712
:108C7000F0EE407ABFE7B0EE670AD1E7DB0F49407C
:108C8000DB0FC940E4CB1641DB0F49C0E4CB16C172
:108C9000DB0FC93F92E741B99730083C15A82ABEBF
:108CA000DB0FC9BF10B54D4B9A78013A1F2A26D861
:108CB0004B490A4492F874205A849A89D98991427E
:108CC00024BF00229A81598A1A8A914224BF002225
:108CD0001A82D978434A2020188492F8602089B1FA
:108CE000012961D0404C012100200A2A217099708D
:108CF000987170D00C2A65D1DFED3C7A09E0012231
:108D00005A84DAE70A2A987925D00C2A51D1DFED66
:108D1000387A9FED387A002818BFF0EE477A364C43
:108D2000A278062A97BF2E49DFED326A01EB820155
:108D3000D1ED256A217989B1013A032A0AD8B7EE23
:108D4000000A80EE260A40F055FB2388984228BF8F
:108D50001846208010BDDFED297ADAE79B7822499A
:108D600007EE103A0A78B8EEC77A67EE277A07EE70
:108D7000102AB8EEC77A27EE277AF4EEC76AF1EE2A
:108D800010FAE7DD86EEA77AFDEEC77A17EE903A85
:108D9000102BA8BF1023012BB8BF0123DBB29A42CE
:108DA00038BF1A460A7010BD0A2A9879D3D00C2A07
:108DB000ADD00129DFED127AABD90A2A9CD1DFEDC3
:108DC000117AA6E7DFED0F7A9FED087A0A2A18BF1D
:108DD000F0EE477AA3E7DFED0B7AA0E7D4B10020ED
:108DE000C0A90408440B0010122F00206F12833A10
:108DF0000AD7A3396F12033830C000205304E93872
:108E00006F1203390F506E3A074B1B7853B9074B5B
:108E100000F1200250F8041B43F8041B9042F9D1E2
:108E20000120704700207047B4300020B53000208A
:108E300010B5154C94F84230002B144B14BF01228E
:108E400000221A700BD0042204F12801104840F0CF
:108E5000FBF9142204F12D010E4840F0F5F994F8C5
:108E60004330002B0C4B14BF012200221A7009D092
:108E70000A4B0B4A03F1200153F8040B42F8040B90
:108E80008B42F9D110BD00BF78280020D5300020DA
:108E9000D6300020DB300020B430002080280020B5
:108EA000B53000200B4B1B7810B58BB90A4B0B4A21
:108EB00003F1200153F8040B42F8040B8B42F9D163
:108EC000074B012483F84340FFF7B2FF204610BD53
:108ED0000020FCE7B4300020B530002080280020BE
:108EE0007828002038B50C4B1B789BB90B4D0C49EA
:108EF000042205F1280040F0A7F9012414220949B1
:108F000005F12D0040F0A0F985F84240FFF790FFF1
:108F1000204638BD0020FCE7D5300020782800200E
:108F2000D6300020DB300020F0B50C2934D8DFE843
:108F300001F08A3333335F33333334333333070051
:108F4000048C9689B2F802C01788744D24F48054BA
:108F50002404240C0484038C8488818B23F4005320
:108F600021F4E6411B0409041B0C46EA0C06090C1B
:108F700043EA063341EA0721A8429BB2A4B289B270
:108F800000F09E8005F58065A84200F09980926807
:108F90008480818302640384F0BD048C9589B2F8D7
:108FA00002E017885D4E24F480742404240C0484A9
:108FB000038CB0F804C0818B23F400731B0421F0F0
:108FC000730145EA0E041B0C090443EA0423090C4F
:108FD000B0429BB21FFA8CF541EA07015BD0504CBE
:108FE000A04258D0926885808183C2630384F0BD1B
:108FF000048C9589B2F802E0B2F800C0474E24F024
:1090000010042404240C0484038C8788018B23F02F
:10901000200321F4E6411B0409041B0C45EA0E045D
:10902000090C43EA041341EA0C21B0429BB2BFB2DF
:1090300089B25BD03A4CA04258D0926887800183B5
:1090400082630384F0BD048C9589B2F802C017884E
:10905000324E24F001042404240C0484018C8488FE
:10906000038B21F0020123F0730309041B04090C94
:1090700045EA0C051B0CB04241EA0501A4B243EAE3
:10908000070324D0264DA84221D092688480038310
:1090900042630184F0BDD489168A578A23F40063A1
:1090A00043EA04234FF6FF341C40938825F44055CF
:1090B0003E4344EA032345EA06149BB2A5B291E776
:1090C000158A24F4804444EA8514A4B25FE7D68963
:1090D000158A578A21F008013143968824F4407498
:1090E00021F004013D4331432C43CEE7D489168A55
:1090F000B2F812C023F0800343EA04134FF6BF74A2
:109100001C40938827F4406546EA0C0644EA0313A2
:1091100045EA86049BB2A7B28FE700BF000001407A
:10912000000401402DE9F84FA022904C9048914D49
:10913000DFF860A2904FDFF86082DFF860920021D4
:1091400040F044F88D48DFF858C2DFF858E204F1E7
:10915000FC06A346DBF80030AB4200F0E280B3F13E
:10916000804F00F0E080BB4200F0DF80634500F0FC
:10917000EA80734500F0E980434500F0E8804B4504
:1091800000F0E7807E4A934200F0E58002F57052DD
:10919000934200F0E28002F58062934200F0DF80AB
:1091A00002F58062934200F0DC80A2F5983293428F
:1091B00000F0D98002F58062934200F0958002F5BC
:1091C0008062934208BF0D2300F08F800BF1240BC7
:1091D0005E45BFD16B4E6C4D4FF003094FF0020856
:1091E000A379002B7AD023791F09013F032F03F0C5
:1091F0000F0373D836F8170040FA03F2D2076DD583
:109200004FF0010A0AFA03F3013B18403FF060FDFA
:109210005E4BDB5D184415EBC0075FD055F830306E
:109220005B48217A03F13F4202F57E02920A825C9A
:1092300002F01F005209032A0AFA00FA7DD0042A1C
:1092400075D0022A04D14D48426C4AEA02024264B7
:10925000B7F804C0BCFA8CF2C2F11F0292B2D00877
:1092600003EB800002F00702076A92004FF00F0E36
:109270000EFA02FE27EA0E070762076A01FA02F2F7
:109280003A4302624FF0010E00220EFA02F737EA6B
:109290000C0120D15000D3F800A009FA00F1C94315
:1092A0000AEA010AC3F800A0D3F800A008FA00F007
:1092B00040EA0A00186098680840986098689860CA
:1092C000586820EA07075F6058685860D86801400E
:1092D000D960D968D9600132102AD6D12434A34587
:1092E0007FF47EAFBDE8F88F0C230AEBC3030121A6
:1092F0001B7903F01F025B09032B01FA02F208D06D
:10930000042B0AD0022B7FF461AF416C0A43426404
:109310005CE7016C0A43026458E7016B0A4302638D
:1093200054E70023E1E70123DFE70223DDE71348E9
:10933000026B4AEA020202638AE71048026C4AEAB8
:109340000202026484E70323CFE70423CDE7052369
:10935000CBE70623C9E70723C7E70823C5E70923A7
:10936000C3E70A23C1E70B23BFE700BF50ED0408A2
:1093700098830020000001400004004000380240B3
:10938000000401404CEE04089CAF002054EE040899
:1093900058EE040890EE040800100040001400404D
:1093A00000080040000C004000B9704703682DE938
:1093B000F04F03F13F4404F57E04534EA40A012507
:1093C000345D04F01F066409032C05FA06F500F06D
:1093D0009580042C00F08D80022C45D08588B5FA4C
:1093E00085F0C0F11F0080B2C40803EB840400F0D4
:1093F0000700266A80000F27874026EA07062662B4
:10940000276A01F003068240701E3A430128226257
:10941000C1F3810EC1F300184FF000024FEA511161
:109420004FF0010C25D94FF0030E0CFA02F0A843BF
:1094300015D150001F680EFA00F4E44327401F6066
:10944000D3F8008006FA00F747EA08071F60DF68D4
:109450003C40DC60DC6801FA00F02043D860013257
:10946000102AE2D1BDE8F08F284C666C3543656464
:10947000B4E74FF003090CFA02F737EA050033D1DD
:109480005000D3F800A009FA00F4E4430AEA040A01
:10949000C3F800A0D3F800B006FA00FA4AEA0B0AB3
:1094A000C3F800A0D3F808A004EA0A0AC3F808A089
:1094B000D3F808B00EFA00FA4AEA0B0AC3F808A07B
:1094C000D3F804A02AEA07075F60D3F804A008FADB
:1094D00002F747EA0A075F60DF683C40DC60DC684F
:1094E00001FA00F02043D8600132102AC3D1BDE850
:1094F000F08F064C266B354325636FE7034C266CD3
:10950000354325646AE700BF58EE0408003802407E
:1095100003682DE9F04F03F13F4404F57E04534EF8
:10952000A40A0125345D04F01F066409032C05FA22
:1095300006F500F09580042C00F08D80022C46D0BA
:109540008588B5FA85F0C0F11F0080B2C40803EB2E
:10955000840400F00700266A80000F27874026EA6F
:1095600007062662276A01F0030602FA00F0721E5F
:109570003843012AC1F3810EC1F3001820624FEA7B
:1095800051114FF000024FF0010C25D94FF0030E9E
:109590000CFA02F0A84315D150001F680EFA00F42F
:1095A000E44327401F60D3F8008006FA00F747EA3B
:1095B00008071F60DF683C40DC60DC6801FA00F0EF
:1095C0002043D8600132102AE2D1BDE8F08F284C48
:1095D000666C35436564B3E74FF003090CFA02F794
:1095E00037EA050033D15000D3F800A009FA00F49F
:1095F000E4430AEA040AC3F800A0D3F800B006FA6C
:1096000000FA4AEA0B0AC3F800A0D3F808A004EA5B
:109610000A0AC3F808A0D3F808B00EFA00FA4AEA1A
:109620000B0AC3F808A0D3F804A02AEA07075F6072
:10963000D3F804A008FA02F747EA0A075F60DF6878
:109640003C40DC60DC6801FA00F02043D860013265
:10965000102AC3D1B9E7064C266B354325636FE763
:10966000034C266C354325646AE700BF58EE0408B6
:109670000038024010B50409013C032C17D80E4BEA
:1096800033F8142000F00F0042FA00F313F0010346
:109690000FD0012303FA00F0013810403FF018FB0F
:1096A000064A074B125D104403EBC00010BD0020BA
:1096B00010BD184610BD00BF4CEE040854EE04085F
:1096C0009CAF00202DE9F8432F4D2B8AB5F80C8074
:1096D00018EA030827D02D4E4FF00047B8FA88F358
:1096E00027FA03F2D24391B21B3B08EA020829820F
:1096F000042B15D8DFE803F0352B22190300D6F828
:109700009C30002B37D1EB6A1FFA83F9D6F89840CA
:1097100034B123682046494698476468002CF8D144
:10972000B8F1000FDAD1BDE8F883B06F696B036858
:1097300089B29847B8F1000FD0D1F4E7F06FA96B68
:10974000036889B29847B8F1000FC7D1EBE7D6F8A4
:109750008000E96B036889B29847B8F1000FBDD16A
:10976000E1E7D6F88400296C036889B29847B8F11C
:10977000000FB3D1D7E703F1FF3900231FFA89F9AE
:10978000C6F89C30C2E700BF001800409883002054
:109790002DE9F8432C4D2B8AB5F80C8018EA030804
:1097A00025D02A4E4FF00047B8FA88F327FA03F283
:1097B000D24391B21B3B08EA02082982042B13D83A
:1097C000DFE803F0322920170300736F002B34D138
:1097D000EB6A1FFA83F9346F34B123682046494697
:1097E00098476468002CF8D1B8F1000FDCD1BDE8CF
:1097F000F883306D696B036889B29847B8F1000F40
:10980000D2D1F4E7706DA96B036889B29847B8F1BB
:10981000000FC9D1EBE7B06DE96B036889B29847D7
:10982000B8F1000FC0D1E2E7F06D296C036889B28E
:109830009847B8F1000FB7D1D9E703F1FF390023FA
:109840001FFA89F97367C6E7000401409883002076
:109850002DE9F8432C4D2B8AB5F80C8018EA030843
:1098600025D02A4E4FF00047B8FA88F327FA03F2C2
:10987000D24391B21B3B08EA02082982042B13D879
:10988000DFE803F0322920170300736F002B34D177
:10989000EB6A1FFA83F9346F34B1236820464946D6
:1098A00098476468002CF8D1B8F1000FDCD1BDE80E
:1098B000F883306D696B036889B29847B8F1000F7F
:1098C000D2D1F4E7706DA96B036889B29847B8F1FB
:1098D000000FC9D1EBE7B06DE96B036889B2984717
:1098E000B8F1000FC0D1E2E7F06D296C036889B2CE
:1098F0009847B8F1000FB7D1D9E703F1FF3900233A
:109900001FFA89F97367C6E70004014098830020B5
:109910002DE9F8432C4D2B8AB5F80C8018EA030882
:1099200025D02A4E4FF00047B8FA88F327FA03F201
:10993000D24391B21B3B08EA02082982042B13D8B8
:10994000DFE803F0322920170300F36C002B34D139
:10995000EB6A1FFA83F9B46C34B123682046494698
:1099600098476468002CF8D1B8F1000FDCD1BDE84D
:10997000F883B06A696B036889B29847B8F1000F41
:10998000D2D1F4E7F06AA96B036889B29847B8F1BD
:10999000000FC9D1EBE7306BE96B036889B29847D8
:1099A000B8F1000FC0D1E2E7706B296C036889B28F
:1099B0009847B8F1000FB7D1D9E703F1FF39002379
:1099C0001FFA89F9F364C6E7000800409883002075
:1099D0002DE9F8432C4D2B8AB5F80C8018EA0308C2
:1099E00025D02A4E4FF00047B8FA88F327FA03F241
:1099F000D24391B21B3B08EA02082982042B13D8F8
:109A0000DFE803F0322920170300736A002B34D1FA
:109A1000EB6A1FFA83F9346A34B123682046494659
:109A200098476468002CF8D1B8F1000FDCD1BDE88C
:109A3000F8833068696B036889B29847B8F1000F02
:109A4000D2D1F4E77068A96B036889B29847B8F17E
:109A5000000FC9D1EBE7B068E96B036889B298479A
:109A6000B8F1000FC0D1E2E7F068296C036889B251
:109A70009847B8F1000FB7D1D9E703F1FF390023B8
:109A80001FFA89F97362C6E700000140988300203D
:109A90002DE9F8432C4D2B8AB5F80C8018EA030801
:109AA00025D02A4E4FF00047B8FA88F327FA03F280
:109AB000D24391B21B3B08EA02082982042B13D837
:109AC000DFE803F0322920170300736A002B34D13A
:109AD000EB6A1FFA83F9346A34B123682046494699
:109AE00098476468002CF8D1B8F1000FDCD1BDE8CC
:109AF000F8833068696B036889B29847B8F1000F42
:109B0000D2D1F4E77068A96B036889B29847B8F1BD
:109B1000000FC9D1EBE7B068E96B036889B29847D9
:109B2000B8F1000FC0D1E2E7F068296C036889B290
:109B30009847B8F1000FB7D1D9E703F1FF390023F7
:109B40001FFA89F97362C6E700000140988300207C
:109B5000F0B506683F4CB30AA3426CD065D93E4CC1
:109B6000A3425AD00134A34256D17027022543792B
:109B7000B6F80CE0022023FA00F4A0401FFA80FCA3
:109B8000A8002346441903EB4403344C002955D064
:109B90004CEA0E0C03F1040E44F8231044F82E2076
:109BA000A6F80CC0E319EFF31181502282F312885A
:109BB000421904EBC202D2F810C0BCF1000F03D06E
:109BC00044F807C013690433421904EBC202576911
:109BD00017B11F6053690433421904EBC20297693D
:109BE00017B11F6093690433421904EBC202D769AD
:109BF00017B11F60D36904330027CAB21F6082F314
:109C00001188284404EBC004236A4BB9B38923F0BC
:109C100001031B041B0CB381F0BD20270025A6E720
:109C2000B38943F00103B381F0BD043CA342F3D1F7
:109C3000482701259BE79827032598E72EEA0C0C77
:109C400003F1040EA6F80CC044F8231044F82E20AB
:109C5000A8E700BF06001000400010009883002015
:109C600010B503687C487D4C0139834282B024687A
:109C700089B200F0AF80A0F58060834200F0AA8036
:109C800000F58040834200F0818000F580608342CF
:109C90007CD000F58060834278D018886408B4FBDB
:109CA000F2F4013CA4B282B2B3F1804F0AD06C4806
:109CB000834207D000F58060834203D000F58060C6
:109CC000834202D122F0700292B26648834200F0D1
:109CD0008F8000F58060834200F0938022F4407210
:109CE00000F56C4092B283421A80D9621C8540F024
:109CF0009180012100221A86998219885A4841F0E0
:109D000001018342198049D0B3F1804F00F08D806A
:109D1000534A934200F08B8002F58062934200F038
:109D2000888002F58062934200F0858002F58062AF
:109D3000934200F0828002F5806293427FD002F568
:109D4000704293427DD002F5705293427BD002F56F
:109D50008062934279D002F58062934277D0A2F577
:109D60009832934275D002F58062934215D002F585
:109D70008062934208BF0D2210D002A84FF0012349
:109D800040F8043D20F0BAF902B010BD1888B4FBC9
:109D9000F2F4013CA4B282B286E70C22334B03EB0F
:109DA000C20201A854798DF80440012300228DF8E5
:109DB00005308DF807308DF8062020F09FF91B2C18
:109DC0000FD02E2CE0D12A4B019301A820F096F958
:109DD00002B010BD1888B4FBF2F4013CA4B282B208
:109DE00070E7244B019301A820F088F902B010BD60
:109DF00001201A80D9621C8598821A8802431A8031
:109E000086E701201A80D9621C8598821A8802434D
:109E10001A8079E7104A93423FF46BAF01229A828D
:109E20001A8842F001021A806EE70122B6E7022288
:109E3000B4E70322B2E70422B0E70522AEE7062228
:109E4000ACE70722AAE70822A8E70922A6E70A2228
:109E5000A4E70B22A2E700BF00040140F0BE0020EF
:109E600000040040001000400000014090EE040893
:109E70002C010001190100012B4B98423CD0B0F19C
:109E8000804F3BD0A3F57C43984239D003F58063E3
:109E9000984237D003F58063984235D003F580634C
:109EA000984233D003F58063984233D003F5704372
:109EB000984231D003F57053984229D003F580635E
:109EC00098422BD003F58063984229D0A3F59833AC
:109ED000984227D003F58063984207D003F580634A
:109EE000984208BF0D2202D0002070470C220F4B71
:109EF00003EBC203187970470022F8E70122F6E766
:109F00000222F4E70322F2E70422F0E70522EEE75B
:109F10000822ECE70622EAE70722E8E70922E6E75B
:109F20000A22E4E70B22E2E70000014090EE040879
:109F300030B400240F4A2346254604E00133072BA2
:109F40000DD012F8244C30EA040402F12402F5D1B9
:109F5000A94207D001330135072BEDB2F1D1002022
:109F600030BC7047044A03EBC30302EB830330BCED
:109F7000187970477AED040850ED0408B8B10C4A1E
:109F8000262188424FF0000302F1240208D0013359
:109F9000072B0BD012F8241C884202F12402F6D1C0
:109FA000044803EBC30300EB8300704700207047B5
:109FB00078ED040850ED0408224B5B68C3F30803F6
:109FC00030B4D3B9EFF31183BBB91F4A1F4D2048FA
:109FD0001368846811688B42FAD129688C42F7D8DB
:109FE0001C4A11684FF47A7202FB01F0001B30BC6E
:109FF000B0FBF1F002FB03007047EFF31182102376
:10A0000083F3128803F1E023D2B29C68196811F43B
:10A01000803F11491EBF012008609C680A4B1868E8
:10A020000B6882F311880B4A11684FF47A7203446B
:10A0300002FB01F0001B30BCB0FBF1F002FB03009F
:10A04000704700BF00ED00E024B1002038BB0020C5
:10A0500010E000E034BB002030BB00202DE9F84FB9
:10A060008046274C274DDFF8A490274EFFF7A4FF2A
:10A07000DFF89CE0DFF89CC04FF0100A4FF47A77CD
:10A08000DCF80430C3F30803CBB9EFF31183B3B9A1
:10A090002368A96822689342FAD132689142F7D8BE
:10A0A000DEF8002007FB02FBABEB0101B1FBF2F194
:10A0B00007FB03131B1A4345E2D3BDE8F88FEFF308
:10A0C00011818AF31288D5F808B02B68DB0304D518
:10A0D0000123C9F80030D5F808B02368D9F800206A
:10A0E000C9B281F31188DEF80010134407FB01F2B6
:10A0F000A2EB0B02B2FBF1F207FB0323DAE700BF8E
:10A1000024B1002010E000E038BB002030BB00206C
:10A1100034BB002000ED00E0064B53F820302BB19B
:10A120001A689B8851690B4201D11383704753838E
:10A13000704700BF88B800202DE9F04FDFF834C128
:10A14000494CDFF834E1DFF83481484E8246484814
:10A150001AF1FF3AC0F08680DCF80430C3F308033C
:10A16000002B5ED1EFF31183002B5AD10568A26852
:10A1700003689D42FAD133689A42F7D8DEF800703E
:10A180004FF47A7101FB07F39B1AB3FBF7F301FB62
:10A190000535DCF80430C3F308034FF010094FF421
:10A1A0007A77F3B9EFF31183DBB90368A16802682A
:10A1B0009342FAD132689142F7D8DEF8002007FBCB
:10A1C00002FBABEB0101B1FBF2F107FB03135B1BDD
:10A1D000B3F57A7FBCD2DCF80430C3F30803002B5C
:10A1E000E0D0EFF3118189F31288D4F808B0236826
:10A1F000DB0304D50123C8F80030D4F808B00368A5
:10A20000D8F80020C9B281F31188DEF80010134499
:10A2100007FB01F2A2EB0B02B2FBF1F207FB0323F7
:10A22000D5E7EFF31183102282F31288A168226828
:10A23000D20303D50122C8F80020A168D0F800900D
:10A24000D8F80050DBB283F31188DEF800704FF4C9
:10A250007A724D4402FB07F35B1AB3FBF7F302FB80
:10A26000053596E7BDE8F08F10E000E038BB002030
:10A2700024B1002000ED00E034BB002030BB002002
:10A2800030B4EFF31183102282F312880848094991
:10A290000268094D094C013202608A682A60002276
:10A2A0002260DBB20A6883F3118830BC704700BFBC
:10A2B00024B1002010E000E038BB002030BB0020BB
:10A2C00038B5254B1C69A26BE36D62B1E26BC2B17C
:10A2D000998A1A88C90592B204D5D20744BF4FF6AD
:10A2E000F7721A8038BD99891A88890692B2EDD51D
:10A2F0009206EBD5E26AFAB19888216B9047E36D3C
:10A30000E4E799891A880D0692B2E1D51006DFD5E7
:10A31000D4E909128A420AD0A1692569885C98802B
:10A320000132B2FBF5F105FB1122A262D0E7DA6837
:10A3300022F08002DA60CBE79B88E2696169DBB2D8
:10A340008B54E269E068E36D0132B2FBF0F100FB8F
:10A350001122E261BAE700BFF00A001038B5254BC0
:10A36000DC68A26BE36D62B1E26BC2B1998A1A88B4
:10A37000C90592B204D5D20744BF4FF6F7721A80CE
:10A3800038BD99891A88890692B2EDD59206EBD527
:10A39000E26AFAB19888216B9047E36DE4E7998906
:10A3A0001A880D0692B2E1D51006DFD5D4E909125C
:10A3B0008A420AD0A1692569885C98800132B2FB83
:10A3C000F5F105FB1122A262D0E7DA6822F08002E3
:10A3D000DA60CBE79B88E2696169DBB28B54E269A2
:10A3E000E068E36D0132B2FBF0F100FB1122E261A3
:10A3F000BAE700BFF00A001038B5254B9C68A26B85
:10A40000E36D62B1E26BC2B1998A1A88C90592B252
:10A4100004D5D20744BF4FF6F7721A8038BD998928
:10A420001A88890692B2EDD59206EBD5E26AFAB1A6
:10A430009888216B9047E36DE4E799891A880D06A7
:10A4400092B2E1D51006DFD5D4E909128A420AD0CA
:10A45000A1692569885C98800132B2FBF5F105FBA2
:10A460001122A262D0E7DA6822F08002DA60CBE73C
:10A470009B88E2696169DBB28B54E269E068E36D55
:10A480000132B2FBF0F100FB1122E261BAE700BF3A
:10A49000F00A001038B5254B5C68A26BE36D62B121
:10A4A000E26BC2B1998A1A88C90592B204D5D20763
:10A4B00044BF4FF6F7721A8038BD99891A88890609
:10A4C00092B2EDD59206EBD5E26AFAB19888216B8B
:10A4D0009047E36DE4E799891A880D0692B2E1D5B9
:10A4E0001006DFD5D4E909128A420AD0A16925698C
:10A4F000885C98800132B2FBF5F105FB1122A26263
:10A50000D0E7DA6822F08002DA60CBE79B88E26964
:10A510006169DBB28B54E269E068E36D0132B2FB42
:10A52000F0F100FB1122E261BAE700BFF00A00106F
:10A5300038B5254B1C68A26BE36D62B1E26BC2B10A
:10A54000998A1A88C90592B204D5D20744BF4FF63A
:10A55000F7721A8038BD99891A88890692B2EDD5AA
:10A560009206EBD5E26AFAB19888216B9047E36DC9
:10A57000E4E799891A880D0692B2E1D51006DFD575
:10A58000D4E909128A420AD0A1692569885C9880B9
:10A590000132B2FBF5F105FB1122A262D0E7DA68C5
:10A5A00022F08002DA60CBE79B88E2696169DBB266
:10A5B0008B54E269E068E36D0132B2FBF0F100FB1D
:10A5C0001122E261BAE700BFF00A00100368DB6AFB
:10A5D00003B11847704700BF03689B6A03B118476F
:10A5E000704700BF03682DE9F0415D6A1DB12B463D
:10A5F000BDE8F0411847002A174611DD04460E4613
:10A600000F4400E023689B68204698470028F9D053
:10A61000236816F8011B1B6820469847BE42F1D1FB
:10A62000BDE8F08103689B69184700BF03685B6958
:10A63000184700BF0368DB68184700BF03689B68C2
:10A64000184700BF03685B68184700BF03681B68B2
:10A65000184700BF014B586CF8E700BF782800206E
:10A6600038B50C46097849B1054601342B682846AF
:10A670001B68984714F8011B0029F7D138BD00BFAB
:10A680002DE9F04F4A484B494B4B4C4C4FF0010AD7
:10A690004FF002094FF004084FF0080E4FF0100C75
:10A6A00020274026802530F8022B12F0010F03D01E
:10A6B0001960A3F804A0083312F0020F03D0196048
:10A6C000A3F80490083312F0040F03D01960A3F824
:10A6D0000480083312F0080F03D01960A3F804E0D7
:10A6E000083312F0100F03D01960A3F804C0083328
:10A6F00012F0200F02D019609F80083312F0400F33
:10A7000002D019609E80083312F0800F02D01960C9
:10A710009D80083312F4807F05D04FF4807B196050
:10A72000A3F804B0083312F4007F05D04FF4007B87
:10A730001960A3F804B0083312F4806F05D04FF409
:10A74000806B1960A3F804B0083312F4006F05D0D1
:10A750004FF4006B1960A3F804B0083312F4805F63
:10A7600005D04FF4805B1960A3F804B0083312F4ED
:10A77000005F05D04FF4005B1960A3F804B0083304
:10A7800012F4804F05D04FF4804B1960A3F804B049
:10A790000833D20B04D04FF4004219609A8008337A
:10A7A00001F58061A1427FF47EAFBDE8F08F00BF6C
:10A7B0004CEE0408000002409CAF00200010024054
:10A7C00000B97047036803F13F4202F57E022DE9AC
:10A7D000F04F920A464DAA5C02F01F05520901246F
:10A7E000032A04FA05F47ED0042A77D0022A30D056
:10A7F00001F00306721E012AC1F3810EC1F3001895
:10A800008588C1F341114FF000024FF0010C25D9AA
:10A810004FF0030E0CFA02F0A84315D150001F6848
:10A820000EFA00F4E44327401F60D3F8008006FAD4
:10A8300000F747EA08071F60DF683C40DC60DC681F
:10A8400001FA00F02043D8600132102AE2D1BDE8BD
:10A85000F08F284A556C2C435464C9E74FF0030924
:10A860000CFA02F737EA050033D15000D3F800A004
:10A8700009FA00F4E4430AEA040AC3F800A0D3F892
:10A8800000B006FA00FA4AEA0B0AC3F800A0D3F8AF
:10A8900008A004EA0A0AC3F808A0D3F808B00EFA20
:10A8A00000FA4AEA0B0AC3F808A0D3F804A02AEA7F
:10A8B00007075F60D3F804A008FA02F747EA0A071F
:10A8C0005F60DF683C40DC60DC6801FA00F0204338
:10A8D000D8600132102AC3D1BDE8F08F054A156B4C
:10A8E0002C43146384E7034A156C2C4314647FE7FC
:10A8F00058EE04080038024010B1036882885A8379
:10A90000704700BF10B1036882881A83704700BF88
:10A9100018B10368828809B95A8370471A8370474F
:10A9200010B40A4B0A4A1C7801238340234052F892
:10A93000200029B9B3FA83F149095DF8044BE7E730
:10A94000191C18BF01215DF8044BE1E780B8002015
:10A9500088B8002008B501210220FFF7E1FF0C4B69
:10A960001B7803F00503052B0ED000210120FFF713
:10A97000D7FF00210846FFF7D3FF3220FFF7DCFBAB
:10A980000220FFF7C9FBF8E73AF07AFDEDE700BFD8
:10A99000C88500200E4B1B8801463BB90D4B0E4A63
:10A9A0001B7810680BB981F00101B1E70B4B5A69B4
:10A9B0001AB11A6810B910605874704708480949EC
:10A9C000008891FBF0F1012011605874704700BFBE
