:020000040800F2
:10000000F0FF001025940408092B0208993B010811
:10001000C1940408C1940408C194040800000000BD
:10002000000000000000000000000000152B020886
:10003000112B0208000000000D2B0208C534010836
:10004000C1940408C1940408C1940408C19404082C
:10005000C1940408C1940408694201089543010849
:10006000594301081D430108E14201081D9A030894
:100070000D9A0308FD990308ED990308D99903081F
:10008000C5990308B1990308C1940408C1940408F0
:10009000C1940408C1940408C1940408A54201084D
:1000A000C1940408152C0108C1940408D52C01083A
:1000B000C1940408C1940408552B0108C99F030882
:1000C000D19F0308BD9F0308C59F0308C19404087E
:1000D000C194040875370108D93601083D36010876
:1000E0002D420108C1940408A979020809290108D0
:1000F000D5290108C1940408952A01089D9903088F
:10010000C1940408C1940408C1940408C19404086B
:10011000A1350108053501089DEE020889EE0208A7
:100120008999030875990308819203086199030866
:100130004D990308C1940408C1940408C1940408AB
:10014000C1940408C1940408C194040851430208EE
:10015000399903082599030811990308C1940408E3
:10016000B19F0308B99F0308C1940408C19404080F
:10017000C1940408C1940408C1940408C1940408FB
:08018000C1940408C1940408B5
:08018800CC8F0400010000000F
:1001900003123300FC2F0020CC36002000000000AA
:1001A000F406000825009600803500201636002051
:1001B000000000000000000015007000283400203E
:1001C0009834002000000000000000002A006000B9
:1001D00068330020C83300200000000051F50308F8
:1001E0002C001000AC360020BC36002000000000BF
:1001F000419C00082B00240023370020FF360020FC
:1002000000000000119C00082910780078320020BE
:10021000083500200000000000000000140003006A
:100220000432002065330020000000002807000889
:10023000101002007C3000208C37002000000000ED
:100240002C07000828101000282D002090370020CF
:100250000000000001800008230010004C2C00204A
:10026000A03700200000000019800008F8210600D7
:10027000A62D0020B0370020000000002E07000847
:100280001A023C00C437002074390020000000002E
:10029000D55E030827000400C0370020B0390020D5
:1002A00000000000340700080E502001A64A00207C
:1002B000C05200200000000079F503080902010087
:1002C000E4510020E053002000000000380700083F
:1002D0000C106C00FE4B0020E453002000000000D6
:1002E000F9DF0208010205002A4A002050540020CC
:1002F00000000000BD98010800020500284F002002
:100300005854002000000000000000001B020800FC
:10031000B851002060540020000000008154030800
:10032000012008009C5000206854002000000000BC
:100330003A070008190005004C51002070540020B5
:10034000000000004207000837001E002451002072
:100350007854002000000000480700081E00050037
:10036000EC4C0020985400200000000066070008B4
:100370001B00F400C0390020A05400200000000041
:1003800099A901080E020200345000209455002063
:10039000000000006C0700082F001100A052002090
:1003A00098550020000000006E07000805100600A8
:1003B0001C6B00200870002000000000800700086F
:1003C00026000E00207000201070002000000000A9
:1003D000511E02081F201C00705F00205470002076
:1003E000000000008607000805020400B46A00202F
:1003F0007070002000000000A207000803010A003E
:10040000D86700207470002000000000A6070008D4
:1004100013020300D85D002080700020000000005F
:10042000B0070008160008004C8300205883002005
:1004300000000000B4070008070202001086002038
:100440005486002000000000BC07000802000C00D9
:10045000E485002058860020000000000000000015
:1004600006020C00D88500206486002000000000F1
:100470002D5D0308081209005C85002070860020AD
:1004800000000000E1540308F70106005685002033
:100490007C86002000000000BE0700080A020A0057
:1004A000748400208486002000000000C407000837
:1004B000030001004C850020908600200000000011
:1004C0000000000010020100349000203090002055
:1004D00000000000CE0700080400800030D7002094
:1004E000E8D7002000000000000000000D003400EC
:1004F000CCD6002068D800200000000071E002087F
:100500001300040024CD00209CD80020000000002F
:10051000D0070008F5317000CCCD0020A0D8002015
:10052000000000008DA3010801010400C8CD0020D7
:1005300010D90020000000000000000000010400AD
:10054000C4CD002014D9002000000000D40700080A
:1005500002010300C0CD002018D9002000000000D7
:1005600021E002080B20100038CD00201CD900200B
:1005700000000000D8070008F6210C0028CD00205C
:100580002CD9002000000000E8070008FD011E0033
:100590009CCC002038D9002000000000F115010893
:1005A00018202C006CCC002058D90020000000003E
:1005B000C95C030806101800C8BF002084D90020B9
:1005C00000000000D5F50308FB010100C4BF0020B6
:1005D0009CD90020000000009D5C0308FC0109007C
:1005E00090BE0020A0D9002000000000AD5C0308F0
:1005F00034001000B8BD0020ACD90020000000007D
:10060000A9F503081102080090BD0020BCD9002004
:1006100000000000F40700081212040088BD00204A
:10062000C4D9002000000000FC07000812200D00C3
:1006300078BD0020C8D90020000000000008000894
:10064000F90104001CB80020D8D9002000000000E7
:10065000691601081802020020B20020DCD900202F
:10066000000000000000000017020B0014B2002080
:10067000E0D90020000000009D540308FA010200A8
:10068000F0B10020ECD9002000000000055603085E
:100690000202030024AF0020F0D900200000000077
:1006A000000000000C020300E0AE0020F4D900209E
:1006B000000000008D540308FE010900C0B10020B5
:1006C000F8D9002000000000195503080A40360040
:1006D00064B1002004DA0020000000000E080008C9
:1006E0001A000E00CC4101206043012000000000F0
:0406F00044080008B2
:1006F40000000000000000000000000000000000F6
:1007040000000000000000000000000000000000E5
:1007140000000000000000000000000000000000D5
:10072400000001000300000000050201F4011900AB
:10073400200300000000E8036400040A0001000034
:100744002801000020003200C800D00796001400E1
:1007540032002800B00440060005500014000F00C9
:10076400080100000100000000000000000000007B
:100774000000000000000000000000002000010153
:10078400000000000000000100000005000001025C
:100794000300000000000000000000000000000052
:1007A4000000040101006C160000000000000000BD
:1007B400C409000019012828023C3F010000000080
:1007C40000004A01B400D6012600000008044430A9
:1007D400FA0000002B21231E640101000000010027
:1007E4000A012900000000000100000002020000CC
:1007F4000000000001010101FFFFFFFF00000001F4
:10080400000005484553500000000030010000007E
:1008140001000000000000000000000000000000D3
:10082400020000019E077D00000020000100B80BBB
:10083400B80BB80B2000500050005000000000001E
:0E0844007E05EA05B4053200E803D007000087
:10085200D60101000001010100006A000101FFFF51
:10086200FFFFFFFFFF00000000000100E0010101A7
:1008720001000000919C0108000000009801002086
:100882007C47050800000000000000000000000096
:1008920000000000B43C0508000000000000000059
:1008A2002E02002004000000284705080D00000069
:1008B20035C70108AC1C002000000000604005089C
:1008C2000D0000005DC70108A01C00200000000010
:1008D200C84105080800000000000000941C002028
:1008E20004000000CC4005080D000000459D0108F1
:1008F200881C0020000000007C4105080300000065
:1009020059C901087C1C0020000000008C47050822
:100912000300000059C90108701C002000000000FB
:10092200FC3C05080100000000000000000000007F
:1009320000000000000000000E00000000000000A7
:1009420000000000000000007C47050800000000D5
:10095200000000000000000000000000B43C050898
:1009620000000000000000002E0200200400000031
:10097200D4460508030000007DA40108641C002081
:1009820008000000CC4005080D000000459D01084C
:10099200881C0020000000007C41050803000000C4
:1009A20059C901087C1C0020000000008C47050882
:1009B2000300000059C90108701C0020000000005B
:1009C200FC3C0508010000000000000000000000DF
:1009D20000000000000000000E0000000000000007
:1009E200000000000000000094470508000000001D
:1009F200000000000000000000000000B43C0508F8
:100A020000000000000000002E0200200400000090
:100A1200DC4605080300000059C90108B81C002083
:100A220000000000FC3C050801000000000000007E
:100A32000000000000000000000000000E000000A6
:100A420000000000000000000000000020700020F4
:100A5200702D7200FFFFFFFF010000000000803FC9
:100A62000800000000000000000000002018002024
:100A7200FA0000000100000001000000FFFF2D202D
:100A82002D2D202D2D2D2D202D2D2D00000000008F
:100A92000000000000000000000000000000000054
:100AA200FFFFFFFFD03C0508D83C0508F43C0508D1
:100AB2000000000000000000000000000000000034
:100AC200B03A050804000000FDC40108000000005F
:100AD20000000000FC3C05080100000000000000CE
:100AE2000000000000000000000000000E000000F6
:100AF200000000000000000000000000D0D700202D
:100B02000100C40900000000CED700200100C40982
:100B120000000000CCD700200100C4090000000042
:100B2200CAD700200100C40900000000C6D7002077
:100B32000100C40900000000C8D700200100C40958
:100B420000000000C4D700200100C409000000001A
:100B5200C2D700200100C409000000003C4A002066
:100B62000100C800010000003A4A0020320030753E
:100B720032000000384A0020055A0500354A00209C
:100B820000FF0100374A002001000000540200204B
:100B9200334A002002000000FCD80408344A002036
:100BA20000FF0100364A002001000000540200202C
:100BB200324A002002000000FCD80408284A002023
:100BC20080C1803E05000000264A002080C1803E90
:100BD20005000000244A002080C1803E050000007C
:100BE200224A002080C1803E05000000214A0020E8
:100BF20000FF0100204A00200A3201001F4A0020A3
:100C020004000000B4D604081E4A002002000000BE
:100C1200C8D6040800000000000000005C020020AA
:100C2200646A00209CFF2C01000000001E000020CE
:100C32000A000000D4D60408144A0020E0150C175C
:100C4200000000002000002008000000D0D80408A6
:100C52001F00002005000000F8D70408164A0020F3
:100C620002000000ECD60408844C00200100FF7F43
:100C720001000000834C002002000000F8D60408A6
:100C8200D24B00200000C20101000000CE4B002028
:100C92000000C20101000000D04B00200000C20190
:100CA20001000000CA4B00200000803E320000001C
:100CB200C84B00200000803E32000000C64B0020DE
:100CC2000000803E32000000CC4B002000002C01CE
:100CD20001000000DE4B00200000F40101000000D2
:100CE200DC4B00200000F40101000000DA4B002080
:100CF2000000F40101000000D84B00200000F401C4
:100D020001000000D64B00200000803E01000000E0
:100D1200D44B00200000803E01000000FA4B00206E
:100D2200E803D0070A000000F84B0020006401002D
:100D32000A000000ED4B002000640100EC4B002093
:100D420000640100F44B0020006401000A0000006E
:100D5200F34B0020006401000A000000F24B002067
:100D6200006401000A000000F74B0020006401004B
:100D72000A000000F64B0020006401000A00000097
:100D8200F54B0020006401000A000000F14B002036
:100D920000FF01000A000000F04B002000FF0100EC
:100DA2000A000000EF4B002000FF01000A000000D3
:100DB200A24A00200000F40101000000A04A002025
:100DC2000000F401010000009E4A00200000F4012E
:100DD200010000009C4A00200000F4010100000014
:100DE2009A4A00200000F40101000000EA4B0020B2
:100DF20000640100E84B00201400E8030100000039
:100E0200E64B0020E80330750A000000E44B0020A6
:100E120000C80100E34B002000C80100E24B0020A3
:100E220000C80100E14B0020006401000A0000003C
:100E3200784C00200000D00701000000734C002015
:100E420000C80100724C002000C80100714C002053
:100E520000C80100764C00200000D007010000000D
:100E6200704C002000C801006F4C002000C8010037
:100E72006E4C002000C80100744C00200000D00716
:100E8200010000006D4C002000C801006C4C0020E5
:100E920000C801006B4C002000C80100243D050879
:100EA2000000000000000000000000000000000040
:100EB200A00E050809000000000000000003002049
:100EC20004000000A80E0508090000000000000050
:100ED200F402002004000000BC44050809000000E0
:100EE20000000000E802002004000000A73B050803
:100EF2000900000000000000DC02002004000000E5
:100F0200343D05080900000000000000D002002066
:100F1200040000003C3D050809000000000000003C
:100F2200C402002004000000443D0508090000003E
:100F320000000000B8020020040000004C3D05083B
:100F42000900000000000000AC02002004000000C4
:100F5200FC3C050801000000000000000000000049
:100F620000000000000000000E0000000000000071
:100F720000000000000000004C3F050800000000D7
:100F8200000000000000000000000000002D050825
:100F92000700000000000000240300200000000001
:100FA2005C3F050808000000000000001803002054
:100FB20000000000683F0508080000000000000073
:100FC2000C03002000000000FC3C050801000000AA
:100FD200000000000000000000000000000000000F
:100FE2000E000000000000000000000000000000F1
:100FF200703F050800000000000000000000000033
:1010020000000000803F05080D0000000000000005
:101012006003002000000000883F05080D0000006A
:10102200000000005403002000000000903F05086B
:1010320007000000000000004C0300200000000038
:10104200983F05080D00000000000000400300204A
:1010520000000000A03F05080D0000000000000095
:101062003403002000000000A83F0508070000002C
:10107200000000002C03002000000000FC3C0508DA
:10108200010000000000000000000000000000005D
:10109200000000000E000000000000000000000040
:1010A20000000000B03F0508000000000000000042
:1010B2000000000000000000002D05080C000000E8
:1010C200000000003E4A002000000000C43F050866
:1010D2000C00000000000000404A00200000000058
:1010E200D43F05080C00000000000000764A0020F2
:1010F20000000000E43F05080C00000000000000B2
:101102006A4A002000000000F83F05080C000000B9
:1011120000000000424A00200000000004400508D0
:101122000C00000000000000444A00200000000003
:101132000C4005080C00000000000000464A002098
:1011420000000000204005080C0000000000000024
:10115200484A002000000000284005080C0000005A
:10116200000000004A4A002000000000304005084C
:101172000C00000000000000884A0020000000006F
:10118200484005080C000000000000004C4A002006
:1011920000000000544005080C00000000000000A0
:1011A2004E4A002000000000B00E05080C000000AE
:1011B20000000000504A0020000000005C400508CA
:1011C2000C00000000000000524A00200000000055
:1011D200684005080C00000000000000544A00208E
:1011E20000000000744005080C0000000000000030
:1011F200564A002000000000804005080C00000054
:1012020000000000584A0020000000008C40050841
:101212000C000000000000005A4A002000000000FC
:10122200984005080C000000000000006E4A0020F3
:1012320000000000A04005080C00000000000000B3
:101242006C4A002000000000A84005080C000000C5
:10125200000000007A4A002000000000B4400508A7
:101262000C000000000000007C4A0020000000008A
:10127200C04005080C00000000000000824A002067
:1012820000000000F03D05080C0000000000000016
:101292005C4A002000000000CC4005080C00000061
:1012A20000000000644A002000000000D44005084D
:1012B2000C000000000000005E4A00200000000058
:1012C200E04005080C00000000000000604A002019
:1012D20000000000EC4005080C00000000000000C7
:1012E200624A002000000000F44005080C000000E3
:1012F20000000000664A002000000000202D0508C2
:101302000C00000000000000704A002000000000F5
:10131200004105080C00000000000000684A00209F
:10132200000000003D3C05080C0000000000000029
:10133200784A0020000000000C4105080C00000063
:1013420000000000724A002000000000144105085D
:101352000C00000000000000744A002000000000A1
:101362001C4105080C000000000000007E4A00201D
:1013720000000000244105080C00000000000000ED
:10138200804A0020000000002C4105080C000000EB
:1013920000000000924A002000000000FC3C05080A
:1013A200010000000000000000000000000000003A
:1013B200000000000E00000000000000000000001D
:1013C2000000000034410508000000000000000099
:1013D2000000000000000000404105080D00000070
:1013E20000000000B803002000000000484105088A
:1013F2000D00000000000000AC030020000000000F
:10140200504105080700000000000000A40300206E
:10141200000000005C410508070000000000000019
:101422009C0300200000000068410508090000003C
:101432000000000090030020000000007441050835
:1014420009000000000000008403002000000000EA
:101452008041050809000000000000007803002018
:101462000000000090410508090000000000000093
:101472006C03002000000000FC3C05080100000095
:10148200000000000000000000000000000000005A
:101492000E0000000000000000000000000000003C
:1014A200A441050800000000000000000000000048
:1014B20000000000B4410508050000000000000023
:1014C200994A002000000000FC3C050801000000D1
:1014D200000000000000000000000000000000000A
:1014E2000E000000000000000000000000000000EC
:1014F200BC410508000000000000000000000000E0
:1015020000000000B43C05080000000000000000DC
:10151200541E002004000000A33B05080D0000003B
:1015220061C501080C0400200000000028470508DE
:101532000D000000499C010800040020000000008A
:10154200604005080D0000002D9C0108F4030020F6
:1015520000000000C841050808000000000000006B
:10156200E803002004000000CC4005080D00000044
:10157200759B0108DC03002000000000D041050833
:101582000900000000000000D00300200400000059
:101592007C4105080300000059C90108C40300206A
:1015A20000000000FC3C05080100000000000000F3
:1015B2000000000000000000000000000E0000001B
:1015C200000000000000000000000000D8410508F3
:1015D2000000000000000000000000000000000009
:1015E200E84105080D00000000000000240400206E
:1015F20000000000F04105080A00000000000000A1
:10160200FC4F002000000000FC4105080A00000019
:101612000000000004500020000000000442050801
:101622000A000000000000000C5000200000000032
:101632000C42050808000000000000001804002009
:101642000000000014420508040000008DCA0108D1
:101652000000000000000000FC3C05080100000042
:101662000000000000000000000000000000000078
:101672000E0000000000000000000000000000005A
:1016820020420508000000000000000000000000E9
:1016920000000000344205080000000000000000C5
:1016A200000000000000000054420508080000008D
:1016B2000000000078040020000000005C420508E1
:1016C20008000000000000006C0400200000000080
:1016D20064420508080000000000000060040020C9
:1016E200000000006C420508080000000000000035
:1016F20054040020000000007442050808000000A5
:10170200000000004804002000000000804205089C
:1017120008000000000000003C040020000000005F
:101722008C42050808000000000000003004002080
:1017320000000000FC3C0508010000000000000061
:1017420000000000000000009442050802000000B2
:10175200E1CA0108020000000000000000000000D1
:101762000E00000000000000000000000000000069
:10177200A042050800000000000000000000000078
:1017820000000000B442050808000000000000004C
:10179200C004002000000000C0420508080000004C
:1017A20000000000B404002000000000CC42050844
:1017B2000800000000000000A80400200000000053
:1017C200D842050808000000000000009C04002028
:1017D20000000000E44205080800000000000000CC
:1017E2009004002000000000F042050808000000FC
:1017F200000000008404002000000000FC3C0508FA
:1018020001000000000000000000000000000000D5
:10181200000000000E0000000000000000000000B8
:1018220000000000FC42050800000000000000006B
:10183200FF01002000000000084305080B00000023
:1018420000000000540500200000000014430508B9
:101852000B0000000000000048050020000000000E
:10186200204305080B000000000000003C0500209A
:10187200000000002C4305080B00000000000000DF
:101882003005002000000000384305080B0000006E
:101892000000000024050020000000004443050869
:1018A2000B000000000000001805002000000000EE
:1018B200504305080B000000000000000C0500204A
:1018C200000000005C4305080B000000000000005F
:1018D2000005002000000000684305080B0000001E
:1018E20000000000F404002000000000744305081A
:1018F2000700000000000000EC04002000000000CF
:101902007C4305080700000000000000E4040020FA
:1019120000000000884305080B00000000000000E2
:10192200D8040020000000009443050808000000CD
:1019320000000000CC04002000000000FC3C050870
:101942000100000000000000000000000000000094
:10195200000000000E000000000000000000000077
:1019620000000000A0430508000000000000000085
:101972000000000000000000B44305080800000059
:10198200000000009005002000000000C043050890
:101992000800000000000000840500200000000094
:1019A200CC43050808000000000000007805002074
:1019B20000000000D84305080800000000000000F5
:1019C2006C050020000000008C42050808000000A1
:1019D200000000006005002000000000FC3C05083B
:1019E20001000000000000000000000000000000F4
:1019F200000000000E0000000000000000000000D7
:101A020000000000E44305080000000000000000A0
:101A1200FC01002000000000F44305080B00000058
:101A220000000000D405002000000000004405086A
:101A32000700000000000000CC05002000000000AC
:101A42000C4405080700000000000000C405002047
:101A52000000000018440508070000000000000014
:101A6200BC05002000000000244405080800000016
:101A720000000000B0050020000000002C44050812
:101A82000800000000000000A40500200000000083
:101A92003444050807000000000000009C050020F7
:101AA20000000000FC3C05080100000000000000EE
:101AB2000000000000000000000000000E00000016
:101AC2000000000000000000000000004044050883
:101AD2000000000000000000FC01002000000000E7
:101AE2004C440508070000000000000044060020E6
:101AF2000000000054440508070000000000000038
:101B02003C060020000000005C44050807000000BD
:101B120000000000340600200000000064440508B4
:101B2200080000000000000028060020000000005D
:101B32006C44050807000000000000002006002099
:101B420000000000744405080700000000000000C7
:101B520018060020000000007C4405080700000071
:101B62000000000010060020000000008444050868
:101B72000800000000000000040600200000000031
:101B82008C4405080700000000000000FC0500204E
:101B92000000000094440508070000000000000057
:101BA200F4050020000000009C4405080700000026
:101BB20000000000EC05002000000000A44405081D
:101BC2000800000000000000E00500200000000006
:101BD200FC3C0508010000000000000000000000BD
:101BE20000000000000000000E00000000000000E5
:101BF200000000000000000000000000C99F010872
:101C02004C060020974A00202B00000008D7040849
:101C1200964A002000C80100944A0020E803D00739
:101C22000100000048454C494F535052494E47006D
:101C3200314A002000030100304A00200003010065
:101C4200119F0108E99E010828070020A59E0108AE
:101C5200599E0108A0070020519F0108399F0108E1
:101C620054080020BD9D0108699D0108740B0020E5
:101C7200DF9F010885C70108500C0020B59B0108B1
:101C820000000000A00C002069CA0108D9A20108C6
:101C92007C0D0020B1A0010875A00108300E0020C3
:101CA20021A10108EDA00108200F0020A9A101082F
:101CB200F5A10108D40F0020EB4B00200106010022
:101CC20039A0010805A001081411002055A101083E
:101CD200B5C70108B411002025A2010805C80108F2
:101CE2007C120020E04B002001030100AC440508F7
:101CF20000000000000000000000000000000000E2
:101D0200B84405080800000000000000C8130020C5
:101D120000000000C04405080700000000000000A9
:101D2200C013002000000000D04405080D00000090
:101D320000000000B413002000000000DC4405088D
:101D42000300000059C90108A81300200000000088
:101D5200FC3C05080100000000000000000000003B
:101D620000000000000000000E0000000000000063
:101D72000000000000000000E4440508000000002C
:101D8200000000000000000000000000F44405080C
:101D92000A00000000000000FC44050800000000EA
:101DA200044505080A0000000000000041FD040887
:101DB200000000000C4505080A00000000000000B9
:101DC2007A4C002000000000144505080A000000BB
:101DD20000000000D413002000000000FC3C0508B5
:101DE20001000000000000000000000000000000F0
:101DF200000000000E0000000000000000000000D3
:101E0200000000001C450508000000000000000062
:101E12000000000000000000284505080300000043
:101E220059C90108081400200000000034450508C3
:101E32000300000059C90108FC1300200000000043
:101E42003C4505080300000059C90108F0130020B1
:101E520000000000444505080500000000000000E5
:101E62002F4A0020000000004C4505080700000032
:101E720000000000E813002000000000584505089B
:101E82000700000000000000E01300200000000036
:101E9200FC3C0508010000000000000000000000FA
:101EA20000000000000000000E0000000000000022
:101EB200000000000000000064450508000000006A
:101EC2000000000000000000000000007845050846
:101ED2000300000059C90108381400200000000066
:101EE200844505080300000059C9010824000020A8
:101EF200000000008C4505080300000059C90108D4
:101F02002C14002000000000944505080300000086
:101F120059C901082014002000000000CC40050827
:101F22000300000059C90108141400200000000039
:101F3200FC3C050801000000000000000000000059
:101F420000000000000000000E0000000000000081
:101F52000000000000000000A0450508000000008D
:101F6200000000000000000000000000B04505086D
:101F72000700000061C8010894140020000000005E
:101F8200F04005080300000059C901088814002028
:101F920000000000BC4505080300000059C9010803
:101FA2007C14002000000000C44505080300000066
:101FB20059C901087014002000000000CC45050832
:101FC2000700000045C80108681400200000000056
:101FD200CC4905080300000059C901085C1400201F
:101FE20000000000D84505080300000059C9010897
:101FF2005014002000000000E44505080300000022
:1020020059C901084414002000000000FC3C0508E6
:1020120001000000000000000000000000000000BD
:10202200000000000E0000000000000000000000A0
:1020320000000000999F0108699F01089C1400207C
:10204200A5A201080000000028150020359E010805
:10205200119E0108B41500200000000000000000DD
:10206200681600207DA201087DC80108081700201B
:10207200EC45050800000000000000000000000020
:1020820000000000F84505080300000059C90108D6
:10209200141800200000000000460508030000009C
:1020A20059C901080818002000000000182E050870
:1020B2000300000059C90108FC17002000000000BD
:1020C2000C4605080300000059C90108F01700205A
:1020D20000000000184605080300000059C9010865
:1020E200E41700200000000020460508020000005E
:1020F200E1CA0108000000000000000028460508AF
:1021020002000000E1CA0108010000000000000016
:102112009442050802000000E1CA01080200000022
:1021220000000000000000000E000000000000009F
:1021320000000000000000001A4A002088136F17F8
:10214200010000001C4A002088136F1700000000E5
:1021520034460508000000000000000000000000F6
:1021620000000000444605080800000000000000CE
:10217200F418002004000000504605080800000082
:1021820000000000E8180020000000007C41050863
:102192000400000089C501080000000000000000E2
:1021A200FC3C0508010000000000000000000000E7
:1021B20000000000000000000E000000000000000F
:1021C2000000000000000000184A002088136F176A
:1021D20001000000A06A002088136F1700000000B1
:1021E200F99C01080000000000190020A14F002006
:1021F20001000000B8D70408A26A00200100000014
:10220200C4D70408986A002002000000CCD7040852
:10221200C25F00200000000000000000C05F00203C
:102222000000000000000000BE5F0020000000006F
:1022320000000000BC5F0020000000000000000061
:10224200BA5F00200000000000000000B85F00201C
:1022520000000000000000008C1E002000000000B2
:1022620000000000174A002002000000D8D704082E
:102272008C4605080000000000000000000000007D
:1022820000000000444605080800000000000000AD
:1022920084190020040000005046050808000000D0
:1022A2000000000078190020000000007C410508B1
:1022B20004000000C99C01080000000000000000AA
:1022C200FC3C0508010000000000000000000000C6
:1022D20000000000000000000E00000000000000EE
:1022E20000000000000000009C46050800000000FD
:1022F200000000000000000000000000AC460508DD
:102302000D000000D9C60108B41900200400000025
:10231200B84605080D000000219D0108A8190020FB
:1023220004000000C44605080D0000009DC6010817
:102332009C19002000000000D046050803000000A0
:102342009DA401089019002008000000DC46050841
:102352000300000059C90108B81C00200000000059
:10236200FC3C050801000000000000000000000025
:1023720000000000000000000E000000000000004D
:102382000000000000000000F43C0508000000000E
:10239200000000000000000000000000B03A050844
:1023A20004000000A1C501080000000000000000B8
:1023B200FC3C0508010000000000000000000000D5
:1023C20000000000000000000E00000000000000FD
:1023D2000000000000000000304705080000000077
:1023E200000000000000000000000000D0120508FC
:1023F2000D00000000000000141A0020040000007C
:10240200404705080800000000000000081A0020EC
:10241200040000004C47050808000000000000000E
:10242200FC190020040000005447050808000000C1
:1024320000000000F0190020040000005C470508BD
:102442000800000000000000E41900200400000061
:10245200644705080800000000000000D8190020A9
:10246200040000006C47050808000000000000009E
:10247200CC19002004000000744705080800000081
:1024820000000000C019002004000000FC3C050808
:102492000100000000000000000000000000000039
:1024A200000000000E00000000000000000000001C
:1024B20000000000E19C010800000000201A00203A
:1024C2000000000000000000981A00200000000038
:1024D20000000000381B00209E6A0020040000005B
:1024E200E4D704089C6A0020E0150C1700000000E5
:1024F2009B6A002008000000D0D804089A6A0020D5
:1025020005000000F8D704080000000000000000E9
:10251200881B00200403090412010002EF0201409B
:10252200830456320002010203010000120100027C
:10253200020200408304405700020102030100002E
:1025420009022000010104C0320904000002080649
:102552005005070581024000000705010240000006
:1025620009026400030100C03209040000010300F3
:10257200000009211101000122260007058303083A
:10258200000A080B01020202010009040100010213
:1025920002010005240010010524010002042402A6
:1025A200020524060102070582030800FF0904024E
:1025B20000020A0000000705010240000007058131
:1025C2000240000009024300020100C03209040077
:1025D200000102020100052400100105240100018E
:1025E200042402020524060001070582030800FFF5
:1025F20009040100020A0000000705010240000070
:102602000705810240000000FF00000000FFFF00FC
:1026120000000000AA55050100000100050109059E
:10262200A101A10005010930093109320933093537
:102632000934094009381581257F750895088102FA
:10264200C0C0000009022200010100E032090400BA
:1026520000010301020009211101000122260007E5
:1026620005830308000A00000000000001020304C1
:10267200010203040607080915350208DD3B0208BA
:1026820059370208D5120208F9140208E5120208A5
:1026920001130208AD1202089D1202080000000098
:1026A200000000002D202D2D202D2D2D2D202D2D33
:1026B2002D2D0000000000000000000000000000BE
:1026C200000000AA550B010000AA5507010000AA4C
:1026D200550902000000000001000000C012AA55C6
:1026E20003009F00FF1FFF1F010000003070002049
:1026F20000000000F4230020040000004C2D050817
:10270200784A05080000000035E00208A0860100B2
:1027120004000000000000000000000000000000B3
:1027220000000000000000000000000000000000A7
:102732004C2D0508A44B0508000000008D1401086B
:10274200E803000004000000000000000000000098
:102752000000000000000000000000000000000077
:1027620000000000F0400508BC0E05080000000053
:10277200890803087D000000060000000000000038
:102782000000000000000000000000000000000047
:102792000000000000000000A42C0508000000005A
:1027A20000000000B17A0108E80300000300000005
:1027B2000000000000000000000000000000000017
:1027C200000000000000000000000000AC4B050803
:1027D200000000000000000099F803081027000024
:1027E20003000000000000000000000000000000E4
:1027F20000000000000000000000000000000000D7
:10280200B4470508000000000D990008C54F0108F3
:102812005F760000050000000000000000000000DC
:1028220000000000000000000000000000000000A6
:10283200000000000C2F050800000000000000004E
:10284200E1850108102700000100000000000000DF
:102852000000000000000000000000000000000076
:102862000000000000000000B84B05080000000056
:102872000000000091140108E803000005000000B8
:102882000000000000000000000000000000000046
:10289200000000000000000000000000C44B05081A
:1028A200000000000000000041F30208204E00007A
:1028B2000300000000000000000000000000000013
:1028C2000000000000000000000000000000000006
:1028D200D44B050800000000000000002DF10208A2
:1028E200204E000003000000000000000000000075
:1028F20000000000000000000000000000000000D6
:1029020000000000E44B0508000000000000000089
:1029120069190108400D03000300000000000000D7
:1029220000000000000000000000000000000000A5
:102932000000000000000000102E0508000000004A
:1029420000000000254403081027000001000000D9
:102952000000000000000000000000000000000075
:10296200000000000000000000000000BC2C050870
:10297200000000000000000035E001081027000000
:102982000300000000000000000000000000000042
:102992000000000000000000000000000000000035
:1029A200F44B0508000000000000000081AA0008A6
:1029B200A0860100010000000000000000000000ED
:1029C2000000000000000000000000000000000005
:1029D20000000000F03D05080000000000000000BB
:1029E200397A0208A861000001000000000000001E
:1029F20000000000000000000000000000000000D5
:102A02000000000000000000FC4B05080000000070
:102A12000000000039FC0108A0860100010000004E
:102A220000000000000000000000000000000000A4
:102A3200000000000000000000000000142F050844
:102A42000000000000000000697B0208A00F0000E7
:102A52000100000000000000000000000000000073
:102A62000000000000000000000000000000000064
:102A7200084C0508000000000000000081A50108C4
:102A8200102700000100000000000000000000000C
:102A92000000000000000000000000000000000034
:102AA20000000000182E05080000000000000000D1
:102AB200415902081A410000010000000000000014
:102AC2000000000000000000000000000000000004
:102AD2000000000000000000742F05080000000044
:102AE20000000000051B0208102700000100000082
:102AF20000000000000000000000000000000000D4
:102B02000000000000000000000000008C4A0508E0
:102B1200000000000000000061CC01081A41000022
:102B220001000000000000000000000000000000A2
:102B32000000000000000000000000000000000093
:102B4200144C05080000000000000000BD540208FB
:102B5200400D030000000000000000000000000023
:102B62000000000000000000000000000000000063
:102B7200000000001C4C05080000000000000000DE
:102B8200F5790208400D030000000000000000007B
:102B92000000000000000000000000000000000033
:102BA2000000000000000000244C050800000000A6
:102BB20000000000B1ED010850C300000300000056
:102BC2000000000000000000000000000000000003
:102BD200000000000000000000000000304C05086A
:102BE2000000000000000000A1F0020840420F00B7
:102BF20000000000000000000000000000000000D3
:102C020000000000000000000000000000000000C2
:102C12003C4C050800000000000000005D4603086F
:102C220050C300000000000000000000000000008F
:102C32000000000000000000000000000000000092
:102C420000000000000200051002700B010102FFEB
:102C5200FF00000000000000448600200800000081
:102C620000000000348600200800000061180208FD
:102C72002D140208353702080000000099120208DC
:102C8200E93E0208151802086D340208000000002F
:102C92000000000055120208E9110208DD110208C5
:102CA200B92B0208D52B02089D2B0208812B0208A2
:102CB200652B020819180208091402087536020861
:102CC200000000006D12020871340208E9170208C0
:102CD200CD3302080000000000000000611202086B
:102CE2000000803F00000000000000000000000023
:102CF20084E504080508040000000000F8D7040871
:102D0200D0D80408E4D70408000000000000000046
:102D1200B0E5040805080A0000000000F8D704081E
:102D2200D0D80408D4D60408000000000000000037
:102D32001A03000000000000000000000000000074
:102D4200000000000000000000000000040309046D
:102D52001201000200000040830420570002010219
:102D620003010000A9760308615503085D550308B5
:102D7200595503085D60030855550308515503086A
:102D82007CE70408893E0208E9130208713D020843
:102D92000000000000000000A5330208C132020852
:102DA20000000000000000000000000049120208BC
:102DB200F9550308ED550308C5650308E1650308E5
:102DC200A5550308A96503088D65030801000000E5
:102DD2005001000007000000020000000000000097
:102DE20000000000010203040607080908000000B1
:102DF200D9110208D5110208D1110208C511020821
:102E0200C1110208CD110208C91102080100000017
:102E1200006002401060024000000000000000005C
:102E2200000B000000000000000000000000000095
:102E32000060024028600240010000000000000023
:102E4200060C00000000000000000000000000006E
:102E520000600240406002400200000000000000EA
:102E6200100D000000000000000000000000000043
:102E720000600240586002400300000000000000B1
:102E8200160E00000000000000000000000000001C
:102E92000060024070600240040000000000000078
:102EA200200F0000000000000000000000000000F1
:102EB200006002408860024005000000000000003F
:102EC20026100000000000000000000000000000CA
:102ED20000600240A0600240060000000000000006
:102EE200301100000000000000000000000000009F
:102EF20000600240B86002400700000000000000CD
:102F0200362F00000000000000000000000000005A
:102F12000064024010640240000000000000000053
:102F22000038000000000000000000000000000067
:102F3200006402402864024001000000000000001A
:102F42000639000000000000000000000000000040
:102F520000640240406402400200000000000000E1
:102F6200103A000000000000000000000000000015
:102F720000640240586402400300000000000000A8
:102F8200163B0000000000000000000000000000EE
:102F9200006402407064024004000000000000006F
:102FA200203C0000000000000000000000000000C3
:102FB2000064024088640240050000000000000036
:102FC2002644000000000000000000000000000095
:102FD20000640240A06402400600000000000000FD
:102FE200304500000000000000000000000000006A
:102FF20000640240B86402400700000000000000C4
:103002003646000000000000000000000000000042
:103012000000803F000000000000000000000000EF
:103022000000803F000000000000000000000000DF
:10303200000000000000000000000000000000008E
:103042000000000000000000010000000000803FBE
:103052000000000000000000000000000000803FAF
:1030620001000000182800200000000000000000FD
:10307200000000000000000000000000000000004E
:10308200000000000000000000000000000000003E
:10309200000000000000000000000000000000002E
:1030A200000000000000000000000000000000001E
:1030B200000000000000000000000000000000000E
:0C30C20000000000000000000100000001
:1080000000230122C2708370038003714371837166
:10801000C37103724372704700230A2203604360F6
:10802000C381C0F80630C0F80A300280704700BF34
:108030002DE9F843704CE279237A9A427FD0E279B5
:10804000E379C2EBC20204EB8202C3EBC30304EB8D
:10805000830392F82B101E7C8B1E9E422CD0674A05
:10806000B4F864301278E16801339BB21B2AA4F89B
:10807000643067D00025E379614A0133A2FB030233
:10808000520802EB42029B1ADBB2E37100293BD09B
:108090000BF0B4F8D4F89830C01AB0F5FA7F04DBCE
:1080A000002345F0040584F89630D4F89030002B76
:1080B00032D12846BDE8F883E37904F11007C3EB19
:1080C000C30307EB830361B11944002213F8015B7A
:1080D0002A44994292B2F9D1D3B203EB1222FF2A79
:1080E00038D0464AB4F864301278E16801339BB264
:1080F0001B2AA4F86430BDD1424BB4F864205A80E6
:1081000004229A800025B6E794F89630002BBFD160
:10811000D4F89030002BCCD03B4A1268D31AB3F578
:10812000FA7FC6D994F86630032B04BF0023A4F865
:108130008C300023C4F890302846BDE8F883E1680D
:108140000025A3E72F4BB4F864205A8003229A80BD
:10815000002590E7E37901221C2101FB0323FA1893
:10816000FD5C5DB3012D15D1082E3CD0234AB4F837
:1081700064301278E16801339BB21B2AA4F86430A2
:108180007FF478AF1F4BB4F864205A8006229A809F
:10819000002570E7194AB4F864301278E1680133B9
:1081A0009BB21B2AA4F864307FF464AF154BB4F87B
:1081B00064205A8005229A8000255CE7192EE16828
:1081C00024D00E4AB4F86430127801339BB21B2AD3
:1081D000A4F864307FF44FAF0A4BB4F864205A809F
:1081E00006229A8047E794F89430002B40F0E9800B
:1081F0001D46E1683FE700BF8028002015AF002042
:10820000ABAAAAAA18AF0020B4B0002092F802C00E
:108210005578036992F8038092F804909679D7799B
:1082200092F808E00CF0070C45EA0C2508F03F082E
:1082300092F80AC01D8095784FEA481848EAD50898
:10824000957BA3F8028092F803804FEA890040EA08
:10825000981092F8058008F0010840EA882098807C
:1082600006F00F06507992F80780F60146EA5000B2
:10827000567AD8804FEA4E0E4EEAD81E06F0030614
:1082800092F80680D07A07F07F074EEA462E3F012B
:10829000567BA3F80AE047EA18171F8106F0070784
:1082A000967A92F809E0C00040EA5610167B0CF06E
:1082B0001F0C46EA072605F03F05577BD8816D0164
:1082C0004FEA8C1C45EAD7004CEA9E0CA3F80CC080
:1082D0001E825882D07B92F80EE0D77C92F81280F2
:1082E00092F811C0967C557D800040EA9E1092F86D
:1082F00010E07F000EF0010E47EAD8170CF00F0CCB
:1083000092F8108040EA8E204FEACC1C92F814E0DC
:1083100098824CEA580C907DA3F816C006F07F06B0
:1083200092F811C00EF0030E47EA4E27360146EAD6
:108330001C165F8392F814C0577D1E8305F01F053D
:10834000AD01C00045EA9C0540EA5710D8839D83E3
:10835000D57D40F2147015F0010F14BF0646AD260E
:1083600015F0020F08BFAD201E8458842B0759D486
:1083700015F0040F0CBF0125092594F86630032B76
:108380001AD194F86700137E2B4FA26E04EB4006BF
:10839000C3EB8323A7FB0373B6F86C705B09D21B96
:1083A00001301A4400F00F0084F867001009A6F8A5
:1083B0006C30A266A4F88C00204B1B68C4F8903087
:1083C00059E65378102B14D01ED8D3B994F89530B1
:1083D000E168002B7FF44EAE94F89730012B23D93F
:1083E00019B10A78303A012A1ED9002584F897502D
:1083F00041E694F895300BB984F89550012384F840
:108400009630E168002536E6303B012BF9D852F86A
:10841000010FE46091889379A1802060A3710849DD
:10842000002528E60325A8E70133012284F89730C8
:1084300084F8962000251EE61F85EB51B4B000207D
:108440008028002010B504460AF0D8FE514B0022C7
:1084500083F89C2093F89D20012A19D9D3F8A020F5
:1084600040F6AC51821A8A4212DD4B49B3F86420BF
:108470000978013292B21B29A3F8642005D1474A3A
:10848000B3F86410518001219180002283F89D206F
:10849000E2B27E2A27D093F89D1019B393F89D106D
:1084A0001B2956D893F8AC1000296CD0002182F01B
:1084B000200283F8AC1093F89D10022903D1012A01
:1084C00008BF83F8A420197A93F89D4093F89D0083
:1084D000C1EBC10103EB810121440130C0B2CA7379
:1084E00083F89D0010BD93F89D20012A2BD91A7A9C
:1084F0002B49DC790132A1FB02C1490801EB4101A2
:10850000521AD2B294420AD093F89D40197A1A7244
:10851000C1EBC10103EB8101621E81F82B2093F8AE
:10852000A4203AB10121002283F89C1083F8A420F2
:10853000C3F89800184A12781B2A1ED00022C3F8EC
:10854000A80083F8AC20012283F89D20C3F8A00086
:1085500010BD002283F89D200F49B3F864200978EC
:10856000013292B21B29A3F86420BBD10B4AB3F8A5
:10857000643053800223938010BDD3F8A8200749AC
:10858000821A0A80DAE77D2A95D1012283F8AC208D
:1085900010BD00BF8028002015AF002018AF0020BC
:1085A000ABAAAAAA03788B4283BF034B03EB41011A
:1085B000B1F8B0000020704780280020044B93F8E9
:1085C000C80018B1002283F8C8200120704700BFFE
:1085D00080280020F0B4C24D95F8EF6005F1CC0280
:1085E0000244B41E1444A24200F07881013A013CD6
:1085F000002341F2210112F8017F83EA07231FB211
:10860000BBB2002FACBF5B0081EA43039BB21F04E7
:1086100054BF5B0081EA43039BB21F0454BF5B005D
:1086200081EA43039BB21F0454BF5B0081EA43030A
:108630009BB21F0454BF5B0081EA43039BB21F043B
:1086400054BF5B0081EA43039BB21F0454BF5B002D
:1086500081EA43039BB21F0454BF5B0081EA4303DA
:10866000A2429BB2C7D10644B21E013E2A442E4408
:1086700092F8CC1096F8CC2002EB012292B29A42EA
:1086800001D0F0BC704795F8F020002A00F021815D
:10869000431CDBB25C1C2C442B444FF4AF6193F8B9
:1086A000CC6094F8CC3003EB06239BB201FB03F3C0
:1086B0001B1303F54873012AA5F8B03000F00981B7
:1086C000C31CDBB25C1C2C442B44022A93F8CC6004
:1086D00094F8CC3003EB06239BB201FB03F34FEA83
:1086E000233303F54873A5F8B23000F0F280431D40
:1086F000DBB25C1C2C442B44032A93F8CC6094F826
:10870000CC3003EB06239BB201FB03F34FEA233388
:1087100003F54873A5F8B43000F0DB80C31DDBB26D
:108720005C1C2C442B44042A93F8CC6094F8CC3085
:1087300003EB06239BB201FB03F34FEA233303F55C
:108740004873A5F8B63000F0C48000F10903DBB22D
:108750005C1C2C442B44052A93F8CC6094F8CC3054
:1087600003EB06239BB201FB03F34FEA233303F52C
:108770004873A5F8B83000F0AC8000F10B03DBB211
:108780005C1C2C442B44062A93F8CC6094F8CC3023
:1087900003EB06239BB201FB03F34FEA233303F5FC
:1087A0004873A5F8BA3000F0948000F10D03DBB2F5
:1087B0005C1C2C442B44072A93F8CC6094F8CC30F2
:1087C00003EB06239BB201FB03F34FEA233303F5CC
:1087D0004873A5F8BC307CD000F10F03DBB25C1C01
:1087E0002C442B44082A93F8CC6094F8CC3003EB4B
:1087F00006239BB201FB03F34FEA233303F54873CF
:10880000A5F8BE3065D000F11103DBB25C1C2C442E
:108810002B44092A93F8CC6094F8CC3003EB062360
:108820009BB201FB03F34FEA233303F54873A5F82A
:10883000C0304ED000F11303DBB25C1C2C442B443F
:108840000A2A93F8CC6094F8CC3003EB06239BB251
:1088500001FB03F34FEA233303F54873A5F8C23055
:1088600037D000F11503DBB25C1C2C442B440B2ADF
:1088700093F8CC6094F8CC3003EB06239BB201FB59
:1088800003F34FEA233303F54873A5F8C43020D02F
:1088900000F11703DBB25C1C2C442B440C2A93F828
:1088A000CC6094F8CC3003EB06239BB201FB03F3BE
:1088B0004FEA233303F54873A5F8C63009D000F119
:1088C0001903DBB25A1C2A442B4493F8CC3092F89B
:1088D000CC30012385F8C830F0BC70470023C2E6D5
:1088E0008028002070B55C4C06460AF087FCD4F85E
:1088F000F430C4F8F400C01AB0F5FA5F1AD90023B6
:1089000084F8F83084F8F930A12E2FD0A22E00F090
:108910009C8094F8F92094F8EF300025A2B16A1CED
:108920006119D5B2F6B29D4281F8CC6084F8F85056
:108930000CD070BD94F8F850002DE5D094F8F920D3
:1089400094F8EF30002AEAD19D42F2D194F8FA303F
:10895000052B72D0062B03D194F8CD301E2B0DD0F1
:10896000002384F8F93084F8F83070BD01221B230D
:1089700084F8F92084F8EF300025D0E76A1E002A39
:108980004FF0000150DD08460B462344013093F8B8
:10899000CC30DBB283EA0105ED074FEA530348BF51
:1089A00083F08C0383EA5105EE074FEA530348BF77
:1089B00083F08C0383EA9105ED074FEA530344BF2C
:1089C00083F08C03DBB283EAD105EE074FEA530351
:1089D00044BF83F08C03DBB283EA1115ED074FEA45
:1089E000530344BF83F08C03DBB283EA5115EE07D7
:1089F0004FEA530344BF83F08C03DBB283EA911543
:108A0000ED074FEA530344BF83F08C03DBB283EAE4
:108A1000D1155908EB0748BF81F08C01C0B248BF9F
:108A2000C9B282420346B0DC224492F8CC308B4279
:108A300096D10320FFF7CEFD92E70020FFF7CAFD95
:108A400094F8CD301E2B8BD198E70122232384F894
:108A5000F92084F8EF308FE78028002007299DBF98
:108A6000034B03EB8101B1F8FC000020704700BF0D
:108A7000802800201A4B93F81C2132B193F8202152
:108A80000021A82A83F81C1101D00020704793F818
:108A90003321002AF9D110B4DFED126A03F5907189
:108AA00003F1F80003F59872B4EE047ACC780B79F0
:108AB00003EB042307EE903AF8EEE77AB0EE666A2D
:108AC000A7EE876A02318A42FCEEC67A17EE903A28
:108AD00040F8043FEAD101205DF8044B704700BF25
:108AE000802800200080BBC310B504460AF086FB36
:108AF0000F4BD3F83821C3F83801801A41F288327D
:108B00009042E4B205D983F82041012283F83C2148
:108B100010BD93F83C219918142A81F8204103D103
:108B2000012283F81C2110BD0132D2B2EEE700BF52
:108B300080280020034B03EB4101B1F84001C0083D
:108B4000704700BF80280020724B93F86021002AF4
:108B500000F0C28070B493F86141B3F8625103EB46
:108B60004401002091F8676191F8682183F8600161
:108B700042EA0622954202D0002070BC704793F86A
:108B80006521012A00F0AA80812AF6D10320102C49
:108B900040F2A68093F8694193F8675193F8681101
:108BA00093F86A2141EA052142EA04221024A3F83D
:108BB0004011A3F8422183F8614193F86B1193F8B7
:108BC0006C21032C42EA0122A3F84421D5D093F86A
:108BD0006D1193F86E21042C42EA0122A3F846217C
:108BE000CBD093F86F1193F87021052C42EA012243
:108BF000A3F84821C1D093F8711193F87221062C83
:108C000042EA0122A3F84A21B7D093F8731193F8EE
:108C10007421072C42EA0122A3F84C21ADD093F82D
:108C2000751193F87621082C42EA0122A3F84E210F
:108C3000A3D093F8771193F87821092C42EA012206
:108C4000A3F8502199D093F8791193F87A210A2C3E
:108C500042EA0122A3F852218FD093F87B1193F8B6
:108C60007C210B2C42EA0122A3F8542185D093F8F1
:108C70007D1193F87E210C2C42EA0122A3F85621A3
:108C80003FF47BAF93F87F1193F880210D2C42EADB
:108C90000122A3F858213FF470AF93F8811193F8A3
:108CA00082210E2C42EA0122A3F85A213FF465AF3B
:108CB00093F8831193F88421102C42EA0122A3F83F
:108CC0005C217FF45AAF93F8851193F8862142EA2C
:108CD0000122A3F85E2150E700207047104656E7B6
:108CE000002C3FF44AAF93F8671193F86821012CE8
:108CF00042EA0122A3F840213FF43FAF93F8691103
:108D000093F86A21022C42EA0122A3F842217FF45F
:108D100054AF32E78028002038B504460AF06EFAD6
:108D2000444AD2F88C31C31AB3F57A6F16D892F848
:108D30009031C2F88C01B3B1022B1FD0242B92F8D2
:108D4000611175D901330231DBB249008B4282F8DF
:108D500090311BDB01318B4263D038BD0023C2F858
:108D60008C0182F89031A82CF7D1002382F8603171
:108D7000A2F8623192F86111204603E0E0B282F875
:108D800061010146D51885F86401DBE7B2F862316C
:108D9000E4B283EA042424B2002CB8BF41F22101DA
:108DA000A3B2B4BF81EA43035B009BB21C0446BF7D
:108DB00041F2210181EA43035B009BB2180446BFE4
:108DC00041F2210181EA43035B009BB2190446BFD3
:108DD00041F2210181EA43035B009BB21D0446BFBF
:108DE00041F2210181EA43035B009BB21C0446BFB0
:108DF00041F2210181EA43035B009BB2180446BFA4
:108E000041F2210181EA43035B009BB2190446BF92
:108E100041F2210181EA43035B009BB2A2F8623177
:108E200038BD0021012382F8901182F8603138BDED
:108E3000E0B2A7E780280020F8B5154D95F8A921E4
:108E40000AB90120F8BD134B1C6823685E6A5EB145
:108E5000204605F5CA71B0470022012385F8A921F3
:108E600085F8AA310120F8BD05F5CA77BE1800E0E3
:108E700023689B68204698470028F9D0236817F894
:108E8000011B1B6820469847B742F1D1E4E700BFB9
:108E900080280020A06F002003788B4210D9094B56
:108EA00003EB810193F8DC31D1F8AC011BB900F57B
:108EB000777080B27047400800F5777080B27047D5
:108EC00000207047802800202DE9F8430AF096F929
:108ED000CE4C054694F8DD0168B90422D4F800327E
:108EE0003BB1EB1AB3F57A7F03DB00231046C4F8DD
:108EF0000032BDE8F88394F8DE01002384F8DD3108
:108F0000002800F0248194F8E031C14F94F8F0116A
:108F10005BB213F1630FB8BF97F90030002941D05D
:108F200013F1310F80F2B68113F1380F80F2B68160
:108F300013F13D0F80F2B68113F1420F80F2B6813A
:108F400013F1450F80F2B68113F1470F80F2B6811D
:108F500013F1490F80F2B68113F14A0F00F0B68188
:108F600013F14B0F00F0B58113F14C0F00F0B581F8
:108F700013F14D0F00F0B48113F15C0FB8BF6426FC
:108F800080F24E81D4F8F421DFF890C202FB06F2A1
:108F90008CFB02C6D217C2EB661204EB810692B2BA
:108FA000C6F8AC213B7094F8EC7194F8ED2194F87C
:108FB000EE3194F8EF61120442EA0762324342EA6A
:108FC000032202F0F023B3F1E02F00F0B780102766
:108FD00094F8046294F8E221D4F8083294F80CC2B0
:108FE00093F800E0324102F00F02964510D90B2AA7
:108FF0000ED8002940F0E68094F8E28194F8E3313D
:1090000004EB82020CEA080803EB0823C2F8AC3137
:1090100094F8E431334103F00F039E4510D90B2B34
:109020000ED8002940F0D28094F8E48194F8E5212C
:1090300004EB83030CEA080802EB0822C3F8AC2116
:1090400094F8E631334103F00F039E4510D90B2B02
:109050000ED8002940F0CE8094F8E68194F8E721FC
:1090600004EB83030CEA080802EB0822C3F8AC21E6
:1090700094F8E831334103F00F039E4510D90B2BD0
:109080000ED8002940F0BA8094F8E88194F8E921DC
:1090900004EB83030CEA080802EB0822C3F8AC21B6
:1090A00094F8EA31334103F00F039E4531D80D2F78
:1090B00023DD94F8EC31334103F00F039E4510D9C2
:1090C0000B2B0ED809B199420BD094F8EC8194F88F
:1090D000ED2104EB83030CEA080802EB0822C3F835
:1090E000AC21102F09D194F8EE3143FA06F606F0C0
:1090F0000F06B64501D90B2E6CD9E0B194F8A93111
:10910000CBB194F8E2311B0615D4C4F8005201200B
:10911000EFE60B2BCBD809B19942C8D094F8EA817D
:1091200094F8EB2104EB83030CEA080802EB082215
:10913000C3F8AC21BBE705220120CFE694F8E23169
:109140001E063FF544AF334B0C271A6040E70AF088
:1091500055F82F4E304B7278A3FB00135B0C12B303
:1091600094F8E02194F8E111C9B2122918BF01293D
:1091700008D001F0EF01A1F1A201B1FA81F1490992
:1091800001B97170D4F8F80194F8F01198B18342E4
:1091900038D0181A012867D094F8DE01A4F8FC2111
:1091A000C4F8F831FFE694F8E01194F8E12102EBFD
:1091B000012292B2E6E7A4F8FC21C4F8F83194F851
:1091C000DE01F0E68A427FF417AF21E78B427FF49D
:1091D0002BAF35E709B18E428FD094F8EE2194F889
:1091E000EF3104EB860602EA0C0C03EB0C23C6F805
:1091F000AC3182E78B427FF42FAF39E799427FF49D
:1092000043AF4DE794F8DE01CDE600BF8028002093
:1092100000000020941E002083DE1B431F85EB51BD
:109220006FF05B080C26304A06F1FF3902EB490E5D
:1092300002EB46069EF801E096F801C012F91960AB
:10924000ACEB0E0C9A1B02FB0CF2A8EB060692FB91
:10925000F6F2724452B2002A01DA002692E6642A3B
:10926000A8BF642216468DE6002995D0B4F8FC61AB
:10927000D4F8F4011D4F961B143E00FB06F087FB4B
:109280000076C017A0EBE60004EB810680B2C6F8BA
:10929000AC0181E76FF030080126C4E76FF03708B2
:1092A0000226C0E76FF03C080326BCE76FF04108D8
:1092B0000426B8E76FF044080526B4E76FF04608C7
:1092C0000626B0E76FF048080726ACE79846082660
:1092D000A9E76FF04A080926A5E798460A26A2E7FB
:1092E00098460B269FE700BFF0AD040867666666E8
:1092F000344B5B68C3F3080370B4CBB9EFF311834D
:10930000B3B9314A314E324D1368AC6811688B42A3
:10931000FAD131688C42F7D82E4A15684FF47A7129
:1093200001FB05F2141BB4FBF5F401FB034321E040
:10933000EFF31181102383F3128803F1E023C9B204
:109340009D681A6812F4803F234A1EBF01241460EE
:109350009D681D4B1E68136881F311881D4A1468AF
:109360004FF47A71334401FB04F2521BB2FBF4F266
:1093700001FB0323194AD2F81012C2F810325B1A0B
:1093800041F288318B420AD9C0B2012382F8E00150
:1093900082F81432002382F8DD3170BC704792F8F5
:1093A00014320F2BF9D8D1180133DBB2C0B2102B15
:1093B00081F8E00182F81432ECD1012382F8DD312A
:1093C00070BC704700ED00E0B4B00020D0BA0020BF
:1093D00010E000E0CCBA0020C8BA002080280020AD
:1093E000036933F8110000EB8000C01000F55C70D9
:1093F00080B27047436993F82320002A00F0CF80A1
:109400002DE9F0477B4ADE7D127800211A2A06F00A
:10941000040506F0080483F8231000F0C280002D34
:1094200040F0CC80002C40F0D980254693F802A073
:1094300093F8068093F801E00269DF7893F80490CE
:1094400093F807C00AF0070008F00F014FEAC118AF
:109450004EEA002107F03F07187A1180997893F8B7
:1094600005A093F80AE07F0147EAD107D978578031
:109470004FEA890949EA9119997B0AF0010A01F03A
:109480003F014F0149EA8A219180597948EA510107
:10949000D1800CF07F0C997993F807804FEA0C1C6F
:1094A0004CEA111C597AA2F808C0400040EAD810D2
:1094B00001F0030140EA412093F80DC0D97A5081B0
:1094C0000EF01F0E587A4FEA8E1E4EEA90009081E1
:1094D000187B93F80AE00CF0070C40EA0C20C90056
:1094E00093F80DC0108241EA5E11D18147EADC0198
:1094F000518293F80FE093F80E80597CDF7C93F84B
:1095000012C0587D4FEA8E0E4EEA981E93F81080D6
:1095100008F001084EEA882E01F00F0193F812803E
:10952000A2F814E093F810E07F00C90141EA5E015F
:1095300047EAD81793F814E093F81180D1820CF021
:109540007F0C4FEA0C1C997D0EF0030E4CEA181CA0
:1095500047EA4E2716F0010F93F814E0A2F818C05E
:1095600000F01F0093F815C0578340F2147314BF26
:109570001F46AD278001C90016F0020F40EA9E0089
:1095800041EA5C1108BFAD239083D18317845384D3
:109590000CBB002D0CBF01200920BDE8F087104650
:1095A000704715491F8C0E8075B147F002021A846E
:1095B00012B274B147F003021A8409E01A8C94B90C
:1095C00042F002021A8431E78CB147F001021A849A
:1095D00012B24A802AE70320BDE8F0871A8C42F0D5
:1095E00001021A8422E742F003021A841EE73AB20B
:1095F0002546EEE715AF002018AF00203B4B5B6817
:10960000C3F30803F0B42BBBEFF3118313BB384A49
:10961000384F394E1368B5681468A342FAD13C68D4
:10962000A542F7D8354A16684FF47A7404FB06F25F
:10963000551BCA69B5FBF6F504FB03539A1A40F6AD
:10964000AC54A2422EDC91F8224074B3182C38D9C5
:10965000F0BC7047EFF31184102383F3128803F1F9
:10966000E023E4B29E681A6812F4803F244A1EBFC9
:10967000012515609E681E4B1F68136884F31188CE
:109680001E4A15684FF47A7404FB05F23B44921BA2
:10969000B2FBF5F204FB0323CA6940F6AC549A1AF4
:1096A000A242D0DD002281F822200F28D0D1012251
:1096B000CB61087081F82220002381F82330F0BCB0
:1096C0007047631CDBB2192B81F822300855F3D1A7
:1096D0000C4B1B781A2B08BF0B4B4FF0010081F885
:1096E000230008BF9A80F0BC704700BF00ED00E087
:1096F000B4B00020D0BA002010E000E0CCBA0020C6
:10970000C8BA002015AF002018AF0020094BDFEDCC
:109710000A6ADFED0A7A03EB810191ED867AB8EEF1
:10972000477AE7EE267AFCEEE77A17EE903A98B29F
:10973000704700BF8028002001F11F3F00405C44BB
:10974000714A92F8583233B192F85E320021162BEA
:1097500082F8581201D00020704792F85D32022B37
:10976000F0B440F2CE8002F51770184402F25E2188
:10977000D32311F8014F634013F0800F4FEA4303E6
:1097800018BF83F0D503DBB213F0800F4FEA430319
:1097900018BF83F0D503DBB213F0800F4FEA430309
:1097A00018BF83F0D503DBB213F0800F4FEA4303F9
:1097B00018BF83F0D503DBB213F0800F4FEA4303E9
:1097C00018BF83F0D503DBB213F0800F4FEA4303D9
:1097D00018BF83F0D503DBB213F0800F4FEA4303C9
:1097E00018BF83F0D503DBB213F0800F4FEA4303B9
:1097F00018BF83F0D5038842DBB2BAD192F8751254
:10980000994202D00020F0BC704792F8640292F8AE
:10981000636292F8681292F86C3292F8704292F891
:109820006052B2F860C2D2F8607200F00F00C0015E
:1098300040EA560001F01F0192F86762C2F8240264
:10984000890141EA960103F03F0392F86B6292F8B6
:109850006F02C2F830125B0143EAD60392F85F123E
:10986000C2F83C3204F07F04B2F86432D2F8646289
:10987000240105F0070544EA101041EA0521C3F36D
:109880000A13C2F84802B2F86852C2F81812B2F8C5
:109890006A42D2F86C02B2F86E12C2F82832D2F8DC
:1098A0007032C0F38A10C1F34A01C3F3CA13CCF378
:1098B000CA0CC7F38A37C6F3CA366D09C4F30A0463
:1098C000C2F84002C2F84412C2F81CC2C2F82072A8
:1098D000C2F82C62C2F83452C2F83842C2F84C3294
:1098E00092F8743292F87302B2F87212DB0043EA13
:1098F0005013C1F38A01C2F85432C2F85012012049
:1099000081E7D3237AE700BF80280020F8B5674BB2
:109910001C68E707054616D5654B93F89C2293F81B
:109920009D1291423BD1D3F8A022AA4202D8614AAB
:1099300000211170D3F8C002281A002821DD01206F
:1099400083F8C402F8BD14F4005449D15A4883681E
:109950009847C6071CD5594A554BC0F3400110F033
:109960000A0F917093F866202AD0052A6BD042071F
:10997000D9D5012283F8C522D3F8A022AA42D9D88A
:10998000D5E793F8C4020028DCD193F8C502F8BDEE
:109990004107474BC7D5012283F8C522ECE7D3F82E
:1099A000A402464C434983F89D2228440122002505
:1099B000C3F8A0020120A5700A7083F8C402C1E7B1
:1099C000D3F8A412052A0D44C3F8A05251D0400781
:1099D00067D4384A01210120117083F8C402B1E72D
:1099E000334BB3F8A82212BBB3F8AA22FAB9B3F8E2
:1099F000AC22E2B9B3F8AE22CAB9B3F8B022B2B918
:109A0000B3F8B2229AB9B3F8B42282B9B3F8B62245
:109A10006AB9B3F8B82252B9B3F8BA223AB9B3F86E
:109A2000BC2222B9B3F8BE22002A3FF47CAFD3F89F
:109A3000A42222481F492A440024C3F8A02201225C
:109A400084700A7076E793F86720996E03EB4206FC
:109A50000132B6F86C70A6F86C40C91B0C0902F014
:109A60000F02A3F88C40440783F86720996680D4DE
:109A700059E793F867109A6E03EB410402F2FF3244
:109A8000B4F86C500131521B01F00F0140F2FF3568
:109A900083F867101109A4F86C509A66A3F88C102B
:109AA00095E7012283F8C52293E700BFBCCC0020D4
:109AB000802800203D3B0020C051002000000020F5
:109AC000002070470020704701207047024B03EBD5
:109AD0004101B1F8C802704780280020044B93F878
:109AE000EC0218B1002283F8EC220120704700BF7D
:109AF00080280020024B03EB8101B1F8F00270478F
:109B00008028002003788B4283BF034B03EB410185
:109B1000B1F82803002070478028002038B5394C60
:109B2000054609F06BFBD4F87C33C4F87C03C01AFB
:109B3000B0F57A7F1CDD0023282284F8803384F876
:109B4000823384F8833384F881233D2D42D03E2D27
:109B50000DD12D4AC4F88423012384F882330123D4
:109B6000157084F8803394F881239A4220D038BD50
:109B700094F88023002AE8D0531CDBB2D4F8841375
:109B800084F88033062B8D54EDD194F88233012B69
:109B900027D094F88333012B27D00023282284F880
:109BA000803384F8823384F8833384F8812338BD8A
:109BB00094F88233012B04BF022384F8823394F893
:109BC0008333012B15D00022282384F8802384F8C6
:109BD000813338BD0D4AC4F88423012384F88333CC
:109BE000BDE78B78282BD4D8F1E78B78092BD4D814
:109BF000EDE7022384F8833309F000FBC4F88803FF
:109C0000E1E700BF80280020D42B0020C82B0020D3
:109C100030B40246002305251E2400E00232032B47
:109C2000D4BF0021012100F813100133042B04D00C
:109C3000122B5470F2D130BC70475570EEE700BF64
:109C4000024B036043608360C3607047E803D00742
:109C5000024B03EB4101B1F8A802704780280020B5
:109C6000024B03EB4101B1F8A802704780280020A5
:109C700030B4264C94F88233022B02D0002030BC42
:109C8000704794F85653EDB1013D04F2553353FA41
:109C900085F504F55570002210F8013B534083EA26
:109CA0000313DBB2120AD90042EA0322854281EA99
:109CB000131382EA0302EFD122B1002084F8820359
:109CC00030BC7047B4F854335BBA9BB243F60162C0
:109CD000934209D043F60362934205D0002384F8EF
:109CE0008233012030BC7047094AA2F12E0102F1F3
:109CF0002005D0799379023203EB0023C3F3CC0320
:109D0000AA4221F8023FF4D1E8E700BF80280020F2
:109D1000D42B0020504B5B68C3F3080370B4CBB95D
:109D2000EFF31183B3B94D4A4D4E4E4D1368AC68F5
:109D300011688B42FAD131688C42F7D84A4A1568CB
:109D40004FF47A7101FB05F2141BB4FBF5F401FB2F
:109D5000034321E0EFF31181102383F3128803F111
:109D6000E023C9B29D681A6812F4803F3F4A1EBFC3
:109D7000012414609D68394B1E68136881F31188B3
:109D8000394A14684FF47A71334401FB04F2521BD0
:109D9000B2FBF4F201FB0323354AD2F88C13591AB3
:109DA000B1F5FA7F14D90021C2F88C3382F89013F0
:109DB00082F89113C3B2042B26D0202B24D092F822
:109DC000941309B9552838D0814216D1002109E0F1
:109DD00092F8911399B992F89013C2F88C33C3B2E8
:109DE0000029E8D092F8920354180138814284F88F
:109DF0009C331DD0013182F8901370BC704701393B
:109E000082F8911370BC7047002102244FF6FF7056
:109E100082F89843A2F896035418581E814282F89B
:109E2000943382F8923382F8931384F89C33E1D10F
:109E3000012382F8BC3370BC704701241F2582F8CF
:109E40009403A2F8961382F89C3382F8934382F825
:109E5000984382F89253CDE700ED00E0B4B00020C3
:109E6000D0BA002010E000E0CCBA0020C8BA002030
:109E7000802800200D49B1F8BD3330B508224AF2E0
:109E8000010580EA030414F0010F4FEA530318BFE1
:109E90006B4002F1FF3218BF9BB212F0FF024FEA93
:109EA0005000EED1A1F8BD3330BD00BF80280020A6
:109EB000084616F073B900BF0FB400B583B004AB09
:109EC000054953F8042B019300200EF0BDFF03B0A9
:109ED0005DF804EB04B07047B19E00080EB470B595
:109EE00083B007AC0646482054F8045B16F056F9D8
:109EF000202016F053F9304616F0C2F83A2016F03A
:109F00004DF92A4623460949019400200EF09CFF92
:109F100004460A2016F042F9054A136803341B1B55
:109F2000136003B0BDE8704003B07047B19E0008F5
:109F300004520020F8B50F4BD3F8C053D3F8C443F4
:109F4000D3F8C863A9B1831E00EB410727441E4420
:109F500004441D4434F9022B36F9023F35F9020F4F
:109F6000134403EBD373A0EB630016F0FEF9A74292
:109F7000F0D1F8BD80280020F8B5264C264E3C22B2
:109F8000002120463FF038FB244B96F8CF73B3F8FE
:109F90006020228410330FCB96F8D05384F82450DD
:109FA000102F04F1080585E80F0009D801231C488B
:109FB000BB40184020B90FB93846F8BD012FFCD07E
:109FC000184A194913681948206043F002031360C6
:109FD0001025174A0F4862604FF4807323834D7138
:109FE0002BF034FBB6F8DC334FF47A72A2627BB10B
:109FF000104D05F16C07B6F8DC33A16A00EE103A9B
:10A000002846B8EE400A24352CF07AFEAF42F2D151
:10A010000120F8BD680B001080280020A40B001060
:10A02000011D010024680020000000204D56030897
:10A030001D560308602C00202DE9F04F2DED068BF6
:10A04000C74EDFF8B883B37D012B8FB000F0D1830A
:10A05000022B0CBF0723002388F800307379C14C12
:10A06000DFF89C93003318BF0123202284F8653069
:10A070002320002384F8692084F8623089F84C3466
:10A0800009F07CF9B84AA369626102222274002BAC
:10A0900000F0D7841420A36108F00EFC99F84D5409
:10A0A000E061002D00F05E83B04F94F86030E26D07
:10A0B000C9F850240D2B40F04583AD49F2780B6868
:10A0C000AC48206043F001030B604FF07E53AA4977
:10A0D0002362012A4FF00F03E1653B7184F86B3076
:10A0E00040F2BE8300239FEDA57A84F863300123FC
:10A0F00007EE903AF8EEE77AA14D3179994884F865
:10A10000662067EE877A013BFCEEE77A84F86830D8
:10A11000C5ED007A84F867102EF0F2FD0023184692
:10A120003289F17D84F86A3032F00EFD7289317E19
:10A13000DFF8D092012032F007FDB2892968914BF7
:10A14000B3FBF1F39342C4F89891F08980F07484E2
:10A1500083422BD99AB248B307EE900A07EE102A31
:10A16000F8EE677AB8EE478A27EEE77A68EE277A44
:10A17000A8EE087A844B8548C4F89831C7EE878AE0
:10A18000B0EE480AF0EE680A31F0C8FCF0EE680A5A
:10A19000B0EE480A29687E4831F0C0FCF0EE680A4B
:10A1A000B0EE480A29687B4831F0B8FC328A296849
:10A1B000744BB3FBF1F39342C4F80892708A80F0B9
:10A1C000368483422BD99AB248B307EE900A07EE41
:10A1D000102AF8EE677AB8EE478A27EEE77A68EE3B
:10A1E000277AA8EE087A684B6B48C4F80832C7EEA5
:10A1F000878AB0EE480AF0EE680A31F08FFCF0EE84
:10A20000680AB0EE480A2968644831F087FCF0EE2D
:10A21000680AB0EE480A2968614831F07FFC614B5A
:10A22000C4F878921B689B001AD55F4BDFED5F0A7C
:10A2300029689FED5F0A5F48C4F8783231F06EFC00
:10A24000DFED5A0A29689FED5A0A5B4831F066FC37
:10A25000DFED560A29689FED560A584831F05EFC3A
:10A26000D5F800A09FED560A07EE90AAF8EE677A9F
:10A27000032580EE270A3FF0D5FA40F2355390FBD4
:10A28000F5F59D42A8BF1D461FFA85F94FEA59030F
:10A290004FEA990BA8F81030A8F80490A8F808B075
:10A2A00007EE909A9FED477ADFED476AF8EE677AFE
:10A2B00087EE270A67EEA67AB7EE087A30EE470AED
:10A2C000C8ED037A3FF0AEFA0128B8BF01203F493C
:10A2D0009FED3F5ADFED3F5ADFED3F3A9FED3F2ABA
:10A2E000DFED3F2A9FED3F3A9FED3F1ADFED3F1A2A
:10A2F000DFED3F6A88F81400002307E00133F6EE33
:10A30000007A202BE1EC017A00F0AB8007EE903A66
:10A31000B8EEE77A27EE057A77EE257ABDEEE76AA2
:10A3200016EE102A2032402AE8D8B4EEE57AF1EE93
:10A3300010FA40F3AB829FED2F6A01E0F0EE477A0E
:10A34000F4EEC67AF1EE10FA37EEE67AF6DCB4EE09
:10A35000E37AF1EE10FA40F196829FED276A55E01C
:10A3600064B10020A40B0010003001400000002068
:10A3700024680020018D03085565030800007A4415
:10A380003012001020A10700C9530308400D00102F
:10A39000640D0010880D0010B00D0010D40D0010D9
:10A3A000F80D0010BCCC00201154030885F99D4124
:10A3B0000000C843200E0010440E0010680E00106C
:10A3C00000247449000034450000003D20000010C6
:10A3D0003C8C4F3EDB0FC93FDB0F49C092E741B9D0
:10A3E0009730083C15A82ABEDB0FC9BFDB0F4940D8
:10A3F000DB0FC940E4CB1641E4CB16C108000010C6
:10A40000802800207D540308B0EE677AB4EEC67A47
:10A41000F1EE10FA77EE267AF6D4F4EEE57AF1EE64
:10A4200010FA40F3288271EEE77A27EEA76AB0EEC1
:10A43000624AA6EE024A0133202BF0EE430AE4EE14
:10A44000060AB7EE007A66EE674A77EE677AB6EEEE
:10A45000007AE4EEA07A67EE877AE1EC017A7FF485
:10A4600055AFB17FA4F8103506EE901A0C2303FB0C
:10A470000AF3E24A9FEDE25AB2FBFAF1F8EEE66A1D
:10A48000B2FBF5FA9A4538BF9A4685EE261A89B28C
:10A49000B1FBF9F1C9B292FBF5F3F07F84F8F91240
:10A4A000D84AA2F5437606EE90AA07EE901AB8EEC7
:10A4B000665AF8EEE75ABCEEC55AF7EE004ADFEDF1
:10A4C000D21ADFEDD20A9FEDD24A9FEDD27A9FEDEC
:10A4D000D28A9FEDD26A9FEDD23ADFEDD23A9FED5C
:10A4E000D22ADFEDD22A84EEA50AB8EE455A05EE4F
:10A4F000903A25EE215A07EE900AF8EEE55A06EE5C
:10A5000090BA65EEA05AF8EE666AF8EEE77A75EE54
:10A51000040A65EEA65A77EE677ABDEEE07A75EE2C
:10A52000841A17EE10EABDEEC57AC14BC4F808359F
:10A5300017EE10CABDEEE17A03F1280117EE105AAA
:10A54000BDEEE57AA833C4F8143517EE100A1023CF
:10A5500067EE887AA4F800351423A4F80C35C4F803
:10A560000415A2F55E730EF1200E0CF1200C84EDA3
:10A57000BF0A20352030C8ED267AC821402822F8AD
:10A58000021B00F2DA81F4EEC35AF1EE10FA40F346
:10A590006482B0EE657A9FEDAD0ADFEDAB6A01E053
:10A5A000B0EE677AB4EEE67AF1EE10FA77EE407A22
:10A5B000F6DCF4EEE37AF1EE10FA40F151829FED11
:10A5C000A30ADFEDA36A01E0F0EE477AF4EEE67A43
:10A5D000F1EE10FA37EE807AF6D4B4EEC47AF1EEEA
:10A5E00010FA40F3068233EE477A67EE076AB0EE60
:10A5F000628AA6EE828A402DDFED967AE8EE267A10
:10A6000027EE260AA0EE277A67EE016A36EEA49AB4
:10A6100034EEE60AC4EE897A66EEA76A20EE270ACF
:10A62000F1EE669A40F29481B0EE467ABCF1400FAA
:10A63000C3ED006A83ED016AC3ED029A83ED037AEC
:10A6400083ED040A83ED066A83ED056A83ED086AEB
:10A6500083ED076A00F21D81B4EEC35AF1EE10FAE1
:10A6600040F3F881B0EE457A9FED780ADFED766A27
:10A6700001E0B0EE677AB4EEE67AF1EE10FA77EE2A
:10A68000407AF6DCF4EEE37AF1EE10FA40F1DF8185
:10A690009FED6E0ADFED6E6A01E0F0EE477AF4EEB0
:10A6A000E67AF1EE10FA37EE807AF6D4B4EEC47A98
:10A6B000F1EE10FA40F3938133EE477A67EE077AB2
:10A6C000B0EE628AA7EE828ABEF1400FDFED616ACA
:10A6D0009FED580AE8EE276A67EE277AB0EE648AA3
:10A6E000A7EEA67AF0EE647AA7EE008AE7EE407A4B
:10A6F000C7EE888A40F2D580B0EE467AF6EE006A60
:10A70000B7EE000AC4EE887A2433C3EDBE8A66EE43
:10A71000A76A20EE270A67EE277AC3EDBA6AC3ED6F
:10A72000BC6A83EDBB0AC3EDBD7A83EDC06A83EDDD
:10A73000BF6A83EDC26A83EDC16A9E427FF41DAF9A
:10A74000012002E0002084F86B003B7B23B194F8E9
:10A750006A30003318BF01233B730FB0BDEC068B8A
:10A76000BDE8F08F2FF02CFD10B12023C57183714F
:10A77000402109F047F9642008F092FDA06918B162
:10A780001C2200238271C371092109F03BF9A069E1
:10A79000294FDFF8ACA009F0D7F9012389F84D342F
:10A7A0004FF0000B254B05251C60002301AA7921E1
:10A7B00050462EF0E3F928B1BDF80C307B817B893F
:10A7C000692B12D8013DF0D10BF1010B42F20F734E
:10A7D000BBF1030F7B813FF468AC2EF03DFCC82039
:10A7E00000FB0BF008F0CAFDDCE70D2384F86030B5
:10A7F0005BE4042388F8003030E400BF40420F00DF
:10A800000000484228120010E5A6C53927D4D236E8
:10A81000DB0FC93F0000C8420AD7233C00000000FC
:10A82000DB0F4940DB0F49C092E741B99730083C44
:10A830000CAE0408F304353F00000020D8B100201E
:10A84000A40B00100000FA42E4CB1641DB0FC94014
:10A85000E4CB16C115A82ABEDB0FC9BF0000FA4120
:10A86000B179B378002940F00181032184F86310A5
:10A870001FED0C7A3CE4F4EEC17AF1EE10FA48BF19
:10A8800073EEE77AD1E5F0EE477AC6E5B0EE677A87
:10A890005DE5F7EE008ABEF1400FB0EE688A3FF644
:10A8A0002BAFB4EEC45AF1EE10FA40F3E680B0EEEE
:10A8B000607A1FED1A0A5FED1C6A01E0B0EE677A5C
:10A8C000B4EEE67AF1EE10FA77EE407AF6DCF4EECA
:10A8D000E37AF1EE10FA0FD5B0EE677A1FED250A94
:10A8E0005FED256A01E0B0EE677AB4EEE67AF1EE4C
:10A8F00010FA77EE807AF6D4F4EEC47AF1EE10FA1C
:10A9000040F38B8073EE677A27EEA77AB0EE629AF7
:10A91000A7EE029A5FED316AE7EE096A27EE270A91
:10A92000B8EE007AE0EE267AF6EE006A34EEE70A38
:10A9300027EE877A60EE266AE4E6B7EE000A402D3D
:10A94000B0EE409AF0EE469AF0EE466A3FF66CAEF4
:10A95000F4EEC45AF1EE10FA40F38580B0EE617A5D
:10A960005FED468A1FED488A01E0B0EE677AB4EEEB
:10A97000C87AF1EE10FA77EE687AF6DCF4EEE37A54
:10A98000F1EE10FA0FD5B0EE677A5FED508A1FED49
:10A99000508A01E0B0EE677AB4EEC87AF1EE10FAB0
:10A9A00077EEA87AF6D4F4EEC47AF1EE10FA2ADD46
:10A9B00073EE677A27EEA77AB0EE62AAA7EE02AA34
:10A9C0001FED5C8AAAEE078A67EE878AB8EE007AE6
:10A9D000E8EE887A67EE877A87EE897A26E65FED79
:10A9E000627AB4EEE77AF1EE10FA48BF33EEC77A36
:10A9F00064E65FED677AB4EEE77AF1EE10FA48BFED
