:020000040800F2
:10000000F0FF00104572040879B50208B16B0108D1
:100010000D7304080D7304080D730408000000003C
:1000200000000000000000000000000085B502088C
:1000300081B50208000000007DB50208513A0108B0
:100040000D7304080D7304080D7304080D73040880
:100050000D7304080D730408C571010805730108C8
:10006000C5720108857201084572010855550308DB
:100070004555030835550308255503081155030850
:10008000FD540308E95403080D7304080D730408B4
:100090000D7304080D7304080D730408057201083C
:1000A0000D730408393201080D730408F932010890
:1000B0000D7304080D73040879310108015B03080E
:1000C000095B0308F55A0308FD5A03080D73040879
:1000D0000D730408F53C0108593C0108BD3B0108BB
:1000E000857101080D730408D90303082D2F010839
:1000F000F92F01080D730408B9300108D55403081D
:100100000D7304080D7304080D7304080D730408BF
:10011000213B0108853A0108FDDD0108E9DD010800
:10012000C1540308AD540308B94D0308995403089A
:10013000855403080D7304080D7304080D73040837
:100140000D7304080D7304080D730408C1CD020873
:10015000715403085D540308495403080D730408DF
:10016000E95A0308F15A03080D7304080D730408D3
:100170000D7304080D7304080D7304080D7304084F
:100180000D7304080D730408EC6D040001000000F9
:10019000031233004F3500201C3500200000000002
:1001A000F406000825009600D033002066340020B5
:1001B0000000000000000000F6210C00B03100201B
:1001C00060330020000000002807000815007000C0
:1001D00080320020F032002000000000000000000B
:1001E0002A006000C0310020203200200000000002
:1001F00015E603082C001000FC3400200C3500200C
:10020000000000000D9E00082B002400A6350020F1
:100210008235002000000000DD9D000829106400E8
:10022000D03000206C3300200000000000000000EF
:10023000140003005C300020BC31002000000000EE
:100240003407000810100200F82E0020103600209D
:10025000000000003807000828101000B02C002013
:100260001436002000000000018000082300100068
:10027000D42B002024360020000000001980000844
:10028000F82106002A2D002034360020000000004E
:100290003A0700081A023C00E8360020A43A002081
:1002A00000000000050F030827000400E4360020CA
:1002B000E03A0020000000004007000807020200AA
:1002C000183E00205C3E00200000000044070008AB
:1002D00002000C00EC3D0020603E00200000000009
:1002E0000000000006020C00E03D00206C3E0020F3
:1002F000000000003110030808120900643D0020CE
:10030000783E0020000000009D080308F701060069
:100310005E3D0020843E00200000000046070008EB
:100320000A020A00CC3C00208C3E002000000000A5
:100330004C07000803000100A83C0020983E002064
:1003400000000000000000000E402001964F002039
:10035000A4570020000000003DE60308130004003D
:1003600094540020C45800200000000058070008E2
:1003700001010400164F0020C858002000000000B2
:1003800000000000000104000E4F0020CC580020A7
:10039000000000005C07000802010300094F002074
:1003A000D058002000000000F1920108090201006D
:1003B000D8560020D4580020000000006007000834
:1003C0000C106C00F0500020D858002000000000F5
:1003D000C9920108010205001E4F00204459002067
:1003E00000000000752402080002050018540020D7
:1003F0004C59002000000000000000001B02080013
:10040000AC56002054590020000000003D080308AD
:1004100001200800905500205C59002000000000D9
:1004200062070008190005004056002064590020AA
:10043000000000006A07000837001E001856002060
:100440006C59002000000000700700081E00050025
:10045000D85100208C590020000000008E070008B1
:100460001B00F400A83E002094590020000000006A
:10047000393502080E02020028550020885A002053
:1004800000000000940700082F001100855700208D
:100490008C5A002000000000960700080510060096
:1004A000A47000208C75002000000000A807000840
:1004B000F5317000047000209475002000000000E9
:1004C0000D2F020826000E0014760020047600206E
:1004D00000000000CDA802080B201000146D0020C1
:1004E0004876002000000000AE0700081F201C0016
:1004F000646400205876002000000000BE07000859
:1005000005020400CC6F002074760020000000007B
:10051000DA07000803010A00CC6C0020787600207E
:1005200000000000DE07000813020300CC62002078
:100530008476002000000000E80700081002010097
:10054000289000202490002000000000EC07000804
:100550001600080020AF002028AF00200000000097
:10056000EE0700080400800018D60020D0D6002036
:1005700000000000000000000D003400B4D5002091
:1005800050D70020000000004D5C0308FD011E0054
:10059000F0CC002084D70020000000006113010887
:1005A00018202C00C0CC0020A4D7002000000000A0
:1005B000CD0F0308061018001CC00020D0D7002063
:1005C0000000000099E60308FB01010018C00020AC
:1005D000E8D7002000000000A10F0308FC0109007B
:1005E000E4BE0020ECD7002000000000B10F03089B
:1005F000340010000CBE0020F8D7002000000000DE
:100600006DE6030811020800E4BD002008D80020B0
:1006100000000000F607000812120400DCBD0020F4
:1006200010D8002000000000FE07000812200D0076
:10063000CCBD002014D800200000000002080008F3
:10064000F901040078B8002024D800200000000040
:10065000D9130108180202007CB2002028D800201B
:10066000000000000000000017020B0070B2002024
:100670002CD800200000000059080308FA010200ED
:100680004CB2002038D8002000000000C109030847
:10069000020203008CAF00203CD8002000000000C4
:1006A000000000000C02030048AF002040D80020EA
:1006B0000000000049080308FE01090020B20020E4
:1006C00044D8002000000000D50803080A4030008C
:1006D000CCB1002050D80020000000001008000815
:1006E0001A000E007CDA0020B0DB002000000000C1
:1006F00040080008000000000000000000000000AA
:1007000000000000000000000000000000000000E9
:1007100000000000000000000000000000000000D9
:1007200000000000000001000000000001000000C7
:10073000020200000300000000050201F40119009C
:1007400020030000023C3F010000000000004A01BD
:10075000B400D6012600000008044430FA0000006E
:100760000000E8036400040A000100002801000002
:1007700020003200C800D007960014003200280084
:10078000B00440060005500014000F0008000000EF
:100790000100000000000000000000000000000058
:1007A00000000000000000002000010100002B21DB
:1007B000231E64010100000001000A01290000005D
:1007C000000000010000000500000102030000001D
:1007D0000000000000000000000000000000040114
:1007E00001006C1600000000000000000000C409B9
:1007F0000000190128280000000001010101FFFF8D
:10080000FFFF0000000100000548455350000000B4
:1008100000300100000001000000000000000000A6
:10082000000000000000020000019E077D00200083
:100830000100B80BB80BB80B20005000500050005E
:100840007E05EA05B4053200E803D0070000D601B2
:1008500000000590000800000000000000000100FA
:1008600000000001010100006A000101FFFFFFFF1D
:10087000FFFF010102FFFF00000001000000598B93
:10088000010800000000000000000000803F0000A0
:1008900000000000000000000000FF000000000059
:1008A00000004C3E002008000000000000003C3E1C
:1008B000002008000000B0B3040805080400000090
:1008C00000005CBB04083CBC040848BB04080000F2
:1008D000000000000000DCB3040805080A00000066
:1008E00000005CBB04083CBC04083CBA04080000DF
:1008F00000000000000000000100E0010101010013
:1009000000004928020800000000280200203C27BF
:1009100005080000000000000000000000000000CA
:100920000000BC1C05080000000000000000BE0222
:10093000002004000000E82605080D000000D55244
:100940000208AC1C002000000000682005080D0013
:100950000000FD520208A01C002000000000C82179
:1009600005080800000000000000941C002004009E
:100970000000D42005080D000000FD280208881C96
:100980000020000000007C21050803000000ED5459
:1009900002087C1C0020000000004C270508030012
:1009A0000000ED540208701C002000000000041D2F
:1009B0000508010000000000000000000000000029
:1009C0000000000000000E00000000000000000019
:1009D0000000000000003C270508000000000000A7
:1009E00000000000000000000000BC1C0508000022
:1009F000000000000000BE02002004000000942659
:100A00000508030000001D300208641C00200800D7
:100A10000000D42005080D000000FD280208881CF5
:100A20000020000000007C21050803000000ED54B8
:100A300002087C1C0020000000004C270508030071
:100A40000000ED540208701C002000000000041D8E
:100A50000508010000000000000000000000000088
:100A60000000000000000E00000000000000000078
:100A700000000000000054270508000000000000EE
:100A800000000000000000000000BC1C0508000081
:100A9000000000000000BE020020040000009C26B0
:100AA000050803000000ED540208B81C00200000F7
:100AB0000000041D05080100000000000000000007
:100AC000000000000000000000000E000000000018
:100AD0000000000000000000000020700020702DC9
:100AE0007200FFFFFFFF010000000000803F0800D0
:100AF0000000000000000000000020180020FA00A4
:100B000000000100000001000000FFFF2D202D2D3E
:100B1000202D2D2D2D202D2D2D000000000000005A
:100B20000000000000000000000000000000FFFFC7
:100B3000FFFFD81C0508E01C0508FC1C0508000088
:100B40000000000000000000000000000000D71AB4
:100B50000508040000009D5002080000000000008D
:100B60000000041D05080100000000000000000056
:100B7000000000000000000000000E000000000067
:100B800000000000000000000000B8D600200100B6
:100B9000C40900000000B6D600200100C40900000E
:100BA0000000B4D600200100C40900000000B2D645
:100BB00000200100C40900000000AED600200100A2
:100BC000C40900000000B0D600200100C4090000E4
:100BD0000000ACD600200100C40900000000AAD625
:100BE00000200100C40900000000304F0020010077
:100BF000C800010000002E4F002032003075320086
:100C000000002C4F0020055A0500294F002000FF4E
:100C100001002B4F002001000000E4020020274FBC
:100C200000200200000068BC0408284F002000FFDC
:100C300001002A4F002001000000E4020020264F9E
:100C400000200200000068BC04081C4F002080C186
:100C5000803E050000001A4F002080C1803E050044
:100C60000000144F002080C1803E05000000124F9C
:100C7000002080C1803E050000000C4F002000FFD6
:100C80000100084F00200A320100074F0020040035
:100C900000001CBA0408064F00200200000030BA11
:100CA00004080000000000000000EC0200207C6F3F
:100CB00000209CFF2C0100000000AE0000200A0074
:100CC00000003CBA0408FC4E0020E0150C170000A0
:100CD0000000B0000020080000003CBC0408AF0089
:100CE0000020050000005CBB0408FE4E002002004E
:100CF000000054BA0408705100200100FF7F010079
:100D000000006F5100200200000060BA0408C250C9
:100D100000200000C20101000000BE5000200000C1
:100D2000C20101000000C05000200000C20101000B
:100D30000000BA5000200000803E32000000B85091
:100D400000200000803E32000000B650002000006D
:100D5000803E32000000BC50002000002C01010049
:100D60000000CE5000200000F40101000000CC5033
:100D700000200000F40101000000CA500020000023
:100D8000F40101000000C85000200000F40101003F
:100D90000000C65000200000803E01000000C4504A
:100DA00000200000803E01000000EC500020E8031D
:100DB000D0070A000000EA500020006401000A0089
:100DC0000000DF50002000640100DE5000200064BD
:100DD0000100E6500020006401000A000000E55018
:100DE0000020006401000A000000E45000200064BC
:100DF00001000A000000E9500020006401000A0020
:100E00000000E8500020006401000A000000E750E4
:100E10000020006401000A000000E350002000FFF1
:100E200001000A000000E250002000FF01000A005B
:100E30000000E150002000FF01000A000000924F76
:100E400000200000F40101000000904F002000008D
:100E5000F401010000008E4F00200000F4010100A9
:100E600000008C4F00200000F40101000000DA5067
:100E700000201400E80301000000D8500020E8031F
:100E800030750A000000D750002000C80100D6507D
:100E9000002000C80100D550002000C80100D45037
:100EA0000020006401000A000000D2500020000071
:100EB000D007010000006551002000C80100645106
:100EC000002000C801006351002000C801006251E9
:100ED000002000C801006151002000C801006051DD
:100EE000002000C801005F51002000C801005E51D1
:100EF000002000C801005D51002000C801002C1D29
:100F000005080000000000000000000000000000D4
:100F1000000088EC040809000000000000009003B5
:100F200000200400000090EC04080900000000000C
:100F3000000084030020040000008024050809004C
:100F40000000000000007803002004000000AF1B38
:100F5000050809000000000000006C0300200400E8
:100F600000003C1D050809000000000000006003AF
:100F7000002004000000441D0508090000000000D6
:100F8000000054030020040000004C1D0508090067
:100F90000000000000004803002004000000541D71
:100FA000050809000000000000003C0300200400C8
:100FB0000000041D05080100000000000000000002
:100FC000000000000000000000000E000000000013
:100FD00000000000000000000000541F0508000091
:100FE0000000000000000000000000000000440AB3
:100FF00005080700000000000000B4030020000006
:101000000000641F05080800000000000000A8039D
:10101000002000000000701F05080800000000000C
:1010200000009C03002000000000041D05080100D2
:1010300000000000000000000000000000000000B0
:1010400000000E0000000000000000000000000092
:101050000000781F050800000000000000000000EC
:10106000000000000000881F05080D0000000000BF
:101070000000F003002000000000901F05080D0094
:10108000000000000000E403002000000000981FA2
:1010900005080700000000000000DC03002000003D
:1010A0000000A01F05080D00000000000000D00394
:1010B000002000000000A81F05080D00000000002F
:1010C0000000C403002000000000B01F0508070056
:1010D000000000000000BC03002000000000041D10
:1010E00005080100000000000000000000000000F2
:1010F0000000000000000E000000000000000000E2
:10110000000000000000B81F0508000000000000FB
:1011100000000000000000000000440A05080C0068
:10112000000000000000324F002000000000CC1F33
:1011300005080C00000000000000344F00200000F3
:101140000000DC1F05080C000000000000006A4FD2
:10115000002000000000EC1F05080C00000000004B
:1011600000005E4F002000000000002005080C0079
:10117000000000000000364F0020000000000C209E
:1011800005080C00000000000000384F002000009F
:101190000000142005080C000000000000003A4F79
:1011A000002000000000282005080C0000000000BE
:1011B00000003C4F002000000000302005080C001B
:1011C0000000000000003E4F00200000000038201A
:1011D00005080C000000000000007C4F002000000B
:1011E0000000502005080C00000000000000404FE7
:1011F0000020000000005C2005080C00000000003A
:101200000000424F00200000000098EC04080C0091
:10121000000000000000444F002000000000642097
:1012200005080C00000000000000464F00200000F0
:101230000000702005080C00000000000000484F6E
:101240000020000000007C2005080C0000000000C9
:1012500000004A4F002000000000882005080C0014
:101260000000000000004C4F00200000000094200F
:1012700005080C000000000000004E4F0020000098
:101280000000A02005080C00000000000000624FD4
:10129000002000000000A82005080C00000000004D
:1012A0000000604F002000000000B02005080C0086
:1012B0000000000000006E4F002000000000BC2075
:1012C00005080C00000000000000704F0020000026
:1012D0000000C82005080C00000000000000764F48
:1012E000002000000000F81D05080C0000000000B0
:1012F0000000504F002000000000D42005080C0022
:10130000000000000000584F002000000000DC201A
:1013100005080C00000000000000524F00200000F3
:101320000000E82005080C00000000000000544FF9
:10133000002000000000F42005080C000000000060
:101340000000564F002000000000FC2005080C00A3
:101350000000000000005A4F002000000000640A56
:1013600005080C00000000000000644F0020000091
:101370000000082105080C000000000000005C4F80
:10138000002000000000451C05080C0000000000C3
:1013900000006C4F002000000000142105080C0024
:1013A000000000000000664F0020000000001C212B
:1013B00005080C00000000000000684F002000003D
:1013C0000000242105080C00000000000000724FFE
:1013D0000020000000002C2105080C000000000087
:1013E0000000744F002000000000041D05080100EB
:1013F00000000000000000000000000000000000ED
:1014000000000E00000000000000000000000000CE
:10141000000034210508000000000000000000006A
:10142000000000000000402105080D000000000041
:1014300000004804002000000000482105080D00BD
:101440000000000000003C040020000000005021CB
:101450000508070000000000000034040020000020
:1014600000005C21050807000000000000002C04BB
:1014700000200000000068210508090000000000AD
:10148000000020040020000000007421050809006D
:101490000000000000001404002000000000802173
:1014A00005080900000000000000080400200000FA
:1014B0000000902105080900000000000000FC0366
:1014C000002000000000041D0508010000000000CD
:1014D00000000000000000000000000000000E00FE
:1014E0000000000000000000000000000000A42137
:1014F00005080000000000000000000000000000DF
:101500000000B421050805000000000000008B4F1A
:10151000002000000000041D05080100000000007C
:1015200000000000000000000000000000000E00AD
:101530000000000000000000000000000000BC21CE
:10154000050800000000000000000000000000008E
:101550000000BC1C05080000000000000000541E34
:10156000002004000000AB1B05080D000000015125
:1015700002089C04002000000000E82605080D0079
:1015800000000128020890040020000000006820EC
:1015900005080D000000E527020884040020000073
:1015A0000000C821050808000000000000007804C1
:1015B000002004000000D42005080D0000002D27A5
:1015C00002086C04002000000000D021050809007A
:1015D00000000000000060040020040000007C21E6
:1015E000050803000000ED54020854040020000028
:1015F0000000041D050801000000000000000000BC
:10160000000000000000000000000E0000000000CC
:1016100000000000000000000000D82105080000C4
:101620000000000000000000000000000000E821B1
:1016300005080D00000000000000B40400200000B8
:101640000000F02105080A00000000000000F0542E
:10165000002000000000FC2105080A000000000036
:101660000000F854002000000000042205080A00D1
:1016700000000000000000550020000000000C22C7
:1016800005080800000000000000A8040020000079
:101690000000142205080400000021560208000082
:1016A000000000000000041D05080100000000000B
:1016B00000000000000000000000000000000E001C
:1016C00000000000000000000000000000002022D8
:1016D00005080000000000000000000000000000FD
:1016E0000000342205080000000000000000000097
:1016F000000000000000542205080800000000005F
:10170000000008050020000000005C220508080019
:10171000000000000000FC04002000000000642223
:1017200005080800000000000000F0040020000090
:1017300000006C2205080800000000000000E4041E
:1017400000200000000074220508080000000000CE
:101750000000D804002000000000802205080800D6
:10176000000000000000CC040020000000008C22DB
:1017700005080800000000000000C0040020000070
:101780000000041D0508010000000000000000002A
:1017900000000000000094220508020000007556B9
:1017A00002080200000000000000000000000E001F
:1017B0000000000000000000000000000000A02267
:1017C000050800000000000000000000000000000C
:1017D0000000B422050808000000000000005005C9
:1017E000002000000000C0220508080000000000E2
:1017F00000004405002000000000CC22050808007D
:101800000000000000003805002000000000D82281
:10181000050808000000000000002C050020000062
:101820000000E42205080800000000000000200578
:10183000002000000000F022050808000000000061
:1018400000001405002000000000041D0508010030
:101850000000000000000000000000000000000088
:1018600000000E000000000000000000000000006A
:101870000000FC22050800000000000000008F02AC
:10188000002000000000082305080B0000000000F5
:101890000000E405002000000000142305080B00F0
:1018A000000000000000D8050020000000002023F8
:1018B00005080B00000000000000CC05002000001F
:1018C00000002C2305080B00000000000000C005EC
:1018D000002000000000382305080B000000000075
:1018E0000000B405002000000000442305080B00A0
:1018F000000000000000A8050020000000005023A8
:1019000005080B000000000000009C0500200000FE
:1019100000005C2305080B0000000000000090059B
:10192000002000000000682305080B0000000000F4
:101930000000840500200000000074230508070053
:101940000000000000007C050020000000007C2357
:1019500005080700000000000000740500200000DA
:101960000000882305080B00000000000000680547
:10197000002000000000942305080800000000007B
:1019800000005C05002000000000041D05080100A7
:101990000000000000000000000000000000000047
:1019A00000000E0000000000000000000000000029
:1019B0000000A02305080000000000000000000057
:1019C000000000000000B42305080800000000002B
:1019D00000001406002000000000C02305080800D5
:1019E0000000000000000806002000000000CC23DA
:1019F00005080800000000000000FC0500200000B1
:101A000000008C2205080800000000000000F0051E
:101A1000002000000000041D050801000000000077
:101A200000000000000000000000000000000E00A8
:101A30000000000000000000000000000000D823AB
:101A4000050800000000000000008C0200200000DB
:101A50000000E823050808000000000000005C0604
:101A6000002000000000F42305080B000000000027
:101A700000005006002000000000002405080700B8
:101A800000000000000048060020000000000C24B8
:101A900005080700000000000000400600200000CC
:101AA00000001824050807000000000000003806A8
:101AB00000200000000024240508080000000000A9
:101AC00000002C060020000000002C24050808005F
:101AD0000000000000002006002000000000041D9F
:101AE00005080100000000000000000000000000E8
:101AF0000000000000000E000000000000000000D8
:101B00000000000000003424050800000000000070
:101B100000008C020020000000004024050807009F
:101B2000000000000000A80600200000000048247B
:101B300005080700000000000000A00600200000CB
:101B4000000050240508070000000000000098066F
:101B5000002000000000E418050807000000000055
:101B600000009006002000000000EC1805080700A7
:101B70000000000000008806002000000000F418AB
:101B8000050807000000000000008006002000009B
:101B90000000582405080700000000000000780637
:101BA000002000000000602405080700000000007D
:101BB00000007006002000000000682405080700EF
:101BC0000000000000006806002000000000041D66
:101BD00005080100000000000000000000000000F7
:101BE0000000000000000E000000000000000000E7
:101BF00000000000000000000000712B0208B00689
:101C00000020894F00202A00000070BA0408884F85
:101C1000002000C80100864F0020E803D007010023
:101C2000000048454C494F535052494E4700254FFC
:101C3000002000030100244F002000030100B92A06
:101C40000208912A02088C0700204D2A0208012A66
:101C5000020804080020F92A0208E12A0208B8084C
:101C600000206D29020821290208C40B0020872BBF
:101C7000020825530208A00C00206D27020800006E
:101C80000000F00C0020FD550208592E0208CC0D72
:101C90000020452C0208092C0208800E0020B52CDB
:101CA0000208812C0208700F0020392D0208852DB2
:101CB000020824100020DC50002001060100D92B6E
:101CC0000208AD2B020864110020E92C02085553CC
:101CD0000208F0110020B52D0208A5530208B81221
:101CE0000020D050002001030100702405080000EE
:101CF00000000000000000000000000000007C2444
:101D000005080800000000000000C81300200000C3
:101D10000000842405080700000000000000C01334
:101D2000002000000000942405080D0000000000C1
:101D30000000B413002000000000A02405080300E8
:101D40000000ED540208A813002000000000041D4C
:101D50000508010000000000000000000000000075
:101D60000000000000000E00000000000000000065
:101D7000000000000000A82405080000000000008A
:101D800000000000000000000000B82405080A0060
:101D9000000000000000C024050800000000C82466
:101DA00005080A0000000000000082DA04080000B4
:101DB0000000D02405080A00000000000000665161
:101DC000002000000000D82405080A0000000000E0
:101DD0000000D413002000000000041D05080100CD
:101DE00000000000000000000000000000000000F3
:101DF00000000E00000000000000000000000000D5
:101E00000000E024050800000000000000000000C1
:101E1000000000000000EC24050803000000ED5461
:101E200002080814002000000000F8240508030040
:101E30000000ED540208FC13002000000000002503
:101E4000050803000000ED540208F0130020000014
:101E50000000082505080500000000000000234FD1
:101E60000020000000001025050807000000000009
:101E70000000E8130020000000001C2505080700F2
:101E8000000000000000E013002000000000041D1E
:101E90000508010000000000000000000000000034
:101EA0000000000000000E00000000000000000024
:101EB00000000000000028250508000000000000C8
:101EC000000000000000000000003C2505080300A1
:101ED0000000ED54020838140020000000004825DE
:101EE000050803000000ED540208B40000200000C3
:101EF00000005025050803000000ED5402082C14D2
:101F00000020000000005825050803000000ED54E3
:101F100002082014002000000000D420050803005F
:101F20000000ED5402081414002000000000041DFD
:101F30000508010000000000000000000000000093
:101F40000000000000000E00000000000000000083
:101F500000000000000064250508000000000000EB
:101F600000000000000000000000702505080700C8
:101F70000000F55302089414002000000000F8202F
:101F8000050803000000ED5402088814002000003A
:101F900000007C25050803000000ED5402087C14B5
:101FA0000020000000008425050803000000ED5417
:101FB000020870140020000000008C2505080700AE
:101FC0000000D953020868140020000000007818AF
:101FD000050803000000ED5402085C140020000016
:101FE00000009825050803000000ED540208501475
:101FF000002000000000A425050803000000ED54A7
:1020000002084414002000000000041D050801001F
:1020100000000000000000000000000000000000C0
:1020200000000E00000000000000000000000000A2
:102030000000412B0208112B02089C140020252EC1
:1020400002080000000028150020DD290208B92937
:102050000208B4150020000000000000000068160F
:102060000020FD2D02081154020808170020AC259D
:102070000508000000000000000000000000000053
:102080000000B825050803000000ED5402081418EC
:10209000002000000000C025050803000000ED54EA
:1020A000020808180020000000005C0B050803006F
:1020B0000000ED540208FC17002000000000CC25B1
:1020C000050803000000ED540208F017002000008E
:1020D0000000D825050803000000ED540208E417AD
:1020E000002000000000E0250508020000007556F1
:1020F00002080000000000000000E82505080200BA
:102100000000755602080100000000000000942243
:1021100005080200000075560208020000000000D9
:102120000000000000000E000000000000000000A1
:10213000000000000000024F002088136F1701000C
:102140000000044F002088136F1700000000F425E2
:102150000508000000000000000000000000000072
:102160000000042605080800000000000000F41824
:1021700000200400000010260508080000000000F0
:102180000000E8180020000000007C210508040081
:102190000000295102080000000000000000041D9A
:1021A0000508010000000000000000000000000021
:1021B0000000000000000E00000000000000000011
:1021C000000000000000004F002088136F1701007E
:1021D0000000B86F002088136F1700000000B128BE
:1021E00002080000000000190020915400200100A6
:1021F00000001CBB0408BA6F00200100000028BBCF
:102200000408B06F00200200000030BB0408B66470
:1022100000200000000000000000B4640020000066
:10222000000000000000B264002000000000000078
:102230000000B06400200000000000000000AE6458
:1022400000200000000000000000AC64002000003E
:102250000000000000008C1E0020000000000000B4
:102260000000FF4E0020020000003CBB04084C268A
:102270000508000000000000000000000000000051
:102280000000042605080800000000000000841972
:1022900000200400000010260508080000000000CF
:1022A000000078190020000000007C2105080400CF
:1022B0000000812802080000000000000000041D4A
:1022C0000508010000000000000000000000000000
:1022D0000000000000000E000000000000000000F0
:1022E0000000000000005C2605080000000000005F
:1022F000000000000000000000006C2605080D0032
:10230000000079520208B419002004000000782669
:1023100005080D000000D9280208A81900200400B3
:102320000000842605080D0000003D5202089C199B
:1023300000200000000090260508030000003D304A
:10234000020890190020080000009C2605080300E0
:102350000000ED540208B81C002000000000041D1D
:10236000050801000000000000000000000000005F
:102370000000000000000E0000000000000000004F
:10238000000000000000FC1C050800000000000028
:1023900000000000000000000000D71A050804003B
:1023A0000000415102080000000000000000041D70
:1023B000050801000000000000000000000000000F
:1023C0000000000000000E000000000000000000FF
:1023D000000000000000F0260508000000000000DA
:1023E0000000000000000000000098F004080D004C
:1023F000000000000000141A002004000000002764
:1024000005080800000000000000081A0020040071
:1024100000000C2705080800000000000000FC195F
:102420000020040000001427050808000000000038
:102430000000F0190020040000001C270508080017
:10244000000000000000E419002004000000242720
:1024500005080800000000000000D8190020040052
:1024600000002C2705080800000000000000CC191F
:1024700000200400000034270508080000000000C8
:102480000000C019002004000000041D0508010020
:10249000000000000000000000000000000000003C
:1024A00000000E000000000000000000000000001E
:1024B00000009928020800000000201A00200000F7
:1024C000000000000000981A00200000000000003A
:1024D0000000381B0020B66F00200400000048BB3D
:1024E0000408B46F0020E0150C1700000000B36F63
:1024F0000020080000003CBC0408B26F002005006A
:1025000000005CBB04080000000000000000881B05
:1025100000200403090412010002EF0201408304B9
:102520005632000201020301000012010002020201
:102530000040830440570002010203010000090229
:102540002000010104C03209040000020806500501
:102550000705810240000007050102400000090252
:102560006400030100C03209040000010300000000
:102570000921110100012226000705830308000A32
:10258000080B01020202010009040100010202011C
:1025900000052400100105240100020424020205A4
:1025A00024060102070582030800FF090402000255
:1025B0000A000000070501024000000705810240F3
:1025C000000009024300020100C0320904000001BA
:1025D0000202010005240010010524010001042469
:1025E00002020524060001070582030800FF090412
:1025F0000100020A00000007050102400000070573
:10260000810240000000FF00000000FFFF0000000A
:102610000000AA5505010000010005010905A101FE
:10262000A10005010930093109320933093509349E
:10263000094009381581257F750895088102C0C0B9
:10264000000009022200010100E03209040000013B
:102650000301020009211101000122260007058360
:102660000308000A00000000000001020304010248
:1026700003040607080985BF02084DC60208C9C140
:102680000208519D0208759F0208619D02087D9D08
:102690000208299D0208199D0208000000000000A0
:1026A00000002D202D2D202D2D2D2D202D2D2D2DDB
:1026B000000000000000000000000000000000001A
:1026C00000AA550B010000AA5507010000AA5509F0
:1026D00002000000000001000000C012AA55030023
:1026E0009F00FF1FFF1F0100000024760020000054
:1026F0000000F423002004000000900A0508DC28F4
:1027000005080000000005930108A08601000400F0
:1027100000000000000000000000000000000000B9
:102720000000000000000000000000000000900A0F
:102730000508082A05080000000001120108E80346
:102740000000040000000000000000000000000085
:102750000000000000000000000000000000000079
:102760000000F8200508A4EC0408000000006998A7
:1027700001087D00000006000000000000000000CD
:102780000000000000000000000000000000000049
:10279000000000000000E80905080000000000003B
:1027A0000000B17E0108E803000003000000000003
:1027B0000000000000000000000000000000000019
:1027C00000000000000000000000102A05080000C2
:1027D000000000000000E9E90308102700000300E2
:1027E00000000000000000000000000000000000E9
:1027F000000000000000000000000000000068274A
:10280000050800000000D99A0008591601085F76F3
:1028100000000500000000000000000000000000B3
:1028200000000000000000000000000000000000A8
:102830000000500C05080000000000000000E983C3
:102840000108102700000100000000000000000047
:102850000000000000000000000000000000000078
:102860000000000000001C2A050800000000000015
:10287000000005120108E803000005000000000048
:102880000000000000000000000000000000000048
:1028900000000000000000000000282A05080000D9
:1028A000000000000000D50B0208204E00000300CD
:1028B0000000000000000000000000000000000018
:1028C0000000000000000000000000000000382AA6
:1028D00005080000000000000000C1090208204EA9
:1028E00000000300000000000000000000000000E5
:1028F00000000000000000000000000000000000D8
:102900000000482A05080000000000000000E9134C
:102910000108400D0300030000000000000000005B
:1029200000000000000000000000000000000000A7
:10293000000000000000540B05080000000000002B
:102940000000E164030810270000010000000000FF
:102950000000000000000000000000000000000077
:1029600000000000000000000000000A0508000050
:10297000000000000000C96B0208102700000300DF
:102980000000000000000000000000000000000047
:102990000000000000000000000000000000582AB5
:1029A0000508000000000000000061A90008A086E2
:1029B0000100010000000000000000000000000015
:1029C0000000000000000000000000000000000007
:1029D0000000F81D050800000000000000000911BB
:1029E0000108A861000001000000000000000000D4
:1029F00000000000000000000000000000000000D7
:102A0000000000000000602A05080000000000002F
:102A10000000A1870208A08601000100000000005C
:102A200000000000000000000000000000000000A6
:102A300000000000000000000000580C0508000025
:102A4000000000000000193E0108A00F0000010076
:102A50000000000000000000000000000000000076
:102A600000000000000000000000000000006C2AD0
:102A700005080000000000000000213102081027B6
:102A80000000010000000000000000000000000045
:102A90000000000000000000000000000000000036
:102AA00000005C0B05080000000000000000B1E31E
:102AB00002081A41000001000000000000000000B0
:102AC0000000000000000000000000000000000006
:102AD000000000000000B80C050800000000000025
:102AE000000081A50208102700000100000000007E
:102AF00000000000000000000000000000000000D6
:102B000000000000000000000000F02805080000A0
:102B1000000000000000F55702081A410000010003
:102B200000000000000000000000000000000000A5
:102B30000000000000000000000000000000782AF3
:102B4000050800000000000000002DDF0208400D15
:102B50000300000000000000000000000000000072
:102B60000000000000000000000000000000000065
:102B70000000802A050800000000000000000B5C37
:102B80000308400D030000000000000000000000EA
:102B90000000000000000000000000000000000035
:102BA000000000000000882A050800000000000066
:102BB00000001979020850C3000003000000000063
:102BC0000000000000000000000000000000000005
:102BD00000000000000000000000942A050800002A
:102BE0000000000000003509020840420F0000000C
:102BF00000000000000000000000000000000000D5
:102C00000000000000000000000000000000A02AFA
:102C1000050800000000000000002D5D030850C3FF
:102C200000000000000000000000000000000000A4
:102C30000000000000000000000000000000000094
:102C40000000000200051002700B1A0300000000D3
:102C50000000000000000000000000000000000074
:102C6000000000000000040309041201000200003B
:102C700000408304205700020102030100000533D5
:102C800003081D0903081909030815090308D112CF
:102C90000308110903080D09030804BF0408F9C853
:102CA0000208659E0208E1C702080000000000005B
:102CB000000015BE020831BD02080000000000003F
:102CC000000000000000C59C0208B5090308A9091E
:102CD0000308211803083D180308610903080518B3
:102CE0000308E91703080100000050010000070075
:102CF00000000200000000000000000000000102CF
:102D0000030406070809DDA20208A99E0208A5C15E
:102D1000020800000000159D020859C9020891A28E
:102D20000208DDBE02080000000000000000D19C87
:102D30000208659C0208599C020829B6020845B69B
:102D400002080DB60208F1B50208D5B5020895A231
:102D50000208859E0208E5C0020800000000E99C08
:102D60000208E1BE020865A202083DBE020800009A
:102D7000000000000000DD9C020808000000559CD7
:102D80000208519C02084D9C0208419C02083D9C8F
:102D90000208499C0208459C0208010000000060EE
:102DA0000240106002400000000000000000000B24
:102DB00000000000000000000000000000000060B3
:102DC0000240286002400100000000000000060CE4
:102DD0000000000000000000000000000000006093
:102DE0000240406002400200000000000000100DA0
:102DF0000000000000000000000000000000006073
:102E00000240586002400300000000000000160E5F
:102E10000000000000000000000000000000006052
:102E20000240706002400400000000000000200F1B
:102E30000000000000000000000000000000006032
:102E400002408860024005000000000000002610DB
:102E50000000000000000000000000000000006012
:102E60000240A06002400600000000000000301197
:102E700000000000000000000000000000000060F2
:102E80000240B86002400700000000000000362F3A
:102E900000000000000000000000000000000064CE
:102EA00002401064024000000000000000000038F2
:102EB00000000000000000000000000000000064AE
:102EC00002402864024001000000000000000639B2
:102ED000000000000000000000000000000000648E
:102EE0000240406402400200000000000000103A6E
:102EF000000000000000000000000000000000646E
:102F00000240586402400300000000000000163B2D
:102F1000000000000000000000000000000000644D
:102F20000240706402400400000000000000203CE9
:102F3000000000000000000000000000000000642D
:102F400002408864024005000000000000002644A2
:102F5000000000000000000000000000000000640D
:102F60000240A0640240060000000000000030455E
:102F700000000000000000000000000000000064ED
:102F80000240B8640240070000000000000036461E
:102F90000000000000000000000000000000000031
:102FA000803F000000000000000000000000000062
:102FB000803F000000000000000000000000000052
:102FC0000000000000000000000000000000000001
:102FD000000000000000010000000000803F000031
:102FE000000000000000000000000000803FA42757
:102FF00000200000000000000000000000000000B1
:1030000000000000000000000000000000000000C0
:1030100000000000000000000000000000000000B0
:1030200000000000000000000000000000000000A0
:103030000000000000000000000000000000000090
:103040000000000000000000000000000000000080
:10305000000001000000000000000000000000006F
:103060000000000000000000000000000000000060
:103070000000000000000000000000000000000050
:103080000000000000000000000000000000000040
:103090000000000000000000000000000000000030
:1080000000230122C2708370038003714371837166
:10801000C37103724372704700230A2203604360F6
:10802000C381C0F80630C0F80A300280704700BF34
:108030002DE9F043924BD9791A7A914200F0B4803D
:10804000D979DA79C1EBC10103EB8101C2EBC2023C
:1080500003EB820291F82B40167CA21E964241D07F
:10806000884ADC6812781B2A00F0A1800020DA79A7
:1080700085490132A1FB0251490801EB4101521A25
:10808000D2B2DA71002C75D0804A5268C2F308026D
:10809000002A4DD1EFF31182002A49D17C497D4E4F
:1080A0000A68B56800BF0C68A242F9D17A490E6827
:1080B0004FF47A7404FB06F14D1BB5FBF6F504FB97
:1080C0000252D3F89810521AB2F5FA7F04DB00225C
:1080D00040F0040083F89520D3F89020002A51D175
:1080E000BDE8F083DA7903F11007C2EBC20207EBB7
:1080F000820264B11444002112F8015B29449442C5
:1081000089B2F9D1CAB202EB1121FF295BD05D4AD5
:10811000DC6812781B2AA9D1B3F864205F490132C8
:1081200092B204208880A3F864204A8000209EE751
:10813000EFF31184102282F31288564D5849AE682D
:108140002A68D20344BF01220A60514A48BFAE6880
:1081500017680A68E4B284F311884F490D684FF438
:108160007A743A4404FB05F1891BB1FBF5F104FB79
:108170000212A6E793F89520002A85D1D3F8902023
:10818000002AADD0424909688A1AB2F5FA7FA7D908
:1081900093F86620032A04BF0022A3F88C20002253
:1081A000C3F89020BDE8F083DC6800206AE7B3F8EC
:1081B00064203A49013292B203208880A3F86420F7
:1081C0004A80002053E7DA7901211C2404FB0212C3
:1081D000B918BA5CE2B1012A13D1082E39D0294A64
:1081E000DC6812781B2A7FF441AFB3F864202B4976
:1081F000013292B206208880A3F864204A800020D1
:1082000035E7204A12781B2A16D0DC6800202EE7BA
:10821000192EDC6846D01B4909781B297FF426AF4C
:10822000B3F864101D4D013189B206261046A3F83B
:1082300064106980AE801AE7B3F864201749DC68DF
:10824000013292B205208880A3F864204A80002081
:108250000DE793F89420002AD7D04A78102A00F02E
:10826000018140F2FC80303A012ACED851F8010F4A
:1082700018608A798888DB6098809A71004CF5E6EE
:10828000082800207DAF0020ABAAAAAA00ED00E0DC
:108290001CB1002010E000E024BB002080AF0020D3
:1082A00020BB002091F802C04D78026991F803804C
:1082B00091F804908E79CF7991F808E00CF0070CD2
:1082C00045EA0C2508F03F0891F80AC015808D7822
:1082D0004FEA481848EAD5088D7BA2F8028091F849
:1082E00003804FEA890040EA981091F8058008F071
:1082F000010840EA8820908006F00F06487991F83E
:108300000780F60146EA50004E7AD0804FEA4E0EC2
:108310004EEAD81E06F0030691F80680C87A07F0E8
:108320007F074EEA462E3F014E7BA2F80AE047EA5D
:108330001817178106F007078E7A91F809E0C00038
:1083400040EA56100E7B0CF01F0C46EA072605F09B
:108350003F054F7BD0816D014FEA8C1C45EAD70069
:108360004CEA9E0CA2F80CC016825082C87B91F891
:108370000EE0CF7C91F8128091F811C08E7C4D7D7B
:10838000800040EA9E1091F810E07F000EF0010E90
:1083900047EAD8170CF00F0C91F8108040EA8E20B5
:1083A0004FEACC1C91F814E090824CEA580C887D7E
:1083B000A2F816C006F07F0691F811C00EF0030E69
:1083C00047EA4E27360146EA1C16578391F814C037
:1083D0004F7D168305F01F05AD01C00045EA9C05E1
:1083E00040EA5710D0839583CD7D40F2147015F08C
:1083F000010F14BF0646AD2615F0020F08BFAD20D1
:1084000016842E07508428D415F0040F0CBF0120C9
:10841000092093F86620032A1AD193F867500A7E40
:10842000124F996E03EB4506C2EB8222A7FB027244
:10843000B6F86C705209C91B0135114405F00F05DF
:1084400083F867500D09A6F86C209966A3F88C5044
:1084500007490A68C3F8902009E60320D9E7002AF3
:108460007FF4D3AE012283F89520CEE61F85EB5131
:108470001CB100206F4B5B68C3F3080370B4B3B941
:10848000EFF311839BB96C4A6C4D1368AC6800BF65
:1084900011688B42F9D16A4A15684FF47A7101FB71
:1084A00005F2121BB2FBF5F201FB032220E0EFF311
:1084B0001184102383F3128803F1E02361499D683E
:1084C0001A68D20342BF01220A609D685A4BE4B287
:1084D0001E680B6884F31188594A14684FF47A7245
:1084E00002FB04F13344491BB1FBF4F102FB03121C
:1084F000554B002183F89C1093F89D10012917D942
:10850000D3F8A01040F6AC54511AA14210DD4F49E7
:1085100009781B2909D1B3F864104D4C013189B297
:108520000125A3F864106180A580002183F89D10C7
:10853000C0B27E2828D093F89D201AB393F89D20CE
:108540001B2A58D893F8AC20002A6CD0002280F067
:10855000200083F8AC2093F89D20022A03D1012843
:1085600008BF83F8A4001A7A93F89D4093F89D10F1
:10857000C2EBC20203EB820222440131C9B2D073C2
:1085800083F89D1070BC704793F89D1001292BD97A
:10859000197A3048DC790131A0FB0150400800EB2A
:1085A0004000091AC9B28C420AD093F89D40187A4B
:1085B0001972C0EBC00003EB8000611E80F82B1025
:1085C00093F8A41039B10120002183F89C0083F8AE
:1085D000A410C3F898201D4909781B291DD000213B
:1085E000C3F8A82083F8AC10012183F89D10C3F8CC
:1085F000A02070BC7047154A127800211B2A83F80E
:108600009D10BFD1B3F864201149013292B202200B
:10861000A3F864204A808880B4E7D3F8A8100C48F7
:10862000511A0180DBE77D2895D1012283F8AC2027
:10863000A8E700BF00ED00E01CB1002010E000E062
:1086400024BB002020BB0020082800207DAF002094
:1086500080AF0020ABAAAAAA03788B4283BF034B4A
:1086600003EB4101B1F8B00000207047082800205A
:10867000044B93F8C80018B1002283F8C8200120E9
:10868000704700BF08280020F0B4C24D95F8EF6095
:1086900005F1CC020244B41E1444A24200F07881D9
:1086A000013A013C002341F2210112F8017F83EAE3
:1086B00007231FB2BBB2002FACBF5B0081EA4303AC
:1086C0009BB21F0454BF5B0081EA43039BB21F04AB
:1086D00054BF5B0081EA43039BB21F0454BF5B009D
:1086E00081EA43039BB21F0454BF5B0081EA43034A
:1086F0009BB21F0454BF5B0081EA43039BB21F047B
:1087000054BF5B0081EA43039BB21F0454BF5B006C
:1087100081EA4303A2429BB2C7D10644B21E013E86
:108720002A442E4492F8CC1096F8CC2002EB012279
:1087300092B29A4201D0F0BC704795F8F020002A1E
:1087400000F02181431CDBB25C1C2C442B444FF411
:10875000AF6193F8CC6094F8CC3003EB06239BB266
:1087600001FB03F31B1303F54873012AA5F8B0308E
:1087700000F00981C31CDBB25C1C2C442B44022A90
:1087800093F8CC6094F8CC3003EB06239BB201FB4A
:1087900003F34FEA233303F54873A5F8B23000F032
:1087A000F280431DDBB25C1C2C442B44032A93F85B
:1087B000CC6094F8CC3003EB06239BB201FB03F3AF
:1087C0004FEA233303F54873A5F8B43000F0DB809B
:1087D000C31DDBB25C1C2C442B44042A93F8CC60F0
:1087E00094F8CC3003EB06239BB201FB03F34FEA72
:1087F000233303F54873A5F8B63000F0C48000F1C8
:108800000903DBB25C1C2C442B44052A93F8CC6092
:1088100094F8CC3003EB06239BB201FB03F34FEA41
:10882000233303F54873A5F8B83000F0AC8000F1AD
:108830000B03DBB25C1C2C442B44062A93F8CC605F
:1088400094F8CC3003EB06239BB201FB03F34FEA11
:10885000233303F54873A5F8BA3000F0948000F193
:108860000D03DBB25C1C2C442B44072A93F8CC602C
:1088700094F8CC3003EB06239BB201FB03F34FEAE1
:10888000233303F54873A5F8BC307CD000F10F0307
:10889000DBB25C1C2C442B44082A93F8CC6094F87F
:1088A000CC3003EB06239BB201FB03F34FEA2333E7
:1088B00003F54873A5F8BE3065D000F11103DBB2B3
:1088C0005C1C2C442B44092A93F8CC6094F8CC30DF
:1088D00003EB06239BB201FB03F34FEA233303F5BB
:1088E0004873A5F8C0304ED000F11303DBB25C1C16
:1088F0002C442B440A2A93F8CC6094F8CC3003EB38
:1089000006239BB201FB03F34FEA233303F54873BD
:10891000A5F8C23037D000F11503DBB25C1C2C4443
:108920002B440B2A93F8CC6094F8CC3003EB06234D
:108930009BB201FB03F34FEA233303F54873A5F819
:10894000C43020D000F11703DBB25C1C2C442B4454
:108950000C2A93F8CC6094F8CC3003EB06239BB23E
:1089600001FB03F34FEA233303F54873A5F8C63040
:1089700009D000F11903DBB25A1C2A442B4493F8A6
:10898000CC3092F8CC30012385F8C830F0BC704769
:108990000023C2E608280020794B5B68C3F3080374
:1089A00070B5B3B9EFF311839BB9764A764D13686E
:1089B000AC6800BF11688B42F9D1744A15684FF456
:1089C0007A7101FB05F2141BB4FBF5F401FB0343C0
:1089D00020E0EFF31181102383F312886A4C6C4A74
:1089E000A5682368DE0344BF01231360654B48BFBD
:1089F000A5681E681368C9B281F31188634A1468B8
:108A00004FF47A71334401FB04F2521BB2FBF4F2CF
:108A100001FB03235F4CD4F8F420C4F8F4309B1A14
:108A2000B3F5FA5F1AD9002384F8F83084F8F930E6
:108A3000A1282FD0A22800F09C8094F8F92094F867
:108A4000EF300025A2B16A1C6119D5B2C0B29D42B7
:108A500081F8CC0084F8F8500CD070BD94F8F85030
:108A6000002DE5D094F8F92094F8EF30002AEAD1EF
:108A70009D42F2D194F8FA30052B72D0062B03D127
:108A800094F8CD301E2B0DD0002384F8F83084F8F4
:108A9000F93070BD01221B2384F8F92084F8EF30EF
:108AA0000025D0E76A1E002A4FF0000150DD08467D
:108AB0000B462344013093F8CC30DBB283EA010546
:108AC000ED074FEA530348BF83F08C0383EA510557
:108AD000EE074FEA530348BF83F08C0383EA910506
:108AE000ED074FEA530344BF83F08C03DBB283EA04
:108AF000D105EE074FEA530344BF83F08C03DBB28A
:108B000083EA1115ED074FEA530344BF83F08C034A
:108B1000DBB283EA5115EE074FEA530344BF83F0FB
:108B20008C03DBB283EA9115ED074FEA530344BF90
:108B300083F08C03DBB283EAD1155908EB0748BFF9
:108B400081F08C01C0B248BFC9B290420346B0DB8D
:108B5000224492F8CC308B4296D10320FFF794FD4B
:108B600092E70020FFF790FD94F8CD301E2B8BD1BB
:108B700098E70122232384F8F92084F8EF308FE767
:108B800000ED00E01CB1002010E000E024BB00205C
:108B900020BB00200828002007299DBF034B03EBC2
:108BA0008101B1F8FC000020704700BF08280020B8
:108BB0001A4B93F81C2132B193F820210021A82AE6
:108BC00083F81C1101D00020704793F83321002A4C
:108BD000F9D110B4DFED126A03F5907103F1F800DA
:108BE00003F59872B4EE047ACC780B7903EB042386
:108BF00007EE903AF8EEE77AB0EE666AA7EE876A7B
:108C000002318A42FCEEC67A17EE903A40F8043FF1
:108C1000EAD101205DF8044B704700BF082800200E
:108C20000080BBC310B504460AF0FAFD0F4BD3F821
:108C30003821C3F83801801A41F288329042E4B2F8
:108C400005D983F82041012283F83C2110BD93F817
:108C50003C219918142A81F8204103D1012283F87C
:108C60001C2110BD0132D2B2EEE700BF082800205F
:108C7000034B03EB4101B1F84001C008704700BF4E
:108C800008280020724B93F86021002A00F0C2806F
:108C900070B493F86141B3F8625103EB44010020D2
:108CA00091F8676191F8682183F8600142EA062231
:108CB000954202D0002070BC704793F86521012ACC
:108CC00000F0AA80812AF6D10320102C40F2A68061
:108CD00093F8694193F8675193F8681193F86A2102
:108CE00041EA052142EA04221024A3F84011A3F826
:108CF000422183F8614193F86B1193F86C21032CA6
:108D000042EA0122A3F84421D5D093F86D1193F8DB
:108D10006E21042C42EA0122A3F84621CBD093F81D
:108D20006F1193F87021052C42EA0122A3F8482123
:108D3000C1D093F8711193F87221062C42EA0122F6
:108D4000A3F84A21B7D093F8731193F87421072C34
:108D500042EA0122A3F84C21ADD093F8751193F8A3
:108D60007621082C42EA0122A3F84E21A3D093F8E1
:108D7000771193F87821092C42EA0122A3F85021B7
:108D800099D093F8791193F87A210A2C42EA0122BA
:108D9000A3F852218FD093F87B1193F87C210B2CF0
:108DA00042EA0122A3F8542185D093F87D1193F86B
:108DB0007E210C2C42EA0122A3F856213FF47BAF1E
:108DC00093F87F1193F880210D2C42EA0122A3F839
:108DD00058213FF470AF93F8811193F882210E2C43
:108DE00042EA0122A3F85A213FF465AF93F88311B8
:108DF00093F88421102C42EA0122A3F85C217FF42D
:108E00005AAF93F8851193F8862142EA0122A3F81C
:108E10005E2150E700207047104656E7002C3FF4D3
:108E20004AAF93F8671193F86821012C42EA0122B6
:108E3000A3F840213FF43FAF93F8691193F86A21FA
:108E4000022C42EA0122A3F842217FF454AF32E718
:108E500008280020654B5B68C3F3080370B4B3B9FE
:108E6000EFF311839BB9624A624D1368AC6800BF8F
:108E700011688B42F9D1604A15684FF47A7101FB91
:108E800005F2141BB4FBF5F401FB034320E0EFF300
:108E90001181102383F31288564C584AA568236821
:108EA000DE0344BF01231360514B48BFA5681E6811
:108EB0001368C9B281F311884F4A14684FF47A716C
:108EC000334401FB04F2521BB2FBF4F201FB032317
:108ED0004B49D1F88C219A1AB2F57A6F17D891F8CC
:108EE0009021C1F88C31BAB1022A20D0242A91F8FD
:108EF000613178D901320233D2B25B009A4281F8F3
:108F000090211CDB01339A4265D070BC704700226F
:108F1000C1F88C3181F89021A828F6D1002281F87F
:108F20006021A1F8622191F86131044603E0C4B2E6
:108F300081F8614123468D1885F86441DAE7B1F87C
:108F40006231C0B283EA002000B20028B8BF41F20B
:108F5000210283B2B4BF82EA43035B009BB21804D0
:108F600046BF41F2210282EA43035B009BB21A042E
:108F700046BF41F2210282EA43035B009BB21E041A
:108F800046BF41F2210282EA43035B009BB21D040B
:108F900046BF41F2210282EA43035B009BB21C04FC
:108FA00046BF41F2210282EA43035B009BB21804F0
:108FB00046BF41F2210282EA43035B009BB21A04DE
:108FC00046BF41F2210282EA43035B009BB2A1F853
:108FD000623170BC70470022012381F8902181F832
:108FE000603170BC7047C4B2A5E700BF00ED00E07F
:108FF0001CB1002010E000E024BB002020BB0020BA
:1090000008280020F8B5124D95F8A92102B9F8BD3D
:10901000104B1C6823685E6A3EB1204605F5CA7194
:10902000B047002385F8A931F8BD05F5CA77BE1809
:1090300000E023689B68204698470028F9D0236801
:1090400017F8011B1B6820469847B742F1D1E8E7A3
:10905000082800202475002003788B4210D9094B82
:1090600003EB810193F8DC31D1F8AC011BB900F5B9
:10907000777080B27047400800F5777080B2704713
:1090800000207047082800202DE9F041CD4C94F8CD
:10909000E40108B9BDE8F08194F8E511002384F8F3
:1090A000E431002900F0368194F8E831C64D94F897
:1090B000F8215BB213F1630FB8BF95F90030002AB5
:1090C00040D013F1310F80F2B48113F1380F80F2E8
:1090D000D38113F13D0F80F2D38113F1420F80F25F
:1090E000D38113F1450F80F2D38113F1470F80F242
:1090F000D38113F1490F80F2D38113F14A0F00F0AD
:10910000D38113F14B0F00F0D28113F14C0F00F01B
:10911000D28113F14D0F00F0D18113F15C0FB8BF74
:10912000642680F2CE81D4F8FC01A84F00FB06F043
:1091300087FB0076C017C0EB661004EB820680B296
:10914000C6F8AC012B7094F8F47194F8F53194F8EA
:10915000F60194F8F7611B0443EA0763334343EADB
:10916000002303F0F020B0F1E02F00F0CA801027B8
:1091700094F8070294F8EA31D4F8086294F80CC223
:109180003678034103F00F039E4210D90B2B0ED803
:10919000002A40F0258194F8EA8194F8EBE104EB91
:1091A00083030CEA08080EEB082EC3F8ACE194F830
:1091B000EC31034103F00F039E4210D90B2B0ED864
:1091C000002A40F0118194F8EC8194F8EDE104EB71
:1091D00083030CEA08080EEB082EC3F8ACE194F800
:1091E000EE31034103F00F039E4210D90B2B0ED832
:1091F000002A40F0FD8094F8EE8194F8EFE104EB52
:1092000083030CEA08080EEB082EC3F8ACE194F8CF
:10921000F031034103F00F039E4210D90B2B0ED8FF
:10922000002A40F0E98094F8F08194F8F1E104EB31
:1092300083030CEA08080EEB082EC3F8ACE194F89F
:10924000F231034103F00F039E423DD80D2F32DD72
:1092500094F8F431034103F00F039E4210D90B2B15
:109260000ED80AB19A420BD094F8F48194F8F5E143
:1092700004EB83030CEA08080EEB082EC3F8ACE1FC
:10928000102F18D194F8F63143FA00F000F00F00D7
:10929000B04210D20B280ED80AB190420BD094F8ED
:1092A000F62194F8F73104EB800002EA0C0C03EB92
:1092B0000C23C0F8AC3109B394F8A931002B56D176
:1092C000012084F80602E5E60B2BBFD80AB19A42CA
:1092D000BCD094F8F28194F8F3E104EB83030CEA38
:1092E00008080EEB082EC3F8ACE1AFE73849394A5D
:1092F000EB600A6094F8A931002BE1D00120BDE8B1
:10930000F08194F8EA0100063FF531AF32480C27AE
:1093100003602DE70AF084FA2B4D304B6A78A3FBEB
:1093200000135B0C002A3ED094F8E80194F8E92180
:10933000D2B2122A18BF012A08D002F0EF02A2F11D
:10934000A202B2FA82F2520902B96A70D4F800128B
:1093500094F8F82179B38B4252D0591A012952D08E
:1093600094F8E511A4F80402C4F80032EBE694F88E
:10937000EA311B06C2D40AF053FAD4F8E03100F502
:109380007A70A860002BB1D05A68121A002A04DB48
:10939000ACE75A68121A002AA9DA03F108019B689F
:1093A000002BF6D1A3E794F8E82194F8E90100EB4B
:1093B000022080B2CAE7A4F80402C4F8003294F88C
:1093C000E511C0E608280020000000201F85EB51B1
:1093D000E829002004000020941E002083DE1B43A7
:1093E00093427FF4D8AEE2E693427FF4ECAEF6E629
:1093F00093427FF400AF0AE79A427FF414AF1EE76E
:1094000094F8E5119FE6002AAAD0B4F80462D4F8D3
:10941000FC112E4F861B143E01FB06F187FB0176E3
:10942000C917A1EBE60104EB820689B2C6F8AC11BC
:1094300096E76FF0300C0126254806F1FF3800EB67
:10944000480E00EB46069EF801E0777810F91860A8
:10945000A7EB0E07981B00FB07F0ACEB060690FB92
:10946000F6F0704440B2002801DA00265BE664287A
:10947000A8BF6420064656E66FF0370C0226DBE7ED
:109480006FF03C0C0326D7E76FF0410C0426D3E7BE
:109490006FF0440C0526CFE76FF0460C0626CBE7AD
:1094A0006FF0480C0726C7E79C460826C4E76FF014
:1094B0004A0C0926C0E79C460A26BDE79C460B26B7
:1094C000BAE76FF05B0C0C26B6E700BF676666660E
:1094D000608C0408324B5B68C3F3080370B4B3B903
:1094E000EFF311839BB92F4A2F4D1368AC6800BF6F
:1094F00011688B42F9D12D4A15684FF47A7101FB3E
:1095000005F2141BB4FBF5F401FB034320E0EFF379
:109510001181102383F31288234C254AA568236800
:10952000DB0344BF012313601E4B48BFA5681E68C0
:109530001368C9B281F311881C4A14684FF47A7118
:10954000334401FB04F2521BB2FBF4F201FB032390
:10955000184AD2F81012C2F810325B1A41F2883160
:109560008B420AD9C0B2012382F8E80182F8143292
:10957000002382F8E43170BC704792F814320F2B4C
:10958000F9D8D1180133DBB2C0B2102B81F8E80151
:1095900082F81432ECD1012382F8E43170BC7047B8
:1095A00000ED00E01CB1002010E000E024BB002032
:1095B00020BB002008280020036933F8110000EBCD
:1095C0008000C01000F55C7080B27047436993F86A
:1095D0002320002A00F0CF802DE9F0477B4ADE7D72
:1095E000127800211A2A06F0040506F0080483F810
:1095F000231000F0C280002D40F0CC80002C40F001
:10960000D980254693F802A093F8068093F801E0EC
:109610000269DF7893F8049093F807C00AF0070016
:1096200008F00F014FEAC1184EEA002107F03F078A
:10963000187A1180997893F805A093F80AE07F01D1
:1096400047EAD107D97857804FEA890949EA911941
:10965000997B0AF0010A01F03F014F0149EA8A2192
:109660009180597948EA5101D1800CF07F0C9979A9
:1096700093F807804FEA0C1C4CEA111C597AA2F8A7
:1096800008C0400040EAD81001F0030140EA412040
:1096900093F80DC0D97A50810EF01F0E587A4FEA18
:1096A0008E1E4EEA90009081187B93F80AE00CF031
:1096B000070C40EA0C20C90093F80DC0108241EA63
:1096C0005E11D18147EADC01518293F80FE093F8F3
:1096D0000E80597CDF7C93F812C0587D4FEA8E0EC5
:1096E0004EEA981E93F8108008F001084EEA882E82
:1096F00001F00F0193F81280A2F814E093F810E043
:109700007F00C90141EA5E0147EAD81793F814E0E7
:1097100093F81180D1820CF07F0C4FEA0C1C997DDC
:109720000EF0030E4CEA181C47EA4E2716F0010F04
:1097300093F814E0A2F818C000F01F0093F815C0C9
:10974000578340F2147314BF1F46AD278001C90030
:1097500016F0020F40EA9E0041EA5C1108BFAD23FB
:109760009083D183178453840CBB002D0CBF012040
:109770000920BDE8F0871046704715491F8C0E8000
:1097800075B147F002021A8412B274B147F00302B5
:109790001A8409E01A8C94B942F002021A8431E763
:1097A0008CB147F001021A8412B24A802AE70320E2
:1097B000BDE8F0871A8C42F001021A8422E742F0D9
:1097C00003021A841EE73AB22546EEE77DAF002079
:1097D00080AF0020394B5B68C3F30803F0B413BBC0
:1097E000EFF31183FBB9364A364E1368B56800BFF4
:1097F0001468A342F9D1344A16684FF47A7404FB12
:1098000006F2551BCA69B5FBF6F504FB03539A1A19
:1098100040F6AC54A2422DDC91F822406CB3182CD7
:1098200037D9F0BC7047EFF31184102383F312880B
:10983000244D264AAE682B68DB0344BF0123136026
:109840001F4B48BFAE681F681368E4B284F31188E9
:109850001D4A15684FF47A7404FB05F23B44921BD1
:10986000B2FBF5F204FB0323CA6940F6AC549A1A22
:10987000A242D1DD002281F822200F28D1D101227D
:10988000CB61087081F82220002381F82330F0BCDE
:109890007047631CDBB2192B81F822300855F3D1D5
:1098A0000B4B1B781A2B08BF0A4B4FF0010081F8B5
:1098B000230008BF9A80F0BC704700BF00ED00E0B5
:1098C0001CB1002010E000E024BB002020BB0020E1
:1098D0007DAF002080AF0020094BDFED0A6ADFED8D
:1098E0000A7A03EB810191ED867AB8EE477AE7EECA
:1098F000267AFCEEE77A17EE903A98B2704700BFEE
:109900000828002001F11F3F00405C44714A92F892
:10991000583233B192F85E320021162B82F8581279
:1099200001D00020704792F85D32022BF0B440F273
:10993000CE8002F51770184402F25E21D32311F88D
:10994000014F634013F0800F4FEA430318BF83F0C9
:10995000D503DBB213F0800F4FEA430318BF83F047
:10996000D503DBB213F0800F4FEA430318BF83F037
:10997000D503DBB213F0800F4FEA430318BF83F027
:10998000D503DBB213F0800F4FEA430318BF83F017
:10999000D503DBB213F0800F4FEA430318BF83F007
:1099A000D503DBB213F0800F4FEA430318BF83F0F7
:1099B000D503DBB213F0800F4FEA430318BF83F0E7
:1099C000D5038842DBB2BAD192F87512994202D01F
:1099D0000020F0BC704792F8640292F8636292F83B
:1099E000681292F86C3292F8704292F86052B2F8B3
:1099F00060C2D2F8607200F00F00C00140EA560069
:109A000001F01F0192F86762C2F82402890141EA5D
:109A1000960103F03F0392F86B6292F86F02C2F86E
:109A200030125B0143EAD60392F85F12C2F83C326F
:109A300004F07F04B2F86432D2F86462240105F0C5
:109A4000070544EA101041EA0521C3F30A13C2F8DE
:109A50004802B2F86852C2F81812B2F86A42D2F854
:109A60006C02B2F86E12C2F82832D2F87032C0F32B
:109A70008A10C1F34A01C3F3CA13CCF3CA0CC7F36B
:109A80008A37C6F3CA366D09C4F30A04C2F8400225
:109A9000C2F84412C2F81CC2C2F82072C2F82C628A
:109AA000C2F83452C2F83842C2F84C3292F87432DA
:109AB00092F87302B2F87212DB0043EA5013C1F35A
:109AC0008A01C2F85432C2F85012012081E7D32330
:109AD0007AE700BF08280020F8B5674B1C68E70745
:109AE000054616D5654B93F89C2293F89D1291423A
:109AF0003BD1D3F8A022AA4202D8614A00211170BA
:109B0000D3F8C002281A002821DD012083F8C402FE
:109B1000F8BD14F4005449D15A4883689847C607E1
:109B20001CD5594A554BC0F3400110F00A0F11746F
:109B300093F866202AD0052A6BD04207D9D5012296
:109B400083F8C522D3F8A022AA42D9D8D5E793F842
:109B5000C4020028DCD193F8C502F8BD4107474B89
:109B6000C7D5012283F8C522ECE7D3F8A402464CFE
:109B7000434983F89D22284401220025C3F8A0020E
:109B8000012025740A7083F8C402C1E7D3F8A41237
:109B9000052A0D44C3F8A05251D0400767D4384A73
:109BA00001210120117083F8C402B1E7334BB3F8EF
:109BB000A82212BBB3F8AA22FAB9B3F8AC22E2B9D0
:109BC000B3F8AE22CAB9B3F8B022B2B9B3F8B22230
:109BD0009AB9B3F8B42282B9B3F8B6226AB9B3F825
:109BE000B82252B9B3F8BA223AB9B3F8BC2222B9B2
:109BF000B3F8BE22002A3FF47CAFD3F8A422224857
:109C00001F492A440024C3F8A022012204740A70C8
:109C100076E793F86720996E03EB42060132B6F8B7
:109C20006C70A6F86C40C91B0C0902F00F02A3F877
:109C30008C40440783F86720996680D459E793F8ED
:109C400067109A6E03EB410402F2FF32B4F86C50D5
:109C50000131521B01F00F0140F2FF3583F867100C
:109C60001109A4F86C509A66A3F88C1095E70122AC
:109C700083F8C52293E700BF10CD002008280020FC
:109C800025400020B456002000000020002070472E
:109C90000020704701207047024B03EB4101B1F8EF
:109CA000C802704708280020044B93F8EC0218B152
:109CB000002283F8EC220120704700BF0828002012
:109CC000024B03EB8101B1F8F00270470828002035
:109CD00003788B4283BF034B03EB4101B1F82803A8
:109CE000002070470828002038B5394C054609F097
:109CF00097FDD4F87C33C4F87C03C01AB0F57A7FA2
:109D00001CDD0023282284F8803384F8823384F811
:109D1000833384F881233D2D42D03E2D0DD12D4A31
:109D2000C4F88423012384F882330123157084F856
:109D3000803394F881239A4220D038BD94F8802350
:109D4000002AE8D0531CDBB2D4F8841384F88033A3
:109D5000062B8D54EDD194F88233012B27D094F843
:109D60008333012B27D00023282284F8803384F802
:109D7000823384F8833384F8812338BD94F88233A6
:109D8000012B04BF022384F8823394F88333012B20
:109D900015D00022282384F8802384F8813338BD2D
:109DA0000D4AC4F88423012384F88333BDE78B78FC
:109DB000282BD4D8F1E78B78092BD4D8EDE70223F0
:109DC00084F8833309F02CFDC4F88803E1E700BF71
:109DD000082800205C2B0020502B002030B40246C5
:109DE000002305251E2400E00232032BD4BF0021EE
:109DF000012100F813100133042B04D0122B5470EE
:109E0000F2D130BC70475570EEE700BF024B0360E3
:109E100043608360C3607047E803D007024B03EBE5
:109E20004101B1F8A802704708280020024B03EB5B
:109E30004101B1F8A80270470828002030B4264C30
:109E400094F88233022B02D0002030BC704794F883
:109E50005653EDB1013D04F2553353FA85F504F53F
:109E60005570002210F8013B534083EA0313DBB224
:109E7000120AD90042EA0322854281EA131382EAD8
:109E80000302EFD122B1002084F8820330BC704776
:109E9000B4F854335BBA9BB243F60162934209D0E3
:109EA00043F60362934205D0002384F882330120F5
:109EB00030BC7047094AA2F12E0102F12005D07989
:109EC0009379023203EB0023C3F3CC03AA4221F8B7
:109ED000023FF4D1E8E700BF082800205C2B0020F7
:109EE0004E4B5B68C3F3080370B4B3B9EFF311834F
:109EF0009BB94B4A4B4D1368AC6800BF11688B424D
:109F0000F9D1494A15684FF47A7101FB05F2141B27
:109F1000B4FBF5F401FB034320E0EFF311811023C0
:109F200083F312883F4C414AA5682368DB0344BF92
:109F3000012313603A4B48BFA5681E681368C9B275
:109F400081F31188384A14684FF47A71334401FB65
:109F500004F2521BB2FBF4F201FB0323344AD2F8A1
:109F60008C13591AB1F5FA7F14D90021C2F88C3339
:109F700082F8901382F89113C3B2042B26D0202BC1
:109F800024D092F8941309B9552838D0814216D1BB
:109F9000002109E092F8911399B992F89013C2F850
:109FA0008C33C3B20029E8D092F8920354180138D8
:109FB000814284F89C331DD0013182F8901370BC2B
:109FC0007047013982F8911370BC70470021022458
:109FD0004FF6FF7082F89843A2F896035418581E63
:109FE000814282F8943382F8923382F8931384F892
:109FF0009C33E1D1012382F8BC3370BC704701244B
:10A000001F2582F89403A2F8961382F89C3382F8F5
:10A01000934382F8984382F89253CDE700ED00E035
:10A020001CB1002010E000E024BB002020BB002079
:10A03000082800200D49B1F8BD3330B508224AF296
:10A04000010580EA030414F0010F4FEA530318BF1F
:10A050006B4002F1FF3218BF9BB212F0FF024FEAD1
:10A060005000EED1A1F8BD3330BD00BF082800205C
:10A0700008461EF047BE00BF0FB400B583B004AB66
:10A08000054953F8042B0193002028F077F903B019
:10A090005DF804EB04B0704771A000080EB470B511
:10A0A00083B007AC0646482054F8045B1EF02AFE35
:10A0B00020201EF027FE30461EF096FD3A201EF0AE
:10A0C00021FE2A46234609490194002028F056F92A
:10A0D00004460A201EF016FE054A136803341B1BB3
:10A0E000136003B0BDE8704003B0704771A0000872
:10A0F000F8560020F8B50F4BD3F8C053D3F8C4433B
:10A10000D3F8C863A9B1831E00EB410727441E445E
:10A1100004441D4434F9022B36F9023F35F9020F8D
:10A12000134403EBD373A0EB63001EF0D2FEA742EF
:10A13000F0D1F8BD08280020F8B5264C264E3C2268
:10A14000002120463DF090F9244B96F8CF73B3F8E8
:10A150006020228410330FCB96F8D05384F824501B
:10A16000102F04F1080585E80F0009D801231C48C9
:10A17000BB40184020B90FB93846F8BD012FFCD0BC
:10A18000184A194913681948206043F00203136004
:10A190001025174A0F4862604FF4807323834D7572
:10A1A00026F032FCB6F8DC334FF47A72A2627BB14F
:10A1B000104D05F16C07B6F8DC33A16A00EE103AD9
:10A1C0002846B8EE400A243528F0A6FBAF42F2D16B
:10A1D0000120F8BDB80B001008280020F40B001077
:10A1E000011D01003C6D002000000020090A030849
:10A1F000D9090308E82B00202DE9F04F2DED028B43
:10A20000C54DC64FAB7D012B91B000F0C882022B2B
:10A210000CBF072300233B70C14B1B78132B00F2AC
:10A2200063820122BF499A400A4208BF00236A792B
:10A23000BD4C3B71131C18BF0123BC4E84F8653024
:10A24000DFF8609300232022C6E90033C6E9023319
:10A25000232084F8692084F8623089F84C3409F0AE
:10A2600095FBB34AA369626102222274002B00F0BD
:10A2700037831420A36108F031FE99F84D84E06122
:10A28000B8F1000F00F03282DFF81C8394F86030E0
:10A29000E26DC9F850240D2B40F01482A549EA78EC
:10A2A0000B68A548206043F001030B604FF07E531C
:10A2B000A2492362012A4FF00F03E16588F81430A8
:10A2C00084F86B3040F2118300239FED9D7A84F86F
:10A2D0006330012307EE903AF8EEE77A013B67EE30
:10A2E000877A2979904884F86620FCEEE77A84F82A
:10A2F0006830C6ED007A84F867102AF01DFB002351
:10A3000018462A89E97D84F86A3031F079FF6A8934
:10A31000297EDFF89892012031F072FFAA89316816
:10A32000884BB3FBF1F39342C4F89891E889C0F0ED
:10A330003982002A40F03A822A8A3168814BB3FB85
:10A34000F1F39342C4F80892688A80F0C582834290
:10A350002BD99AB248B307EE900A07EE102AF8EE0E
:10A36000677AB8EE478A27EEE77A68EE277AA8EE92
:10A37000087A754B7548C4F80832C7EE878AB0EE84
:10A38000480AF0EE680A30F067FFF0EE680AB0EEB7
:10A39000480A31686E4830F05FFFF0EE680AB0EEB0
:10A3A000480A31686B4830F057FF6B4BC4F878921D
:10A3B0001B689B001AD5694BDFED690A31689FED78
:10A3C000690A6948C4F8783230F046FFDFED640A64
:10A3D00031689FED640A654830F03EFFDFED600AAA
:10A3E00031689FED600A624830F036FF614B3B6197
:10A3F00003F12802A8331020FA60FB612022142305
:10A40000BB823168DFED5C4A9FED5C5A9FED5C4A90
:10A41000DFED696ADFED695A9FED5A6A38813A8348
:10A42000002302E00133202B2FD007EE903AF8EE04
:10A43000E77A67EEA47A37EE857AFDEEC73A13EE37
:10A44000902A2032402AEDD8F4EEC57AF1EE10FAC7
:10A4500002DCD9E1B0EE677AB4EEC67AF1EE10FA1A
:10A4600077EE667AF6DCF4EEC47AF1EE10FA02D4F6
:10A47000D8E7F0EE477AF4EEE57AF1EE10FA37EE2F
:10A48000A67AF6D40133202BCFD10C2303FB01F3A2
:10A49000B3F57A7F38BF4FF47A7307EE903AB8EE8F
:10A4A000675ADFED397A9FED351A384B9FED386AE0
:10A4B0009FED382ADFED322A9FED373ADFF8F0E0E2
:10A4C000DFF8F0C0354F364EBCEEC55AF0EE411AFB
:10A4D000B8EE455A03F16C0225EE275A1546FDEEFB
:10A4E000C57A35EE011A17EE900AFDEEC17A2030DA
:10A4F00017EE901A2031402800F28981B4EEC25A3A
:10A50000F1EE10FA40F3FA81B0EE457ADFED2A5A07
:10A51000DFED1C6A5CE000BFCCB10020040000103D
:10A520007DAF002048800800F40B0010EC0E0010F6
:10A53000003001403C6D002039490308C917030869
:10A5400000007A4420A1070085070308000E0010D0
:10A55000240E0010480E001010CD0020CD07030877
:10A5600085F99D410000C843700E0010940E001044
:10A57000B80E00107C8C04083C8C4F3EDB0FC93FAA
:10A58000DB0F49C0E4CB1641E5A6C5392400001015
:10A5900000000000DB0F4940F304353FBA32BDBE76
:10A5A0000184483E082800200000002039080308E4
:10A5B00000DFCD3E00DFCDBEDB0FC940E4CB16C1CE
:10A5C00092E741B99730083C15A82ABEB0EE677AE9
:10A5D000B4EEE67AF1EE10FA77EE657AF6DCF4EE98
:10A5E000E27AF1EE10FA0FD5B0EE677A5FED0E5A0F
:10A5F0005FED0E6A01E0B0EE677AB4EEE67AF1EE56
:10A6000010FA77EEA57AF6D4F4EEE17AF1EE10FACC
:10A6100040F34E8172EE677A67EEA75A5FED184AF3
:10A620005FED186A1FED187AE5EEA46A67EEA54A99
:10A63000A5EEA67AE4EE877A402940F2EB80B0EEF0
:10A64000467AF6EE004AB7EE004AF7EE003AF0EE30
:10A65000630AE7EE830A2433C2F800E0F0EE635A9F
:10A66000C3EEA06AC2F808C0D76016612432E7EED4
:10A67000C35A64EEA64A24EE264A67EE267A65EEB1
:10A68000A66A03ED036A03ED046A03ED016A03EDB4
:10A69000026A43ED094A43ED074A03ED084A43EDD8
:10A6A000067A43ED056AAB4202ED086A02ED036AE1
:10A6B00002ED046A02ED016A02ED026A7FF41BAF4B
:10A6C000012002E0002084F86B0098F81C3023B1D0
:10A6D00094F86A30003318BF012388F81C3011B099
:10A6E000BDEC028BBDE8F08F0023A0E52FF0E0FC6D
:10A6F00018B1202380F80780837140210CF064F9A1
:10A70000642009F0D9F8A06918B11C2200238271D5
:10A71000C37109210CF058F9A069DFF83C82DFF819
:10A720003CB20CF0F3F9012389F84D340023019772
:10A730001F464FF00A0A002303AA792158462AF03F
:10A740004BF898B1BDF81430A8F81A30B8F81A30A0
:10A75000692B1FD8704B1B68013307D06F4B704AB1
:10A760001A600A2009F012F92AF0EEFCBAF1010A87
:10A77000E1D1013742F20F730A2FA8F81A3000F026
:10A78000C98027F021F84FF4967000FB07F009F01C
:10A79000FDF8CEE70D23019F84F8603076E50423B1
:10A7A0003B7039E583427FF6C7AD9AB200283FF48B
:10A7B000C3AD07EE900A07EE102AF8EE677AB8EEFE
:10A7C000478A27EEE77A68EE277AA8EE087A554B93
:10A7D0005548C4F89831C7EE878AB0EE480AF0EEC3
:10A7E000680A30F039FDF0EE680AB0EE480A3168C8
:10A7F0004E4830F031FDF0EE680AB0EE480A31689C
:10A800004B4830F029FD97E5F0EE477A2BE6F0EE65
:10A81000467A11E7B4EEE15AF1EE10FA71DDF0EE8E
:10A82000416ADFED444ADFED445A01E0F0EE476A49
:10A83000F4EEE56AF1EE10FA36EEE47AF6DCB4EE08
:10A84000E27AF1EE10FA0FD5F0EE476ADFED394A01
:10A85000DFED3A5A01E0F0EE476AF4EEE56AF1EE18
:10A8600010FA37EE247AF6D4B4EEE17AF1EE10FA6B
:10A8700028DD32EE477A67EE074A9FED314ADFED79
:10A88000315ADFED316AE4EE845A67EE243AE4EEA1
:10A89000A56AB7EE004AA3EEA67AF6EE004A34EEB9
:10A8A000474AF8EE006A27EE267A64EE244ACCE6A0
:10A8B0009FED267AF4EEC77AF1EE10FA48BF72EEF9
:10A8C000E77AA9E6DFED216AB4EEE67AF1EE10FA56
:10A8D00048BF32EEC77ACEE7002A3FF466AD39E5CD
:10A8E000212008F0FBFA0346C3E4A979AB7859B9F3
:10A8F000032184F863109FED167AEBE4F0EE457ABD
:10A900006DE6B0EE417A9AE7052184F863109FED79
:10A91000117ADFE4019FB9E400000F08ECFF012089
:10A9200077FA31F485070308900D0010B40D00107C
:10A93000D80D0010DB0FC940E4CB1641E4CB16C1A3
:10A9400092E741B99730083C15A82ABEDB0FC9BF72
:10A950000000FA420000FC4100000020F40B00104F
:10A960002DE9F8439F4C0546D4F8603404F2544175
:10A9700004F25C409847B4F9543494F8782407EE14
:10A98000903AB4F9563407EE103AB4F9583406EE5A
:10A99000903AF8EEE77A944BB8EEC77AF8EEE66AAA
:10A9A000023AC3ED007A83ED017AC3ED026A062A0A
:10A9B00014D8DFE812F0E400EB00F400FB0004011F
:10A9C0000D010700B1EE477AF1EE677AF1EE666AA3
:10A9D00083ED007AC3ED017AC3ED026A834A527FA8
:10A9E00082BB834AD3ED017AD2ED036A92ED047AF9
:10A9F00092ED052AD3ED005AD2ED002A92ED013AEC
:10AA0000D2ED023A93ED026A92ED064AD2ED074A80
:10AA100092ED085A67EEA66A27EE877A67EE827A89
:10AA2000E5EEA26AA5EE837AE5EEA37AE6EE046A85
:10AA3000A6EE247AE6EE057AC3ED006A83ED017A8C
