:020000040800F2
:10000000F0FF0010C56C0408B1C8020865200208A2
:100010008D6D04088D6D04088D6D040800000000CE
:10002000000000000000000000000000BDC8020841
:10003000B9C8020800000000B5C80208FDEE0108BA
:100040008D6D04088D6D04088D6D04088D6D040898
:100050008D6D04088D6D040879260208B927020801
:100060007927020839270208F9260208896C030853
:10007000796C0308696C0308596C0308456C030824
:10008000316C03081D6C03088D6D04088D6D040828
:100090008D6D04088D6D04088D6D0408B926020865
:1000A0008D6D040849DB01088D6D040809DC010829
:1000B0008D6D04088D6D040889DA01083572030816
:1000C0003D72030829720308317203088D6D04081C
:1000D0008D6D0408A1F1010805F1010869F001081E
:1000E000392602088D6D0408111703083DD8010850
:1000F00009D901088D6D0408C9D90108096C0308E4
:100100008D6D04088D6D04088D6D04088D6D0408D7
:10011000CDEF010831EF010851EF00083DEF000875
:10012000F56B0308E16B03087D630308CD6B0308DF
:10013000B96B03088D6D04088D6D04088D6D04087E
:100140008D6D04088D6D04088D6D0408F9E00208BA
:10015000A56B0308916B03087D6B03088D6D040884
:100160001D720308257203088D6D04088D6D040847
:100170008D6D04088D6D04088D6D04088D6D040867
:100180008D6D04088D6D04086C680400010000008A
:1001900007020200482B00208C2B002000000000EA
:1001A000F406000802000C001C2B0020902B0020FD
:1001B000000000000000000006020C00102B0020D0
:1001C0009C2B00200000000069230308081209008E
:1001D000942A0020A82B002000000000D51B030853
:1001E000F70106008E2A0020B42B0020000000003A
:1001F000F60600080A020A00082A0020BC2B00208C
:1002000000000000FC06000803000100E4290020B3
:10021000C82B002000000000000000000312330083
:1002200013390020E0380020000000000807000813
:1002300025009600943700202A3800200000000096
:1002400000000000F6210C00743500202437002047
:10025000000000003C070008150070004436002034
:10026000B436002000000000000000002A006000FA
:1002700084350020E43500200000000071FE0308F2
:100280002C001000C0380020D038002000000000F2
:10029000FD4401082B0024006A3900204639002063
:1002A00000000000CD4401082910640094340020AF
:1002B00030370020000000000000000014000300A0
:1002C000203400208035002000000000480700088E
:1002D00010100200BC320020D439002000000000C1
:1002E0004C0700082810100074300020D839002076
:1002F00000000000F126010823001000982F0020C4
:10030000E83900200000000009270108F821060054
:10031000EE300020F8390020000000004E070008F1
:100320001A023C00AC3A0020683E002000000000A9
:100330003D22030827000400A83A0020A43E002024
:1003400000000000540700080E4020019E4F0020CE
:10035000AC5700200000000099FE030813000400C1
:100360009C540020CC5800200000000058070008D2
:10037000010104001E4F0020D058002000000000A2
:100380000000000000010400164F0020D458002097
:10039000000000005C07000802010300114F00206C
:1003A000D8580020000000009987000809020100C9
:1003B000E0560020DC580020000000006007000824
:1003C0000C106C00F8500020E058002000000000E5
:1003D0007187000801020500264F00204C590020BB
:1003E00000000000AD370208000205002054002084
:1003F0005459002000000000000000001B0208000B
:10040000B45600205C59002000000000751B030852
:1004100001200800985500206459002000000000C9
:100420006207000819000500485600206C5900209A
:10043000000000006A07000837001E002056002058
:100440007459002000000000700700081E0005001D
:10045000E051002094590020000000008E070008A1
:100460001B00F400B03E00209C590020000000005A
:10047000714802080E02020030550020905A0020F8
:1004800000000000940700082F0011008D57002085
:10049000945A00200000000096070008051006008E
:1004A000AC7000209475002000000000A807000830
:1004B000F53170000C7000209C75002000000000D9
:1004C0004542020826000E001C7600200C76002013
:1004D0000000000005BC02080B2010001C6D00206D
:1004E0005076002000000000AE0700081F201C000E
:1004F0006C6400206076002000000000BE07000849
:1005000005020400D46F00207C760020000000006B
:10051000DA07000803010A00D46C0020807600206E
:1005200000000000DE07000813020300D462002070
:100530008C76002000000000E8070008100201008F
:10054000309000202C90002000000000EC070008F4
:100550001600080028AF002030AF00200000000087
:10056000EE0700080400800020D60020D8D6002026
:1005700000000000000000000D003400BCD5002089
:1005800058D70020000000006D730308FD011E0015
:10059000F8CC00208CD70020000000007DBA0108B4
:1005A00018202C00C8CC0020ACD700200000000090
:1005B000052303080610180024C00020D8D7002007
:1005C00000000000F5FE0308FB01010020C0002030
:1005D000F0D7002000000000D9220308FC01090028
:1005E000ECBE0020F4D7002000000000E922030840
:1005F0003400100014BE002000D8002000000000CD
:10060000C9FE030811020800ECBD002010D800202C
:1006100000000000F607000812120400E4BD0020EC
:1006200018D8002000000000FE07000812200D006E
:10063000D4BD00201CD800200000000002080008E3
:10064000F901040080B800202CD800200000000030
:10065000F5BA01081802020084B2002030D8002048
:10066000000000000000000017020B0078B200201C
:1006700034D8002000000000911B0308FA0102009A
:1006800054B2002040D8002000000000F91C0308EC
:100690000202030094AF002044D8002000000000B4
:1006A000000000000C02030050AF002048D80020DA
:1006B00000000000811B0308FE01090028B2002091
:1006C0004CD80020000000000D1C03080A40300038
:1006D000D4B1002058D80020000000001008000805
:1006E0001A000E00FCDA0020B0DB00200000000041
:1006F00040080008023C3F010000000000004A01E1
:10070000B400D60126000000000000000000000038
:1007100000000000000000000000000000000000D9
:1007200000000000000000000000000000000000C9
:1007300000000000000000000000010000000000B8
:100740000100000002020000030000000005020199
:10075000F40119002003000008044430FA000000EE
:100760000000E8036400040A000100002801000002
:1007700020003200C800D007960014003200280084
:10078000B00440060005500014000F0008000000EF
:100790000100000000000000000000000000000058
:1007A00000000000000000002000010100002B21DB
:1007B000231E64010100000001000A01290000005D
:1007C000000000010000000500000102030000001D
:1007D0000000000000000000000000000000040114
:1007E00001006C1600000000000000000000C409B9
:1007F0000000190128280000000001010101FFFF8D
:10080000FFFF0000000100000548455350000000B4
:1008100000300100000001000000000000000000A6
:10082000000000000000020000019E077D00200083
:100830000100B80BB80BB80B20005000500050005E
:100840007E05EA05B4053200E803D0070000010088
:10085000000001800008000000000000000000000F
:10086000803F000000000000000000000000FF00CA
:100870000000000000007C2B0020080000000000A9
:1008800000006C2B0020080000006C8C0408050898
:10089000040000000000ACB504088CB6040898B54C
:1008A00004080000000000000000988C04080508FF
:1008B0000A0000000000ACB504088CB604088CB433
:1008C00004080000000000000000D6010000F5361A
:1008D000010800000000000000000100000000010D
:1008E000010100006A000101FFFFFFFFFFFF01019E
:1008F00002FFFF00000000000100E0010101010013
:100900000000813B02080000000028020020C021F6
:1009100005080000000000000000000000000000CA
:100920000000401705080000000000000000BE02A3
:100930000020040000006C2105080D0000000D6679
:100940000208AC1C002000000000EC1A05080D0095
:10095000000035660208A01C0020000000004C1CAE
:1009600005080800000000000000941C002004009E
:100970000000581B05080D000000353C0208881CCB
:10098000002000000000001C05080300000025688E
:1009900002087C1C002000000000D0210508030094
:1009A000000025680208701C002000000000881765
:1009B0000508010000000000000000000000000029
:1009C0000000000000000E00000000000000000019
:1009D000000000000000C021050800000000000029
:1009E00000000000000000000000401705080000A3
:1009F000000000000000BE020020040000001821DA
:100A000005080300000055430208641C002008008C
:100A10000000581B05080D000000353C0208881C2A
:100A2000002000000000001C0508030000002568ED
:100A300002087C1C002000000000D02105080300F3
:100A4000000025680208701C0020000000008817C4
:100A50000508010000000000000000000000000088
:100A60000000000000000E00000000000000000078
:100A7000000000000000D821050800000000000070
:100A80000000000000000000000040170508000002
:100A9000000000000000BE02002004000000202131
:100AA00005080300000025680208B81C00200000AB
:100AB0000000881705080100000000000000000089
:100AC000000000000000000000000E000000000018
:100AD0000000000000000000000020700020702DC9
:100AE0007200FFFFFFFF010000000000803F0800D0
:100AF0000000000000000000000020180020FA00A4
:100B000000000100000001000000FFFF2D202D2D3E
:100B1000202D2D2D2D202D2D2D000000000000005A
:100B20000000000000000000000000000000FFFFC7
:100B3000FFFF5C170508641705088017050800000B
:100B400000000000000000000000000000005D1533
:100B5000050804000000D563020800000000000042
:100B600000008817050801000000000000000000D8
:100B7000000000000000000000000E000000000067
:100B800000000000000000000000C0D600200100AE
:100B9000C40900000000BED600200100C409000006
:100BA0000000BCD600200100C40900000000BAD635
:100BB00000200100C40900000000B6D6002001009A
:100BC000C40900000000B8D600200100C4090000DC
:100BD0000000B4D600200100C40900000000B2D615
:100BE00000200100C40900000000384F002001006F
:100BF000C80001000000364F00203200307532007E
:100C00000000344F0020055A0500314F002000FF3E
:100C10000100334F002001000000E40200202F4FAC
:100C2000002002000000B8B60408304F002000FF8A
:100C30000100324F002001000000E40200202E4F8E
:100C4000002002000000B8B60408244F002080C134
:100C5000803E05000000224F002080C1803E05003C
:100C600000001C4F002080C1803E050000001A4F8C
:100C7000002080C1803E05000000144F002000FFCE
:100C80000100104F00200A3201000F4F0020040025
:100C900000006CB404080E4F00200200000080B475
:100CA00004080000000000000000EC020020846F37
:100CB00000209CFF2C0100000000AE0000200A0074
:100CC00000008CB40408044F0020E0150C1700004D
:100CD0000000B0000020080000008CB60408AF003F
:100CE000002005000000ACB50408064F00200200FB
:100CF0000000A4B40408785100200100FF7F010027
:100D000000007751002002000000B0B40408CA506F
:100D100000200000C20101000000C65000200000B9
:100D2000C20101000000C85000200000C201010003
:100D30000000C25000200000803E32000000C05081
:100D400000200000803E32000000BE500020000065
:100D5000803E32000000C450002000002C01010041
:100D60000000D65000200000F40101000000D45023
:100D700000200000F40101000000D250002000001B
:100D8000F40101000000D05000200000F401010037
:100D90000000CE5000200000803E01000000CC503A
:100DA00000200000803E01000000F4500020E80315
:100DB000D0070A000000F2500020006401000A0081
:100DC0000000E750002000640100E65000200064AD
:100DD0000100EE500020006401000A000000ED5008
:100DE0000020006401000A000000EC5000200064B4
:100DF00001000A000000F1500020006401000A0018
:100E00000000F0500020006401000A000000EF50D4
:100E10000020006401000A000000EB50002000FFE9
:100E200001000A000000EA50002000FF01000A0053
:100E30000000E950002000FF01000A0000009A4F66
:100E400000200000F40101000000984F0020000085
:100E5000F40101000000964F00200000F4010100A1
:100E60000000944F00200000F40101000000E25057
:100E700000201400E80301000000E0500020E80317
:100E800030750A000000DF50002000C80100DE506D
:100E9000002000C80100DD50002000C80100DC5027
:100EA0000020006401000A000000DA500020000069
:100EB000D007010000006D51002000C801006C51F6
:100EC000002000C801006B51002000C801006A51D9
:100ED000002000C801006951002000C801006851CD
:100EE000002000C801006751002000C801006651C1
:100EF000002000C801006551002000C80100B017A3
:100F000005080000000000000000000000000000D4
:100F1000000088E9040809000000000000009003B8
:100F200000200400000090E904080900000000000F
:100F300000008403002004000000041F05080900CD
:100F400000000000000078030020040000003516B7
:100F5000050809000000000000006C0300200400E8
:100F60000000C01705080900000000000000600331
:100F7000002004000000C817050809000000000058
:100F800000005403002004000000D01705080900E9
:100F90000000000000004803002004000000D817F3
:100FA000050809000000000000003C0300200400C8
:100FB0000000881705080100000000000000000084
:100FC000000000000000000000000E000000000013
:100FD00000000000000000000000D8190508000013
:100FE00000000000000000000000000000004407B6
:100FF00005080700000000000000B4030020000006
:101000000000E81905080800000000000000A8031F
:10101000002000000000F41905080800000000008E
:1010200000009C0300200000000088170508010054
:1010300000000000000000000000000000000000B0
:1010400000000E0000000000000000000000000092
:101050000000FC190508000000000000000000006E
:101060000000000000000C1A05080D000000000040
:101070000000F003002000000000141A05080D0015
:10108000000000000000E4030020000000001C1A23
:1010900005080700000000000000DC03002000003D
:1010A0000000241A05080D00000000000000D00315
:1010B0000020000000002C1A05080D0000000000B0
:1010C0000000C403002000000000341A05080700D7
:1010D000000000000000BC03002000000000881792
:1010E00005080100000000000000000000000000F2
:1010F0000000000000000E000000000000000000E2
:101100000000000000003C1A05080000000000007C
:1011100000000000000000000000440705080C006B
:101120000000000000003A4F002000000000501AAC
:1011300005080C000000000000003C4F00200000EB
:101140000000601A05080C00000000000000724F4B
:10115000002000000000701A05080C0000000000CC
:101160000000664F002000000000841A05080C00F3
:101170000000000000003E4F002000000000901A18
:1011800005080C00000000000000404F0020000097
:101190000000981A05080C00000000000000424FF3
:1011A000002000000000AC1A05080C000000000040
:1011B0000000444F002000000000B41A05080C0095
:1011C000000000000000464F002000000000BC1A94
:1011D00005080C00000000000000844F0020000003
:1011E0000000D41A05080C00000000000000484F61
:1011F000002000000000E01A05080C0000000000BC
:1012000000004A4F00200000000098E904080C008C
:101210000000000000004C4F002000000000E81A11
:1012200005080C000000000000004E4F00200000E8
:101230000000F41A05080C00000000000000504FE8
:10124000002000000000001B05080C00000000004A
:101250000000524F0020000000000C1B05080C008D
:10126000000000000000544F002000000000181B88
:1012700005080C00000000000000564F0020000090
:101280000000241B05080C000000000000006A4F4D
:101290000020000000002C1B05080C0000000000CE
:1012A0000000684F002000000000341B05080C00FF
:1012B000000000000000764F002000000000401BEE
:1012C00005080C00000000000000784F002000001E
:1012D00000004C1B05080C000000000000007E4FC1
:1012E0000020000000007C1805080C000000000031
:1012F0000000584F002000000000581B05080C009B
:10130000000000000000604F002000000000601B93
:1013100005080C000000000000005A4F00200000EB
:1013200000006C1B05080C000000000000005C4F72
:10133000002000000000781B05080C0000000000E1
:1013400000005E4F002000000000801B05080C001C
:10135000000000000000624F002000000000640751
:1013600005080C000000000000006C4F0020000089
:1013700000008C1B05080C00000000000000644FFA
:10138000002000000000CB1605080C000000000043
:101390000000744F002000000000981B05080C009E
:1013A0000000000000006E4F002000000000A01BA5
:1013B00005080C00000000000000704F0020000035
:1013C0000000A81B05080C000000000000007A4F78
:1013D000002000000000B01B05080C000000000009
:1013E00000007C4F00200000000088170508010065
:1013F00000000000000000000000000000000000ED
:1014000000000E00000000000000000000000000CE
:101410000000B81B050800000000000000000000EC
:10142000000000000000C41B05080D0000000000C3
:1014300000004804002000000000CC1B05080D003F
:101440000000000000003C04002000000000D41B4D
:101450000508070000000000000034040020000020
:101460000000E01B050807000000000000002C043D
:10147000002000000000EC1B05080900000000002F
:1014800000002004002000000000F81B05080900EF
:101490000000000000001404002000000000041CF4
:1014A00005080900000000000000080400200000FA
:1014B0000000141C05080900000000000000FC03E7
:1014C000002000000000881705080100000000004F
:1014D00000000000000000000000000000000E00FE
:1014E0000000000000000000000000000000281CB8
:1014F00005080000000000000000000000000000DF
:101500000000381C05080500000000000000934F93
:1015100000200000000088170508010000000000FE
:1015200000000000000000000000000000000E00AD
:101530000000000000000000000000000000401C4F
:10154000050800000000000000000000000000008E
:101550000000401705080000000000000000541EB5
:10156000002004000000311605080D000000396459
:1015700002089C040020000000006C2105080D00FA
:101580000000393B02089004002000000000EC1A23
:1015900005080D0000001D3B020884040020000027
:1015A00000004C1C05080800000000000000780442
:1015B000002004000000581B05080D000000653ADB
:1015C00002086C04002000000000541C05080900FB
:1015D0000000000000006004002004000000001C67
:1015E00005080300000025680208540400200000DC
:1015F000000088170508010000000000000000003E
:10160000000000000000000000000E0000000000CC
:10161000000000000000000000005C1C0508000045
:1016200000000000000000000000000000006C1C32
:1016300005080D00000000000000B40400200000B8
:101640000000741C05080A00000000000000F854A7
:10165000002000000000801C05080A0000000000B7
:1016600000000055002000000000881C05080A004A
:101670000000000000000855002000000000901C41
:1016800005080800000000000000A8040020000079
:101690000000981C050804000000596902080000B9
:1016A000000000000000881705080100000000008D
:1016B00000000000000000000000000000000E001C
:1016C0000000000000000000000000000000A41C5A
:1016D00005080000000000000000000000000000FD
:1016E0000000B81C05080000000000000000000019
:1016F000000000000000D81C0508080000000000E1
:1017000000000805002000000000E01C050808009B
:10171000000000000000FC04002000000000E81CA5
:1017200005080800000000000000F0040020000090
:101730000000F01C05080800000000000000E404A0
:10174000002000000000F81C050808000000000050
:101750000000D804002000000000041D0508080057
:10176000000000000000CC04002000000000101D5C
:1017700005080800000000000000C0040020000070
:1017800000008817050801000000000000000000AC
:10179000000000000000181D050802000000AD69EF
:1017A00002080200000000000000000000000E001F
:1017B0000000000000000000000000000000241DE8
:1017C000050800000000000000000000000000000C
:1017D0000000381D0508080000000000000050054A
:1017E000002000000000441D050808000000000063
:1017F00000004405002000000000501D05080800FE
:1018000000000000000038050020000000005C1D02
:10181000050808000000000000002C050020000062
:101820000000681D050808000000000000002005F9
:10183000002000000000741D0508080000000000E2
:1018400000001405002000000000881705080100B2
:101850000000000000000000000000000000000088
:1018600000000E000000000000000000000000006A
:101870000000801D050800000000000000008F022D
:101880000020000000008C1D05080B000000000077
:101890000000E405002000000000981D05080B0072
:1018A000000000000000D805002000000000A41D7A
:1018B00005080B00000000000000CC05002000001F
:1018C0000000B01D05080B00000000000000C0056E
:1018D000002000000000BC1D05080B0000000000F7
:1018E0000000B405002000000000C81D05080B0022
:1018F000000000000000A805002000000000D41D2A
:1019000005080B000000000000009C0500200000FE
:101910000000E01D05080B0000000000000090051D
:10192000002000000000EC1D05080B000000000076
:1019300000008405002000000000F81D05080700D5
:101940000000000000007C05002000000000001ED8
:1019500005080700000000000000740500200000DA
:1019600000000C1E05080B000000000000006805C8
:10197000002000000000181E0508080000000000FC
:1019800000005C0500200000000088170508010029
:101990000000000000000000000000000000000047
:1019A00000000E0000000000000000000000000029
:1019B0000000241E050800000000000000000000D8
:1019C000000000000000381E0508080000000000AC
:1019D00000001406002000000000441E0508080056
:1019E0000000000000000806002000000000501E5B
:1019F00005080800000000000000FC0500200000B1
:101A00000000101D05080800000000000000F0059F
:101A100000200000000088170508010000000000F9
:101A200000000000000000000000000000000E00A8
:101A300000000000000000000000000000005C1E2C
:101A4000050800000000000000008C0200200000DB
:101A500000006C1E050808000000000000005C0685
:101A6000002000000000781E05080B0000000000A8
:101A700000005006002000000000841E050807003A
:101A80000000000000004806002000000000901E3A
:101A900005080700000000000000400600200000CC
:101AA00000009C1E0508070000000000000038062A
:101AB000002000000000A81E05080800000000002B
:101AC00000002C06002000000000B01E05080800E1
:101AD0000000000000002006002000000000881721
:101AE00005080100000000000000000000000000E8
:101AF0000000000000000E000000000000000000D8
:101B0000000000000000B81E0508000000000000F2
:101B100000008C02002000000000C41E0508070021
:101B2000000000000000A806002000000000CC1EFD
:101B300005080700000000000000A00600200000CB
:101B40000000D41E050807000000000000009806F1
:101B50000020000000007CD6040807000000000000
:101B60000000900600200000000084D60408070052
:101B700000000000000088060020000000008CD655
:101B8000040807000000000000008006002000009C
:101B90000000DC1E050807000000000000007806B9
:101BA000002000000000E41E0508070000000000FF
:101BB00000007006002000000000EC1E0508070071
:101BC00000000000000068060020000000008817E8
:101BD00005080100000000000000000000000000F7
:101BE0000000000000000E000000000000000000E7
:101BF00000000000000000000000A93E0208B0063E
:101C00000020914F00202A000000C0B40408904F2B
:101C1000002000C801008E4F0020E803D00701001B
:101C2000000048454C494F535052494E47002D4FF4
:101C30000020000301002C4F002000030100F13DB3
:101C40000208C93D02088C070020853D0208393D85
:101C5000020804080020313E0208193E0208B808B4
:101C60000020A53C0208593C0208C40B0020BF3EDE
:101C700002085D660208A00C0020A53A02080000D8
:101C80000000F00C00203569020891410208CC0DDB
:101C900000207D3F0208413F0208800E0020ED3FFA
:101CA0000208B93F0208700F002071400208BD40D1
:101CB000020824100020E450002001060100113F1A
:101CC0000208E53E020864110020214002088D66EA
:101CD0000208F0110020ED400208DD660208B8128B
:101CE0000020D850002001030100F41E0508000068
:101CF0000000000000000000000000000000001FC5
:101D000005080800000000000000C81300200000C3
:101D10000000081F05080700000000000000C013B5
:101D2000002000000000181F05080D000000000042
:101D30000000B413002000000000241F0508030069
:101D4000000025680208A813002000000000881782
:101D50000508010000000000000000000000000075
:101D60000000000000000E00000000000000000065
:101D70000000000000002C1F05080000000000000B
:101D8000000000000000000000003C1F05080A00E1
:101D9000000000000000441F0508000000004C1F68
:101DA00005080A000000000000007CD404080000C0
:101DB0000000541F05080A000000000000006E51DA
:101DC0000020000000005C1F05080A000000000061
:101DD0000000D4130020000000008817050801004F
:101DE00000000000000000000000000000000000F3
:101DF00000000E00000000000000000000000000D5
:101E00000000641F05080000000000000000000042
:101E1000000000000000701F050803000000256896
:101E2000020808140020000000007C1F05080300C1
:101E3000000025680208FC13002000000000841F39
:101E400005080300000025680208F01300200000C8
:101E500000008C1F050805000000000000002B4F4B
:101E6000002000000000941F05080700000000008B
:101E70000000E813002000000000A01F0508070074
:101E8000000000000000E0130020000000008817A0
:101E90000508010000000000000000000000000034
:101EA0000000000000000E00000000000000000024
:101EB000000000000000AC1F05080000000000004A
:101EC00000000000000000000000C01F0508030023
:101ED0000000256802083814002000000000CC1F14
:101EE00005080300000025680208B4000020000077
:101EF0000000D41F050803000000256802082C1408
:101F0000002000000000DC1F050803000000256819
:101F100002082014002000000000581B05080300E0
:101F20000000256802081414002000000000881733
:101F30000508010000000000000000000000000093
:101F40000000000000000E00000000000000000083
:101F5000000000000000E81F05080000000000006D
:101F600000000000000000000000F41F050807004A
:101F700000002D67020894140020000000007C1B64
:101F800005080300000025680208881400200000EE
:101F900000000020050803000000256802087C14EA
:101FA000002000000000082005080300000025684C
:101FB000020870140020000000001020050807002F
:101FC000000011670208681400200000000010D60D
:101FD000040803000000256802085C1400200000CB
:101FE00000001C20050803000000256802085014AA
:101FF00000200000000028200508030000002568DC
:1020000002084414002000000000881705080100A1
:1020100000000000000000000000000000000000C0
:1020200000000E00000000000000000000000000A2
:102030000000793E0208493E02089C1400205D41E0
:1020400002080000000028150020153D0208F13CA0
:102050000208B4150020000000000000000068160F
:102060000020354102084967020808170020302087
:102070000508000000000000000000000000000053
:1020800000003C2005080300000025680208141821
:10209000002000000000442005080300000025681F
:1020A000020808180020000000005C080508030072
:1020B000000025680208FC170020000000005020E6
:1020C00005080300000025680208F0170020000042
:1020D00000005C2005080300000025680208E417E2
:1020E0000020000000006420050802000000AD6927
:1020F000020800000000000000006C20050802003B
:102100000000AD6902080100000000000000181D79
:10211000050802000000AD6902080200000000008E
:102120000000000000000E000000000000000000A1
:102130000000000000000A4F002088136F17010004
:1021400000000C4F002088136F170000000078205B
:102150000508000000000000000000000000000072
:102160000000882005080800000000000000F418A6
:102170000020040000009420050808000000000072
:102180000000E818002000000000001C0508040002
:1021900000006164020800000000000000008817D1
:1021A0000508010000000000000000000000000021
:1021B0000000000000000E00000000000000000011
:1021C000000000000000084F002088136F17010076
:1021D0000000C06F002088136F1700000000E93B6B
:1021E000020800000000001900209954002001009E
:1021F00000006CB50408C26F00200100000078B533
:102200000408B86F00200200000080B50408BE6416
:1022100000200000000000000000BC64002000005E
:10222000000000000000BA64002000000000000070
:102230000000B86400200000000000000000B66448
:1022400000200000000000000000B4640020000036
:102250000000000000008C1E0020000000000000B4
:102260000000074F0020020000008CB50408D020B9
:102270000508000000000000000000000000000051
:1022800000008820050808000000000000008419F4
:102290000020040000009420050808000000000051
:1022A00000007819002000000000001C0508040050
:1022B0000000B93B02080000000000000000881781
:1022C0000508010000000000000000000000000000
:1022D0000000000000000E000000000000000000F0
:1022E000000000000000E0200508000000000000E1
:1022F00000000000000000000000F02005080D00B4
:102300000000B1650208B419002004000000FC20A0
:1023100005080D000000113C0208A8190020040067
:102320000000082105080D000000756502089C19D1
:102330000020000000001421050803000000754380
:102340000208901900200800000020210508030061
:10235000000025680208B81C002000000000881753
:10236000050801000000000000000000000000005F
:102370000000000000000E0000000000000000004F
:1023800000000000000080170508000000000000A9
:10239000000000000000000000005D1505080400BA
:1023A00000007964020800000000000000008817A7
:1023B000050801000000000000000000000000000F
:1023C0000000000000000E000000000000000000FF
:1023D000000000000000742105080000000000005B
:1023E0000000000000000000000098ED04080D004F
:1023F000000000000000141A0020040000008421E6
:1024000005080800000000000000081A0020040071
:102410000000902105080800000000000000FC19E1
:1024200000200400000098210508080000000000BA
:102430000000F019002004000000A0210508080099
:10244000000000000000E419002004000000A821A2
:1024500005080800000000000000D8190020040052
:102460000000B02105080800000000000000CC19A1
:10247000002004000000B82105080800000000004A
:102480000000C019002004000000881705080100A2
:10249000000000000000000000000000000000003C
:1024A00000000E000000000000000000000000001E
:1024B0000000D13B020800000000201A00200000AC
:1024C000000000000000981A00200000000000003A
:1024D0000000381B0020BE6F00200400000098B5EB
:1024E0000408BC6F0020E0150C1700000000BB6F53
:1024F0000020080000008CB60408BA6F0020050018
:102500000000ACB504080000000000000000881BBB
:1025100000200403090412010002EF0201408304B9
:102520005632000201020301000012010002020201
:102530000040830440570002010203010000090229
:102540002000010104C03209040000020806500501
:102550000705810240000007050102400000090252
:102560006400030100C03209040000010300000000
:102570000921110100012226000705830308000A32
:10258000080B01020202010009040100010202011C
:1025900000052400100105240100020424020205A4
:1025A00024060102070582030800FF090402000255
:1025B0000A000000070501024000000705810240F3
:1025C000000009024300020100C0320904000001BA
:1025D0000202010005240010010524010001042469
:1025E00002020524060001070582030800FF090412
:1025F0000100020A00000007050102400000070573
:10260000810240000000FF00000000FFFF0000000A
:102610000000AA5505010000010005010905A101FE
:10262000A10005010930093109320933093509349E
:10263000094009381581257F750895088102C0C0B9
:10264000000009022200010100E03209040000013B
:102650000301020009211101000122260007058360
:102660000308000A00000000000001020304010248
:10267000030406070809BDD2020885D9020801D55E
:10268000020889B00208ADB2020899B00208B5B0DC
:10269000020861B0020851B002080000000000000A
:1026A00000002D202D2D202D2D2D2D202D2D2D2DDB
:1026B000000000000000000000000000000000001A
:1026C00000AA550B010000AA5507010000AA5509F0
:1026D00002000000000001000000C012AA55030023
:1026E0009F00FF1FFF1F010000002C76002000004C
:1026F0000000F42300200400000090070508602378
:1027000005080000000031730308A08601000400E2
:1027100000000000000000000000000000000000B9
:102720000000000000000000000000000000900712
:1027300005088C240508000000001DB90108E80305
:102740000000040000000000000000000000000085
:102750000000000000000000000000000000000079
:1027600000007C1B0508A4E9040800000000B190EB
:1027700000087D00000006000000000000000000CE
:102780000000000000000000000000000000000049
:10279000000000000000E80605080000000000003E
:1027A0000000C9E70108E803000003000000000082
:1027B0000000000000000000000000000000000019
:1027C0000000000000000000000094240508000044
:1027D000000000000000450204081027000003006C
:1027E00000000000000000000000000000000000E9
:1027F0000000000000000000000000000000EC21CC
:10280000050800000000C941010875BD01085F7698
:1028100000000500000000000000000000000000B3
:1028200000000000000000000000000000000000A8
:102830000000500905080000000000000000C12849
:102840000208102700000100000000000000000046
:102850000000000000000000000000000000000078
:10286000000000000000A024050800000000000097
:10287000000021B90108E803000005000000000085
:102880000000000000000000000000000000000048
:1028900000000000000000000000AC24050800005B
:1028A000000000000000C58B0008204E000003005F
:1028B0000000000000000000000000000000000018
:1028C0000000000000000000000000000000BC2428
:1028D00005080000000000000000B1890008204E3B
:1028E00000000300000000000000000000000000E5
:1028F00000000000000000000000000000000000D8
:102900000000CC240508000000000000000005BB0A
:102910000108400D0300030000000000000000005B
:1029200000000000000000000000000000000000A7
:10293000000000000000540805080000000000002E
:102940000000817F03081027000001000000000044
:102950000000000000000000000000000000000077
:102960000000000000000000000000070508000053
:10297000000000000000017F020810270000030093
:102980000000000000000000000000000000000047
:102990000000000000000000000000000000DC2437
:1029A0000508000000000000000039500108A08662
:1029B0000100010000000000000000000000000015
:1029C0000000000000000000000000000000000007
:1029D00000007C180508000000000000000025B879
:1029E0000108A861000001000000000000000000D4
:1029F00000000000000000000000000000000000D7
:102A0000000000000000E4240508000000000000B1
:102A10000000D99A0208A086010001000000000011
:102A200000000000000000000000000000000000A6
:102A30000000000000000000000058090508000028
:102A4000000000000000C5F20108A00F0000010016
:102A50000000000000000000000000000000000076
:102A60000000000000000000000000000000F02452
:102A7000050800000000000000005944020810276B
:102A80000000010000000000000000000000000045
:102A90000000000000000000000000000000000036
:102AA00000005C0805080000000000000000E9F6D6
:102AB00002081A41000001000000000000000000B0
:102AC0000000000000000000000000000000000006
:102AD000000000000000B809050800000000000028
:102AE0000000B9B802081027000001000000000033
:102AF00000000000000000000000000000000000D6
:102B00000000000000000000000074230508000021
:102B10000000000000002D6B02081A4100000100B7
:102B200000000000000000000000000000000000A5
:102B30000000000000000000000000000000FC2475
:102B40000508000000000000000065F20208400DCA
:102B50000300000000000000000000000000000072
:102B60000000000000000000000000000000000065
:102B70000000042505080000000000000000E1B787
:102B80000108400D030000000000000000000000EC
:102B90000000000000000000000000000000000035
:102BA0000000000000000C250508000000000000E7
:102BB0000000518C020850C3000003000000000018
:102BC0000000000000000000000000000000000005
:102BD00000000000000000000000182505080000AB
:102BE000000000000000711A010840420F000000C0
:102BF00000000000000000000000000000000000D5
:102C0000000000000000000000000000000024257B
:102C1000050800000000000000004D74030850C3C8
:102C200000000000000000000000000000000000A4
:102C30000000000000000000000000000000000094
:102C40000000000200051002700B1A0300000000D3
:102C50000000000000000000000000000000000074
:102C6000000000000000040309041201000200003B
:102C70000040830420570002010203010000F148D4
:102C80000308551C0308511C03084D1C03080926A2
:102C90000308491C0308451C030884B9040831DCF7
:102CA00002089DB1020819DB0208000000000000C4
:102CB00000004DD1020869D00208000000000000A9
:102CC000000000000000FDAF0208ED1C0308E11C3D
:102CD0000308592B0308752B0308991C03083D2B87
:102CE0000308212B03080100000050010000070029
:102CF00000000200000000000000000000000102CF
:102D000003040607080915B60208E1B10208DDD47C
:102D10000208000000004DB0020891DC0208C9B5AD
:102D2000020815D20208000000000000000009B0EF
:102D300002089DAF020891AF020861C902087DC96F
:102D4000020845C9020829C902080DC90208CDB503
:102D50000208BDB102081DD402080000000021B025
:102D6000020819D202089DB5020875D102080000B8
:102D700000000000000015B00208080000008DAF40
:102D8000020889AF020885AF020879AF020875AF63
:102D9000020881AF02087DAF020801000000006058
:102DA0000240106002400000000000000000000B24
:102DB00000000000000000000000000000000060B3
:102DC0000240286002400100000000000000060CE4
:102DD0000000000000000000000000000000006093
:102DE0000240406002400200000000000000100DA0
:102DF0000000000000000000000000000000006073
:102E00000240586002400300000000000000160E5F
:102E10000000000000000000000000000000006052
:102E20000240706002400400000000000000200F1B
:102E30000000000000000000000000000000006032
:102E400002408860024005000000000000002610DB
:102E50000000000000000000000000000000006012
:102E60000240A06002400600000000000000301197
:102E700000000000000000000000000000000060F2
:102E80000240B86002400700000000000000362F3A
:102E900000000000000000000000000000000064CE
:102EA00002401064024000000000000000000038F2
:102EB00000000000000000000000000000000064AE
:102EC00002402864024001000000000000000639B2
:102ED000000000000000000000000000000000648E
:102EE0000240406402400200000000000000103A6E
:102EF000000000000000000000000000000000646E
:102F00000240586402400300000000000000163B2D
:102F1000000000000000000000000000000000644D
:102F20000240706402400400000000000000203CE9
:102F3000000000000000000000000000000000642D
:102F400002408864024005000000000000002644A2
:102F5000000000000000000000000000000000640D
:102F60000240A0640240060000000000000030455E
:102F700000000000000000000000000000000064ED
:102F80000240B8640240070000000000000036461E
:102F90000000000000000000000000000000000031
:102FA000803F000000000000000000000000000062
:102FB000803F000000000000000000000000000052
:102FC0000000000000000000000000000000000001
:102FD000000000000000010000000000803F000031
:102FE000000000000000000000000000803FA42757
:102FF00000200000000000000000000000000000B1
:1030000000000000000000000000000000000000C0
:1030100000000000000000000000000000000000B0
:1030200000000000000000000000000000000000A0
:103030000000000000000000000000000000000090
:103040000000000000000000000000000000000080
:10305000000001000000000000000000000000006F
:103060000000000000000000000000000000000060
:103070000000000000000000000000000000000050
:103080000000000000000000000000000000000040
:103090000000000000000000000000000000000030
:10800000014B01221A7070470828002010F8113C1B
:108010000133DBB20A2B00F8113C07D9044A10F8EF
:10802000131C002322F8113000F8113C704700BFE8
:10803000742E0020F0B45D4E5D4872785D4B5E4D4D
:10804000DC6B2D780132A0FB0270000900EB800090
:10805000A2EB80001A687070914201EB04005C682A
:1080600011D293F84520002A4ED000F58030B0FBA5
:10807000F5F084420BD2041B4FF4803292FBF5F2F0
:10808000A21A9A600AE0B0FBF5F0844244D34FF4A0
:10809000803292FBF5F2121B02449A6040F68C2467
:1080A0000025A242C3E9001083F8455017D993F880
:1080B000402093F942108A4256B241D0002093F9F1
:1080C000411083F843008A4247D00121002283F8FF
:1080D000426083F8441083F84020F0BC704793F866
:1080E00044100029F9D0A2F2EF2040F2DA51884280
:1080F0001AD893F840100B2916D803EB81000131F0
:10810000C26083F84010E8E7B0FBF5F08442BED2CD
:10811000041BA21A9A60C1E793F84520002AAAD14D
:10812000041BA21A9A60B9E7244A002102F1300028
:1081300083F8441042F8041F8242FBD1F0BC704720
:10814000111F0829BAD893F84310182926D80131ED
:1081500083F8431093F94110B5E793F844100029D0
:10816000B3D0FAB11649154C0FFA82FC084601EB60
:108170004C0754F8045F20F8025BB842F9D10B2A8F
:1081800007DC104801EB4C02002122F8021B904250
:10819000FBD10D490A7801320A7096E783F84160F5
:1081A000314690E794460649EBE700BF08280020D7
:1081B000CDCCCCCCD8BF00204C250020E0BF002087
:1081C000742E00208C2E0020682E002030B40E4D1E
:1081D0000E4B6A780E4C0132A3FB02031B09E06BC5
:1081E00003EB8303A2EB83034FF6FF72914200F18E
:1081F00001006B70084408BF0123E06308BF84F8E6
:10820000453030BC704700BF08280020CDCCCCCC16
:10821000D8BF0020002800F01781B04B1A7CF0B4C2
:10822000002A40F095801968002201280A6043D096
:1082300093F82810002941D19969002202280A6088
:108240003AD093F8401000295DD1196B0022032821
:108250000A6031D093F85810002940F09E80996C44
:10826000002204280A6027D093F87010002940F0FB
:10827000EC80196E002205280A601DD093F8881042
:10828000002940F00781996F002206280A6013D068
:1082900093F8A010002940F02B81D3F89010002211
:1082A00007280A6008D093F8B810002940F0A08091
:1082B000D3F8A83000221A60F0BC7047DC69884D02
:1082C000A10AA94200F04C8140F23581854DA942B6
:1082D00004D0854A914240F04C810222EFF3118193
:1082E000502585F31288814E676AA58A02EB8202C7
:1082F00006EBC202013745F001059762C9B2A582BB
:1083000081F3118898E75C6B754DA10AA94200F0D2
:10831000298140F21581734DA94204D0724A9142DD
:1083200040F029810222EFF31181502585F3128854
:108330006E4E676AA58A02EB820206EBC202013723
:1083400045F001059762C9B2A58281F311887CE7E7
:108350005968634C8A0AA24200F0F7806ED9614CDA
:10836000A24200F0F6800134A24240F0F0800224E4
:10837000EFF31182502585F312885C4E4F6A8D8A87
:1083800004EB840406EBC404013745F00105A76241
:10839000D2B28D8282F3118845E7DC6C504DA10A80
:1083A000A94200F0F68040F2D6804E4DA94204D09A
:1083B0004D4A914240F0E1800222EFF311815025B5
:1083C00085F31288494E676AA58A02EB820206EBA2
:1083D000C202013745F001059762C9B2A58281F357
:1083E0001188996C002204280A607FF43DAF63E78E
:1083F000D3F8AC003A4C810AA14200F0DF8040F291
:10840000B380384CA14204D0374A914240F0D48026
:108410000222EFF31181502484F31288334D466A0F
:10842000848A02EB820205EBC205013644F00104A6
:10843000AE62CAB2848282F3118839E7043CA24258
:1084400040F08580012493E770475C6E244DA10ABB
:10845000A94200F0A58040F29280224DA94204D0AA
:10846000214A914240F09E800222EFF31181502573
:1084700085F312881D4E676AA58A02EB820206EB1D
:10848000C202013745F001059762C9B2A58281F3A6
:108490001188EEE6DC6F124DA10AA94200F084803B
:1084A00072D9104DA94203D00F4A91427ED10222C7
:1084B000EFF31181502585F312880C4E676AA58A67
:1084C00002EB820206EBC202013745F0010597621A
:1084D000C9B2A58281F31188D5E600BF200F001034
:1084E0000600100040001000410010000828002085
:1084F000D3F89440324DA10AA94259D04BD9314DFD
:10850000A94203D0304A914254D10222EFF31181A3
:10851000502585F312882D4E676AA58A02EB8202E8
:1085200006EBC202013745F001059762C9B2A58288
:1085300081F31188B1E6264A91421AD10122CDE693
:10854000234A914217D10122EDE6032410E7FE24CD
:108550000EE700240CE71E4A91420ED101222CE7BF
:108560000322BBE60322DEE6194A914224D101220E
:108570004FE7FE22B2E6FE22D5E6FE221DE7144AB0
:1085800091420FD1012270E7114A91420ED101228E
:108590008EE7032211E70E4A91420BD10122B5E783
:1085A000032262E7FE2260E7032281E7FE227FE7E3
:1085B0000322ABE7FE22A9E7FE222AE7032228E7EF
:1085C00006001000400010004100100008280020A4
:1085D00002001000704700BF70B4150BC2F30324F3
:1085E000064605EB450504EB44044800C2F30313BB
:1085F0001835183402F00F02356003EB430346F8D8
:10860000214002EB420201441833183246F8203070
:10861000062046F8212070BC704700BF2DE9F04FBE
:1086200012F4004F14BF4FF00E0B4FF0070B12F473
:10863000804F14BF4FF00E0A4FF0070A12F4005F8C
:1086400014BF4FF00E094FF0070912F4805F14BFFA
:108650004FF00E084FF007084FEA410C12F4006F7C
:1086600083B001EB0C0714BF4FF00E0E4FF0070E56
:1086700012F4806F01EB070614BF0E2307238D1938
:108680000193034612F4007F01EB0504C3F800B028
:1086900018BF0E2043F821A008BF072043F82C90F4
:1086A00012F4807F01EB040C43F8278043F826E0A6
:1086B00001EB0C0714BF4FF00E084FF00708019EA6
:1086C00043F8256012F0800F01EB070614BF4FF04E
:1086D0000E0E4FF0070E12F0400F43F8240001EB8E
:1086E000060514BF0E20072012F0200F43F82C803F
:1086F00001EB050414BF4FF00E0C4FF0070C12F005
:10870000100F43F827E043F8260018BF0E2701EBAF
:10871000040008BF072712F0080F43F825C018BF50
:108720000E2643F8247008BF07260C1812F0040F19
:1087300043F8206018BF0E2501EB040008BF072591
:1087400012F0020F43F82450014414BF0E240724F2
:1087500012F0010F43F8204014BF0E22072212200E
:1087600043F8212003B0BDE8F08F00BF704700BF81
:1087700070B4044600F16C06064D0FCD2D8825829D
:1087800020606160A260E3601234B442F4D170BC36
:10879000704700BFE0860408034B33F8142F0280B3
:1087A0009B788370704700BFE086040807280AD8CA
:1087B00000EB4000044B10B553F8304014B13EF0CC
:1087C000A9FC206010BD704724BE002070B505468E
:1087D0006C003EF09FFC2A49631901EB43131E7B9A
:1087E00006B970BD274AD2F8A46080B22EB192F8C3
:1087F000AC6016B992F8AD6066BB2C4401EB441432
:10880000214B227D208142EA400290B2021282EA8C
:108810001012424002F00F0242EA00121B781B487D
:108820000026267592B20668E3B9602000FB0510A9
:1088300018300121B04721696368B1F82C2164899F
:10884000DB682243A1F82C2158601A6842F001022B
:108850001A6070BD2A4492F8AE000028CDD00122E3
:108860001A75CAE7636820695B7903F0FC030C336F
:1088700018440421B04723698000188170BD00BFEF
:1088800040C0002008280020EC0F0010E40F00106A
:1088900038B500EB4000084DC4002B1993ED027A67
:1088A000D3ED037AE7EE007AB0EE670A3EF032FCD1
:1088B0002B59186038BD00BF200F001010B5174AA3
:1088C0000321002301E012F8241C11F0040F03F12E
:1088D000010302F1240201D1072BF4D1104A03EB6A
:1088E000C30302EB8303187914F080FF044618B128
:1088F000112200238271C3712021204619F0BEFA93
:108900000A2016F02FFA204619F08CFE054B00289D
:108910000CBF012202221A7010BD00BFBACA04089F
:108920006CCA040888D80020044B93F8CC20D3F8F4
:10893000BC000AB919F03EBB19F042BB0828002060
:10894000044B93F8CC20D3F8BC000AB919F038BB1B
:1089500019F030BB08280020F8B504462EF0DEFDE3
:108960000F4A104BB2F90260B2F900701D780E493F
:1089700000FB04F0020B42F2107303FB02F393FBC3
:10898000F7F3334481FB0310222D4FEAE373C3EB6B
:10899000A00000D0F8BD054B1A805880F8BD00BF7C
:1089A000164F002085AF00206766666688AF0020FE
:1089B000704B1B78002B3AD070B56F4B6F4D9B7985
:1089C000D5F8D040C5F8D000013B041B032B00F2C2
:1089D0008780DFE803F04702312B3BF071FF684BE3
:1089E00068491A784B8802F0010200287ED0664858
:1089F000C5F81031D0ED037A002A40F08F8003FBD8
:108A000004F007EE900ADFED616A614AB8EEE77A9A
:108A1000D5ED437AE7EE267AC2E90033BDEEE77A78
:108A2000C5ED437A85ED427A82ED027A70BD584AEF
:108A3000C2E9003393607047564B1B681B01F5D5A4
:108A4000FF2026F0D9FD18B103780A2B74D9002035
:108A500003464F4AC5F81401C5F81831C2E900337E
:108A6000906070BD4C4A4D4BD27933F81260B6B26B
:108A70003046FFF771FF07EE906AC5F8E000B8EEE8
:108A8000670A474829F01AF8BCEEC00A10EE103AFF
:108A900098B2FFF761FFD5F8E010D5ED367ADFED3B
:108AA0003B6A3B4B3F4AC5F8DC0001FB04F407EE90
:108AB000104AB8EEC77A1860E7EE267A1078596047
:108AC0002228BDEEE77AC5ED367A17EE102A83ED3F
:108AD000027A85ED357AA9D1334B9980DA8070BD61
:108AE0002B4B0022C3E900229A6070BD294E3668E4
:108AF000F6067FF57CAFC5F81031002A3FF47FAF52
:108B0000B1F90010294A00FB01F082FB0012C017E6
:108B1000C0EBA2100344C5F8103170E7FDEEE77A10
:108B2000234E17EE900AA0F57A7000FB00F2A6FB28
:108B3000026200EB1210E3E71E4A1F4B51881A68CD
:108B4000D0ED027ADFED1D6A1D4C436802FB01F295
:108B500007EE102AF8EEE77AB8EE477AA4FB012177
:108B6000E7EE267A03EBD103FDEEE77A17EE900AE3
:108B70006FE700BF0A6D00201C6D00200828002050
:108B8000DE6C00201E4F00200C6D00202FE33E31D4
:108B90002C6D002018CD002014B2002038B2002027
:108BA000EC28002085AF002088AF0020D34D621054
:108BB0001F85EB51D46F002024B100207D21953416
:108BC000CDCCCCCC2DE9F84F2DED028B494B5B7908
:108BD000012B35D0022B10D0474B00221A60474B97
:108BE0001B78022B05D1444A454B518812881980C5
:108BF0005A80BDEC028BBDE8F88F424B1B681B010D
:108C0000EDD5FF2026F0F8FC00286ED003780A2B63
:108C10005DD99FED3D0A00233C4C04F59070A4F80B
:108C20001E3128F04BFFBCEEC00A10EE103A9BB28A
:108C3000A4F81C31304AB4F81E1151801380CEE7DD
:108C4000334A344B9278314D33F81280324C334EE4
:108C50001FFA88FB07EE90BA05F5A470B8EE670A14
:108C600028F02CFFB0EE408A2EF058FCBCEEC80A6B
:108C700094F800806378A77810EE102A08FB00F4BF
:108C800090B204FB00F4A6FB042444F6FB79C3EB8A
:108C9000033A09EB5414B4FBFAF4B4FBF7F4A4B2AE
:108CA000A5F844412EF03AFC08FB0BF808FB00F352
:108CB000A6FB0323104A09EB5313B3FBFAF3B3FBF0
:108CC000F7F39BB2A5F846315380148087E7B0F9DB
:108CD00002201349D31781FB0212C3EBA2039BB2FC
:108CE00007EE903AB8EE670A96E7084CB4F81C31E4
:108CF000A0E700BF1C6D0020046D002085AF0020A0
:108D000088AF002018CD00200000000008280020B7
:108D100014B2002038B20020114F00201F85EB5103
:108D20006766666670B52D4D2D4C2E496A792E4EBC
:108D30002E4804230B7084F86C3100216423012A2F
:108D400084F87531A4F86E11A4F8701184F87411C8
:108D5000C4F878113170016021D0022A11D0A979AC
:108D6000234A00230129136084F87C31C2E90133CE
:108D700023D0022904D11F4AC4F80831C2E90133C3
:108D800070BD282204F58E703EF0AEF84CF25031E2
:108D90009FED190A04F590702BF0B4F8DFE7282254
:108DA00004F5A2703EF0A0F84CF250319FED120A8B
:108DB00004F5A4702BF0A6F8D1E7104AC4F8D4301B
:108DC000C2E90133D3609FED0E0A02F110004CF2AC
:108DD0005031BDE870402BF095B800BF1C6D0020ED
:108DE00008280020C07000200A6D0020046D0020BB
:108DF0002C6D002010290020CDCCCC3DDC2800209B
:108E0000CDCCCC3EF8B5914A1378DD0700D4F8BD3F
:108E100023F001038E4913704B68C3F30803B3B901
:108E2000EFF311839BB98B4C8B482368816800BF9B
:108E300022689342F9D1894A15684FF47A7000FB91
:108E400005F2511AB1FBF5F100FB031320E0EFF33B
:108E50001181102383F312887F48814A8568036853
:108E6000DC0348BF01237B4C44BF13608568266840
:108E70001368C9B281F31188784A10684FF47A7187
:108E8000334401FB00F2521BB2FBF0F201FB03235F
:108E9000744A754D9178C5F8803100292CD1734BF7
:108EA0001B88002B4ED1724A724B1178186881F0E2
:108EB000010119F08BF8704E704C33782BB1237888
:108EC0001BB16F4B1B68D9045CD56E4B1B6800222D
:108ED00022709A069BD46C4B1B689B0300F1AC80FC
:108EE0006A4900220B461878042803F10C0332D09B
:108EF0000132182AF7D18AE71379022BCFD0644EBA
:108F000033780B2B18D801229A4040F6030112EA5D
:108F10000107C4D112F4C06F0ED0093B012B0BD84E
:108F2000452021F08BF8FF2021F088F8594820F0E7
:108F3000F7FF384621F082F8574B22685A600B231E
:108F40003370ACE7554B5A69002AB4D01968002237
:108F50000A605A74AFE7D5F8844153003CB19818C1
:108F600001EB800064784078A042BFF450AF1A440F
:108F700001EB82010023C5F88411A5F88831C5F8FA
:108F80008C31F8BD464B1F7815F0A0FE3378002BCE
:108F90009BD0D5F8A420002A97D100F51C501030A2
:108FA0000A214FF47A72C5F8A40085F8AD10C5F80F
:108FB000A820002F3BD03A4614213A483DF094FFB8
:108FC000394A1389012FB3FA83F34FEA53132ED092
:108FD000B2F86810002918BF0023022F27D0B2F87A
:108FE000C810002918BF0023032F20D0B2F8281181
:108FF000002918BF0023042F19D0B2F888110029C6
:1090000018BF0023052F12D0B2F8E811002918BFAD
:109010000023062F0BD0B2F84812002918BF0023F6
:10902000072F04D0B2F8A822002A18BF002383F02B
:10903000010385F8AC3048E71C4B1B78032B7FF409
:109040004FAFBDE8F8402EF03DBF00BFDE6C002002
:1090500000ED00E024B1002010E000E02CBB002077
:1090600028BB0020AC7000200828002004BB002092
:1090700006BB002008BB00203CC00020A6570020F3
:1090800018CD00207C7000207435002070930408F7
:1090900076510020ACD40408B03200200CBB002074
:1090A000540B0010B628002040C00020C0700020E3
:1090B0002DE9F04FD64DD7492B68D74C0A68DFF819
:1090C0008CB32DED108BC31A2778D44C28601A442A
:1090D00008EE103A99B00A60062F4FF00002069091
:1090E000BAEEEF8A8BF8902184F8642094F8EC3281
:1090F00000F02F81002B38D0D4F8B430002B65D18C
:10910000E06BD4F84080626CC54EDFF844A3B37DB9
:1091100033B1C44B93F800C0BCF1000F00F02685BA
:10912000737E002B40F09584052FCAF80400CAF81E
:109130000880CAF80C2000F0C884BB4ADBF89831DC
:109140001178B3FBF1F201FB12320133CBF8983105
:10915000002A00F04181B04B1B78012B00F0BD8448
:1091600019B0BDEC108BBDE8F08FB04BD4ED0F7A89
:10917000D5ED013A94ED104A95ED025AD4ED114A1D
:10918000D5ED035A93ED006A93ED027AC5ED017AAD
:1091900077EEA37AD3ED016A85ED024A34EE055AE3
:1091A00074EEA55AA8EE276AF0EE477AE8EE056A53
:1091B000E8EE257A83ED006AC3ED016AC3ED027A19
:1091C000D4F8B430C5ED034A002B99D0944EDFF8A3
:1091D00080A2B6F81CC0964ADAF80000717842F214
:1091E000107808FB0CF8B4F954C0B8FBF0F843450C
:1091F000B2F9060007EE90CA01F0BC8394ED1B7A29
:10920000D4F888C0F8EEE77A0CF1010E37EE277A31
:10921000BEF1010FC4F888E084ED1B7A03F00A83E5
:10922000D4ED1E5AD4ED206A07EE10EA37EEE56A57
:10923000B8EEC75A012B86EE057A37EE257A77EE1F
:10924000C77A84ED1F7AE7EE866A84ED1E7AF0EE27
:10925000667AC4ED216AC4ED206A02F07085B4F923
:10926000567094ED1C7A07EE907AD4F89C70F8EE64
:10927000E77A07F1010C37EE277ABCF1010FC4F849
:109280009CC084ED1C7A02F00D80D4ED235AD4EDFD
:10929000256A07EE10CA37EEE56AB8EEC75A012B09
:1092A00086EE057A37EE257A77EEC77A84ED247A52
:1092B000E7EE866A84ED237AF0EE667AC4ED266ADC
:1092C000C4ED256A02F06385B4F9587094ED1D7AF7
:1092D00007EE907AD4F8B070F8EEE77A07F1010C57
:1092E00037EE277ABCF1010FC4F8B0C084ED1D7AC7
:1092F00001F07983D4ED285AD4ED2A6A07EE10CA1A
:1093000037EEE56AB8EEC75A012B86EE057A37EEDE
:10931000257A77EEC77A84ED297AE6EE276A84ED1E
:10932000287AF0EE667AC4ED2B6AC4ED2A6A02F060
:109330005885D080D4F8B430013BC4F8B430364AF4
:1093400000231778E3631A4698461846236463643B
:10935000DDE6002B40F0CE83D4ED0F8A334EDFF8EC
:10936000D080B0EE680A3DF0D5FE95ED017AD6EDDD
:10937000007A94ED109AC5ED018A38EE877AB0EE46
:10938000490AE7EE087AA8F80000C6ED007A3DF039
:10939000C1FE95ED027AD6ED017AD4ED118AA8F8D6
:1093A000020039EE077AB0EE680AE7EE087A85ED3A
:1093B000029AC6ED017A3DF0ADFE95ED037AD6ED49
:1093C000027AA8F8040038EE877AC5ED038AE8EE41
:1093D000077AC6ED027A8FE6164B1B78002B3DD03C
:1093E000154A164BB2F906209B8A9A4236DC144B7A
:1093F0001B78012B2ED0192B2CD00E2B2ED0082B06
:109400002CD01049104A0991002393608B6027E00B
:10941000040000100811001085AF0020180C001087
:10942000D4B1002098000020EE3000200C11001074
:1094300088AF002000000020B2D60020C8CC002059
:109440002034002090DB00200C6D00200828002034
:10945000100F0010CE4B9B7B002BD2D0CD4B09932D
:109460003BF098FCCC4B1B78052B01F001870023C7
:109470000C93CA4BD5ED048AD3ED006AC84AC94B98
:10948000D2ED007A93ED006AC74AC84B12681B8878
:109490000592B7EE007A77EE688A67EE867A68EE14
:1094A000A68A94F8F4229BED67CA0892F4EEC78A64
:1094B000F1EE10FA88BFF0EE478A68EEA78A002B1B
:1094C00000F02A839FEDBADADFF86883B94FD8F845
:1094D0000030B948B94E9AED010A98473B68B84840
:1094E00098473368B7489847D8F80030B6488DEDAC
:1094F0000E0A9AED020A98473B68B44898473368C9
:10950000B3489847B34BB44A1B78D2ED005A9AED52
:10951000018A8DED0F0A002B40F0C586F5EEC05A8A
:10952000F1EE10FA3DDD9E4A9FEDAC6AD2ED007A75
:10953000DAED026A9AED037A67EE867A27EE886A98
:1095400066EEA76A67EE277A8DED106ACDED116A97
:10955000CDED127AD5ED075A95ED066ADDED106A6C
:10956000D5ED054A9DED117ADDED127AB0EE655A22
:10957000A6EEC65AA6EEA56AF0EE645AE7EE455A84
:10958000A7EE245AF0EE464AE7EEE54AE7EE865AA1
:1095900085ED075AC5ED064AC5ED055A002B40F08A
:1095A0009F86DFF894928E4BDFF88C829FED8D9A28
:1095B000DFED8D9ADFED7ECADFED8CDADFED8CAA70
:1095C0009FED8CAACDF8289000273E46CDF81CA030
:1095D0009946894B3B44D3ED007A099B4FEA860AB2
:1095E000F5EE407A5344F1EE10FAD3ED00BA17D0FD
:1095F000824B3B4493ED007A7BEEC76AB0EEE66A9D
:10960000F4EEC67AF1EE10FA08D5F5EEC06AF1EE86
:1096100010FACCBF77EE87BA77EE67BAC3ED00BA1F
:10962000624B1A8840F6030C12EA0C0C00F02C86F0
:10963000022E00F0F183724B059953F80A307148FD
:1096400091F82DE080FB0310DB17C3EB60136E492C
:1096500007EE903A07EE10EA3944B8EEC76AF8EE22
:10966000E77AD1ED006ACEF1000307EE103AE6EE9C
:10967000267AB8EEC77AF4EEC77AF1EE10FA0AD479
:1096800007EE10EAB8EE477AB4EEE77AF1EE10FA98
:1096900088BFB0EE677A5D4B5D4903EB460331F955
:1096A0001600B3F90C30C01A07EE900A40F6010319
:1096B000F8EEE77A1A42A7EEED7A00F07685554B80
:1096C000D3ED00BA67EE2BBA95F8202022B1524BA9
:1096D0001878002800F02483504B1B78002B40F0B2
:1096E000A7837BEEC87AB0EE67EA3B4B93ED007A36
:1096F000B5EEC07AF1EE10FA00F3B382464B1B7858
:109700003BEEC8BA002B00F0A480454BDBF8B0213B
:1097100006991B688A1A9A4240F39B80059B93F82E
:109720004E30022B01F074863E4B022E1B680B93C9
:1097300040F082863C4BD3ED007AB1EE677AB4EE0E
:10974000C7BAF1EE10FA01F16985B4EEE7BAF1EEAD
:1097500010FA88BFB0EE67BA0B9BC8ED01CA9A42F7
:1097600040F38C86314B1B68980740F1648228498E
:10977000264BB1F900C0B3F90C202D48ACEB020226
:10978000002A0068B8BF5242824262DA56E000BF47
:1097900014BE002090DB002085AF0020481200108E
:1097A000F410001000000010A4720020386D00209A
:1097B0000000000080110010241100107C11001026
:1097C000841100106C11001048110010A811001035
:1097D00074110010741200109012001035FA8E3CB3
:1097E000F81100108988083D0000C842CDCCCC3D5E
:1097F0006F12033B00007A443C120010A82900209D
:10980000E45500201F85EB5178DB0020982F0020C5
:109810003C6D002024120010500B0010D8110010D5
:10982000501200104C12001068120010446D0020FD
:109830005412001020110010000B0010B1F902208A
:10984000B3F90E30D31A002BB8BF5B42984200F335
:10985000F28199ED000A2CEE000A022E20EE0B0A8E
:1098600088ED000A01F03A85D9ED017AD8ED016A58
:10987000AB4B68EEA77AF0EE665AE7EE8E5A93EDA0
:10988000006AB1EE467AF4EEC75AF1EE10FA08D447
:10989000B4EEE56AF1EE10FA8CBFB0EE657AB0EE88
:1098A000467A95ED046AF7EE007AB4EEE76AF1EED7
:1098B00010FAACBF0123002343B1F0EEE66AF0EEEC
:1098C000C77AF4EEE67AF1EE10FA01D588ED017A66
:1098D000022E00F04583934BD3ED007AF5EEC07A6B
:1098E000F1EE10FA00F30C82B7EE008A05998E4B68
:1098F00091F84E008D4A18A93B44394493ED00EA93
:1099000051ED0AFAD2ED00EA3EEE6FEA2EEE2EEAB3
:1099100018B98749098809050DD594F8EC1251B991
:10992000844985480978007811F0010140F00F86DC
:10993000002841F0988099ED02BA8049804A6BEE88
:109940000C7A01EB070A127827EE8EEADAED007A3C
:1099500088ED02EAB2423BEEE7FA00F0C4822DEE57
:109960000C7AB5EE40DA27EE0BBAF1EE10FA2BEED8
:109970002EBA00F071817348734900780978A0B35A
:1099800072480078012801F0288402282AD1704802
:1099900006EBC60C00EB8C0090ED027AD0ED067A57
:1099A000D0ED056A90ED016AD0ED035AC0ED066A6C
:1099B00067EE277A90ED077A80ED05FAE6EE267AD3
:1099C000D0ED086A90ED046A80ED087AE5EEC77A7A
:1099D00090ED007AE6EE667AEFEE077AB0EE67FA7F
:1099E000C0ED077AB24201F0E78328EE0B7A27EE4A
:1099F0000F8A99B1D8ED007A28EE277AB5EEC07AB1
:109A0000F1EE10FA0ADDF0EEE77AB0EEC87AB4EEC5
:109A1000E77AF1EE10FA05DDC8ED00CA3EEE088ADD
:109A200088ED028AC3ED00FA089BCAED00BA2BB19B
:109A3000C8ED00CAC8ED01CAC8ED02CA079B0437C9
:109A40003B44013608F1100809F10C0993ED018A35
:109A5000BFE594F8EC3263BBDAED037AFDEEE77A0A
:109A600017EE901A81EAE179A9EBE17994F8F4C252
:109A7000B6F91A30BCF1000F00F04D8707EE903AAE
:109A8000DFED346AB8EEE77A07EE909A37EE667A41
:109A9000F8EEE77AB4EEE77AF1EE10FA42F3DE85FB
:109AA000D4F8F032069E44F62061F31A8B427FF719
:109AB0003BAB0023052F84F8F432CAF80400CAF83F
:109AC0000880CAF80C207FF438AB15F0FFF8069A2E
:109AD000214B801A1880FFF730BB204B204A1968B1
:109AE00012881D4BC96919805A8019B0BDEC108BC2
:109AF000BDE8F08F94ED0F0A174E3DF00BFB94ED8F
:109B0000100A30803DF006FB94ED110A70803DF0A4
:109B100001FBB080FFF7F0BA124B93ED00DAD3E40B
:109B20006C12001020120010BC2900201C11001023
:109B3000386D0020DE6C0020500B0010C42900207E
:109B4000A0100010A810001078120010A41000102F
:109B5000AC1000100000C84288AF0020580B001065
:109B6000F40A00101C12001000D8F946DAED017A50
:109B700094F8EC32D4ED086AFDEEE77A17EE901A0D
:109B80000029B8BF494207EE901AF8EEE77A002B99
:109B900041F04F841FED0C6A9AED027ADFF8B8C3EA
:109BA00066EE866ABDEEC77AF4EEE76A17EE101A23
:109BB000F1EE10FA4CBF012300230029B8BF49423F
:109BC00007EE901AF8EEE77A9CF800C0F4EEE76A28
:109BD000DAED037AFDEEE77AF1EE10FA17EE901A5D
:109BE00081EAE179A9EBE17907EE909AF8EEE77A5C
:109BF00048BF43F00203F4EEE76AF1EE10FA48BF03
:109C000043F0040313EA0C0F01F04F8401214FF0DD
:109C1000000C069BC4F8E83284F8EC1284F8F4C215
:109C2000737E002B3FF480AA43E70B9BC8ED01CA6B
:109C30009A4240F32384B44BB4491A8800230B7032
:109C4000002A42F0E781B24AB24B1178186881F0DD
:109C5000010118F0BBF9FCE56FEE087A27EE8B8A5C
:109C6000DCE69BF8AC31002B3FF448ADAA4BAB4A85
:109C70003B44D2ED005AD3ED006AA94AE5EEA76A4B
:109C800092ED006AF0EE667AF1EE466AF4EEE67A5C
:109C9000F1EE10FA08D4F4EEC67AF1EE10FA8CBFA9
:109CA000F0EE466AF0EE676A9E4AC3ED006A92EDF6
:109CB000006A27EE267AF1EE467AB4EEE77AF1EE04
:109CC00010FA08D4B4EEC67AF1EE10FA8CBFF0EEBA
:109CD000467AF0EE477A7BEEA7BA3EEE27EA002EF0
:109CE0007FF40CAD904B1B78262B7FF407ADB2EEC2
:109CF000040A26EE800A3DF00DFA8C4BD880FDE474
:109D00008B4B3B4493ED008A27EE888AF7EE007A6E
:109D1000B4EEE78AF1EE10FA88BFB0EE678AE5E5A7
:109D2000BCF1000F7FF4D8AC824B8349DFF82CE202
:109D300031F916105EF807C003EB4603F5EEC0BA22
:109D4000B3F90C300B937D4BD3ED006A0B9BCB1A10
:109D500000EE103AB8EEC00AF1EE10FA20EE2D0A2D
:109D6000B7EE007AB5EEC00ACCBF01214FF0FF314B
:109D7000FFEE007AF1EE10FAC8BFF0EE477ACCBFE2
:109D800001234FF0FF33B0EEC07ABCF1000F04D0D6
:109D90008C4502F01C854EF80700B4EEE67AF1EE31
:109DA00010FA02F30B85664BF0EEC87A67EEAA7ADA
:109DB00093ED007AB7EE006AF4EEC67AF1EE10FA8F
:109DC00028EE077A88BFF0EE467AB0EE40BAA7EEEA
:109DD00087BAB5EEC0BAF0EECB7AF1EE10FAF4EE37
:109DE000E67ACCBF01234FF0FF33F1EE10FA02DD2B
:109DF000994202F009850021002842F01385514B59
:109E00001B78B3427FF468AC474B1B78272B03F0D9
:109E10006D82022E7FF460AC4B4B089A1B780AB11E
:109E2000DFED4ABA002B3FF45CAC022B7FF459AC57
:109E3000474B484A03EBC603D3ED007A93ED016A22
:109E400012787BEEE76AB7EE007AE6EE267A012A10
:109E50003BEEE7BAC3ED007AB0EECBBAF1EE4BEAD7
:109E6000AEEE897A00F05E83002A00F03F859FED18
:109E700037EA002E03F00482F0EE006AB0EE677A53
:109E8000AEEEA67AEBEE267AB4EEC87AF1EE10FAD0
:109E900000F2FE81F4EEC87AF1EE10FAC0F2E0852D
:109EA0001D4B3B4477EEC87AD3ED006A1B4B27EE7F
:109EB000A66AD3ED005AB5EEC06AF1EE10FA58BFAB
:109EC00077EE487AB0EEE67A25EEA76AB0EEC66A7B
:109ED000B4EEC76AF1EE10FA7FF707ACF1EE666AEE
:109EE000C6EEA57A01E41049097828297FF437AD38
:109EF0002FEE290A0D930B923DF00CF90B490D9BA7
:109F000048800B9A2BE500BF04BB0020500B0010CB
:109F100006BB002008BB002018000010F410001041
:109F2000981200109412001085AF002088AF002016
:109F300084DB0020982F00203C6D00208012001050
:109F40008412001088120010D811001000000000C8
:109F5000E01100107C120010000A00102800001010
:109F6000DDF82890089B99ED007A99ED015AD9ED1A
:109F7000047AD9ED055A99ED026AD9ED066ADDF841
:109F80001CA037EE057A77EEA57A37EE067A77EEE3
:109F9000A67A89ED037AC9ED077A002B40F0C481D7
:109FA00099ED097AD9ED087A95F82C3077EE877A11
:109FB000C9ED0B7A002B40F03C830023C9F8003038
:109FC000C9F80430C9F80830C9F80C30C9F81030A5
:109FD000C9F81430C9F81830C9F81C30C9F8203055
:109FE000C9F82430C9F82830C9F82C30D24B1B7876
:109FF000052B01F03581D14B93F8008018F0010852
:10A000004ED0CF4B1B78DB064AD4CE4B5B78002B6F
:10A0100046D09BF8C431CC4E002B42D13378002B74
:10A020003FD19BF8C531002B3BD1C84B1B68DF06E5
:10A0300003F1E98399ED077ADFEDC57AB0EEC77ACF
:10A04000B4EEE77AF1EE10FA83F26A8399ED037ABF
:10A05000B0EEC77AB4EEE77AF1EE10FA83F26083DD
:10A0600099ED0B7AB0EEC77AB4EEE77AF1EE10FA1A
:10A0700083F256830023CBF8C831AF4B1B78202BDB
:10A0800017D1DBF8C831AD49B24A91F800800033EE
:10A0900018BF012353800123138008EA030853E209
:10A0A000A94EA54B1B780022202BCBF8C82100F02D
:10A0B0004982012B01F0E180052B01F0CD829F4BFD
:10A0C00093F800800023059308F001083378002BF3
:10A0D00040F066819D4EA04BA04832681B68D0EDD1
:10A0E000036A93F84610D00440F1E484B8F1000FFD
:10A0F00001F0A8869A4A95F93800178807EE907AF9
:10A10000F8EEE77AF4EEE67AF1EE10FA82F2F682F1
:10A11000944A128807EE902AF8EEE77AF4EEE67A8F
:10A12000F1EE10FA41F2A786BBF8D021BA4204D86A
:10A130008D4A127B002A02F029859BF8D821002A3B
:10A1400042F02485894F8A4AD7ED007A92ED007A51
:10A15000C5ED0F7A77EE676A0128C5ED0D7AC5ED7A
:10A160000C6A85ED107A03F068820023814A6B64E3
:10A170000698D2ED006ACBF8D401012385F8383077
:10A180006E4AD5ED117A92F800800023C9F80430A8
:10A190006B61C9F81430AB61C9F82430EB616E4BC8
:10A1A00008F001081B6800F0AABC734AB1F900303E
:10A1B000D2ED007AD2ED016AB1F902206F49F4EED6
:10A1C000E76AF1EE10FAB4BFB0EE676AB0EE666A05
:10A1D000002BB8BF5B42002AB8BF52429342B8BFBF
:10A1E000134607EE903A664A0B7892ED005AF8EE65
:10A1F000E77A67EEAD7A002B00F06E81B5EEC05ABB
:10A20000F1EE10FA40F39B815E4BD3ED004AF5EE80
:10A21000C04AF1EE10FA40F3928174EEE77ADFED76
:10A220005A5AC7EEA46A66EE255AF7EE007A85EE12
:10A23000856AF4EEE76AF1EE10FA88BFF0EE676A1D
:10A24000F5EEC06AF1EE10FA76EE277AB8BFF0EEBE
:10A250006C6A66EEA77AB7EE006AF4EEC67AF1EEA3
:10A2600010FA88BFF0EE467AF5EEC07AF1EE10FAF9
:10A27000B8BFF0EE6C7A454BD3ED006A27EE267A34
:10A28000E7EE27BAFFF720BA022E7FF41DAAC3E536
:10A29000F4EE487AF1EE10FA48BFB0EE677A77EE46
:10A2A000487AFFF722BA3A4ADFED3A6A92ED006A3D
:10A2B0009AED027ADAED037A26EE266AF5EEC05AB6
:10A2C00066EE086A27EE067A67EE867AF1EE10FAF5
:10A2D000CDED106A8DED117ACDED127A3FF73AA9E6
:10A2E000DFF8B890D9ED094A99ED056A99ED015A60
:10A2F000F0EE645AE6EE665AA4EEA66AF0EE466AFE
:10A30000B0EE456AA7EE656AE5EE075AB0EE467A0A
:10A31000A7EEA67AE7EEC66AC9ED095A89ED017A79
:10A32000C9ED056AFFF73FB9DFED1B7AB0EE677A3A
:10A33000C9ED097A36E600BF85AF0020DE6C00204B
:10A340009C700020EE300020A657002018CD002081
:10A350000000164488AF0020A47200200C6D00207D
:10A36000AC120010B0120010FCDA0020A012001095
:10A37000FC0A0010B812001084DB0020301200101C
:10A380002C120010341200100000C8C22812001055
:10A39000F410001035FA8E3C00000000000B001095
:10A3A000DFF808A39AF80020B8F1000F41F0768298
:10A3B00022B19200A249A3483CF030FDA24B1B6899
:10A3C000002B40F0C481A14B1B7893B19AF8000098
:10A3D00060B19C4D9E4E0024E0B23368B5EC010A9A
:10A3E00098479AF8000001348442F5DB994B1B68CA
:10A3F0009847994B1B78052B00F000870024974B5A
:10A400001B68180700F15481954B1B7833B9954DA3
:10A4100095F80290B9F1000F41F098808E4B1B78AF
:10A42000052B7EF49AAE14F051FC8F4A8A4B001B28
:10A430001B78D080FEF791BE884B1B689B077FF589
:10A44000F4AB8A4B8A498B4831F916E0D0ED00BA5B
:10A450000B98C8ED01CA03EB460C6BEEADBABCF924
:10A460000CC0ACEB0E0C07EE90CAF8EEE77A824215
:10A4700067EEABBA3BEEC8BA3FF77BA995ED047A1D
:10A48000F7EE007AB4EEE77AF1EE10FA7FF5E1A983
:10A49000079A794BD2ED017A93ED007AF0EEE77AE4
:10A4A000F4EEC77AF1EE10FA7FF5D3A9D2ED027A75
:10A4B000F0EEE77AB4EEE77AF1EE10FA7FF7C9A989
:10A4C000D2ED037AF0EEE77AB4EEE77AF1EE10FA25
:10A4D0003FF748A9FFF7BDB9684BDFED696AD3EDD7
:10A4E000005AF4EEE65AF1EE10FA0FD5F7EE004AF4
:10A4F00034EEE54ADFED636ADFED634A76EEE77A34
:10A5000064EE244AE7EEA45A25EE255AB5EEC05A69
:10A51000F1EE10FA13D9C9EE856AF7EE007AE6EE8D
:10A52000667A98E6F3EE0E6AB4EEE6BAF1EE10FA49
:10A530007FF59DAC3BEEC8EA2EEE07EA99E4DFED2D
:10A54000537A98E6484B1A6000230593BEE595EDD3
:10A55000047AF7EE007AB4EEE77AF1EE10FA2FDB28
:10A5600088BB4B49D1ED007AB0EECE7AB4EEE77AF3
:10A57000F1EE10FA7FF7DFA94649D1ED007AB0EE8F
:10A58000CB7AB4EEE77AF1EE10FA7FF7D4A9099905
:10A59000DFF80CC15144D1ED007A9CED007AF0EE69
:10A5A000E77AF4EEC77AF1EE10FA7FF5C4A90699BE
:10A5B000CBF8B01138494FF0010C81F800C006E02B
:10A5C00000283FF4B8A9DBF8B0010699081A33490E
:10A5D000096881427FF7AFA92E49D1ED007AB0EE2C
:10A5E000CBBAB4EEE7BAF1EE10FA0FD4099901EB49
:10A5F0000A002B49D0ED007A91ED007AF0EEE77A6F
:10A60000F4EEC77AF1EE10FA7FF795A925490B927F
:10A610000888214A00211170002800F02C8222486D
:10A620004269002A3FF487A9026811604174FFF76C
:10A6300082B994F8EC32002B7FF4BFACD6E400BFB3
:10A6400008310020300B001070DA0020C4CC00204C
:10A65000E00F0010E80F001085AF0020446D0020CF
:10A66000C86F0020AC70002088AF0020982F002019
:10A670003C6D0020241200105812001038120010F7
:10A68000AE47813F00003443610BB63B0000000041
:10A69000601200105C120010500B001050120010DD
:10A6A0006412001004BB00200CBB0020540B0010EF
:10A6B0009E4A9F4BD2ED027AB3F904309D49F0EEE9
:10A6C000E76AB2EE0E7A81FB0301F4EEC76ADB178C
:10A6D000C3EBA103F1EE10FA1BB235D596490988F8
:10A6E000490731D5BBF8DE115B1A9BB219B211F1E3
:10A6F000B30FBCBF03F5B47319B2B3298BB203DD3A
:10A70000A3F5B4739BB219B28C48007908B95B42C7
:10A7100019B28B4B1B781B077FF576AE894B8A48A5
:10A720001B6893F8203013FB01F380FB03011944ED
:10A73000DB17C3EB211307EE103AB8EEC77A77EEBA
:10A74000C77AC2ED027A5FE6ABF8DE315CE67F4B9A
:10A750001B78192B0AD801227D4902FA03F319400C
:10A7600011B97C4A134201D039F008FF7A4E7B4D73
:10A7700033689F0600F19F86794CB4F90030B5F933
:10A780000410B5F906208B4203DB9A42A8BF1A4693
:10A790001146B4F90230B5F9102021809A42B5F97A
:10A7A000121003DC99420A46A8BF1A46B4F90430D5
:10A7B000B5F91C1062809942B5F91E2003DC9A425B
:10A7C000A8BF1A461146B4F90630B5F92820A18071
:10A7D0009A42B5F92A1003DC99420A46A8BF1A46E4
:10A7E000B4F90830B5F93410E2809942B5F9362051
:10A7F00003DC9A42A8BF1A461146B4F90A30B5F9EB
:10A80000402021819A42B5F9421003DC99420A4660
:10A81000A8BF1A46B4F90C30B5F94C1062819942C0
:10A82000B5F94E2003DC9A42A8BF1A461146B4F986
:10A830000E20B5F95830A1819A42B5F95A1003DBC0
:10A8400091420B46A8BF1346E381464B9B891BB33D
:10A85000DFF81881444FDFF8049108F1100538F94A
:10A86000023F00EE103A3846B8EEC00A27F026F94B
:10A870003CF050FCB9F90430B9F9062000B2984216
:10A880002BDB9042A8BF1046A845A8F8000007F1AE
:10A89000240709F10C09E2D12C4B1B78013B182B42
:10A8A00001F28F85DFE813F01B0D8D0D8D0D140B5C
:10A8B0008D0D8D0D8D0D5F0D8D0D8D0D8D0D8D0DF6
:10A8C0008D0D4E0D710D8D0D8D0D8D0D8D0D140B8E
:10A8D0000A0D8D0D8D0D4E0D1B0DA845A8F80030ED
:10A8E00007F1240709F10C09B9D1D5E737EEC8EA19
:10A8F000F0EECE6AB4EEE6BAF1EE10FA3FF7B7AA80
:10A90000B5EEC0EAF1EE10FAACBF3EEE4BEA3BEE1C
:10A910000EEAFFF7AEBA4B45BEF606AC0699C4F890
:10A92000F012012384F8F432FEF7FEBB0C6D002018
:10A930003C6D002067666666386D00204856002032
:10A940009C700020A4720020898888886CDA00201E
:10A9500030C130010200000218CD002084350020F3
:10A960003434002014BE0020D8D800203234002017
:10A970000AD7233CF8EEE77A4FF0010E4FF0000CB7
:10A980007345C4ED1B7AC4ED1F7AC4ED1E7AC4F87A
:10A9900024C0C4F880C0C4F888E001F05687B4F938
:10A9A000567007EE907A4FF0010CF8EEE77A002728
:10A9B0006345C4ED1C7AC4ED247AC4ED237AA76202
:10A9C000C4F89470C4F89CC000F07684B4F95810B0
:10A9D00007EE901AF8EEE77A00270121C4ED1D7A00
:10A9E000E762C4F8B0100021012BC4ED297AC4ED50
:10A9F000287AC4F8A8107EF49CAC07EE908AD4EDB7
:10AA00001D5AB6F914305FED266AD080B8EEE76AB9
:10AA100007EE103AC5EE867A1E4A1F4B11781B6866
:10AA20000022B8EEC77AE7EE667AC4ED0B7A9A6236
:10AA3000C3E90B22002941F01682184B1B689A03C8
