:020000040800F2
:10000000F0FF0010958E04085D8D0208F1A700082E
:100010005D8F04085D8F04085D8F040800000000F8
:10002000000000000000000000000000698D0208D0
:10003000658D020800000000618D02081DA1000806
:100040005D8F04085D8F04085D8F04085D8F0408D0
:100050005D8F04085D8F0408C1AE0008EDAF000895
:10006000B1AF000875AF000839AF0008319403083C
:10007000219403081194030801940308ED930308E5
:10008000D9930308C59303085D8F04085D8F0408A6
:100090005D8F04085D8F04085D8F0408FDAE0008C5
:1000A0005D8F04086D9800085D8F04082D99000885
:1000B0005D8F04085D8F0408AD970008DD99030883
:1000C000E5990308D1990308D99903085D8F0408BD
:1000D0005D8F0408CDA3000831A3000895A2000895
:1000E00085AE00085D8F040831DC020861950008C8
:1000F0002D9600085D8F0408ED960008B193030863
:100100005D8F04085D8F04085D8F04085D8F04080F
:10011000F9A100085DA1000881F202086DF2020851
:100120009D93030889930308958C0308759303082E
:10013000619303085D8F04085D8F04085D8F0408D8
:100140005D8F04085D8F04085D8F0408A5A5020873
:100150004D93030839930308259303085D8F040822
:10016000C5990308CD9903085D8F04085D8F0408C5
:100170005D8F04085D8F04085D8F04085D8F04089F
:100180005D8F04085D8F04083C8A040001000000B4
:100190001A023C0098280020482A00200000000095
:1001A000755B03082700040094280020842A00209F
:1001B00000000000F4060008F82106009E2F002031
:1001C000CC38002000000000F806000803123300BD
:1001D0007C3100200C38002000000000FE060008E2
:1001E00025009600D0360020663700200000000071
:1001F00000000000F6210C00EC3400204C360020FA
:10020000000000003407000815007000F8340020DA
:10021000DC35002000000000000000002A00600023
:10022000B82F00207C3500200000000075F803087E
:100230002C00100068350020FC3700200000000072
:10024000851901082B002400633800203F38002066
:10025000000000005519010829107800F83300202B
:100260005836002000000000000000002810100098
:10027000202F0020D4380020000000002DFD0008B1
:1002800014000300843300207835002000000000B3
:10029000400700080E502001E2490020F8510020DC
:1002A000000000009DF8030813000400E44E002045
:1002B000185300200000000044070008010104005A
:1002C0005E4900201C5300200000000000000000D8
:1002D00000010400564900202053002000000000C7
:1002E0004807000802010300514900202453002060
:1002F0000000000009E40208090201001C5100206E
:1003000028530020000000004C0700080C106C006F
:100310003A4B00202C53002000000000E1E30208CB
:1003200001020500664900209853002000000000EB
:100330000D97010800020500684E0020A053002020
:1003400000000000000000001B020800F050002028
:10035000A853002000000000755203080120080087
:10036000E04F0020B0530020000000004E070008BE
:100370001900050084500020B85300200000000040
:100380005607000837001E005C500020C0530020B4
:10039000000000005C0700081E000500284C00203B
:1003A000E0530020000000007A0700081B00F40062
:1003B000F0380020E853002000000000C9A7010821
:1003C0000E020200784F0020DC54002000000000E4
:1003D000800700082F001100D8510020E0540020B1
:1003E00000000000820700081600080004550020E5
:1003F000C857002000000000940700080510060000
:10040000C86D0020B0720020000000009C070008AA
:10041000F5317000286D0020B87200200000000047
:10042000BDA1010826000E003873002028730020AB
:1004300000000000A98002080B201000486A00207C
:100440006C73002000000000A20700081F201C00A1
:10045000986100207C73002000000000B2070008B3
:1004600005020400F06C00209873002000000000DA
:10047000CE07000803010A00006A00209C730020D8
:1004800000000000D20700081302030000600020F3
:10049000A873002000000000DC070008070202002B
:1004A0009C860020E086002000000000E007000895
:1004B00002000C0070860020E4860020000000008E
:1004C0000000000006020C0064860020F086002078
:1004D00000000000CD59030808120900E88500203B
:1004E000FC86002000000000D5520308F70106003A
:1004F000E28500200887002000000000E2070008D5
:100500000A020A0028850020108700200000000051
:10051000E807000803000100D88500201C870020A0
:10052000000000000000000010020100C090002048
:10053000BC90002000000000F207000804008000CA
:10054000C8D6002080D70020000000000000000076
:100550002300100080D6002000D8002000000000FA
:1005600045FD00080D003400E0D5002010D8002023
:100570000000000069E50208FD011E001CCD0020FE
:1005800044D80020000000006181000818202C00E1
:10059000ECCC002064D8002000000000695903085A
:1005A0000610180048C0002090D80020000000006D
:1005B000F9F80308FB01010044C00020A8D800207E
:1005C000000000003D590308FC01090010BF002095
:1005D000ACD80020000000004D5903083400100082
:1005E00038BE0020B8D8002000000000CDF8030875
:1005F0001102080010BE0020C8D800200000000032
:10060000F40700081212040008BE0020D0D8002011
:1006100000000000FC07000812200D00F8BD0020BB
:10062000D4D800200000000000080008F9010400F0
:100630009CB80020E4D8002000000000D981000808
:1006400018020200A0B20020E8D80020000000003C
:100650000000000017020B0094B20020ECD800202C
:100660000000000091520308FA01020070B200205D
:10067000F8D8002000000000F9530308020203002C
:10068000ACAF0020FCD800200000000000000000FB
:100690000C02030068AF002000D900200000000019
:1006A00081520308FE01090044B2002004D9002051
:1006B000000000000D5303080A403200ECB1002096
:1006C00010D90020000000000E08000810100200E1
:1006D000A4DC0020ACDC0020000000004008000882
:1006E0001A000E003CDB0020B0DC002000000000FF
:1006F00042080008200300000201F4011900000074
:1007000000000000000000000000000000000000E9
:1007100000000000000000000000000000000000D9
:1007200000000000000000000000000000000000C9
:1007300001000000000000000100000002020000B3
:100740000300000008044430FA0000000000E80341
:100750006400040A000100002801000020003200AB
:10076000C800D0079600140032002800B0044006EC
:100770000005500014000F000801000001000000F7
:100780000000000000000000000000000000000069
:1007900000000000C4090000190128282000010100
:1007A00000002B21231E64010100000001000A014A
:1007B0002900000000000001000000050000010207
:1007C0000300000000000000000000000000000026
:1007D0000000040101006C16000000000000000091
:1007E000023C3F010000000000004A01B400D601B5
:1007F000260000000000000001010101FFFFFFFFD3
:100800000000000100000548455350000000003082
:1008100001000000010000000000000000000000D6
:1008200000000000020000019E077D000000200083
:100830000100B80BB80BB80B20005000500050005E
:1008400000057E05EA05B4053200E803D007000084
:10085000FF000000D6010000650B01080000000049
:1008600000000000010000000001010100006A001A
:100870000101FFFFFFFFFFFF00000100E001010198
:1008800001000000E19A010800000000A80100201A
:1008900018400508000000000000000000000000F3
:1008A00000000000503505080000000000000000B6
:1008B0003E02002004000000C43F05080D000000B7
:1008C0008DC50108BC1C002000000000FC38050894
:1008D0000D00000065C50108B01C002000000000EC
:1008E000643A05080800000000000000A41C002075
:1008F00004000000683905080D000000959B010800
:10090000981C002000000000183A050803000000B1
:1009100089C701088C1C0020000000002840050841
:100920000300000089C70108801C002000000000AF
:1009300098350508010000000000000000000000DC
:1009400000000000000000000E0000000000000099
:100950000000000000000000184005080000000032
:1009600000000000000000000000000050350508F5
:1009700000000000000000003E0200200400000013
:10098000703F050803000000ADA20108741C0020A0
:1009900008000000683905080D000000959B01085B
:1009A000981C002000000000183A05080300000011
:1009B00089C701088C1C00200000000028400508A1
:1009C0000300000089C70108801C0020000000000F
:1009D000983505080100000000000000000000003C
:1009E00000000000000000000E00000000000000F9
:1009F000000000000000000030400508000000007A
:100A00000000000000000000000000005035050854
:100A100000000000000000003E0200200400000072
:100A2000783F05080300000089C70108C81C0020A2
:100A300000000000983505080100000000000000DB
:100A40000000000000000000000000000E00000098
:100A500000000000000000000000000020700020E6
:100A6000702D7200FFFFFFFF010000000000803FBB
:100A70000800000000000000000000003018002006
:100A8000FA0000000100000001000000FFFF2D201F
:100A90002D2D202D2D2D2D202D2D2D000000000081
:100AA0000000000000000000000000000000000046
:100AB000FFFFFFFF6C350508743505089035050804
:100AC0000000000000000000000000000000000026
:100AD0004B330508040000002DC30108000000008E
:100AE000000000009835050801000000000000002B
:100AF0000000000000000000000000000E000000E8
:100B000000000000000000000000000068D7002086
:100B10000100C4090000000066D700200100C409DC
:100B20000000000064D700200100C409000000009C
:100B300062D700200100C409000000005ED7002039
:100B40000100C4090000000060D700200100C409B2
:100B5000000000005CD700200100C4090000000074
:100B60005AD700200100C409000000007849002085
:100B70000100C800010000007649002032003075F5
:100B80003200000074490020055A05007149002018
:100B900000FF0100734900200100000064020020F2
:100BA0006F490020020000004CD804087049002062
:100BB00000FF0100724900200100000064020020D3
:100BC0006E490020020000004CD80408644900204F
:100BD00080C1803E050000006249002080C1803E47
:100BE000050000005C49002080C1803E0500000037
:100BF0005A49002080C1803E050000005449002071
:100C000000FF0100504900200A3201004F49002036
:100C10000400000004D104084E4900200200000036
:100C200018D1040800000000000000006C02002041
:100C3000A06C00209CFF2C01000000002E00002072
:100C40000A00000024D1040844490020E0150C17D4
:100C500000000000300000200800000020D8040838
:100C60002F0000200500000048D20408464900205B
:100C7000020000003CD10408C04B00200100FF7FAF
:100C800001000000BF4B00200200000048D1040812
:100C90000E4B00200000C201010000000A4B0020A2
:100CA0000000C201010000000C4B00200000C20146
:100CB00001000000064B00200000803E32000000D2
:100CC000044B00200000803E32000000024B002058
:100CD0000000803E32000000084B002000002C0184
:100CE000010000001A4B00200000F4010100000088
:100CF000184B00200000F40101000000164B0020FA
:100D00000000F40101000000144B00200000F40179
:100D100001000000124B00200000803E0100000096
:100D2000104B00200000803E01000000364B0020E8
:100D3000E803D0070A000000344B002000640100E3
:100D40000A000000294B002000640100284B00200D
:100D500000640100304B0020006401000A00000024
:100D60002F4B0020006401000A0000002E4B0020E1
:100D7000006401000A000000334B00200064010001
:100D80000A000000324B0020006401000A0000004D
:100D9000314B0020006401000A0000002D4B0020B0
:100DA00000FF01000A0000002C4B002000FF0100A2
:100DB0000A0000002B4B002000FF01000A00000089
:100DC000DE4900200000F40101000000DC490020A1
:100DD0000000F40101000000DA4900200000F401E5
:100DE00001000000D84900200000F40101000000CB
:100DF000D64900200000F40101000000264B00202D
:100E000000640100244B00201400E80301000000EE
:100E1000224B0020E80330750A000000204B002020
:100E200000C801001F4B002000C801001E4B00201D
:100E300000C801001D4B0020006401000A000000F2
:100E4000B44B00200000D00701000000AF4B002091
:100E500000C80100AE4B002000C80100AD4B0020CF
:100E600000C80100B24B00200000D00701000000C4
:100E7000AC4B002000C80100AB4B002000C80100B3
:100E8000AA4B002000C80100B04B00200000D00792
:100E900001000000A94B002000C80100A84B002061
:100EA00000C80100A74B002000C80100C03505089C
:100EB0000000000000000000000000000000000032
:100EC0007405050809000000000000001003002060
:100ED000040000007C050508090000000000000077
:100EE0000403002004000000583D0508090000002C
:100EF00000000000F8020020040000004234050851
:100F00000900000000000000EC02002004000000C6
:100F1000D03505080900000000000000E0020020B4
:100F200004000000D835050809000000000000009A
:100F3000D402002004000000E0350508090000008C
:100F400000000000C802002004000000E835050889
:100F50000900000000000000BC02002004000000A6
:100F600098350508010000000000000000000000A6
:100F700000000000000000000E0000000000000063
:100F80000000000000000000E83705080000000035
:100F900000000000000000000000000068260508B6
:100FA00007000000000000003403002000000000E3
:100FB000F8370508080000000000000028030020A2
:100FC00000000000043805080800000000000000D0
:100FD0001C030020000000009835050801000000F7
:100FE0000000000000000000000000000000000001
:100FF0000E000000000000000000000000000000E3
:101000000C3805080000000000000000000000008F
:10101000000000001C3805080D0000000000000062
:101020007003002000000000243805080D000000B7
:101030000000000064030020000000002C380508B8
:1010400007000000000000005C030020000000001A
:10105000343805080D000000000000005003002097
:10106000000000003C3805080D00000000000000F2
:101070004403002000000000443805080700000079
:10108000000000003C030020000000009835050827
:10109000010000000000000000000000000000004F
:1010A000000000000E000000000000000000000032
:1010B000000000004C38050800000000000000009F
:1010C0000000000000000000682605080C00000079
:1010D000000000007A490020000000006038050888
:1010E0000C000000000000007C490020000000000F
:1010F000703805080C00000000000000B249002014
:1011000000000000803805080C000000000000000E
:10111000A649002000000000943805080C000000DB
:10112000000000007E49002000000000A0380508F3
:101130000C000000000000008049002000000000BA
:10114000A83805080C0000000000000082490020BB
:1011500000000000BC3805080C0000000000000082
:101160008449002000000000C43805080C0000007D
:10117000000000008649002000000000CC3805086F
:101180000C00000000000000C44900200000000026
:10119000E43805080C000000000000008849002029
:1011A00000000000F03805080C00000000000000FE
:1011B0008A49002000000000840505080C0000009A
:1011C000000000008C49002000000000F8380508ED
:1011D0000C000000000000008E490020000000000C
:1011E000043905080C0000000000000090490020B0
:1011F00000000000103905080C000000000000008D
:1012000092490020000000001C3905080C00000075
:101210000000000094490020000000002839050863
:101220000C000000000000009649002000000000B3
:10123000343905080C00000000000000AA49002015
:10124000000000003C3905080C0000000000000010
:10125000A849002000000000443905080C000000E7
:1012600000000000B64900200000000050390508C9
:101270000C00000000000000B84900200000000041
:101280005C3905080C00000000000000BE49002089
:10129000000000008C3605080C0000000000000073
:1012A0009849002000000000683905080C00000083
:1012B00000000000A049002000000000703905086F
:1012C0000C000000000000009A490020000000000F
:1012D0007C3905080C000000000000009C4900203B
:1012E00000000000883905080C0000000000000024
:1012F0009E49002000000000903905080C00000005
:1013000000000000A2490020000000008826050817
:101310000C00000000000000AC49002000000000AC
:101320009C3905080C00000000000000A4490020C2
:1013300000000000D83405080C0000000000000088
:10134000B449002000000000A83905080C00000086
:1013500000000000AE49002000000000B039050880
:101360000C00000000000000B04900200000000058
:10137000B83905080C00000000000000BA49002040
:1013800000000000C03905080C000000000000004B
:10139000BC49002000000000C83905080C0000000E
:1013A00000000000CE49002000000000983505082C
:1013B000010000000000000000000000000000002C
:1013C000000000000E00000000000000000000000F
:1013D00000000000D03905080000000000000000F7
:1013E0000000000000000000DC3905080D000000CE
:1013F00000000000C803002000000000E4390508D8
:101400000D00000000000000BC03002000000000F0
:10141000EC3905080700000000000000B4030020BC
:1014200000000000F8390508070000000000000077
:10143000AC03002000000000043A05080900000089
:1014400000000000A003002000000000103A050882
:1014500009000000000000009403002000000000CC
:101460001C3A050809000000000000008803002065
:10147000000000002C3A05080900000000000000F0
:101480007C030020000000009835050801000000E2
:10149000000000000000000000000000000000004C
:1014A0000E0000000000000000000000000000002E
:1014B000403A0508000000000000000000000000A5
:1014C00000000000503A0508050000000000000080
:1014D000D5490020000000009835050801000000F3
:1014E00000000000000000000000000000000000FC
:1014F0000E000000000000000000000000000000DE
:10150000583A05080000000000000000000000003C
:101510000000000050350508000000000000000039
:101520006C1E0020040000003E3405080D00000081
:1015300091C301081C04002000000000C43F0508FE
:101540000D000000999A010810040020000000001E
:10155000FC3805080D0000007D9A010804040020F5
:1015600000000000643A05080800000000000000C8
:10157000F803002004000000683905080D00000091
:10158000C5990108EC030020000000006C3A050832
:101590000900000000000000E0030020040000003B
:1015A000183A05080300000089C70108D403002089
:1015B0000000000098350508010000000000000050
:1015C0000000000000000000000000000E0000000D
:1015D000000000000000000000000000743A050850
:1015E00000000000000000000000000000000000FB
:1015F000843A05080D0000000000000034040020BB
:10160000000000008C3A05080A00000000000000FD
:10161000404F002000000000983A05080A00000032
:1016200000000000484F002000000000A03A05081C
:101630000A00000000000000504F002000000000E1
:10164000A83A050808000000000000002804002057
:1016500000000000B03A050804000000BDC8010801
:10166000000000000000000098350508010000009F
:10167000000000000000000000000000000000006A
:101680000E0000000000000000000000000000004C
:10169000BC3A050800000000000000000000000047
:1016A00000000000D03A0508000000000000000023
:1016B0000000000000000000F03A050808000000EB
:1016C000000000008804002000000000F83A05082F
:1016D00008000000000000007C0400200000000062
:1016E000003B050808000000000000007004002016
:1016F00000000000083B0508080000000000000092
:101700006404002000000000103B050808000000F1
:101710000000000058040020000000001C3B0508E9
:1017200008000000000000004C0400200000000041
:10173000283B0508080000000000000040040020CD
:1017400000000000983505080100000000000000BE
:101750000000000000000000303B0508020000000F
:1017600011C9010802000000000000000000000094
:101770000E0000000000000000000000000000005B
:101780003C3B0508000000000000000000000000D5
:1017900000000000503B05080800000000000000A9
:1017A000D0040020000000005C3B05080800000099
:1017B00000000000C404002000000000683B050891
:1017C0000800000000000000B80400200000000035
:1017D000743B05080800000000000000AC04002075
:1017E00000000000803B0508080000000000000029
:1017F000A0040020000000008C3B05080800000049
:101800000000000094040020000000009835050846
:1018100001000000000000000000000000000000C7
:10182000000000000E0000000000000000000000AA
:1018300000000000983B05080000000000000000C8
:101840000F02002000000000A43B05080B00000070
:10185000000000006405002000000000B03B050807
:101860000B000000000000005805002000000000F0
:10187000BC3B05080B000000000000004C050020E8
:1018800000000000C83B05080B000000000000003D
:101890004005002000000000D43B05080B000000BC
:1018A000000000003405002000000000E03B0508B7
:1018B0000B000000000000002805002000000000D0
:1018C000EC3B05080B000000000000001C05002098
:1018D00000000000F83B05080B00000000000000BD
:1018E0001005002000000000043C05080B0000006B
:1018F000000000000405002000000000103C050866
:101900000700000000000000FC04002000000000B0
:10191000183C05080700000000000000F404002047
:1019200000000000243C05080B000000000000003F
:10193000E804002000000000303C0508080000001A
:1019400000000000DC0400200000000098350508BD
:101950000100000000000000000000000000000086
:10196000000000000E000000000000000000000069
:10197000000000003C3C05080000000000000000E2
:101980000000000000000000503C050808000000B6
:1019900000000000A0050020000000005C3C0508DD
:1019A0000800000000000000940500200000000076
:1019B000683C0508080000000000000088050020C1
:1019C00000000000743C0508080000000000000052
:1019D0007C05002000000000283B050808000000EE
:1019E0000000000070050020000000009835050888
:1019F00001000000000000000000000000000000E6
:101A0000000000000E0000000000000000000000C8
:101A100000000000803C05080000000000000000FD
:101A20000C02002000000000903C05080B000000A4
:101A300000000000E4050020000000009C3C0508B8
:101A40000700000000000000DC050020000000008E
:101A5000A83C05080700000000000000D405002095
:101A600000000000B43C0508070000000000000072
:101A7000CC05002000000000C03C05080800000064
:101A800000000000C005002000000000C83C050860
:101A90000800000000000000B40500200000000065
:101AA000D03C05080700000000000000AC05002045
:101AB000000000009835050801000000000000004B
:101AC0000000000000000000000000000E00000008
:101AD000000000000000000000000000DC3C0508E1
:101AE00000000000000000000C02002000000000C8
:101AF000E83C050807000000000000005406002034
:101B000000000000F03C0508070000000000000095
:101B10004C06002000000000F83C0508070000000B
:101B2000000000004406002000000000003D050801
:101B3000080000000000000038060020000000003F
:101B4000083D0508070000000000000030060020E6
:101B500000000000103D0508070000000000000024
:101B60002806002000000000183D050807000000BE
:101B7000000000002006002000000000203D0508B5
:101B80000800000000000000140600200000000013
:101B9000283D050807000000000000000C0600209A
:101BA00000000000303D05080700000000000000B4
:101BB0000406002000000000383D05080700000072
:101BC00000000000FC05002000000000403D05086A
:101BD0000800000000000000F005002000000000E8
:101BE000983505080100000000000000000000001A
:101BF00000000000000000000E00000000000000D7
:101C0000000000000000000000000000099E010824
:101C10005C060020D34900202B00000058D10408A6
:101C2000D249002000C80100D0490020E803D007B5
:101C30000100000048454C494F535052494E47005F
:101C40006D490020000301006C49002000030100E1
:101C5000519D0108299D010838070020E59C0108D5
:101C6000999C0108B0070020919D0108799D010809
:101C700064080020059C0108B99B0108840B002022
:101C80001F9E0108B5C50108600C0020059A0108D7
:101C900000000000B00C002099C8010809A101084B
:101CA0008C0D0020E99E0108AD9E0108400E002029
:101CB000599F0108259F0108300F0020DD9F010872
:101CC00029A00108E40F0020274B00200106010095
:101CD000799E0108459E0108241100208D9F01086E
:101CE000E5C50108C411002059A0010835C6010846
:101CF0008C1200201C4B002001030100483D050808
:101D000000000000000000000000000000000000D3
:101D1000543D05080800000000000000D813002012
:101D2000000000005C3D0508070000000000000006
:101D3000D0130020000000006C3D05080D000000DD
:101D400000000000C413002000000000783D0508DA
:101D50000300000089C70108B8130020000000003C
:101D60009835050801000000000000000000000098
:101D700000000000000000000E0000000000000055
:101D80000000000000000000803D05080000000089
:101D9000000000000000000000000000903D050869
:101DA0000A00000000000000983D05080000000047
:101DB000A03D05080A00000000000000F1F804083A
:101DC00000000000A83D05080A0000000000000017
:101DD000B64B002000000000B03D05080A000000DE
:101DE00000000000E4130020000000009835050802
:101DF00001000000000000000000000000000000E2
:101E0000000000000E0000000000000000000000C4
:101E100000000000B83D05080000000000000000C0
:101E20000000000000000000C43D050803000000A1
:101E300089C701081814002000000000D03D0508E3
:101E40000300000089C701080C14002000000000F6
:101E5000D83D05080300000089C7010800140020D0
:101E600000000000E03D0508050000000000000043
:101E70006B49002000000000E83D05080700000055
:101E800000000000F813002000000000F43D0508E9
:101E90000700000000000000F01300200000000018
:101EA0009835050801000000000000000000000057
:101EB00000000000000000000E0000000000000014
:101EC0000000000000000000003E050800000000C7
:101ED000000000000000000000000000143E0508A3
:101EE0000300000089C7010848140020000000001A
:101EF000203E05080300000089C7010834000020C7
:101F000000000000283E05080300000089C7010802
:101F10003C14002000000000303E050803000000D3
:101F200089C7010830140020000000006839050846
:101F30000300000089C701082414002000000000ED
:101F400098350508010000000000000000000000B6
:101F500000000000000000000E0000000000000073
:101F600000000000000000003C3E050800000000EA
:101F70000000000000000000000000004C3E0508CA
:101F80000700000091C60108A41400200000000012
:101F90008C3905080300000089C701089814002047
:101FA00000000000583E05080300000089C7010832
:101FB0008C14002000000000603E050803000000B3
:101FC00089C701088014002000000000683E050851
:101FD0000700000075C6010878140020000000000A
:101FE000684205080300000089C701086C1400203E
:101FF00000000000743E05080300000089C70108C6
:102000006014002000000000803E0508030000006E
:1020100089C7010854140020000000009835050805
:1020200001000000000000000000000000000000AF
:10203000000000000E000000000000000000000092
:1020400000000000D99D0108A99D0108AC140020E2
:10205000D5A001080000000038150020759C01087B
:10206000519C0108C4150020000000000000000081
:1020700078160020ADA00108ADC601081817002091
:10208000883E05080000000000000000000000007D
:1020900000000000943E05080300000089C7010805
:1020A00024180020000000009C3E050803000000EA
:1020B00089C70108181800200000000080270508C3
:1020C0000300000089C701080C1800200000000070
:1020D000A83E05080300000089C701080018002079
:1020E00000000000B43E05080300000089C7010895
:1020F000F417002000000000BC3E050802000000AC
:1021000011C901080000000000000000C43E0508DD
:102110000200000011C901080100000000000000D9
:10212000303B05080200000011C901080200000050
:1021300000000000000000000E0000000000000091
:1021400000000000000000004A49002088136F17BB
:10215000010000004C49002088136F1700000000A8
:10216000D03E050800000000000000000000000054
:1021700000000000E03E050808000000000000002C
:102180000419002004000000EC3E050808000000CF
:1021900000000000F818002000000000183A0508B0
:1021A00004000000B9C301080000000000000000A6
:1021B0009835050801000000000000000000000044
:1021C00000000000000000000E0000000000000001
:1021D00000000000000000004849002088136F172D
:1021E00001000000DC6C002088136F170000000065
:1021F000499B01080000000010190020E14E00205A
:102200000100000008D20408DE6C0020010000007C
:1022100014D20408D46C0020020000001CD2040870
:10222000EA6100200000000000000000E8610020DA
:102230000000000000000000E66100200000000037
:1022400000000000E4610020000000000000000029
:10225000E26100200000000000000000E0610020BA
:102260000000000000000000A41E0020000000008C
:1022700000000000474900200200000028D20408A6
:10228000283F0508000000000000000000000000DA
:1022900000000000E03E050808000000000000000B
:1022A0009419002004000000EC3E0508080000001E
:1022B000000000008819002000000000183A0508FE
:1022C00004000000199B010800000000000000004D
:1022D0009835050801000000000000000000000023
:1022E00000000000000000000E00000000000000E0
:1022F0000000000000000000383F0508000000005A
:10230000000000000000000000000000483F050839
:102310000D00000009C50108C419002004000000D8
:10232000543F05080D000000719B0108B8190020FA
:1023300004000000603F05080D000000CDC4010846
:10234000AC190020000000006C3F050803000000ED
:10235000CDA20108A019002008000000783F050860
:102360000300000089C70108C81C0020000000000D
:102370009835050801000000000000000000000082
:1023800000000000000000000E000000000000003F
:10239000000000000000000090350508000000006B
:1023A0000000000000000000000000004B330508A2
:1023B00004000000D1C3010800000000000000007C
:1023C0009835050801000000000000000000000032
:1023D00000000000000000000E00000000000000EF
:1023E0000000000000000000CC3F050800000000D5
:1023F000000000000000000000000000A409050823
:102400000D00000000000000241A0020040000005D
:10241000DC3F05080800000000000000181A00203A
:1024200004000000E83F050808000000000000006C
:102430000C1A002004000000F03F0508080000000E
:1024400000000000001A002004000000F83F05080A
:102450000800000000000000F41900200400000043
:10246000004005080800000000000000E8190020F6
:1024700004000000084005080800000000000000FB
:10248000DC190020040000001040050808000000CE
:1024900000000000D0190020040000009835050855
:1024A000010000000000000000000000000000002B
:1024B000000000000E00000000000000000000000E
:1024C00000000000319B010800000000301A0020CD
:1024D0000000000000000000A81A0020000000001A
:1024E00000000000481B0020DA6C002004000000FF
:1024F00034D20408D86C0020E0150C17000000004E
:10250000D76C00200800000020D80408D66C0020FA
:102510000500000048D20408000000000000000090
:10252000981B0020010102FFFF00000004030904C2
:1025300012010002EF020140830456320002010240
:102540000301000012010002020200408304405710
:10255000000201020301000009022000010104C081
:1025600032090400000208065005070581024000F8
:10257000000705010240000009026400030100C0D9
:1025800032090400000103000000092111010001CB
:102590002226000705830308000A080B0102020235
:1025A00001000904010001020201000524001001DC
:1025B0000524010002042402020524060102070585
:1025C00082030800FF09040200020A000000070558
:1025D000010240000007058102400000090243009B
:1025E000020100C0320904000001020201000524BA
:1025F0000010010524010001042402020524060044
:1026000001070582030800FF09040100020A000017
:10261000000705010240000007058102400000009C
:10262000FF00000000FFFF0000000000AA550501A8
:102630000000010005010905A101A1000501093003
:10264000093109320933093509340940093815813E
:10265000257F750895088102C0C00000090222008C
:10266000010100E032090400000103010200092118
:10267000110100012226000705830308000A00005B
:102680000000000001020304010203040607080918
:1026900069970208319E0208AD9902082D7502085B
:1026A000517702083D750208597502080575020840
:1026B000F574020800000000000000002D202D2D00
:1026C000202D2D2D2D202D2D2D2D00000000000062
:1026D0000000000000000000000000AA550B0100EF
:1026E00000AA5507010000AA5509020000000000D9
:1026F00001000000C012AA5503009F00FF1FFF1F2A
:102700000100000048730020000000000C2400209D
:1027100004000000B426050814430508000000006A
:102720001DE40208A0860100040000000000000073
:102730000000000000000000000000000000000099
:102740000000000000000000B42605080845050848
:102750000000000001800008E80300000400000001
:102760000000000000000000000000000000000069
:102770000000000000000000000000008C39050887
:1027800090050508000000003D0C03087D000000D6
:102790000600000000000000000000000000000033
:1027A0000000000000000000000000000000000029
:1027B0000C2605080000000000000000BDE600082F
:1027C000E80300000300000000000000000000001B
:1027D00000000000000000000000000000000000F9
:1027E0000000000010450508000000000000000087
:1027F000BDFB0308102700000300000000000000DC
:1028000000000000000000000000000000000000C8
:10281000000000000000000050400508000000001B
:10282000511601084DBC00085F760000050000004D
:102830000000000000000000000000000000000098
:1028400000000000000000000000000074280508DF
:10285000000000000000000005F200081027000042
:102860000100000000000000000000000000000067
:102870000000000000000000000000000000000058
:102880001C4505080000000000000000058000084D
:10289000E803000005000000000000000000000048
:1028A0000000000000000000000000000000000028
:1028B000000000002845050800000000000000009E
:1028C00055F70208204E0000030000000000000041
:1028D00000000000000000000000000000000000F8
:1028E000000000000000000038450508000000005E
:1028F0000000000041F50208204E00000300000027
:1029000000000000000000000000000000000000C7
:10291000000000000000000000000000484505081D
:10292000000000000000000051850008400D030079
:102930000300000000000000000000000000000094
:102940000000000000000000000000000000000087
:10295000782705080000000000000000ED41030892
:10296000102700000100000000000000000000002F
:102970000000000000000000000000000000000057
:1029800000000000242605080000000000000000F0
:1029900065DE0108102700000300000000000000B1
:1029A0000000000000000000000000000000000027
:1029B000000000000000000058450508000000006D
:1029C00000000000B5270108A086010001000000FA
:1029D00000000000000000000000000000000000F7
:1029E0000000000000000000000000008C36050818
:1029F0000000000000000000950E0208A861000021
:102A000001000000000000000000000000000000C5
:102A100000000000000000000000000000000000B6
:102A200060450508000000000000000069FA010888
:102A3000A08601000100000000000000000000006E
:102A40000000000000000000000000000000000086
:102A5000000000007C2805080000000000000000C5
:102A600055220208A00F0000010000000000000035
:102A70000000000000000000000000000000000056
:102A800000000000000000006C4505080000000088
:102A900000000000B1A301081027000001000000A1
:102AA0000000000000000000000000000000000026
:102AB0000000000000000000000000008027050862
:102AC000000000000000000099BB02081A4100004D
:102AD00001000000000000000000000000000000F5
:102AE00000000000000000000000000000000000E6
:102AF000DC28050800000000000000005D7D0208E1
:102B0000102700000100000000000000000000008D
:102B100000000000000000000000000000000000B5
:102B2000000000002843050800000000000000002D
:102B300091CA01081A4100000100000000000000D5
:102B40000000000000000000000000000000000085
:102B500000000000000000007845050800000000AB
:102B60000000000011B70208400D03000000000043
:102B70000000000000000000000000000000000055
:102B80000000000000000000000000008045050873
:102B90000000000000000000510E0208400D03007C
:102BA0000000000000000000000000000000000025
:102BB0000000000000000000000000000000000015
:102BC000884505080000000000000000E1EB010856
:102BD00050C30000030000000000000000000000DF
:102BE00000000000000000000000000000000000E5
:102BF00000000000944505080000000000000000EF
:102C0000B5F4020840420F00000000000000000080
:102C100000000000000000000000000000000000B4
:102C20000000000000000000A045050800000000B2
:102C3000000000002544030850C30000000000000D
:102C40000000000000000000000000000000000084
:102C5000000000000000000000000000000200056D
:102C60001002700B00000000D08600200800000059
:102C700000000000C086002008000000B97A0208A9
:102C8000857602088999020800000000F1740208A4
:102C90003DA102086D7A0208C196020800000000FA
:102CA00000000000AD740208417402083574020887
:102CB0000D8E0208298E0208F18D0208D58D0208BA
:102CC000B98D0208717A020861760208C998020873
:102CD00000000000C5740208C5960208417A020887
:102CE000219602080000000000000000B9740208EC
:102CF0000000803F00000000000000000000000015
:102D0000FCDF0408050804000000000048D20408A5
:102D100020D8040834D2040800000000000000009D
:102D200028E0040805080A000000000048D2040852
:102D300020D8040824D1040800000000000000008E
:102D40001A03000000000000000000000000000066
:102D5000000000000000000000000000040309045F
:102D6000120100020000004083042057000201020B
:102D700003010000E1710308555303085153030890
:102D80004D530308FD5C03084953030845530308EA
:102D9000F4E10408DDA0020841760208C59F02089C
:102DA0000000000000000000F995020815950208D7
:102DB000000000000000000000000000A1740208F4
:102DC000ED530308E15303084D62030869620308E9
:102DD00099530308316203081562030801000000DB
:102DE0005001000007000000020000000000000089
:102DF00000000000010203040607080908000000A3
:102E0000317402082D740208297402081D74020826
:102E100019740208257402082174020801000000D8
:102E2000006002401060024000000000000000004E
:102E3000000B000000000000000000000000000087
:102E40000060024028600240010000000000000015
:102E5000060C000000000000000000000000000060
:102E600000600240406002400200000000000000DC
:102E7000100D000000000000000000000000000035
:102E800000600240586002400300000000000000A3
:102E9000160E00000000000000000000000000000E
:102EA000006002407060024004000000000000006A
:102EB000200F0000000000000000000000000000E3
:102EC0000060024088600240050000000000000031
:102ED00026100000000000000000000000000000BC
:102EE00000600240A06002400600000000000000F8
:102EF0003011000000000000000000000000000091
:102F000000600240B86002400700000000000000BE
:102F1000362F00000000000000000000000000004C
:102F20000064024010640240000000000000000045
:102F30000038000000000000000000000000000059
:102F4000006402402864024001000000000000000C
:102F50000639000000000000000000000000000032
:102F600000640240406402400200000000000000D3
:102F7000103A000000000000000000000000000007
:102F8000006402405864024003000000000000009A
:102F9000163B0000000000000000000000000000E0
:102FA0000064024070640240040000000000000061
:102FB000203C0000000000000000000000000000B5
:102FC0000064024088640240050000000000000028
:102FD0002644000000000000000000000000000087
:102FE00000640240A06402400600000000000000EF
:102FF000304500000000000000000000000000005C
:1030000000640240B86402400700000000000000B5
:103010003646000000000000000000000000000034
:103020000000803F000000000000000000000000E1
:103030000000803F000000000000000000000000D1
:103040000000000000000000000000000000000080
:103050000000000000000000010000000000803FB0
:103060000000000000000000000000000000803FA1
:1030700001000000282800200000000000000000DF
:103080000000000000000000000000000000000040
:103090000000000000000000000000000000000030
:1030A0000000000000000000000000000000000020
:1030B0000000000000000000000000000000000010
:1030C0000000000000000000000000000000000000
:1030D00000000000000000000100000000000000EF
:1030E00000000000000000000000000000000000E0
:1030F00000000000000000000000000000000000D0
:1031000000000000000000000000000000000000BF
:1031100000000000000000000000000000000000AF
:10800000704700BF38B50B4C23688BB15A68821A91
:10801000002A054604DA0BE05A68AA1A002A07DB90
:108020009A68226018461A6890472368002BF3D19B
:1080300038BD00BF682C0020436A8269D154436A6E
:108040000169C26B01338B4228BF00234362DAB15E
:10805000EFF31183502282F31288C26B1168C907B3
:108060000ED470B45468FCB9D0E909518D4211D1D5
:10807000012280F86020DBB283F3118870BC704766
:10808000DBB283F311887047C26DD36843F080037D
:10809000D360704786690E44D6600ED9691A516064
:1080A0008562002180F86010116841F00101DBB2A7
:1080B000116083F3118870BC70470569691A5160BB
:1080C0008462EEE7034610B4846BD968406954B10A
:1080D0001A6D8C1A013A005D5DF8044B08BF0A4620
:1080E000C0B21A6570471A6A805C01328A4228BFA2
:1080F0002246C0B21A625DF8044B7047C36B13B1DD
:1081000090F860007047D0E90903181AB0FA80F0BF
:1081100040097047D0E909120369914238BFC91874
:108120008A1AC16B013B19B149680A449A4201D2CB
:10813000981A704700207047836B43B1026D5B68EB
:108140009A4291BF981AC0689B1AC0187047D0E92C
:1081500007239A422FBFD01AC0688018C01A7047F0
:108160000A4B30B503F1140493F900205D78072A17
:10817000C8BF143A811804338D7213F8025C855419
:1081800013F8012C0A759C42EED130BD90A804086A
:1081900003682DE9F0415D6A1DB12B46BDE8F04151
:1081A0001847002A174611DD04460E460F4400E02A
:1081B00023689B68204698470028F9D0236816F862
:1081C000011B1B6820469847BE42F1D1BDE8F081F3
:1081D00003681B69184700BF002327220270437001
:1081E0008370C370704700BF0028F0B403DA2D23FA
:1081F0000B7040420131092804464FF0010307DDAE
:1082000003EB83035B00B0FBF3F2092AF8D883B1D8
:108210000F48A0FB0326B4FBF3F2092A02F1570C26
:1082200002F1300709DD03FB1244F30801F801CB2A
:10823000EFD100230B70F0BC704703FB1244F3082E
:1082400001F8017BE5D100230B70F0BC704700BF43
:10825000CDCCCCCC884270B44FF0010442D301FBAA
:1082600004F4B0FBF4F58D42F9D2ECB142BB092D18
:1082700004FB150005F1570605F130020EDDB4FBD5
:10828000F1F403F8016B7CB1B0FBF4F5092D04FBAC
:10829000150005F1570605F13002F0DCB4FBF1F4EE
:1082A00003F8012B002CEFD100221A7070BC70472C
:1082B00003F8016BB4FBF1F4002CF5D0B0FBF4F53E
:1082C000092D04FB150005F1370605F13002EFDC3E
:1082D000B4FBF1F403F8012B002CEFD100221A704B
:1082E00070BC70470546002AEAD1C0E72DE9F04787
:1082F00014461D4606464FF47A720023204629464E
:1083000040F0FCFB4D4BDFF850814D4A4D4F03448C
:1083100088FB03101844D91782FB032CC1EB6010B3
:1083200088FB002887FB03279C44474AC1EBEC2CC1
:10833000C0EB001E82FB0C29A3EB8E0E1F44434AA8
:1083400086F806E0C1EB27474FEAEC7E08EB000A0F
:10835000CEEBA90E82FB07824FEAE0780EEB4E0EC1
:10836000C8EB6A18ACEBCE0CC8EB0818DFF8ECE0F1
:1083700086F804C0A0EB880070718EFB0303F81729
:10838000C0EBE21240F2B55000FB1272C1EBE353B6
:10839000B2F5896F4FEA83073FDA40F2DA239A4257
:1083A00043DCB2F5B77FB4BF4FF0000E4FF0010EC3
:1083B0004FEA4E08264B08EB0E0103EBC1031FFAF0
:1083C0008EFC588D234908EB0E0301EBC3011631D7
:1083D0000B2301E031F8020D90421BDD013BF9D186
:1083E0001B4BC64403EBCE0E0123BEF81400B37042
:1083F00007F5FA670132121ABC44F270A6F800C001
:10840000204629464FF47A72002340F077FB3281F0
:10841000BDE8F0870133DBB2E9E74FF0030CE64635
:1084200040F296504FF00608CCE74FF0020CE646BB
:1084300040F229404FF00408C4E700BF80BC92C757
:10844000C5B3A29107452EC2ABAAAA2A73B06D1676
:1084500090A80408A4A8040889888888792D0311A5
:1084600030B403888278174DC478A3F5FA6303F01B
:10847000030101EB4101013A02EB810205EB4202EB
:10848000611E958A027940F2B5549B0804FB0313E0
:108490002B4403EB430302EBC303427984790A497B
:1084A0000089C3EB031302EB83032144C3EB0313E3
:1084B00001EB83034FF47A720021C2FB030130BC4D
:1084C000704700BF90A8040880436D3803685A1CA9
:1084D00002601970704700BF2DE9F047089C2578AD
:1084E000002B804689460CBF4FF0200A4FF0300A1F
:1084F000661C25B3002A26DD334601E0024698B10A
:1085000013F8011B501E0029F8D1971E60B13D469B
:10851000013D51464046C8476B1C002BF8DC2578CE
:1085200027EAE770013045B1041B29464046C84799
:10853000301916F8015B002DF7D1BDE8F087002A4D
:1085400003DC2846F9E70020EEE7571EDFE700BF0F
:108550002DE9F0478C4A8D4B12781C78D2070646DD
:1085600048D58B4D012C00F091801ED3022C40F099
:108570009B808849884A09881288884F914201D98E
:1085800001241C70EB7AFBB12B89EBB1844B1B7877
:10859000D3B126F0ABFE002800F0E2802B7B8342B3
:1085A0002CBF012300233B700FE0DFF8E8C17B4FB5
:1085B0007C4CBCF800002288697B521A8242DFDAC8
:1085C000EB7A0024002BDFD13B782A79632A07D885
:1085D0007549022C087800F0B880002840F0A0808F
:1085E0007249AA7A9C4238BF1C460C70002A44D1BA
:1085F000BDE8F087DFF89CC1654DBCF80000BCF811
:10860000021095F803E06A4F411A0029A4F1030211
:10861000B8BF4942704597F80080D2B211D32F7885
:1086200087420ED3012A45D9B8F1020F9AD15C488E
:10863000604A007890800229CCBF00210121D180BE
:1086400090E7B0EB4E0FEDDC012A40F28C8002295E
:10865000EADC0324514F524852494F4A1C70B8F18A
:10866000020F4FF000033C7003700B80138089D120
:10867000504A01219380D18084E7012C6BD0022CD9
:10868000B6D10720BDE8F04727F0ECBD424A41498A
:108690001288687B0988121A914207DD414A1288C4
:1086A0008A423CBF00241C703C4F6BE702241C70C4
:1086B0003A4F67E70229B7DC95F800E090FBFEFE31
:1086C0000EF1010EBEF1080FDFF8D4A0AA78697888
:1086D000DFF8C490334C314FA8BF4FF0080E8AF832
:1086E00000E01FFA8EFA11FB0AF112FB0AF2DFF822
:1086F000B8A0A9F8001092B200214FF06409B8F1B7
:10870000020F228039701970CAF804108AF801909B
:108710007FF452AF274A0121A2F804E0D18048E754
:108720004868301A244EB042C8BF4A703FF758AF6D
:10873000C2F16402214E00FB02F086FB0062C0170A
:10874000A0EBA250643048704AE70028E8D1012726
:108750004E600F70ECE70820BDE8F04727F082BDBF
:1087600002233B7031E7032C7FF471AFB8F1020FA5
:108770009AD10B4A0F4B12789A800229CCBF002164
:108780000121D980054FFDE6B8D600208484002061
:10879000486A0020306A002088840020E484002099
:1087A000366A0020868400208C840020DC6D002046
:1087B0009DAF0020A0AF00207F9698006BCA5F6B32
:1087C00070B53C4B3C481A785B783C493C4C3D4D7D
:1087D00002EB420203EBC30301EB430300EB421243
:1087E0002B6022603DF0C8FB00213022364840F06B
:1087F00053FC20683AF018F8344B256803F17801EF
:1088000002E006338B4252D01A78002AF9D19C78C4
:10881000D878844202D358790028F2D02C492D4BC5
:108820000C792D4EC820642111FB040159602B4C9A
:108830002B4832700021C3E90211C3E90411C3E9D6
:10884000061183F8201083F82110264B0560236061
:108850000DF0C4F9A3889FED245A244AA1799FED15
:10886000246A507906EE903AF8EEE66A1388C5EE6F
:10887000265A07EE103A1F4B1960538812791E4989
:1088800007EE903AB8EEC77A1C4BC1ED005AF8EEED
:10889000E77A18725A7227EE067A67EE867ABDE892
:1088A000704083ED017AC3ED007A14F0F5BD01222A
:1088B000B4E700BFF8BD0020E24900203A4B002099
:1088C000C06F0020C46F002008DC0020F8330020B7
:1088D000E04F00200C6A0020202800209028002073
:1088E0003CDC002086D60020C0C9FB48045500208F
:1088F00017B7D1388CD9002090D9002064D9002036
:1089000030B50446C06D21718389A26823F40053F9
:108910001B041B0C838185B06379009213F0040F54
:108920004FEA03324FEA03230CBF00254FF4805572
:1089300003F4806302F40052ADF80450ADF808303F
:10894000002511F00103ADF80620ADF80C501CD144
:10895000ADF80A3008238A07694648BFADF80A30E7
:1089600022F03AF9637913F0080FE36D9A8A05BF94
:1089700022F00802120442F00802120C9A829A892C
:1089800042F400529A8105B030BD0423ADF80A309C
:108990000C23E0E730B50446C06DA160838923F461
:1089A00000531B041B0C8381637985B013F0040F03
:1089B000009108BF0025217918BF4FF48055ADF80C
:1089C00004501A0300251B0203F48063ADF80A501B
:1089D000ADF80C50CD07ADF8083002F4005244BF9A
:1089E0000423ADF80A30ADF806204CBF0C23082351
:1089F0008A07694648BFADF80A3022F0EDF863797E
:108A000013F0080FE36D9A8A05BF22F008021204E2
:108A100042F00802120C9A829A8942F400529A811A
:108A200005B030BDF8B50468C4F30D0405460E4624
:108A300004B32F6821F08CFB092840F08880454C56
:108A4000236923F440732361236943F40073236192
:108A5000236943F0010323613E6021F079FB236920
:108A6000092823F00103236171D12B6804332B60A3
:108A7000002035E0384B394A93422BD902F5804229
:108A8000934226D902F5804293422AD902F58042C8
:108A9000934228D902F58032934226D902F500325A
:108AA000934224D902F50032934222D902F50032D2
:108AB000934220D902F5003293421ED902F580225A
:108AC00093421CD9B3F1016F1BD332F0D7FE30F0C3
:108AD00097FA082421F03CFB092814D04FF0FF300E
:108AE000F8BD1024F6E71824F4E72024F2E7282440
:108AF000F0E73024EEE73824ECE74024EAE74824A6
:108B0000E8E75824E6E7134F3B6923F440733B61E1
:108B10003B6943F400733B613B6923F0F8033B611D
:108B20003B6943F002031C433C613B6943F48033DF
:108B30003B6121F00DFB3B6923F002033B613B6984
:108B4000092823F0F8033B613FF473AFC6E76FF0E9
:108B50000100C5E7003C024000400008FF3F00085C
:108B6000F8B504460D468E180027B542206900D19D
:108B7000F8BDE368591CE160234415F8012B1A7213
:108B80000429F2D118B9A1682046FFF74BFFC4E9C8
:108B90000370EAE702280FD8094A0A4B0A4910B4C1
:108BA00000EB40041070013003EB4413C0B25DF8D9
:108BB000044B0B6027F094BB0130C0B227F090BB90
:108BC000F8BD0020E2490020C06F0020DFED2B7AC5
:108BD000B4EEE70AF1EE10FA4ADDDFED296A9FED07
:108BE000297A01E0B0EE670AB4EEC70AF1EE10FA96
:108BF00070EE667AF6DC9FED247AF4EEC77AF1EE39
:108C000010FA38D5DFED1E6A9FED207A01E0F0EE14
:108C1000407AF4EEC77AF1EE10FA37EEA60AF6D4EF
:108C2000DFED1B7AB4EEE70AF1EE10FA14DDDFEDAA
:108C3000137A37EEC00A60EE006A9FED166A9FED68
:108C4000167ADFED167AA6EE867A20EE266AE6EE32
:108C5000877AA6EE270A7047DFED117AB4EEE70AAD
:108C6000F1EE10FA44BFDFED087A37EEC00AE2E712
:108C7000F0EE407ABFE7B0EE670AD1E7DB0F49407C
:108C8000DB0FC940E4CB1641DB0F49C0E4CB16C172
:108C9000DB0FC93F92E741B99730083C15A82ABEBF
:108CA000DB0FC9BF074B1B7853B9074B00F12002FC
:108CB00050F8041B43F8041B9042F9D1012070477F
:108CC00000207047403100204131002010B5154C84
:108CD00094F84230002B144B14BF012200221A706A
:108CE0000BD0042204F12801104840F013FA14229A
:108CF00004F12D010E4840F00DFA94F84330002B9A
:108D00000C4B14BF012200221A7009D00A4B0B4AE7
:108D100003F1200153F8040B42F8040B8B42F9D104
:108D200010BD00BF9028002061310020623100207A
:108D30006731002040310020982800204131002078
:108D40000B4B1B7810B58BB90A4B0B4A03F1200172
:108D500053F8040B42F8040B8B42F9D1074B012462
:108D600083F84340FFF7B2FF204610BD0020FCE728
:108D70004031002041310020982800209028002018
:108D800038B50C4B1B789BB90B4D0C49042205F1EF
:108D9000280040F0BFF901241422094905F12D00F3
:108DA00040F0B8F985F84240FFF790FF204638BD03
:108DB0000020FCE761310020902800206231002073
:108DC00067310020F0B50C2934D8DFE801F08A3390
:108DD00033335F333333343333330700048C9689B2
:108DE000B2F802C01788744D24F480542404240C73
:108DF0000484038C8488818B23F4005321F4E6419E
:108E00001B0409041B0C46EA0C06090C43EA063352
:108E100041EA0721A8429BB2A4B289B200F09E8029
:108E200005F58065A84200F099809268848081836E
:108E300002640384F0BD048C9589B2F802E01788BF
:108E40005D4E24F480742404240C0484038CB0F854
:108E500004C0818B23F400731B0421F0730145EAE5
:108E60000E041B0C090443EA0423090CB0429BB214
:108E70001FFA8CF541EA07015BD0504CA04258D054
:108E8000926885808183C2630384F0BD048C9589D8
:108E9000B2F802E0B2F800C0474E24F010042404F7
:108EA000240C0484038C8788018B23F0200321F495
:108EB000E6411B0409041B0C45EA0E04090C43EAB5
:108EC000041341EA0C21B0429BB2BFB289B25BD01D
:108ED0003A4CA04258D09268878001838263038411
:108EE000F0BD048C9589B2F802C01788324E24F088
:108EF00001042404240C0484018C8488038B21F055
:108F0000020123F0730309041B04090C45EA0C0554
:108F10001B0CB04241EA0501A4B243EA070324D086
:108F2000264DA84221D09268848003834263018445
:108F3000F0BDD489168A578A23F4006343EA0423D8
:108F40004FF6FF341C40938825F440553E4344EAD5
:108F5000032345EA06149BB2A5B291E7158A24F4CF
:108F6000804444EA8514A4B25FE7D689158A578AFB
:108F700021F008013143968824F4407421F0040163
:108F80003D4331432C43CEE7D489168AB2F812C050
:108F900023F0800343EA04134FF6BF741C40938808
:108FA00027F4406546EA0C0644EA031345EA8604C2
:108FB0009BB2A7B28FE700BF000001400004014050
:108FC0002DE9F84FA022904C9048914DDFF860A217
:108FD000904FDFF86082DFF86092002140F05CF88B
:108FE0008D48DFF858C2DFF858E204F1FC06A346CA
:108FF000DBF80030AB4200F0E280B3F1804F00F0CC
:10900000E080BB4200F0DF80634500F0EA807345FA
:1090100000F0E980434500F0E8804B4500F0E78030
:109020007E4A934200F0E58002F57052934200F0D0
:10903000E28002F58062934200F0DF8002F58062F8
:10904000934200F0DC80A2F59832934200F0D98080
:1090500002F58062934200F0958002F580629342AF
:1090600008BF0D2300F08F800BF1240B5E45BFD1AC
:109070006B4E6C4D4FF003094FF00208A379002BA3
:109080007AD023791F09013F032F03F00F0373D810
:1090900036F8170040FA03F2D2076DD54FF0010AF7
:1090A0000AFA03F3013B18403FF078FD5E4BDB5DAD
:1090B000184415EBC0075FD055F830305B48217A73
:1090C00003F13F4202F57E02920A825C02F01F0029
:1090D0005209032A0AFA00FA7DD0042A75D0022A1E
:1090E00004D14D48426C4AEA02024264B7F804C017
:1090F000BCFA8CF2C2F11F0292B2D00803EB8000DE
:1091000002F00702076A92004FF00F0E0EFA02FEFD
:1091100027EA0E070762076A01FA02F23A4302627F
:109120004FF0010E00220EFA02F737EA0C0120D1AF
:109130005000D3F800A009FA00F1C9430AEA010A75
:10914000C3F800A0D3F800A008FA00F040EA0A0033
:10915000186098680840986098689860586820EA95
:1091600007075F6058685860D8680140D960D968BF
:10917000D9600132102AD6D12434A3457FF47EAFC2
:10918000BDE8F88F0C230AEBC30301211B7903F020
:109190001F025B09032B01FA02F208D0042B0AD04C
:1091A000022B7FF461AF416C0A4342645CE7016CBF
:1091B0000A43026458E7016B0A43026354E7002341
:1091C000E1E70123DFE70223DDE71348026B4AEA08
:1091D000020202638AE71048026C4AEA0202026451
:1091E00084E70323CFE70423CDE70523CBE706235A
:1091F000C9E70723C7E70823C5E70923C3E70A230D
:10920000C1E70B23BFE700BF20EC0408B0830020B8
:10921000000001400004004000380240000401400A
:109220001CED0408B4AF002024ED040828ED040868
:1092300060ED0408001000400014004000080040E9
:10924000000C004000B9704703682DE9F04F03F1AE
:109250003F4404F57E04534EA40A0125345D04F016
:109260001F066409032C05FA06F500F09580042C0E
:1092700000F08D80022C45D08588B5FA85F0C0F1CC
:109280001F0080B2C40803EB840400F00700266AC4
:1092900080000F27874026EA07062662276A01F02A
:1092A00003068240701E3A4301282262C1F3810EF8
:1092B000C1F300184FF000024FEA51114FF0010CBA
:1092C00025D94FF0030E0CFA02F0A84315D1500037
:1092D0001F680EFA00F4E44327401F60D3F80080B3
:1092E00006FA00F747EA08071F60DF683C40DC60C9
:1092F000DC6801FA00F02043D8600132102AE2D184
:10930000BDE8F08F284C666C35436564B4E74FF0D8
:1093100003090CFA02F737EA050033D15000D3F8FD
:1093200000A009FA00F4E4430AEA040AC3F800A022
:10933000D3F800B006FA00FA4AEA0B0AC3F800A014
:10934000D3F808A004EA0A0AC3F808A0D3F808B0C2
:109350000EFA00FA4AEA0B0AC3F808A0D3F804A0F0
:109360002AEA07075F60D3F804A008FA02F747EA81
:109370000A075F60DF683C40DC60DC6801FA00F0EF
:109380002043D8600132102AC3D1BDE8F08F064CCB
:10939000266B354325636FE7034C266C3543256404
:1093A0006AE700BF28ED04080038024003682DE991
:1093B000F04F03F13F4404F57E04534EA40A012507
:1093C000345D04F01F066409032C05FA06F500F06D
:1093D0009580042C00F08D80022C46D08588B5FA4B
:1093E00085F0C0F11F0080B2C40803EB840400F0D4
:1093F0000700266A80000F27874026EA07062662B4
:10940000276A01F0030602FA00F0721E3843012AAF
:10941000C1F3810EC1F3001820624FEA51114FF0E1
:1094200000024FF0010C25D94FF0030E0CFA02F0A8
:10943000A84315D150001F680EFA00F4E4432740FA
:109440001F60D3F8008006FA00F747EA08071F609C
:10945000DF683C40DC60DC6801FA00F02043D86043
:109460000132102AE2D1BDE8F08F284C666C3543FA
:109470006564B3E74FF003090CFA02F737EA050019
:1094800033D15000D3F800A009FA00F4E4430AEA0B
:10949000040AC3F800A0D3F800B006FA00FA4AEABA
:1094A0000B0AC3F800A0D3F808A004EA0A0AC3F81C
:1094B00008A0D3F808B00EFA00FA4AEA0B0AC3F87B
:1094C00008A0D3F804A02AEA07075F60D3F804A035
:1094D00008FA02F747EA0A075F60DF683C40DC6091
:1094E000DC6801FA00F02043D8600132102AC3D1B1
:1094F000B9E7064C266B354325636FE7034C266CB2
:10950000354325646AE700BF28ED040800380240AF
:1095100010B50409013C032C17D80E4B33F8142066
:1095200000F00F0042FA00F313F001030FD0012303
:1095300003FA00F0013810403FF030FB064A074BB9
:10954000125D104403EBC00010BD002010BD184692
:1095500010BD00BF1CED040824ED0408B4AF0020CA
:109560002DE9F8432F4D2B8AB5F80C8018EA030833
:1095700027D02D4E4FF00047B8FA88F327FA03F2B0
:10958000D24391B21B3B08EA02082982042B15D86A
:10959000DFE803F0352B22190300D6F89C30002BAE
:1095A00037D1EB6A1FFA83F9D6F8984034B12368B3
:1095B0002046494698476468002CF8D1B8F1000F5E
:1095C000DAD1BDE8F883B06F696B036889B2984758
:1095D000B8F1000FD0D1F4E7F06FA96B036889B23E
:1095E0009847B8F1000FC7D1EBE7D6F88000E96BD8
:1095F000036889B29847B8F1000FBDD1E1E7D6F80A
:109600008400296C036889B29847B8F1000FB3D180
:10961000D7E703F1FF3900231FFA89F9C6F89C3018
:10962000C2E700BF00180040B08300202DE9F843D6
:109630002C4D2B8AB5F80C8018EA030825D02A4E49
:109640004FF00047B8FA88F327FA03F2D24391B2F9
:109650001B3B08EA02082982042B13D8DFE803F039
:10966000322920170300736F002B34D1EB6A1FFAE5
:1096700083F9346F34B123682046494698476468BB
:10968000002CF8D1B8F1000FDCD1BDE8F883306DC3
:10969000696B036889B29847B8F1000FD2D1F4E73B
:1096A000706DA96B036889B29847B8F1000FC9D1F2
:1096B000EBE7B06DE96B036889B29847B8F1000F2A
:1096C000C0D1E2E7F06D296C036889B29847B8F120
:1096D000000FB7D1D9E703F1FF3900231FFA89F949
:1096E0007367C6E700040140B08300202DE9F8430A
:1096F0002C4D2B8AB5F80C8018EA030825D02A4E89
:109700004FF00047B8FA88F327FA03F2D24391B238
:109710001B3B08EA02082982042B13D8DFE803F078
:10972000322920170300736F002B34D1EB6A1FFA24
:1097300083F9346F34B123682046494698476468FA
:10974000002CF8D1B8F1000FDCD1BDE8F883306D02
:10975000696B036889B29847B8F1000FD2D1F4E77A
:10976000706DA96B036889B29847B8F1000FC9D131
:10977000EBE7B06DE96B036889B29847B8F1000F69
:10978000C0D1E2E7F06D296C036889B29847B8F15F
:10979000000FB7D1D9E703F1FF3900231FFA89F988
:1097A0007367C6E700040140B08300202DE9F84349
:1097B0002C4D2B8AB5F80C8018EA030825D02A4EC8
:1097C0004FF00047B8FA88F327FA03F2D24391B278
:1097D0001B3B08EA02082982042B13D8DFE803F0B8
:1097E000322920170300F36C002B34D1EB6A1FFAE7
:1097F00083F9B46C34B123682046494698476468BD
:10980000002CF8D1B8F1000FDCD1BDE8F883B06AC4
:10981000696B036889B29847B8F1000FD2D1F4E7B9
:10982000F06AA96B036889B29847B8F1000FC9D1F3
:10983000EBE7306BE96B036889B29847B8F1000F2A
:10984000C0D1E2E7706B296C036889B29847B8F120
:10985000000FB7D1D9E703F1FF3900231FFA89F9C7
:10986000F364C6E700080040B08300202DE9F84308
:109870002C4D2B8AB5F80C8018EA030825D02A4E07
:109880004FF00047B8FA88F327FA03F2D24391B2B7
:109890001B3B08EA02082982042B13D8DFE803F0F7
:1098A000322920170300736A002B34D1EB6A1FFAA8
:1098B00083F9346A34B1236820464946984764687E
:1098C000002CF8D1B8F1000FDCD1BDE8F883306886
:1098D000696B036889B29847B8F1000FD2D1F4E7F9
:1098E0007068A96B036889B29847B8F1000FC9D1B5
:1098F000EBE7B068E96B036889B29847B8F1000FED
:10990000C0D1E2E7F068296C036889B29847B8F1E2
:10991000000FB7D1D9E703F1FF3900231FFA89F906
:109920007362C6E700000140B08300202DE9F843D0
:109930002C4D2B8AB5F80C8018EA030825D02A4E46
:109940004FF00047B8FA88F327FA03F2D24391B2F6
:109950001B3B08EA02082982042B13D8DFE803F036
:10996000322920170300736A002B34D1EB6A1FFAE7
:1099700083F9346A34B123682046494698476468BD
:10998000002CF8D1B8F1000FDCD1BDE8F8833068C5
:10999000696B036889B29847B8F1000FD2D1F4E738
:1099A0007068A96B036889B29847B8F1000FC9D1F4
:1099B000EBE7B068E96B036889B29847B8F1000F2C
:1099C000C0D1E2E7F068296C036889B29847B8F122
:1099D000000FB7D1D9E703F1FF3900231FFA89F946
:1099E0007362C6E700000140B0830020F0B506684E
:1099F0003F4CB30AA3426CD065D93E4CA3425AD027
:109A00000134A34256D1702702254379B6F80CE001
:109A1000022023FA00F4A0401FFA80FCA80023468D
:109A2000441903EB4403344C002955D04CEA0E0C86
:109A300003F1040E44F8231044F82E20A6F80CC0BD
:109A4000E319EFF31181502282F31288421904EBDB
:109A5000C202D2F810C0BCF1000F03D044F807C016
:109A600013690433421904EBC202576917B11F602E
:109A700053690433421904EBC202976917B11F609E
:109A800093690433421904EBC202D76917B11F600E
:109A9000D36904330027CAB21F6082F311882844B7
:109AA00004EBC004236A4BB9B38923F001031B0400
:109AB0001B0CB381F0BD20270025A6E7B38943F036
:109AC0000103B381F0BD043CA342F3D14827012533
:109AD0009BE79827032598E72EEA0C0C03F1040E68
:109AE000A6F80CC044F8231044F82E20A8E700BFC5
:109AF0000600100040001000B083002010B503687D
:109B00007C487D4C0139834282B0246889B200F0E0
:109B1000AF80A0F58060834200F0AA8000F580400D
:109B2000834200F0818000F5806083427CD000F5A4
:109B30008060834278D018886408B4FBF2F4013C5A
:109B4000A4B282B2B3F1804F0AD06C48834207D0EE
:109B500000F58060834203D000F58060834202D12B
:109B600022F0700292B26648834200F08F8000F5C6
:109B70008060834200F0938022F4407200F56C40D4
:109B800092B283421A80D9621C8540F091800121F3
:109B900000221A86998219885A4841F001018342AD
:109BA000198049D0B3F1804F00F08D80534A934221
:109BB00000F08B8002F58062934200F0888002F50D
:109BC0008062934200F0858002F58062934200F04B
:109BD000828002F5806293427FD002F57042934208
:109BE0007DD002F5705293427BD002F580629342A1
:109BF00079D002F58062934277D0A2F598329342F1
:109C000075D002F58062934215D002F580629342CE
:109C100008BF0D2210D002A84FF0012340F8043DE8
:109C200020F07CFB02B010BD1888B4FBF2F4013CBC
:109C3000A4B282B286E70C22334B03EBC20201A826
:109C400054798DF80440012300228DF805308DF8F9
:109C500007308DF8062020F061FB1B2C0FD02E2C36
:109C6000E0D12A4B019301A820F058FB02B010BDAF
:109C70001888B4FBF2F4013CA4B282B270E7244B22
:109C8000019301A820F04AFB02B010BD01201A8008
:109C9000D9621C8598821A8802431A8086E70120BF
:109CA0001A80D9621C8598821A8802431A8079E743
:109CB000104A93423FF46BAF01229A821A8842F015
:109CC00001021A806EE70122B6E70222B4E70322FE
:109CD000B2E70422B0E70522AEE70622ACE707228E
:109CE000AAE70822A8E70922A6E70A22A4E70B228E
:109CF000A2E700BF0004014008BF002000040040AC
:109D0000001000400000014060ED04082C0100013B
:109D1000190100012B4B98423CD0B0F1804F3BD051
:109D2000A3F57C43984239D003F58063984237D03D
:109D300003F58063984235D003F58063984233D0B1
:109D400003F58063984233D003F57043984231D0D5
:109D500003F57053984229D003F5806398422BD0C5
:109D600003F58063984229D0A3F59833984227D011
:109D700003F58063984207D003F58063984208BFDB
:109D80000D2202D0002070470C220F4B03EBC203C0
:109D9000187970470022F8E70122F6E70222F4E77B
:109DA0000322F2E70422F0E70522EEE70822ECE7BF
:109DB0000622EAE70722E8E70922E6E70A22E4E7C3
:109DC0000B22E2E70000014060ED040830B40024FB
:109DD0000F4A2346254604E00133072B0DD012F825
:109DE000244C30EA040402F12402F5D1A94207D040
:109DF00001330135072BEDB2F1D1002030BC7047A3
:109E0000044A03EBC30302EB830330BC18797047A9
:109E10004AEC040820EC0408B8B10C4A2621884218
:109E20004FF0000302F1240208D00133072B0BD0BE
:109E300012F8241C884202F12402F6D1044803EBF4
:109E4000C30300EB830070470020704748EC040810
:109E500020EC0408224B5B68C3F3080330B4D3B989
:109E6000EFF31183BBB91F4A1F4D20481368846864
:109E700011688B42FAD129688C42F7D81C4A1168C4
:109E80004FF47A7202FB01F0001B30BCB0FBF1F022
:109E900002FB03007047EFF31182102383F3128853
:109EA00003F1E023D2B29C68196811F4803F114994
:109EB0001EBF012008609C680A4B18680B6882F37B
:109EC00011880B4A11684FF47A72034402FB01F0C7
:109ED000001B30BCB0FBF1F002FB0300704700BF79
:109EE00000ED00E03CB1002050BB002010E000E09D
:109EF0004CBB002048BB00202DE9F84F8046274C82
:109F0000274DDFF8A490274EFFF7A4FFDFF89CE071
:109F1000DFF89CC04FF0100A4FF47A77DCF8043079
:109F2000C3F30803CBB9EFF31183B3B92368A9686E
:109F300022689342FAD132689142F7D8DEF80020C5
:109F400007FB02FBABEB0101B1FBF2F107FB0313D3
:109F50001B1A4345E2D3BDE8F88FEFF311818AF372
:109F60001288D5F808B02B68DB0304D50123C9F8A3
:109F70000030D5F808B02368D9F80020C9B281F3C1
:109F80001188DEF80010134407FB01F2A2EB0B026C
:109F9000B2FBF1F207FB0323DAE700BF3CB100207C
:109FA00010E000E050BB002048BB00204CBB00206C
:109FB00000ED00E0064B53F820302BB11A689B8867
:109FC00051690B4201D1138370475383704700BF1F
:109FD000A0B800202DE9F04FDFF834C1494CDFF87C
:109FE00034E1DFF83481484E824648481AF1FF3A9E
:109FF000C0F08680DCF80430C3F30803002B5ED188
:10A00000EFF31183002B5AD10568A26803689D42C3
:10A01000FAD133689A42F7D8DEF800704FF47A71BB
:10A0200001FB07F39B1AB3FBF7F301FB0535DCF8E3
:10A030000430C3F308034FF010094FF47A77F3B9F3
:10A04000EFF31183DBB90368A16802689342FAD188
:10A0500032689142F7D8DEF8002007FB02FBABEB39
:10A060000101B1FBF2F107FB03135B1BB3F57A7F30
:10A07000BCD2DCF80430C3F30803002BE0D0EFF3CC
:10A08000118189F31288D4F808B02368DB0304D562
:10A090000123C8F80030D4F808B00368D8F80020CD
:10A0A000C9B281F31188DEF80010134407FB01F2F6
:10A0B000A2EB0B02B2FBF1F207FB0323D5E7EFF3B0
:10A0C0001183102282F31288A1682268D20303D57B
:10A0D0000122C8F80020A168D0F80090D8F80050FC
:10A0E000DBB283F31188DEF800704FF47A724D44CE
:10A0F00002FB07F35B1AB3FBF7F302FB053596E7A8
:10A10000BDE8F08F10E000E050BB00203CB1002023
:10A1100000ED00E04CBB002048BB002030B4EFF362
:10A120001183102282F31288084809490268094DF8
:10A13000094C013202608A682A6000222260DBB288
:10A140000A6883F3118830BC704700BF3CB100201F
:10A1500010E000E050BB002048BB002038B5254B84
:10A160001C69A26BE36D62B1E26BC2B1998A1A8875
:10A17000C90592B204D5D20744BF4FF6F7721A80D0
:10A1800038BD99891A88890692B2EDD59206EBD529
:10A19000E26AFAB19888216B9047E36DE4E7998908
:10A1A0001A880D0692B2E1D51006DFD5D4E909125E
:10A1B0008A420AD0A1692569885C98800132B2FB85
:10A1C000F5F105FB1122A262D0E7DA6822F08002E5
:10A1D000DA60CBE79B88E2696169DBB28B54E269A4
:10A1E000E068E36D0132B2FBF0F100FB1122E261A5
:10A1F000BAE700BF040B001038B5254BDC68A26B32
:10A20000E36D62B1E26BC2B1998A1A88C90592B254
:10A2100004D5D20744BF4FF6F7721A8038BD99892A
:10A220001A88890692B2EDD59206EBD5E26AFAB1A8
:10A230009888216B9047E36DE4E799891A880D06A9
:10A2400092B2E1D51006DFD5D4E909128A420AD0CC
:10A25000A1692569885C98800132B2FBF5F105FBA4
:10A260001122A262D0E7DA6822F08002DA60CBE73E
:10A270009B88E2696169DBB28B54E269E068E36D57
:10A280000132B2FBF0F100FB1122E261BAE700BF3C
:10A29000040B001038B5254B9C68A26BE36D62B1CE
:10A2A000E26BC2B1998A1A88C90592B204D5D20765
:10A2B00044BF4FF6F7721A8038BD99891A8889060B
:10A2C00092B2EDD59206EBD5E26AFAB19888216B8D
:10A2D0009047E36DE4E799891A880D0692B2E1D5BB
:10A2E0001006DFD5D4E909128A420AD0A16925698E
:10A2F000885C98800132B2FBF5F105FB1122A26265
:10A30000D0E7DA6822F08002DA60CBE79B88E26966
:10A310006169DBB28B54E269E068E36D0132B2FB44
:10A32000F0F100FB1122E261BAE700BF040B00105C
:10A3300038B5254B5C68A26BE36D62B1E26BC2B1CC
:10A34000998A1A88C90592B204D5D20744BF4FF63C
:10A35000F7721A8038BD99891A88890692B2EDD5AC
:10A360009206EBD5E26AFAB19888216B9047E36DCB
:10A37000E4E799891A880D0692B2E1D51006DFD577
:10A38000D4E909128A420AD0A1692569885C9880BB
:10A390000132B2FBF5F105FB1122A262D0E7DA68C7
:10A3A00022F08002DA60CBE79B88E2696169DBB268
:10A3B0008B54E269E068E36D0132B2FBF0F100FB1F
:10A3C0001122E261BAE700BF040B001038B5254B3B
:10A3D0001C68A26BE36D62B1E26BC2B1998A1A8804
:10A3E000C90592B204D5D20744BF4FF6F7721A805E
:10A3F00038BD99891A88890692B2EDD59206EBD5B7
:10A40000E26AFAB19888216B9047E36DE4E7998995
:10A410001A880D0692B2E1D51006DFD5D4E90912EB
:10A420008A420AD0A1692569885C98800132B2FB12
:10A43000F5F105FB1122A262D0E7DA6822F0800272
:10A44000DA60CBE79B88E2696169DBB28B54E26931
:10A45000E068E36D0132B2FBF0F100FB1122E26132
:10A46000BAE700BF040B00100368DB6A03B11847AA
:10A47000704700BF03689B6A03B11847704700BF6D
:10A4800003682DE9F0415D6A1DB12B46BDE8F0413E
:10A490001847002A174611DD04460E460F4400E017
:10A4A00023689B68204698470028F9D0236816F84F
:10A4B000011B1B6820469847BE42F1D1BDE8F081E0
:10A4C00003689B69184700BF03685B69184700BFB2
:10A4D0000368DB68184700BF03689B68184700BF24
:10A4E00003685B68184700BF03681B68184700BF14
:10A4F000014B586CF8E700BF9028002038B50C4697
:10A50000097849B1054601342B6828461B689847ED
:10A5100014F8011B0029F7D138BD00BF2DE9F04F19
:10A520004A484B494B4B4C4C4FF0010A4FF0020943
:10A530004FF004084FF0080E4FF0100C2027402673
:10A54000802530F8022B12F0010F03D01960A3F818
:10A5500004A0083312F0020F03D01960A3F804908E
:10A56000083312F0040F03D01960A3F804800833F5
:10A5700012F0080F03D01960A3F804E0083312F0BA
:10A58000100F03D01960A3F804C0083312F0200F95
:10A5900002D019609F80083312F0400F02D019607A
:10A5A0009E80083312F0800F02D019609D8008331E
:10A5B00012F4807F05D04FF4807B1960A3F804B0BB
:10A5C000083312F4007F05D04FF4007B1960A3F824
:10A5D00004B0083312F4806F05D04FF4806B19601B
:10A5E000A3F804B0083312F4006F05D04FF4006BE9
:10A5F0001960A3F804B0083312F4805F05D04FF45B
:10A60000805B1960A3F804B0083312F4005F05D032
:10A610004FF4005B1960A3F804B0083312F4804FC4
:10A6200005D04FF4804B1960A3F804B00833D20B67
:10A6300004D04FF4004219609A80083301F580611C
:10A64000A1427FF47EAFBDE8F08F00BF1CED04088F
:10A6500000000240B4AF00200010024000B9704773
:10A66000036803F13F4202F57E022DE9F04F920AA2
:10A67000464DAA5C02F01F0552090124032A04FA80
:10A6800005F47ED0042A77D0022A30D001F00306E8
:10A69000721E012AC1F3810EC1F300188588C1F32F
:10A6A00041114FF000024FF0010C25D94FF0030E7D
:10A6B0000CFA02F0A84315D150001F680EFA00F4FE
:10A6C000E44327401F60D3F8008006FA00F747EA0A
:10A6D00008071F60DF683C40DC60DC6801FA00F0BE
:10A6E0002043D8600132102AE2D1BDE8F08F284A19
:10A6F000556C2C435464C9E74FF003090CFA02F778
:10A7000037EA050033D15000D3F800A009FA00F46D
:10A71000E4430AEA040AC3F800A0D3F800B006FA3A
:10A7200000FA4AEA0B0AC3F800A0D3F808A004EA2A
:10A730000A0AC3F808A0D3F808B00EFA00FA4AEAE9
:10A740000B0AC3F808A0D3F804A02AEA07075F6041
:10A75000D3F804A008FA02F747EA0A075F60DF6847
:10A760003C40DC60DC6801FA00F02043D860013234
:10A77000102AC3D1BDE8F08F054A156B2C43146332
:10A7800084E7034A156C2C4314647FE728ED040822
:10A790000038024010B1036882885A83704700BFB6
:10A7A00010B1036882881A83704700BF18B103682C
:10A7B000828809B95A8370471A83704710B40A4BCC
:10A7C0000A4A1C7801238340234052F8200029B90B
:10A7D000B3FA83F149095DF8044BE7E7191C18BF88
:10A7E00001215DF8044BE1E798B80020A0B80020F3
:10A7F00008B501210220FFF7E1FF0C4B1B7803F0A5
:10A800000503052B0ED000210120FFF7D7FF002103
:10A810000846FFF7D3FF3220FFF7DCFB0220FFF7EB
:10A82000C9FBF8E73AF092FDEDE700BFE0850020B4
:10A830000E4B1B8801463BB90D4B0E4A1B78106826
:10A840000BB981F00101B1E70B4B5A691AB11A68D3
:10A8500010B910605874704708480949008891FB86
:10A86000F0F1012011605874704700BF24BB002034
:10A8700026BB002028BB00202CBB002044BB0020AE
:10A8800020A107002DE9F04F85B0CDE90210A94DB8
:10A89000DFF8C4A2029B013B0293013300F0C9829E
:10A8A00030F04CFEA44CDFF8B4B2DFF8A8C2A34EDF
:10A8B0004FF4FA7301934FF0100EDCF80430C3F339
:10A8C0000803002B40F08B81EFF31183002B40F045
:10A8D00086812068AA6823689842FAD133689A4230
:10A8E000F7D8DBF800704FF47A7101FB07F39B1A7D
:10A8F000B3FBF7F301FB00304FF47A774FF0010818
:10A90000DCF80430C3F30803002B40F04981EFF377
:10A910001183002B40F044812368A9682268934288
:10A92000FAD132689142F7D8DBF8002007FB02F930
:10A93000A9EB0101B1FBF2F107FB03131B1AB3F5FD
:10A940007A7FDDD3019B013B0193B6D17C4E039B03
:10A9500031787C4F01337868C1F34001DBB2019359
:10A96000FFF724FF31783868C94301F00101FFF790
:10A970001DFF019B013BDBB2FF2B019300F0C78160
:10A98000704B5A6832B11368928859690A4214BFF1
:10A990005A831A836B4B1A6832B1136892885969CB
:10A9A0000A4214BF5A831A83674B1B88002B40F05E
:10A9B0009F81664A664B11781868FFF7F7FEFA2305
