:020000040800F2
:10000000F0FF0010C171040819CB0208F5D90008EF
:100010005D7204085D7204085D720408000000004F
:1000200000000000000000000000000025CB0208D6
:1000300021CB0208000000001DCB02087DA80008AB
:100040005D7204085D7204085D7204085D72040844
:100050005D7204085D72040869E00008A9E1000807
:1000600069E1000829E10008E9E00008556D03088E
:10007000456D0308356D0308256D0308116D0308F0
:10008000FD6C0308E96C03085D7204085D720408E6
:100090005D7204085D7204085D720408A9E000083E
:1000A0005D720408CD9F00085D7204088DA00008F1
:1000B0005D7204085D7204080D9F00080173030857
:1000C00009730308F5720308FD7203085D720408E2
:1000D0005D7204082DAB000891AA0008F5A900087C
:1000E00029E000085D72040879190308C19C000822
:1000F0008D9D00085D7204084D9E0008D56C0308B4
:100100005D7204085D7204085D7204085D72040883
:1001100059A90008BDA80008356601082166010834
:10012000C16C0308AD6C0308B9650308996C03083A
:10013000856C03085D7204085D7204085D72040832
:100140005D7204085D7204085D72040861E30208D0
:10015000716C03085D6C0308496C03085D72040848
:10016000E9720308F17203085D7204085D72040805
:100170005D7204085D7204085D7204085D72040813
:080180005D7204085D720408C1
:08018800686D04000100000095
:100190001A023C00B4280020642C0020000000005B
:1001A000F925030827000400B0280020A02C002017
:1001B00000000000F406000807020200E42F0020FF
:1001C0002830002000000000F806000802000C00A3
:1001D000B82F00202C30002000000000000000009C
:1001E00006020C00AC2F0020383000200000000078
:1001F0002527030808120900302F00204430002072
:10020000000000003D1E0308F70106002A2F002011
:100210005030002000000000FA0600080A020A0020
:10022000982E002058300020000000000007000831
:1002300003000100742E0020643000200000000044
:100240000000000003123300C33E0020903E002057
:10025000000000000C07000825009600443D002027
:10026000DA3D00200000000000000000F6210C0034
:10027000243B0020D43C0020000000004007000880
:1002800015007000F43B0020643C002000000000DA
:10029000000000002A006000343B0020943B002056
:1002A00000000000A10204082C001000703E002095
:1002B000803E002000000000DDBD01082B0024006E
:1002C0001A3F0020F63E002000000000ADBD0108EE
:1002D00029106400443A0020E03C002000000000A7
:1002E0000000000014000300D0390020303B002043
:1002F000000000004C070008101002006C380020BD
:10030000843F002000000000500700082810100063
:1003100010350020883F00200000000085A1010862
:100320002300100034340020983F0020000000001B
:100330009DA10108F82106008A350020A83F002071
:1003400000000000520700080E402001A6500020C7
:10035000B458002000000000C90204081300040083
:10036000A4550020D45900200000000058070008C0
:100370000101040026500020D85900200000000090
:1003800000000000000104001E500020DC59002085
:10039000000000005C070008020103001950002063
:1003A000E059002000000000690301080902010073
:1003B000E8570020E4590020000000006007000812
:1003C0000C106C0000520020E859002000000000D2
:1003D00041030108010205002E500020545A00205C
:1003E00000000000B5390208000205002855002071
:1003F0005C5A002000000000000000001B02080002
:10040000BC570020645A002000000000DD1D0308D6
:1004100001200800A05600206C5A002000000000B7
:10042000620700081900050050570020745A002088
:10043000000000006A07000837001E00285700204F
:100440007C5A002000000000700700081E00050014
:10045000E85200209C5A0020000000008E0700088F
:100460001B00F400B83F0020A45A00200000000048
:10047000794A02080E02020038560020985B0020DC
:1004800000000000940700082F001100955800207C
:100490009C5B002000000000960700080510060085
:1004A000B47100209C76002000000000A80700081E
:1004B000F531700014710020A476002000000000C7
:1004C0004D44020826000E002477002014770020F7
:1004D000000000006DBE02080B201000246E0020FA
:1004E0005877002000000000AE0700081F201C0005
:1004F000746500206877002000000000BE07000837
:1005000005020400DC700020847700200000000059
:10051000DA07000803010A00DC6D0020887700205C
:1005200000000000DE07000813020300DC63002067
:100530009477002000000000E80700081002010086
:10054000389100203491002000000000EC070008E2
:100550001600080034B000203CB00020000000006D
:10056000EE0700080400800034D70020ECD70020FC
:1005700000000000000000000D003400D0D6002074
:100580006CD80020000000007D740308FD011E00EF
:100590000CCE0020A0D800200000000059820008E6
:1005A00018202C00DCCD0020C0D800200000000066
:1005B000C12603080610180038C10020ECD800201E
:1005C0000000000025030408FB01010034C10020E5
:1005D00004D900200000000095260308FC01090052
:1005E00000C0002008D9002000000000A526030854
:1005F0003400100028BF002014D9002000000000A3
:10060000F90204081102080000BF002024D90020CC
:1006100000000000F607000812120400F8BE0020D7
:100620002CD9002000000000FE07000812200D0059
:10063000E8BE002030D900200000000002080008B9
:10064000F90104008CB9002040D90020000000000E
:10065000D18200081802020090B3002044D9002083
:10066000000000000000000017020B0084B300200F
:1006700048D9002000000000F91D0308FA0102001B
:1006800060B3002054D9002000000000611F03085F
:10069000020203009CB0002058D900200000000096
:1006A000000000000C02030058B000205CD90020BC
:1006B00000000000E91D0308FE01090030B300201E
:1006C00060D9002000000000751E03080A403000B9
:1006D000DCB200206CD900200000000010080008E7
:1006E0001A000E00A4410120584201200000000021
:0406F00040080008B6
:1006F40020030000023C3F010000000000004A010A
:10070400B400D60126000000000000000000000034
:1007140000000000000000000000000000000000D5
:1007240000000000000000000000000000000000C5
:1007340000000000000000000000010000000000B4
:100744000100000002020000030000000005020195
:10075400F401190008044430FA0000000000E80322
:100764006400040A00010000280100002000320097
:10077400C800D0079600140032002800B0044006D8
:100784000005500014000F000801000001000000E3
:100794000000000000000000000000000000000055
:1007A400000000002000010100002B21231E640131
:1007B4000100000001000A012900000000000001FE
:1007C400000000050000010203000000000000001A
:1007D40000000000000000000000040101006C168D
:1007E40000000000000000000000C409000019011E
:1007F40028280000000001010101FFFFFFFF0000A5
:10080400000100000548455350000000003001007D
:1008140000000100000000000000000000000000D3
:100824000000020000019E077D0020000100B80BBB
:10083400B80BB80B20005000500050007E05EA05AC
:0A084400B4053200E803D0070000FD
:10084E00010102FFFF00000001000000D1FB0008C3
:10085E0000000000000000000000803F00000000CB
:10086E000000000000000000FF000000000000007B
:10087E0018300020080000000000000008300020A2
:10088E00080000002492040805080400000000007F
:10089E00ECBA0408CCBB0408D8BA04080000000067
:1008AE00000000005092040805080A000000000035
:1008BE00ECBA0408CCBB0408CCB904080000000054
:1008CE0000000000D6010000BDAF010800000000CE
:1008DE0000000000010000000001010100006A009C
:1008EE000101FFFFFFFFFFFF00000100E00101011A
:1008FE0001000000893D02080000000028020020CF
:10090E00682505080000000000000000000000003F
:10091E0000000000D01A05080000000000000000D2
:10092E00BE02002004000000142505080D00000082
:10093E0015680208AC1C0020000000007C1E050893
:10094E000D0000003D680208A01C00200000000001
:10095E00DC1F05080800000000000000941C0020A9
:10096E0004000000E81E05080D0000003D3E0208D0
:10097E00881C002000000000901F050803000000E6
:10098E002D6A02087C1C0020000000007825050856
:10099E00030000002D6A0208701C002000000000F9
:1009AE00181B0508010000000000000000000000F8
:1009BE0000000000000000000E000000000000001B
:1009CE00000000000000000068250508000000007F
:1009DE00000000000000000000000000D01A050812
:1009EE000000000000000000BE0200200400000015
:1009FE00C0240508030000005D450208641C0020A9
:100A0E0008000000E81E05080D0000003D3E02082B
:100A1E00881C002000000000901F05080300000045
:100A2E002D6A02087C1C00200000000078250508B5
:100A3E00030000002D6A0208701C00200000000058
:100A4E00181B050801000000000000000000000057
:100A5E0000000000000000000E000000000000007A
:100A6E0000000000000000008025050800000000C6
:100A7E00000000000000000000000000D01A050871
:100A8E000000000000000000BE0200200400000074
:100A9E00C8240508030000002D6A0208B81C0020B7
:100AAE0000000000181B05080100000000000000F7
:100ABE000000000000000000000000000E0000001A
:100ACE000000000000000000000000002070002068
:100ADE00702D7200FFFFFFFF010000000000803F3D
:100AEE000800000000000000000000002018002098
:100AFE00FA0000000100000001000000FFFF2D20A1
:100B0E002D2D202D2D2D2D202D2D2D000000000002
:100B1E0000000000000000000000000000000000C7
:100B2E00FFFFFFFFEC1A0508F41A0508101B050855
:100B3E0000000000000000000000000000000000A7
:100B4E00EA18050804000000DD6502080000000038
:100B5E0000000000181B0508010000000000000046
:100B6E000000000000000000000000000E00000069
:100B7E00000000000000000000000000D4D700209C
:100B8E000100C40900000000D2D700200100C409F2
:100B9E0000000000D0D700200100C40900000000B2
:100BAE00CED700200100C40900000000CAD70020E3
:100BBE000100C40900000000CCD700200100C409C8
:100BCE0000000000C8D700200100C409000000008A
:100BDE00C6D700200100C4090000000040500020CC
:100BEE000100C800010000003E50002032003075A8
:100BFE00320000003C500020055A050039500020FC
:100C0E0000FF01003B50002001000000E402002024
:100C1E003750002002000000F8BB040838500020B6
:100C2E0000FF01003A50002001000000E402002005
:100C3E003650002002000000F8BB04082C500020A3
:100C4E0080C1803E050000002A50002080C1803EF9
:100C5E00050000002450002080C1803E05000000E9
:100C6E002250002080C1803E050000001C50002054
:100C7E0000FF0100185000200A320100175000201A
:100C8E0004000000ACB90408165000200200000059
:100C9E00C0B904080000000000000000EC020020B3
:100CAE008C7000209CFF2C0100000000AE00002084
:100CBE000A000000CCB904080C500020E0150C17F7
:100CCE0000000000B000002008000000CCBB0408AB
:100CDE00AF00002005000000ECBA04080E50002002
:100CEE0002000000E4B90408805200200100FF7FDA
:100CFE00010000007F52002002000000F0B904083D
:100D0E00D25100200000C20101000000CE5100208F
:100D1E000000C20101000000D05100200000C201FD
:100D2E0001000000CA5100200000803E3200000089
:100D3E00C85100200000803E32000000C651002045
:100D4E000000803E32000000CC51002000002C013B
:100D5E0001000000DE5100200000F401010000003F
:100D6E00DC5100200000F40101000000DA510020E7
:100D7E000000F40101000000D85100200000F40131
:100D8E0001000000D65100200000803E010000004E
:100D9E00D45100200000803E01000000FC510020D4
:100DAE00E803D0070A000000FA5100200064010099
:100DBE000A000000EF51002000640100EE510020F7
:100DCE0000640100F6510020006401000A000000DA
:100DDE00F5510020006401000A000000F4510020CB
:100DEE00006401000A000000F951002000640100B7
:100DFE000A000000F8510020006401000A00000003
:100E0E00F7510020006401000A000000F351002099
:100E1E0000FF01000A000000F251002000FF010057
:100E2E000A000000F151002000FF01000A0000003E
:100E3E00A25000200000F40101000000A05000208C
:100E4E000000F401010000009E5000200000F4019B
:100E5E00010000009C5000200000F4010100000081
:100E6E00EA5100201400E80301000000E8510020C0
:100E7E00E80330750A000000E751002000C80100A9
:100E8E00E651002000C80100E551002000C8010015
:100E9E00E4510020006401000A000000E25100202D
:100EAE000000D007010000007552002000C80100AC
:100EBE007452002000C801007352002000C80100C7
:100ECE007252002000C801007152002000C80100BB
:100EDE007052002000C801006F52002000C80100AF
:100EEE006E52002000C801006D52002000C80100A3
:100EFE00401B05080000000000000000000000007C
:100F0E000000000064EE040809000000000000006C
:100F1E0090030020040000006CEE0408090000009D
:100F2E00000000008403002004000000AC2205082D
:100F3E0009000000000000007803002004000000FB
:100F4E00C219050809000000000000006C03002013
:100F5E0004000000501B05080900000000000000FE
:100F6E006003002004000000581B05080900000063
:100F7E00000000005403002004000000601B050860
:100F8E0009000000000000004803002004000000DB
:100F9E00681B050809000000000000003C0300204B
:100FAE0004000000181B05080100000000000000EE
:100FBE000000000000000000000000000E00000015
:100FCE00000000000000000000000000681D050881
:100FDE000000000000000000000000000000000003
:100FEE00200C05080700000000000000B4030020DC
:100FFE0000000000781D0508080000000000000039
:10100E00A803002000000000841D05080800000051
:10101E00000000009C03002000000000181B0508C3
:10102E0001000000000000000000000000000000B1
:10103E00000000000E000000000000000000000094
:10104E00000000008C1D05080000000000000000DC
:10105E0000000000000000009C1D05080D000000AF
:10106E0000000000F003002000000000A41D050891
:10107E000D00000000000000E4030020000000004E
:10108E00AC1D05080700000000000000DC03002076
:10109E0000000000B41D05080D0000000000000057
:1010AE00D003002000000000BC1D05080D0000004C
:1010BE0000000000C403002000000000C41D05084D
:1010CE000700000000000000BC030020000000002C
:1010DE00181B0508010000000000000000000000C1
:1010EE0000000000000000000E00000000000000E4
:1010FE000000000000000000CC1D050800000000EC
:10110E00000000000000000000000000200C050898
:10111E000C00000000000000425000200000000003
:10112E00E01D05080C0000000000000044500020E7
:10113E0000000000F01D05080C000000000000007B
:10114E007A50002000000000001E05080C00000070
:10115E00000000006E50002000000000141E050864
:10116E000C000000000000004650002000000000AF
:10117E00201E05080C000000000000004850002052
:10118E0000000000281E05080C00000000000000F2
:10119E004A500020000000003C1E05080C00000014
:1011AE00000000004C50002000000000441E050806
:1011BE000C000000000000004E5000200000000057
:1011CE004C1E05080C000000000000008C50002092
:1011DE0000000000641E05080C0000000000000066
:1011EE005050002000000000701E05080C0000008A
:1011FE0000000000525000200000000074EE0408B1
:10120E000C00000000000000545000200000000000
:10121E00781E05080C00000000000000565000204B
:10122E0000000000841E05080C00000000000000F5
:10123E005850002000000000901E05080C00000011
:10124E00000000005A500020000000009C1E0508FF
:10125E000C000000000000005C50002000000000A8
:10126E00A81E05080C000000000000005E500020C3
:10127E0000000000B41E05080C0000000000000075
:10128E007250002000000000BC1E05080C0000007B
:10129E00000000007050002000000000C41E050871
:1012AE000C000000000000007E5000200000000036
:1012BE00D01E05080C000000000000008050002029
:1012CE0000000000DC1E05080C00000000000000FD
:1012DE0086500020000000000C1C05080C000000C9
:1012EE00000000006050002000000000E81E05080D
:1012FE000C000000000000006850002000000000FC
:10130E00F01E05080C0000000000000062500020D6
:10131E0000000000FC1E05080C000000000000008C
:10132E006450002000000000081F05080C0000009B
:10133E00000000006650002000000000101F05088D
:10134E000C000000000000006A50002000000000A9
:10135E00400C05080C000000000000007450002036
:10136E00000000001C1F05080C000000000000001B
:10137E006C50002000000000581A05080C000000F8
:10138E00000000007C50002000000000281F05080F
:10139E000C0000000000000076500020000000004D
:1013AE00301F05080C0000000000000078500020DF
:1013BE0000000000381F05080C00000000000000AF
:1013CE008250002000000000401F05080C000000A5
:1013DE00000000008450002000000000181B0508CB
:1013EE0001000000000000000000000000000000EE
:1013FE00000000000E0000000000000000000000D1
:10140E0000000000481F050800000000000000005A
:10141E000000000000000000541F05080D00000031
:10142E000000000048040020000000005C1F0508BA
:10143E000D000000000000003C0400200000000031
:10144E00641F05080700000000000000340400209F
:10145E0000000000701F05080700000000000000DB
:10146E002C040020000000007C1F0508090000006D
:10147E00000000002004002000000000881F050866
:10148E00090000000000000014040020000000000D
:10149E00941F050809000000000000000804002049
:1014AE0000000000A41F0508090000000000000055
:1014BE00FC03002000000000181B050801000000BE
:1014CE00000000000000000000000000000000000E
:1014DE000E000000000000000000000000000000F0
:1014EE00B81F05080000000000000000000000000A
:1014FE0000000000C81F05080500000000000000E5
:10150E009B50002000000000181B05080100000081
:10151E0000000000000000000000000000000000BD
:10152E000E0000000000000000000000000000009F
:10153E00D01F0508000000000000000000000000A1
:10154E0000000000D01A0508000000000000000096
:10155E00541E002004000000BE1905080D000000F6
:10156E00416602089C0400200000000014250508B6
:10157E000D000000413D0208900400200000000014
:10158E007C1E05080D000000253D02088404002085
:10159E0000000000DC1F050808000000000000002D
:1015AE007804002004000000E81E05080D0000006D
:1015BE006D3C02086C04002000000000E41F0508CA
:1015CE00090000000000000060040020040000007C
:1015DE00901F0508030000002D6A02085404002025
:1015EE0000000000181B05080100000000000000AC
:1015FE000000000000000000000000000E000000CF
:10160E00000000000000000000000000EC1F0508B4
:10161E0000000000000000000000000000000000BC
:10162E00FC1F05080D00000000000000B40400209F
:10163E0000000000042005080A0000000000000061
:10164E000056002000000000102005080A000000CF
:10165E0000000000085600200000000018200508B9
:10166E000A000000000000001056002000000000DC
:10167E00202005080800000000000000A80400203B
:10168E00000000002820050804000000616B02081D
:10169E000000000000000000181B050801000000FB
:1016AE00000000000000000000000000000000002C
:1016BE000E0000000000000000000000000000000E
:1016CE0034200508000000000000000000000000AB
:1016DE000000000048200508000000000000000087
:1016EE00000000000000000068200508080000004F
:1016FE000000000008050020000000007020050812
:10170E000800000000000000FC04002000000000A3
:10171E00782005080800000000000000F0040020FA
:10172E0000000000802005080800000000000000F6
:10173E00E4040020000000008820050808000000D6
:10174E0000000000D80400200000000094200508CE
:10175E000800000000000000CC0400200000000083
:10176E00A02005080800000000000000C0040020B2
:10177E0000000000181B050801000000000000001A
:10178E000000000000000000A82005080200000074
:10179E00B56B02080200000000000000000000000F
:1017AE000E0000000000000000000000000000001D
:1017BE00B42005080000000000000000000000003A
:1017CE0000000000C820050808000000000000000E
:1017DE005005002000000000D4200508080000007D
:1017EE00000000004405002000000000E020050875
:1017FE000800000000000000380500200000000076
:10180E00EC20050808000000000000002C05002058
:10181E0000000000F820050808000000000000008D
:10182E00200500200000000004210508080000002B
:10183E00000000001405002000000000181B050821
:10184E000100000000000000000000000000000089
:10185E00000000000E00000000000000000000006C
:10186E00000000001021050800000000000000002C
:10187E008F020020000000001C2105080B00000054
:10188E0000000000E40500200000000028210508EB
:10189E000B00000000000000D80500200000000032
:1018AE00342105080B00000000000000CC050020CC
:1018BE0000000000402105080B00000000000000A1
:1018CE00C0050020000000004C2105080B000000A0
:1018DE0000000000B405002000000000582105089B
:1018EE000B00000000000000A80500200000000012
:1018FE00642105080B000000000000009C0500207C
:10190E0000000000702105080B0000000000000020
:10191E0090050020000000007C2105080B0000004F
:10192E00000000008405002000000000882105084A
:10193E0007000000000000007C05002000000000F1
:10194E00902105080700000000000000740500202B
:10195E00000000009C2105080B00000000000000A4
:10196E006805002000000000A821050808000000FE
:10197E00000000005C05002000000000181B050898
:10198E000100000000000000000000000000000048
:10199E00000000000E00000000000000000000002B
:1019AE0000000000B4210508000000000000000047
:1019BE000000000000000000C8210508080000001B
:1019CE00000000001406002000000000D4210508CD
:1019DE0008000000000000000806002000000000C3
:1019EE00E02105080800000000000000FC050020B2
:1019FE0000000000A0200508080000000000000004
:101A0E00F005002000000000181B05080100000072
:101A1E0000000000000000000000000000000000B8
:101A2E000E0000000000000000000000000000009A
:101A3E00EC21050800000000000000008C020020D0
:101A4E0000000000FC210508080000000000000056
:101A5E005C06002000000000082205080B000000B4
:101A6E0000000000500600200000000014220508AF
:101A7E0007000000000000004806002000000000E3
:101A8E00202205080700000000000000400600208C
:101A9E00000000002C2205080700000000000000D6
:101AAE00380600200000000038220508080000005B
:101ABE00000000002C060020000000004022050857
:101ACE0008000000000000002006002000000000BA
:101ADE00181B0508010000000000000000000000B7
:101AEE0000000000000000000E00000000000000DA
:101AFE000000000000000000482205080000000061
:101B0E00000000008C020020000000005422050896
:101B1E000700000000000000A806002000000000E2
:101B2E005C2205080700000000000000A00600204F
:101B3E0000000000642205080700000000000000FD
:101B4E0098060020000000006C2205080700000027
:101B5E00000000009006002000000000742205081E
:101B6E0007000000000000008806002000000000B2
:101B7E007C220508070000000000000080060020FF
:101B8E00000000008422050807000000000000008D
:101B9E0078060020000000008C22050807000000D7
:101BAE0000000000700600200000000094220508CE
:101BBE000700000000000000680600200000000082
:101BCE00181B0508010000000000000000000000C6
:101BDE0000000000000000000E00000000000000E9
:101BEE00000000000000000000000000B1400208EC
:101BFE00B0060020995000202A00000000BA040808
:101C0E009850002000C8010096500020E803D0072D
:101C1E000100000048454C494F535052494E470071
:101C2E003550002000030100345000200003010055
:101C3E00F93F0208D13F02088C0700208D3F0208B1
:101C4E00413F0208040800203940020821400208E2
:101C5E00B8080020AD3E0208613E0208C40B002009
:101C6E00C740020865680208A00C0020AD3C0208BF
:101C7E0000000000F00C00203D6B020899430208A2
:101C8E00CC0D00208541020849410208800E00203B
:101C9E00F5410208C1410208700F00207942020886
:101CAE00C542020824100020EC510020010601005C
:101CBE0019410208ED400208641100202942020871
:101CCE0095680208F0110020F5420208E568020846
:101CDE00B8120020E0510020010301009C220508EB
:101CEE0000000000000000000000000000000000E6
:101CFE00A82205080800000000000000C8130020FC
:101D0E0000000000B02205080700000000000000DF
:101D1E00C013002000000000C02205080D000000C6
:101D2E0000000000B413002000000000CC220508C3
:101D3E00030000002D6A0208A81300200000000016
:101D4E00181B050801000000000000000000000044
:101D5E0000000000000000000E0000000000000067
:101D6E000000000000000000D42205080000000062
:101D7E00000000000000000000000000E422050842
:101D8E000A00000000000000EC2205080000000020
:101D9E00F42205080A00000000000000B1DA040871
:101DAE0000000000FC2205080A00000000000000F0
:101DBE007652002000000000042305080A000000EF
:101DCE0000000000D413002000000000181B0508BE
:101DDE0001000000000000000000000000000000F4
:101DEE00000000000E0000000000000000000000D7
:101DFE00000000000C230508000000000000000099
:101E0E000000000000000000182305080300000079
:101E1E002D6A020808140020000000002423050883
:101E2E00030000002D6A0208FC13002000000000D1
:101E3E002C230508030000002D6A0208F013002071
:101E4E00000000003423050805000000000000001B
:101E5E0033500020000000003C230508070000005E
:101E6E0000000000E81300200000000048230508D1
:101E7E000700000000000000E0130020000000003A
:101E8E00181B050801000000000000000000000003
:101E9E0000000000000000000E0000000000000026
:101EAE0000000000000000005423050800000000A0
:101EBE00000000000000000000000000682305087C
:101ECE00030000002D6A02083814002000000000F4
:101EDE0074230508030000002D6A0208B4000020D8
:101EEE00000000007C230508030000002D6A020894
:101EFE002C140020000000008423050803000000BD
:101F0E002D6A02082014002000000000E81E0508BB
:101F1E00030000002D6A02081414002000000000C7
:101F2E00181B050801000000000000000000000062
:101F3E0000000000000000000E0000000000000085
:101F4E0000000000000000009023050800000000C3
:101F5E000000000000000000000000009C230508A7
:101F6E0007000000356902089414002000000000EC
:101F7E000C1F0508030000002D6A020888140020BB
:101F8E0000000000A8230508030000002D6A0208C7
:101F9E007C14002000000000B023050803000000A0
:101FAE002D6A02087014002000000000B8230508F6
:101FBE0007000000196902086814002000000000E4
:101FCE00B0270508030000002D6A02085C140020EB
:101FDE0000000000C4230508030000002D6A02085B
:101FEE005014002000000000D0230508030000005C
:101FFE002D6A02084414002000000000181B05087A
:10200E0001000000000000000000000000000000C1
:10201E00000000000E0000000000000000000000A4
:10202E000000000081400208514002089C1400206C
:10203E006543020800000000281500201D3F02081D
:10204E00F93E0208B4150020000000000000000058
:10205E00681600203D430208516902080817002047
:10206E00D82305080000000000000000000000005A
:10207E0000000000E4230508030000002D6A02089A
:10208E001418002000000000EC23050803000000D7
:10209E002D6A02080818002000000000380D0508FF
:1020AE00030000002D6A0208FC170020000000004B
:1020BE00F8230508030000002D6A0208F01700201F
:1020CE000000000004240508030000002D6A020829
:1020DE00E4170020000000000C2405080200000098
:1020EE00B56B020800000000000000001424050873
:1020FE0002000000B56B02080100000000000000A5
:10210E00A820050802000000B56B020802000000BE
:10211E0000000000000000000E00000000000000A3
:10212E0000000000000000001250002088136F17FE
:10213E00010000001450002088136F1700000000EB
:10214E002024050800000000000000000000000030
:10215E000000000030240508080000000000000008
:10216E00F4180020040000003C24050808000000BC
:10217E0000000000E818002000000000901F050875
:10218E000400000069660208000000000000000064
:10219E00181B0508010000000000000000000000F0
:1021AE0000000000000000000E0000000000000013
:1021BE0000000000000000001050002088136F1770
:1021CE0001000000C870002088136F170000000087
:1021DE00F13D02080000000000190020A15500206A
:1021EE0001000000ACBA0408CA7000200100000013
:1021FE00B8BA0408C070002002000000C0BA04087B
:10220E00C66500200000000000000000C46500202C
:10221E000000000000000000C26500200000000069
:10222E0000000000C065002000000000000000005B
:10223E00BE6500200000000000000000BC6500200C
:10224E0000000000000000008C1E002000000000B6
:10225E00000000000F50002002000000CCBA04085D
:10226E0078240508000000000000000000000000B7
:10227E0000000000302405080800000000000000E7
:10228E0084190020040000003C240508080000000A
:10229E00000000007819002000000000901F0508C3
:1022AE0004000000C13D0208000000000000000014
:1022BE00181B0508010000000000000000000000CF
:1022CE0000000000000000000E00000000000000F2
:1022DE000000000000000000882405080000000037
:1022EE000000000000000000000000009824050817
:1022FE000D000000B9670208B419002004000000A8
:10230E00A42405080D000000193E0208A81900209B
:10231E0004000000B02405080D0000007D670208CF
:10232E009C19002000000000BC24050803000000DA
:10233E007D4502089019002008000000C8240508F9
:10234E00030000002D6A0208B81C002000000000E7
:10235E00181B05080100000000000000000000002E
:10236E0000000000000000000E0000000000000051
:10237E000000000000000000101B05080000000017
:10238E00000000000000000000000000EA18050830
:10239E00040000008166020800000000000000003A
:1023AE00181B0508010000000000000000000000DE
:1023BE0000000000000000000E0000000000000001
:1023CE0000000000000000001C25050800000000B1
:1023DE0000000000000000000000000074F204087D
:1023EE000D00000000000000141A00200400000080
:1023FE002C2505080800000000000000081A002027
:10240E000400000038250508080000000000000048
:10241E00FC190020040000004025050808000000FB
:10242E0000000000F01900200400000048250508F7
:10243E000800000000000000E41900200400000065
:10244E00502505080800000000000000D8190020E3
:10245E0004000000582505080800000000000000D8
:10246E00CC190020040000006025050808000000BB
:10247E0000000000C019002004000000181B050811
:10248E00010000000000000000000000000000003D
:10249E00000000000E000000000000000000000020
:1024AE0000000000D93D020800000000201A0020A4
:1024BE000000000000000000981A0020000000003C
:1024CE0000000000381B0020C67000200400000031
:1024DE00D8BA0408C4700020E0150C1700000000E4
:1024EE00C370002008000000CCBB0408C27000209E
:1024FE0005000000ECBA0408000000000000000017
:10250E00881B00200403090412010002EF0201409F
:10251E008304563200020102030100001201000280
:10252E000202004083044057000201020301000032
:10253E0009022000010104C032090400000208064D
:10254E00500507058102400000070501024000000A
:10255E0009026400030100C03209040000010300F7
:10256E00000009211101000122260007058303083E
:10257E00000A080B01020202010009040100010217
:10258E0002010005240010010524010002042402AA
:10259E00020524060102070582030800FF09040252
:1025AE0000020A0000000705010240000007058135
:1025BE000240000009024300020100C0320904007B
:1025CE000001020201000524001001052401000192
:1025DE00042402020524060001070582030800FFF9
:1025EE0009040100020A0000000705010240000074
:1025FE000705810240000000FF00000000FFFF0001
:10260E0000000000AA5505010000010005010905A2
:10261E00A101A1000501093009310932093309353B
:10262E000934094009381581257F750895088102FE
:10263E00C0C0000009022200010100E032090400BE
:10264E0000010301020009211101000122260007E9
:10265E0005830308000A00000000000001020304C5
:10266E00010203040607080925D50208EDDB02085E
:10267E0069D70208F1B2020815B5020801B30208C3
:10268E001DB30208C9B20208B9B202080000000068
:10269E00000000002D202D2D202D2D2D2D202D2D37
:1026AE002D2D0000000000000000000000000000C2
:1026BE00000000AA550B010000AA5507010000AA50
:1026CE00550902000000000001000000C012AA55CA
:1026DE0003009F00FF1FFF1F010000003477002042
:1026EE0000000000F4230020040000006C0C05081C
:1026FE004C28050800000000FD730308A0860100A9
:10270E0004000000000000000000000000000000B7
:10271E0000000000000000000000000000000000AB
:10272E006C0C05087829050800000000F9800008E7
:10273E00E80300000400000000000000000000009C
:10274E00000000000000000000000000000000007B
:10275E00000000000C1F050880EE040800000000B9
:10276E002D0801087D00000006000000000000009A
:10277E00000000000000000000000000000000004B
:10278E000000000000000000C40B0508000000005F
:10279E0000000000D5EE0008E80300000300000072
:1027AE00000000000000000000000000000000001B
:1027BE000000000000000000000000008029050855
:1027CE00000000000000000075060408102700003D
:1027DE0003000000000000000000000000000000E8
:1027EE0000000000000000000000000000000000DB
:1027FE009425050800000000A9BA010851850008BB
:10280E005F760000050000000000000000000000E0
:10281E0000000000000000000000000000000000AA
:10282E00000000002C0E0508000000000000000053
:10283E002DF4000810270000010000000000000029
:10284E00000000000000000000000000000000007A
:10285E0000000000000000008C29050800000000A8
:10286E0000000000FD800008E803000005000000E5
:10287E00000000000000000000000000000000004A
:10288E00000000000000000000000000982905086C
:10289E00000000000000000091930108204E00008F
:1028AE000300000000000000000000000000000017
:1028BE00000000000000000000000000000000000A
:1028CE00A829050800000000000000007D91010805
:1028DE00204E000003000000000000000000000079
:1028EE0000000000000000000000000000000000DA
:1028FE0000000000B82905080000000000000000DC
:10290E00E1820008400D03000300000000000000FB
:10291E0000000000000000000000000000000000A9
:10292E000000000000000000300D0508000000004F
:10293E0000000000058003081027000001000000C1
:10294E000000000000000000000000000000000079
:10295E00000000000000000000000000DC0B050875
:10296E00000000000000000009810208102700008E
:10297E000300000000000000000000000000000046
:10298E000000000000000000000000000000000039
:10299E00C829050800000000000000000DC901084C
:1029AE00A0860100010000000000000000000000F1
:1029BE000000000000000000000000000000000009
:1029CE00000000000C1C05080000000000000000C4
:1029DE0001800008A8610000010000000000000056
:1029EE0000000000000000000000000000000000D9
:1029FE000000000000000000D029050800000000C3
:102A0E00000000000D9D0208A086010001000000DC
:102A1E0000000000000000000000000000000000A8
:102A2E00000000000000000000000000340E050849
:102A3E00000000000000000051AC0008A00F0000D4
:102A4E000100000000000000000000000000000077
:102A5E000000000000000000000000000000000068
:102A6E00DC29050800000000000000006146020895
:102A7E001027000001000000000000000000000010
:102A8E000000000000000000000000000000000038
:102A9E0000000000380D05080000000000000000D6
:102AAE0051F902081A410000010000000000000068
:102ABE000000000000000000000000000000000008
:102ACE000000000000000000940E05080000000049
:102ADE000000000021BB02081027000001000000CA
:102AEE0000000000000000000000000000000000D8
:102AFE000000000000000000000000006028050833
:102B0E000000000000000000356D02081A410000B0
:102B1E0001000000000000000000000000000000A6
:102B2E000000000000000000000000000000000097
:102B3E00E82905080000000000000000CDF402089E
:102B4E00400D030000000000000000000000000027
:102B5E000000000000000000000000000000000067
:102B6E0000000000F0290508000000000000000031
:102B7E0039740308400D030000000000000000003F
:102B8E000000000000000000000000000000000037
:102B9E000000000000000000F829050800000000F9
:102BAE0000000000858E020850C3000003000000E4
:102BBE000000000000000000000000000000000007
:102BCE00000000000000000000000000042A0508BC
:102BDE000000000000000000F190010840420F00CC
:102BEE0000000000000000000000000000000000D7
:102BFE0000000000000000000000000000000000C7
:102C0E00102A050800000000000000005D75030892
:102C1E0050C3000000000000000000000000000093
:102C2E000000000000000000000000000000000096
:102C3E0000000000000200051002700B1A030000D5
:102C4E000000000000000000000000000000000076
:102C5E00000000000000000004030904120100023D
:102C6E00000000408304205700020102030100000F
:102C7E00114A0308BD1E0308B91E0308B51E03083A
:102C8E00C5290308B11E0308AD1E030894BE04082F
:102C9E0099DE020805B4020881DD0208000000007A
:102CAE0000000000B5D30208D1D2020800000000D7
:102CBE00000000000000000065B20208551F030866
:102CCE00491F03082D2F0308492F0308011F03086E
:102CDE00112F0308F52E030801000000500100001B
:102CEE0007000000020000000000000000000000CD
:102CFE0001020304060708097DB8020849B4020858
:102D0E0045D7020800000000B5B20208F9DE02083D
:102D1E0031B802087DD40208000000000000000057
:102D2E0071B2020805B20208F9B10208C9CB020855
:102D3E00E5CB0208ADCB020891CB020875CB020899
:102D4E0035B8020825B4020885D602080000000036
:102D5E0089B2020881D4020805B80208DDD3020840
:102D6E0000000000000000007DB202080800000014
:102D7E00F5B10208F1B10208EDB10208E1B10208A5
:102D8E00DDB10208E9B10208E5B102080100000058
:102D9E0000600240106002400000000000000000D1
:102DAE00000B00000000000000000000000000000A
:102DBE000060024028600240010000000000000098
:102DCE00060C0000000000000000000000000000E3
:102DDE00006002404060024002000000000000005F
:102DEE00100D0000000000000000000000000000B8
:102DFE000060024058600240030000000000000026
:102E0E00160E000000000000000000000000000090
:102E1E0000600240706002400400000000000000EC
:102E2E00200F000000000000000000000000000065
:102E3E0000600240886002400500000000000000B3
:102E4E00261000000000000000000000000000003E
:102E5E0000600240A060024006000000000000007A
:102E6E003011000000000000000000000000000013
:102E7E0000600240B8600240070000000000000041
:102E8E00362F0000000000000000000000000000CF
:102E9E0000640240106402400000000000000000C8
:102EAE0000380000000000000000000000000000DC
:102EBE00006402402864024001000000000000008F
:102ECE0006390000000000000000000000000000B5
:102EDE000064024040640240020000000000000056
:102EEE00103A00000000000000000000000000008A
:102EFE00006402405864024003000000000000001D
:102F0E00163B000000000000000000000000000062
:102F1E0000640240706402400400000000000000E3
:102F2E00203C000000000000000000000000000037
:102F3E0000640240886402400500000000000000AA
:102F4E002644000000000000000000000000000009
:102F5E0000640240A0640240060000000000000071
:102F6E0030450000000000000000000000000000DE
:102F7E0000640240B8640240070000000000000038
:102F8E0036460000000000000000000000000000B7
:102F9E000000803F00000000000000000000000064
:102FAE000000803F00000000000000000000000054
:102FBE000000000000000000000000000000000003
:102FCE000000000000000000010000000000803F33
:102FDE000000000000000000000000000000803F24
:102FEE00A4270020000000000000000000000000E8
:102FFE0000000000000000000000000000000000C3
:10300E0000000000000000000000000000000000B2
:10301E0000000000000000000000000000000000A2
:10302E000000000000000000000000000000000092
:10303E000000000000000000000000000000000082
:08304E00000000000100000079
:1080000031490B6846F2A712C31A934200D8704751
:108010002E4B1B6813F0200370B4086024D1DFEDF1
:108020002C7A1D462B4A2C4C1278207812F0010233
:1080300027D168B3D1E90101227040426A1A0BB11D
:10804000264B1A60264B1B780E2B0BD19FED257A01
:10805000254B67EE877A9A80FDEEE77A588017EE17
:10806000902A1A8070BC7047204B1B7813F00203D3
:1080700013D01F4A138A95689BB9DFED157A012347
:10808000D0E728B90126024648608D602670D6E701
:10809000D1E901024042AA1AD1E7DFED0D7A1D466F
:1080A000C0E707EE903A9FED0F6ADFED126AB8EE77
:1080B000E77AC6EE077AF4EEE67AF1EE10FA88BFB8
:1080C000F0EE667ADBE700BF082800204C6E002047
:1080D0009A99993EE66D0020E8560020A071002094
:1080E0008DB000200000C84290B00020A471002094
:1080F0008C7100206666663F704700BF38B50B4C38
:1081000023688BB15A68821A002A054604DA0BE00C
:108110005A68AA1A002A07DB9A68226018461A6869
:1081200090472368002BF3D138BD00BF48320020B0
:10813000436A8269D154436A0169C26B01338B423D
:1081400028BF00234362DAB1EFF31183502282F398
:108150001288C26B1168C9070ED470B45468FCB998
:10816000D0E909518D4211D1012280F86020DBB2A3
:1081700083F3118870BC7047DBB283F311887047BA
:10818000C26DD36843F08003D360704786690E44A4
:10819000D6600ED9691A51608562002180F860109E
:1081A000116841F00101DBB2116083F3118870BCEA
:1081B00070470569691A51608462EEE7034610B49E
:1081C000846BD968406954B11A6D8C1A013A005D0C
:1081D0005DF8044B08BF0A46C0B21A6570471A6AB8
:1081E000805C01328A4228BF2246C0B21A625DF822
:1081F000044B7047C36B13B190F860007047D0E92F
:108200000903181AB0FA80F040097047D0E9091242
:108210000369914238BFC9188A1AC16B013B19B171
:1082200049680A449A4201D2981A70470020704760
:10823000836B43B1026D5B689A4291BF981AC06824
:108240009B1AC0187047D0E907239A422FBFD01A53
:10825000C0688018C01A70470A4B30B503F1140487
:1082600093F900205D78072AC8BF143A81180433B7
:108270008D7213F8025C855413F8012C0A759C4228
:10828000EED130BDB08B040803682DE9F0415D6A82
:108290001DB12B46BDE8F0411847002A174611DDF5
:1082A00004460E460F4400E023689B68204698472A
:1082B0000028F9D0236816F8011B1B682046984750
:1082C000BE42F1D1BDE8F08103681B69184700BFC9
:1082D00000232722027043708370C370704700BF71
:1082E0002DE9F0478C4A8D4B12781C78D207064650
:1082F00048D58B4D012C00F091801ED3022C40F00C
:108300009B808849884A09881288884F914201D900
:1083100001241C70EB7AFBB12B89EBB1844B1B78E9
:10832000D3B110F0FBFD002800F0E2802B7B8342EC
:108330002CBF012300233B700FE0DFF8E8C17B4F27
:108340007C4CBCF800002288697B521A8242DFDA3A
:10835000EB7A0024002BDFD13B782A79632A07D8F7
:108360007549022C087800F0B880002840F0A08001
:108370007249AA7A9C4238BF1C460C70002A44D12C
:10838000BDE8F087DFF89CC1654DBCF80000BCF883
:10839000021095F803E06A4F411A0029A4F1030284
:1083A000B8BF4942704597F80080D2B211D32F78F8
:1083B00087420ED3012A45D9B8F1020F9AD15C4801
:1083C000604A007890800229CCBF00210121D18031
:1083D00090E7B0EB4E0FEDDC012A40F28C800229D1
:1083E000EADC0324514F524852494F4A1C70B8F1FD
:1083F000020F4FF000033C7003700B80138089D193
:10840000504A01219380D18084E7012C6BD0022C4B
:10841000B6D10720BDE8F0472FF0B2BD424A41492E
:108420001288687B0988121A914207DD414A128836
:108430008A423CBF00241C703C4F6BE702241C7036
:108440003A4F67E70229B7DC95F800E090FBFEFEA3
:108450000EF1010EBEF1080FDFF8D4A0AA786978FA
:10846000DFF8C490334C314FA8BF4FF0080E8AF8A4
:1084700000E01FFA8EFA11FB0AF112FB0AF2DFF894
:10848000B8A0A9F8001092B200214FF06409B8F129
:10849000020F228039701970CAF804108AF801900E
:1084A0007FF452AF274A0121A2F804E0D18048E7C7
:1084B0004868301A244EB042C8BF4A703FF758AFE0
:1084C000C2F16402214E00FB02F086FB0062C0177D
:1084D000A0EBA250643048704AE70028E8D1012799
:1084E0004E600F70ECE70820BDE8F0472FF048BD64
:1084F00002233B7031E7032C7FF471AFB8F1020F18
:108500009AD10B4A0F4B12789A800229CCBF0021D6
:108510000121D980054FFDE6E66D0020742D002075
:10852000246E00200C6E0020782D0020D42D002019
:10853000126E0020762D00207C2D0020C8710020B6
:108540008DB0002090B000207F9698006BCA5F6BC2
:108550002DE9F04FDF4C2DED068B237891B00546C9
:1085600043B1DFF8C8A3DAF80C305046984780F0E2
:1085700001002070D84B1E78002E00F0FE81D749F4
:10858000D7480C7805F5EC425F32026000221A7081
:10859000002C00F02882D34B1B689D4200F2208201
:1085A00028460EF065F8002800F0E781CE4CCF4B4E
:1085B000D4F89410C4F894506D1A47F230518D429B
:1085C000A8BF0D461B78CA4ACA4FB5F57A7FB8BF17
:1085D0004FF47A75D907158040F15882C64BC748C9
:1085E0001A68B7F90630D18901258B42057080F2EF
:1085F000DC81C34A4FF07E511160C24AC24992F9F0
:1086000004004E8AB7F9008092F800E092F801C0A9
:10861000BE4DA8EB0602002814BF01204FF0FF302A
:10862000002AB8BF5242B2F5FA7FA8BF4FF4FA72DF
:108630007245C5BFA2EB0E0207EE902ADFEDB47AB9
:10864000F8EEE77A4645B7F90280C5ED007AA8EB67
:108650000602C4BFF1EE677AC5ED007A002AB8BF02
:108660005242B2F5FA7FA8BF4FF4FA729645BABFEC
:10867000A2EB0E0207EE902ADFEDA57AB7F904709F
:10868000B8BFF8EEE77A4645A7EB0602C5ED017ADA
:10869000C4BFF1EE677AC5ED017A002AB8BF524235
:1086A000B2F5FA7FA8BF4FF4FA72944580F2958133
:1086B000A2EB0C0C00FB0CFC07EE90CAF8EEE77A7C
:1086C000944AC5ED027ABE421068C4BFF1EE677AE3
:1086D000C5ED027A10F4805000F05481B3F5FA6FC2
:1086E000A8BF4FF4FA63B3F57A7FB8BF4FF47A733B
:1086F000A3F57A71884B1A78002A40F04C81DFF894
:1087000030E2DFF830C28EFB0123CA17C2EB6313DD
:108710005F1C6FF063023CF917703CF913C002FB59
:108720000313A7EB0C0103FB01F38EFB0312DB1712
:10873000C3EB621363441BB207EE903AB8EEE78ACC
:1087400085ED038A002840F02784744B1B885A0665
:1087500040F1118140F603027149D5ED011A91ED06
:10876000018AD1ED033AD1ED028AD1ED005A95ED9F
:10877000002A13406B4A08BFD5ED022A92ED019AF8
:1087800092ED026AD2ED030A92ED004A18BFDFEDC6
:10879000602A654A38EE635A39EE461A74EE207A3A
:1087A00025EE011A75EEE86A35EEA8AA74EE609A15
:1087B00066EEA76AB0EE413AAAEE293AB0EE665AE2
:1087C00038EE237A79EE067AAAEE295AA7EE273AEE
:1087D000A7EE675AF0EE414AD7EE274A33EE263A23
:1087E000B6EE000A75EE88AA20EE433A35EE415AFD
:1087F00034EE091AB0EE647AEAEE694AAAEE813ADA
:1088000077EE667A36EE601A73EEE8AA25EE005A25
:10881000EAEE297AAAEE815A74EEA64A63EE036A5A
:1088200034EE494A73EEA83A64EE804A75EEC85AAF
:1088300036EE206A67EE807AB0EE667AE3EE844A1E
:1088400095EE057AE5EE056AE5EE867AB1EE648A84
:10885000F0EE665AF0EE476AB1EE674AE8EE246A37
:1088600063EE270A67EEA43AE4EE275AB1EE450A12
:10887000B0EE609AB0EE631AA4EE277A23EE244A93
:10888000E7EEA76AA5EE249AA0EE031AE8EE245AB2
:10889000B0EE448A31EEA16AE0EE240AA5EE278A02
:1088A00066EEA16A72EE028AE5EE033A61EE211AE3
:1088B00026EE096AA4EEA47AA0EE274AA2EE256A63
:1088C000E0EEA86AE2EE081A73EEA33A27EE227AE7
:1088D00032E000BF2D3300202C330020F839002077
:1088E00028330020F439002008280020E66D0020FD
:1088F000A0350020C6D70020B0730020F041012031
:10890000342E002050570020DCCD0020146E0020B3
:10891000000000002CCE00207C2D0020406E0020A6
:1089200018000020502700208C270020C45700206A
:108930001F85EB51D441012034EE044AF0EE005A79
:10894000E3EEA26AA2EE846AA1EEA57AC4ED276ADC
:10895000C5ED016A84ED266A85ED006A84ED287A0A
:1089600082ED005A82ED013AC2ED027AC2ED034A6D
:10897000002B00F076830CF095FD11B0BDEC068B5A
:10898000BDE8F08F8A8A934270DAA74B1A780146C5
:10899000002A3FF4B4AE5B78A44A01FB03F382FBE8
:1089A0000321DB17C3EB6111A9E6B3F5FA6F127B64
:1089B0009FED9F7ABFBF581A4243C1F5FA6192FBFF
:1089C000F1F2C2F1640207EE902AF8EEE77A994AD2
:1089D00067EE877AC2ED007A0FE6DFED977A6FE6F1
:1089E000013C0C70DCE5954B1B78002B00F03481CA
:1089F000DFF858A2DFF850B2DFF84882DFF8509273
:108A0000574629E018F804109847032C03462BDC3E
:108A1000C8B109EB840339F824105A88401A4FF47E
:108A20007A7303FB00F0521A40F6CA0390FBF2F08F
:108A300000F57A709842A8BF184640F2EE2398429B
:108A4000B8BF184600B27D4B2BF8020B93F800C05C
:108A50000134644580F20181072C3846DAF804308D
:108A6000D0DDE1B29847034618B2ECE7B3F5FA6FF0
:108A7000D4BFC2EB0303C2F5FA634FF47A71C2F5B7
:108A8000FA6201FB03F3B3FBF2F133E6B7F90060DE
:108A9000B7F90250B7F90C00B7F90410B7F908207C
:108AA000B7F90630DFF8ACC1B6F5FA6FA8BF4FF4DE
:108AB000FA66B5F5FA6FA8BF4FF4FA65B0F5FA6F2C
:108AC000A8BF4FF4FA60B1F5FA6FA8BF4FF4FA618E
:108AD000B2F5FA6FA8BF4FF4FA62B3F5FA6FA8BF08
:108AE0004FF4FA63B6F57A7FB8BF4FF47A76B5F5EE
:108AF0007A7FB8BF4FF47A75B0F57A7FB8BF4FF47C
:108B00007A70B1F57A7FB8BF4FF47A71B2F57A7F97
:108B1000B8BF4FF47A72B3F57A7FB8BF4FF47A7367
:108B2000A3F57A78B7F90E30B3F5FA6FA8BF4FF412
:108B3000FA63B3F57A7FB8BF4FF47A73A3F57A7E00
:108B4000B7F90A30A0F57A70B3F5FA6FA1F57A712A
:108B5000C0EBC010C8EBC818A2F57A72C1EBC11106
:108B6000A8BF4FF4FA634000B3F57A7FC2EBC21995
:108B7000CEEBCE124FEA410E4FEA4801ACFB00802B
:108B8000B8BF4FF47A738009ACFB01817F38A6F53A
:108B90007A76A5F57A75A3F57A73C6EBC616C5EB9A
:108BA000C515C3EBC31389098DF83A0024487F39F2
:108BB00076006D004FEA490952005B00ACFB068667
:108BC000ACFB0585ACFB0E8EACFB0989ACFB0282CD
:108BD0008DF83D10ACFB03C390F812114FEA951CC1
:108BE000B6094FEA9E1E4FEA991592099B097F3EEE
:108BF000CCF17F0CAEF17F0E7F3D7F3A7F3B0329A6
:108C00008DF838608DF839C08DF83BE08DF83C5018
:108C10008DF83E208DF83F307FF4E0AC08230EAA9B
:108C2000832123F0EDFFD9E47C2D00201F85EB513B
:108C30000AD7233C342E0020000000001C3B0020FB
:108C400094B30020DCCD002014280020C45700205D
:108C5000703E0020D34D62109C46BB4BBB4A1B7834
:108C6000D2F80080002B00F0FA81B94A92F800E0B7
:108C70008EF0010EB74A12780692292A04D1B4491F
:108C8000B54A097851801380B44A01231370B44B5C
:108C90000993BCF1000F00F0AF81B249B24CCF8B09
:108CA000187800970F8C498AB04A0C9194F83010CC
:108CB00001910146A2FB0112520802EB4202821A04
:108CC000AB4B0790D2B20CF1FF301B6808921146F3
:108CD00049000328A8BF032042F20102029103F4D5
:108CE00080511A4004970D91DFF8A892A14F0B9480
:108CF00001460A92704605960023039514468E4657
:108D0000002800F0DB809C4A009D32F81320AA4224
:108D10004FEA4301C0F0D280049DAA4200F2CE8007
:108D200008F5967A49F823A012B2002C40F0E780AB
:108D30007A5201337345E3DD63458646039D0B9C00
:108D400031DA8E4A8E48DFF82CA2DDF804B00B959C
:108D500003EB430702EB4707283A029208F59672A5
:108D60000A9D019603920A947646002E6BD0029AD1
:108D7000009C32F813108C424FEA430263D8049CE3
:108D80008C4260D3039C49F8234009B2002D76D170
:108D90002AF8021001339C4507F10607E5D1DDE909
:108DA0000A45CDF804B06D4B059919709DF8043053
:108DB00084F83030002940F01F81654B01220420E7
:108DC0001A7030F079FF6F4A604BD2E901101B68CE
:108DD000D3601B1A8B4202D9002382F821306A4BE0
:108DE00018785C4B1B780693002800F01C81604BC0
:108DF0005C4A1B68D68B548A13F4805340F034814C
:108E00005C4F5F490FE0022A1BD19CF8012002EB66
:108E1000820202EB820202F2EE220133984227F82C
:108E2000022B00F0008111F8132001EB430C002A03
:108E3000E9D1DAB2022A40F26881032A01D132462E
:108E4000EBE73A88E9E759F82320A8EB0202002A69
:108E5000A0DB10F813105A0000EB020E002900F0FE
:108E6000F680022940F0F8809EF8011001EB8101A4
:108E700001EB810101F2EE2109B2002D88D0089C9E
:108E800027F81410BBF1000F03D1079C022C7FF6CA
:108E90007FAFB7F800B07988B7F804E059448E4442
:108EA0003A49DDF804B00FFA8EFE81FB0E41384CD2
:108EB000A1EBEE7124F802E009B269E759F823202A
:108EC000A8EB0202002AFFF634AF2D4D15F813204F
:108ED000590005EB010A002A00F0B280022A40F096
:108EE000B4809AF8012002EB820202EB820202F2C5
:108EF000EE220025059512B2002C3FF419AF1F4D4C
:108F000001EB030B05EB4B0A029D2AF80520019D9E
:108F10001DB9079D022D7FF60BAF184DBAF8022040
:108F2000BAF804A035F81BB0019652449344174A8E
:108F30000FFA8BFB82FB0B52154DA2EBEB7225F85F
:108F400001B012B2F4E600BF354100202CB200207F
:108F5000940000208DB0002090B000200658002022
:108F6000F9390020DCCD002008280020ABAAAAAAED
:108F70002CCE0020C6D70020142800203C2800203A
:108F80001A3F0020E86D00201C3B00205655555527
:108F900084280020FC390020684BDB78002B7FF40C
:108FA000D4AB674B67481F7B1E212BF009FA002FBB
:108FB00079D100283FF4C9ABDFED637A634978EEDD
:108FC000677AC6F5FA63FDEEE77A1AB217EE903AC1
:108FD0001BB21B0381FB0301DB17C3EBA11302FBD5
:108FE00003F343F30F33334407EE903AF8EEE77A96
:108FF000C5ED037AFFF7A9BB52480A212BF0E0F92F
:1090000000287FF4DAAE4D4A514BD1681B6893605B
:109010005B1AC82B07D94F490B68012023F00403C2
:109020000B6082F82100069B292B03D14A4F4B4B42
:10903000FA88DA80099A137801331370FFF7B0BA0F
:10904000DAB2022A63D9032A51D07A5A51E7D9B247
:1090500002295ED9032951D03AF8021095E69E46BE
:1090600008E685ED027A86E43B4E3D4900230DE09B
:10907000022A16D17A7802EB820202EB820202F215
:10908000EE220133834226F8022BCCD011F81320B4
:1090900001EB4307002AEBD1DAB2032A01D82246BA
:1090A000EFE73288EDE7DFED287A284A38EE678A65
:1090B000BDEEC88A18EE103A1BB21B0382FB0312E6
:1090C000DB17C3EBA21330B3C6F57A7212B203FBFF
:1090D00002F343F30F33334407EE903A214BF8EE9B
:1090E000E77A0122C5ED037A1A70FFF72EBB0D9ABD
:1090F000009D002A0C9A08BF2A46FAE60D990C9C9E
:109100000029009918BF21463FE6224685E60C9AC1
:10911000EFE60C9939E6C6F5FA6212B203FB02F3E8
:1091200043F30F33334407EE903A0E4BF8EEE77AF1
:109130001870C5ED037AFFF708BB00BFE86D00208B
:10914000A44101203838002000007A44D34D621039
:109150002CB2002084710020C6D7002090B00020DF
:109160001A3F0020702E002070B53C4B3C481A7806
:109170005B783C493C4C3D4D02EB420203EBC303A0
:1091800001EB430300EB42122B6022603BF064FED4
:109190000021302236483EF00FF920683AF000FCFA
:1091A000344B256803F1640102E005338B4252D051
:1091B0001A78002AF9D19C78D8788442F5D22E49C1
:1091C0002E4B0C792E4EC820642111FB04015960EE
:1091D0002C4C2D4832700021C3E90211C3E904115F
:1091E000C3E9061183F8201083F82110274B05608E
:1091F000C4F8A43016F0B0FFB4F8A8309FED245A9C
:10920000244A94F8AA109FED246A507906EE903A09
:10921000F8EEE66A1388C5EE265A07EE103A1F4BA1
:109220001960538812791E4907EE903AB8EEC77A52
:109230001C4BC1ED005AF8EEE77A18725A7227EE0D
:10924000067A67EE867ABDE8704083ED017AC3ED59
:10925000007A1EF073BA0122B1E700BFE8BE002019
:10926000A650002000520020AC730020B0730020F4
:10927000C02E0020443A0020A0560020E86D0020B7
:109280000800002008280020F42E00203A34002096
:10929000C0C9FB4834B0002017B7D138743F012053
:1092A000783F01204C3F012030B50446C06D21714C
:1092B0008389A26823F400531B041B0C838185B0AF
:1092C0006379009213F0040F4FEA03324FEA03234D
:1092D0000CBF00254FF4805503F4806302F4005264
:1092E000ADF80450ADF80830002511F00103ADF8D9
:1092F0000620ADF80C501CD1ADF80A3008238A07BF
:10930000694648BFADF80A3025F044FB637913F095
:10931000080FE36D9A8A05BF22F00802120442F09A
:109320000802120C9A829A8942F400529A8105B07E
:1093300030BD0423ADF80A300C23E0E730B5044615
:10934000C06DA160838923F400531B041B0C83812F
:10935000637985B013F0040F009108BF00252179CF
:1093600018BF4FF48055ADF804501A0300251B02B6
:1093700003F48063ADF80A50ADF80C50CD07ADF89A
:10938000083002F4005244BF0423ADF80A30ADF8AF
:1093900006204CBF0C2308238A07694648BFADF856
:1093A0000A3025F0F7FA637913F0080FE36D9A8A13
:1093B00005BF22F00802120442F00802120C9A8241
:1093C0009A8942F400529A8105B030BD02280FD824
:1093D000094A0A4B0A4910B400EB400410700130EE
:1093E00003EB4413C0B25DF8044B0B602EF0F2BEE9
:1093F0000130C0B22EF0EEBEE8BE0020A650002024
:10940000AC730020074B1B7853B9074B00F12002C7
:1094100050F8041B43F8041B9042F9D10120704717
:1094200000207047E2370020E337002010B5154CCC
:1094300094F8E630002B144B14BF012200221A705E
:109440000BD0042204F1CC0110483DF0F3FF1422AC
:1094500004F1D1010E483DF0EDFF94F8E730002B08
:109460000C4B14BF012200221A7009D00A4B0B4A80
:1094700003F1200153F8040B42F8040B8B42F9D19D
:1094800010BD00BF08280020033800200438002049
:1094900009380020E2370020B4280020E3370020FC
:1094A0000B4B1B7810B58BB90A4B0B4A03F120010B
:1094B00053F8040B42F8040B8B42F9D1074B0124FB
:1094C00083F8E740FFF7B2FF204610BD0020FCE71D
:1094D000E2370020E3370020B428002008280020CD
:1094E00038B50C4B1B789BB90B4D0C49042205F188
:1094F000CC003DF09FFF01241422094905F1D10061
:109500003DF098FF85F8E640FFF790FF204638BD14
:109510000020FCE703380020082800200438002041
:1095200009380020F0B50C2934D8DFE801F08A337F
:1095300033335F333333343333330700048C96894A
:10954000B2F802C01788744D24F480542404240C0B
:109550000484038C8488818B23F4005321F4E64136
:109560001B0409041B0C46EA0C06090C43EA0633EB
:1095700041EA0721A8429BB2A4B289B200F09E80C2
:1095800005F58065A84200F0998092688480818307
:1095900002640384F0BD048C9589B2F802E0178858
:1095A0005D4E24F480742404240C0484038CB0F8ED
:1095B00004C0818B23F400731B0421F0730145EA7E
:1095C0000E041B0C090443EA0423090CB0429BB2AD
:1095D0001FFA8CF541EA07015BD0504CA04258D0ED
:1095E000926885808183C2630384F0BD048C958971
:1095F000B2F802E0B2F800C0474E24F01004240490
:10960000240C0484038C8788018B23F0200321F42D
:10961000E6411B0409041B0C45EA0E04090C43EA4D
:10962000041341EA0C21B0429BB2BFB289B25BD0B5
:109630003A4CA04258D092688780018382630384A9
:10964000F0BD048C9589B2F802C01788324E24F020
:1096500001042404240C0484018C8488038B21F0ED
:10966000020123F0730309041B04090C45EA0C05ED
:109670001B0CB04241EA0501A4B243EA070324D01F
:10968000264DA84221D092688480038342630184DE
:10969000F0BDD489168A578A23F4006343EA042371
:1096A0004FF6FF341C40938825F440553E4344EA6E
:1096B000032345EA06149BB2A5B291E7158A24F468
:1096C000804444EA8514A4B25FE7D689158A578A94
:1096D00021F008013143968824F4407421F00401FC
:1096E0003D4331432C43CEE7D489168AB2F812C0E9
:1096F00023F0800343EA04134FF6BF741C409388A1
:1097000027F4406546EA0C0644EA031345EA86045A
:109710009BB2A7B28FE700BF0000014000040140E8
:109720002DE9F84FA022904C9048914DDFF860A2AF
:10973000904FDFF86082DFF8609200213DF03CFE40
:109740008D48DFF858C2DFF858E204F1FC06A34662
:10975000DBF80030AB4200F0E280B3F1804F00F064
:10976000E080BB4200F0DF80634500F0EA80734593
:1097700000F0E980434500F0E8804B4500F0E780C9
:109780007E4A934200F0E58002F57052934200F069
:10979000E28002F58062934200F0DF8002F5806291
:1097A000934200F0DC80A2F59832934200F0D98019
:1097B00002F58062934200F0958002F58062934248
:1097C00008BF0D2300F08F800BF1240B5E45BFD145
:1097D0006B4E6C4D4FF003094FF00208A379002B3C
:1097E0007AD023791F09013F032F03F00F0373D8A9
:1097F00036F8170040FA03F2D2076DD54FF0010A90
:109800000AFA03F3013B18403DF05EFB5E4BDB5D63
:10981000184415EBC0075FD055F830305B48217A0B
:1098200003F13F4202F57E02920A825C02F01F00C1
:109830005209032A0AFA00FA7DD0042A75D0022AB6
:1098400004D14D48426C4AEA02024264B7F804C0AF
:10985000BCFA8CF2C2F11F0292B2D00803EB800076
:1098600002F00702076A92004FF00F0E0EFA02FE96
:1098700027EA0E070762076A01FA02F23A43026218
:109880004FF0010E00220EFA02F737EA0C0120D148
:109890005000D3F800A009FA00F1C9430AEA010A0E
:1098A000C3F800A0D3F800A008FA00F040EA0A00CC
:1098B000186098680840986098689860586820EA2E
:1098C00007075F6058685860D8680140D960D96858
:1098D000D9600132102AD6D12434A3457FF47EAF5B
:1098E000BDE8F88F0C230AEBC30301211B7903F0B9
:1098F0001F025B09032B01FA02F208D0042B0AD0E5
:10990000022B7FF461AF416C0A4342645CE7016C57
:109910000A43026458E7016B0A43026354E70023D9
:10992000E1E70123DFE70223DDE71348026B4AEAA0
:10993000020202638AE71048026C4AEA02020264E9
:1099400084E70323CFE70423CDE70523CBE70623F2
:10995000C9E70723C7E70823C5E70923C3E70A23A5
:10996000C1E70B23BFE700BF7CCF0408A82C002071
:1099700000000140000400400038024000040140A3
:1099800078D00408A4B0002080D0040884D0040853
:10999000BCD0040800100040001400400008004043
:1099A000000C004000B9704703682DE9F04F03F147
:1099B0003F4404F57E04534EA40A0125345D04F0AF
:1099C0001F066409032C05FA06F500F09580042CA7
:1099D00000F08D80022C45D08588B5FA85F0C0F165
:1099E0001F0080B2C40803EB840400F00700266A5D
:1099F00080000F27874026EA07062662276A01F0C3
:109A000003068240701E3A4301282262C1F3810E90
:109A1000C1F300184FF000024FEA51114FF0010C52
:109A200025D94FF0030E0CFA02F0A84315D15000CF
:109A30001F680EFA00F4E44327401F60D3F800804B
:109A400006FA00F747EA08071F60DF683C40DC6061
:109A5000DC6801FA00F02043D8600132102AE2D11C
:109A6000BDE8F08F284C666C35436564B4E74FF071
:109A700003090CFA02F737EA050033D15000D3F896
:109A800000A009FA00F4E4430AEA040AC3F800A0BB
:109A9000D3F800B006FA00FA4AEA0B0AC3F800A0AD
:109AA000D3F808A004EA0A0AC3F808A0D3F808B05B
:109AB0000EFA00FA4AEA0B0AC3F808A0D3F804A089
:109AC0002AEA07075F60D3F804A008FA02F747EA1A
:109AD0000A075F60DF683C40DC60DC6801FA00F088
:109AE0002043D8600132102AC3D1BDE8F08F064C64
:109AF000266B354325636FE7034C266C354325649D
:109B00006AE700BF84D004080038024003682DE9EA
:109B1000F04F03F13F4404F57E04534EA40A01259F
:109B2000345D04F01F066409032C05FA06F500F005
:109B30009580042C00F08D80022C46D08588B5FAE3
:109B400085F0C0F11F0080B2C40803EB840400F06C
:109B50000700266A80000F27874026EA070626624C
:109B6000276A01F0030602FA00F0721E3843012A48
:109B7000C1F3810EC1F3001820624FEA51114FF07A
:109B800000024FF0010C25D94FF0030E0CFA02F041
:109B9000A84315D150001F680EFA00F4E443274093
:109BA0001F60D3F8008006FA00F747EA08071F6035
:109BB000DF683C40DC60DC6801FA00F02043D860DC
:109BC0000132102AE2D1BDE8F08F284C666C354393
:109BD0006564B3E74FF003090CFA02F737EA0500B2
:109BE00033D15000D3F800A009FA00F4E4430AEAA4
:109BF000040AC3F800A0D3F800B006FA00FA4AEA53
:109C00000B0AC3F800A0D3F808A004EA0A0AC3F8B4
:109C100008A0D3F808B00EFA00FA4AEA0B0AC3F813
:109C200008A0D3F804A02AEA07075F60D3F804A0CD
:109C300008FA02F747EA0A075F60DF683C40DC6029
:109C4000DC6801FA00F02043D8600132102AC3D149
:109C5000B9E7064C266B354325636FE7034C266C4A
:109C6000354325646AE700BF84D004080038024009
:109C700010B50409013C032C17D80E4B33F81420FF
:109C800000F00F0042FA00F313F001030FD001239C
:109C900003FA00F0013810403DF016F9064A074B70
:109CA000125D104403EBC00010BD002010BD18462B
:109CB00010BD00BF78D0040880D00408A4B00020F4
:109CC0002DE9F8432F4D2B8AB5F80C8018EA0308CC
:109CD00027D02D4E4FF00047B8FA88F327FA03F249
:109CE000D24391B21B3B08EA02082982042B15D803
:109CF000DFE803F0352B22190300D6F89C30002B47
:109D000037D1EB6A1FFA83F9D6F8984034B123684B
:109D10002046494698476468002CF8D1B8F1000FF6
:109D2000DAD1BDE8F883B06F696B036889B29847F0
:109D3000B8F1000FD0D1F4E7F06FA96B036889B2D6
:109D40009847B8F1000FC7D1EBE7D6F88000E96B70
:109D5000036889B29847B8F1000FBDD1E1E7D6F8A2
:109D60008400296C036889B29847B8F1000FB3D119
:109D7000D7E703F1FF3900231FFA89F9C6F89C30B1
:109D8000C2E700BF00180040A82C00202DE9F843CE
:109D90002C4D2B8AB5F80C8018EA030825D02A4EE2
:109DA0004FF00047B8FA88F327FA03F2D24391B292
:109DB0001B3B08EA02082982042B13D8DFE803F0D2
:109DC000322920170300736F002B34D1EB6A1FFA7E
:109DD00083F9346F34B12368204649469847646854
:109DE000002CF8D1B8F1000FDCD1BDE8F883306D5C
:109DF000696B036889B29847B8F1000FD2D1F4E7D4
:109E0000706DA96B036889B29847B8F1000FC9D18A
:109E1000EBE7B06DE96B036889B29847B8F1000FC2
:109E2000C0D1E2E7F06D296C036889B29847B8F1B8
:109E3000000FB7D1D9E703F1FF3900231FFA89F9E1
:109E40007367C6E700040140A82C00202DE9F84301
:109E50002C4D2B8AB5F80C8018EA030825D02A4E21
:109E60004FF00047B8FA88F327FA03F2D24391B2D1
:109E70001B3B08EA02082982042B13D8DFE803F011
:109E8000322920170300736F002B34D1EB6A1FFABD
:109E900083F9346F34B12368204649469847646893
:109EA000002CF8D1B8F1000FDCD1BDE8F883306D9B
:109EB000696B036889B29847B8F1000FD2D1F4E713
:109EC000706DA96B036889B29847B8F1000FC9D1CA
:109ED000EBE7B06DE96B036889B29847B8F1000F02
:109EE000C0D1E2E7F06D296C036889B29847B8F1F8
:109EF000000FB7D1D9E703F1FF3900231FFA89F921
:109F00007367C6E700040140A82C00202DE9F84340
:109F10002C4D2B8AB5F80C8018EA030825D02A4E60
:109F20004FF00047B8FA88F327FA03F2D24391B210
:109F30001B3B08EA02082982042B13D8DFE803F050
:109F4000322920170300F36C002B34D1EB6A1FFA7F
:109F500083F9B46C34B12368204649469847646855
:109F6000002CF8D1B8F1000FDCD1BDE8F883B06A5D
:109F7000696B036889B29847B8F1000FD2D1F4E752
:109F8000F06AA96B036889B29847B8F1000FC9D18C
:109F9000EBE7306BE96B036889B29847B8F1000FC3
:109FA000C0D1E2E7706B296C036889B29847B8F1B9
:109FB000000FB7D1D9E703F1FF3900231FFA89F960
:109FC000F364C6E700080040A82C00202DE9F84300
:109FD0002C4D2B8AB5F80C8018EA030825D02A4EA0
:109FE0004FF00047B8FA88F327FA03F2D24391B250
:109FF0001B3B08EA02082982042B13D8DFE803F090
:10A00000322920170300736A002B34D1EB6A1FFA40
:10A0100083F9346A34B12368204649469847646816
:10A02000002CF8D1B8F1000FDCD1BDE8F88330681E
:10A03000696B036889B29847B8F1000FD2D1F4E791
:10A040007068A96B036889B29847B8F1000FC9D14D
:10A05000EBE7B068E96B036889B29847B8F1000F85
:10A06000C0D1E2E7F068296C036889B29847B8F17B
:10A07000000FB7D1D9E703F1FF3900231FFA89F99F
:10A080007362C6E700000140A82C00202DE9F843C8
:10A090002C4D2B8AB5F80C8018EA030825D02A4EDF
:10A0A0004FF00047B8FA88F327FA03F2D24391B28F
:10A0B0001B3B08EA02082982042B13D8DFE803F0CF
:10A0C000322920170300736A002B34D1EB6A1FFA80
:10A0D00083F9346A34B12368204649469847646856
:10A0E000002CF8D1B8F1000FDCD1BDE8F88330685E
:10A0F000696B036889B29847B8F1000FD2D1F4E7D1
:10A100007068A96B036889B29847B8F1000FC9D18C
:10A11000EBE7B068E96B036889B29847B8F1000FC4
:10A12000C0D1E2E7F068296C036889B29847B8F1BA
:10A13000000FB7D1D9E703F1FF3900231FFA89F9DE
:10A140007362C6E700000140A82C0020F0B5066845
:10A150003F4CB30AA3426CD065D93E4CA3425AD0BF
:10A160000134A34256D1702702254379B6F80CE09A
:10A17000022023FA00F4A0401FFA80FCA800234626
:10A18000441903EB4403344C002955D04CEA0E0C1F
:10A1900003F1040E44F8231044F82E20A6F80CC056
:10A1A000E319EFF31181502282F31288421904EB74
:10A1B000C202D2F810C0BCF1000F03D044F807C0AF
:10A1C00013690433421904EBC202576917B11F60C7
:10A1D00053690433421904EBC202976917B11F6037
:10A1E00093690433421904EBC202D76917B11F60A7
:10A1F000D36904330027CAB21F6082F31188284450
:10A2000004EBC004236A4BB9B38923F001031B0498
:10A210001B0CB381F0BD20270025A6E7B38943F0CE
:10A220000103B381F0BD043CA342F3D148270125CB
:10A230009BE79827032598E72EEA0C0C03F1040E00
:10A24000A6F80CC044F8231044F82E20A8E700BF5D
:10A250000600100040001000A82C002010B5036874
:10A260007C487D4C0139834282B0246889B200F079
:10A27000AF80A0F58060834200F0AA8000F58040A6
:10A28000834200F0818000F5806083427CD000F53D
:10A290008060834278D018886408B4FBF2F4013CF3
:10A2A000A4B282B2B3F1804F0AD06C48834207D087
:10A2B00000F58060834203D000F58060834202D1C4
:10A2C00022F0700292B26648834200F08F8000F55F
:10A2D0008060834200F0938022F4407200F56C406D
:10A2E00092B283421A80D9621C8540F0918001218C
:10A2F00000221A86998219885A4841F00101834246
:10A30000198049D0B3F1804F00F08D80534A9342B9
:10A3100000F08B8002F58062934200F0888002F5A5
:10A320008062934200F0858002F58062934200F0E3
:10A33000828002F5806293427FD002F570429342A0
:10A340007DD002F5705293427BD002F58062934239
:10A3500079D002F58062934277D0A2F59832934289
:10A3600075D002F58062934215D002F58062934267
:10A3700008BF0D2210D002A84FF0012340F8043D81
:10A3800023F0AAFE02B010BD1888B4FBF2F4013C21
:10A39000A4B282B286E70C22334B03EBC20201A8BF
:10A3A00054798DF80440012300228DF805308DF892
:10A3B00007308DF8062023F08FFE1B2C0FD02E2C9B
:10A3C000E0D12A4B019301A823F086FE02B010BD14
:10A3D0001888B4FBF2F4013CA4B282B270E7244BBB
:10A3E000019301A823F078FE02B010BD01201A806D
:10A3F000D9621C8598821A8802431A8086E7012058
:10A400001A80D9621C8598821A8802431A8079E7DB
:10A41000104A93423FF46BAF01229A821A8842F0AD
:10A4200001021A806EE70122B6E70222B4E7032296
:10A43000B2E70422B0E70522AEE70622ACE7072226
:10A44000AAE70822A8E70922A6E70A22A4E70B2226
:10A45000A2E700BF00040140F8BF00200004004054
:10A460000010004000000140BCD004082C01000195
:10A47000190100012B4B98423CD0B0F1804F3BD0EA
:10A48000A3F57C43984239D003F58063984237D0D6
:10A4900003F58063984235D003F58063984233D04A
:10A4A00003F58063984233D003F57043984231D06E
:10A4B00003F57053984229D003F5806398422BD05E
:10A4C00003F58063984229D0A3F59833984227D0AA
:10A4D00003F58063984207D003F58063984208BF74
:10A4E0000D2202D0002070470C220F4B03EBC20359
:10A4F000187970470022F8E70122F6E70222F4E714
:10A500000322F2E70422F0E70522EEE70822ECE757
:10A510000622EAE70722E8E70922E6E70A22E4E75B
:10A520000B22E2E700000140BCD0040830B4002454
:10A530000F4A2346254604E00133072B0DD012F8BD
:10A54000244C30EA040402F12402F5D1A94207D0D8
:10A5500001330135072BEDB2F1D1002030BC70473B
:10A56000044A03EBC30302EB830330BC1879704742
:10A57000A6CF04087CCF0408B8B10C4A2621884233
:10A580004FF0000302F1240208D00133072B0BD057
:10A5900012F8241C884202F12402F6D1044803EB8D
:10A5A000C30300EB8300704700207047A4CF04086A
:10A5B0007CCF0408224B5B68C3F3080330B4D3B9E3
:10A5C000EFF31183BBB91F4A1F4D204813688468FD
:10A5D00011688B42FAD129688C42F7D81C4A11685D
:10A5E0004FF47A7202FB01F0001B30BCB0FBF1F0BB
:10A5F00002FB03007047EFF31182102383F31288EC
:10A6000003F1E023D2B29C68196811F4803F11492C
:10A610001EBF012008609C680A4B18680B6882F313
:10A6200011880B4A11684FF47A72034402FB01F05F
:10A63000001B30BCB0FBF1F002FB0300704700BF11
:10A6400000ED00E02CB2002040BC002010E000E053
:10A650003CBC002038BC00202DE9F84F8046274C38
:10A66000274DDFF8A490274EFFF7A4FFDFF89CE00A
:10A67000DFF89CC04FF0100A4FF47A77DCF8043012
:10A68000C3F30803CBB9EFF31183B3B92368A96807
:10A6900022689342FAD132689142F7D8DEF800205E
:10A6A00007FB02FBABEB0101B1FBF2F107FB03136C
:10A6B0001B1A4345E2D3BDE8F88FEFF311818AF30B
:10A6C0001288D5F808B02B68DB0304D50123C9F83C
:10A6D0000030D5F808B02368D9F80020C9B281F35A
:10A6E0001188DEF80010134407FB01F2A2EB0B0205
:10A6F000B2FBF1F207FB0323DAE700BF2CB2002024
:10A7000010E000E040BC002038BC00203CBC002031
:10A7100000ED00E0064B53F820302BB11A689B88FF
:10A7200051690B4201D1138370475383704700BFB7
:10A7300090B900202DE9F04FDFF834C1494CDFF823
:10A7400034E1DFF83481484E824648481AF1FF3A36
:10A75000C0F08680DCF80430C3F30803002B5ED120
:10A76000EFF31183002B5AD10568A26803689D425C
:10A77000FAD133689A42F7D8DEF800704FF47A7154
:10A7800001FB07F39B1AB3FBF7F301FB0535DCF87C
:10A790000430C3F308034FF010094FF47A77F3B98C
:10A7A000EFF31183DBB90368A16802689342FAD121
:10A7B00032689142F7D8DEF8002007FB02FBABEBD2
:10A7C0000101B1FBF2F107FB03135B1BB3F57A7FC9
:10A7D000BCD2DCF80430C3F30803002BE0D0EFF365
:10A7E000118189F31288D4F808B02368DB0304D5FB
:10A7F0000123C8F80030D4F808B00368D8F8002066
:10A80000C9B281F31188DEF80010134407FB01F28E
:10A81000A2EB0B02B2FBF1F207FB0323D5E7EFF348
:10A820001183102282F31288A1682268D20303D513
:10A830000122C8F80020A168D0F80090D8F8005094
:10A84000DBB283F31188DEF800704FF47A724D4466
:10A8500002FB07F35B1AB3FBF7F302FB053596E740
:10A86000BDE8F08F10E000E040BC00202CB20020DA
:10A8700000ED00E03CBC002038BC002030B4EFF319
:10A880001183102282F31288084809490268094D91
:10A89000094C013202608A682A6000222260DBB221
:10A8A0000A6883F3118830BC704700BF2CB20020C7
:10A8B00010E000E040BC002038BC002038B5254B3B
:10A8C0001C69A26BE36D62B1E26BC2B1998A1A880E
:10A8D000C90592B204D5D20744BF4FF6F7721A8069
:10A8E00038BD99891A88890692B2EDD59206EBD5C2
:10A8F000E26AFAB19888216B9047E36DE4E79989A1
:10A900001A880D0692B2E1D51006DFD5D4E90912F6
:10A910008A420AD0A1692569885C98800132B2FB1D
:10A92000F5F105FB1122A262D0E7DA6822F080027D
:10A93000DA60CBE79B88E2696169DBB28B54E2693C
:10A94000E068E36D0132B2FBF0F100FB1122E2613D
:10A95000BAE700BF580A001038B5254BDC68A26B77
:10A96000E36D62B1E26BC2B1998A1A88C90592B2ED
:10A9700004D5D20744BF4FF6F7721A8038BD9989C3
:10A980001A88890692B2EDD59206EBD5E26AFAB141
:10A990009888216B9047E36DE4E799891A880D0642
:10A9A00092B2E1D51006DFD5D4E909128A420AD065
:10A9B000A1692569885C98800132B2FBF5F105FB3D
:10A9C0001122A262D0E7DA6822F08002DA60CBE7D7
:10A9D0009B88E2696169DBB28B54E269E068E36DF0
:10A9E0000132B2FBF0F100FB1122E261BAE700BFD5
:10A9F000580A001038B5254B9C68A26BE36D62B114
:10AA0000E26BC2B1998A1A88C90592B204D5D207FD
:10AA100044BF4FF6F7721A8038BD99891A888906A3
:10AA200092B2EDD59206EBD5E26AFAB19888216B25
:10AA30009047E36DE4E799891A880D0692B2E1D553
:10AA40001006DFD5D4E909128A420AD0A169256926
:10AA5000885C98800132B2FBF5F105FB1122A262FD
:10AA6000D0E7DA6822F08002DA60CBE79B88E269FF
:10AA70006169DBB28B54E269E068E36D0132B2FBDD
