:020000040800F2
:10000000F0FF0010298B0408898D0208F1A7000871
:10001000F18B0408F18B0408F18B04080000000048
:10002000000000000000000000000000958D0208A4
:10003000918D0208000000008D8D02081DA10008AE
:10004000F18B0408F18B0408F18B0408F18B040890
:10005000F18B0408F18B0408C1AE0008EDAF000875
:10006000B1AF000875AF000839AF00082199030847
:100070001199030801990308F1980308DD98030812
:10008000C9980308B5980308F18B0408F18B04089C
:10009000F18B0408F18B0408F18B0408FDAE000815
:1000A000F18B04086D980008F18B04082D99000865
:1000B000F18B0408F18B0408AD970008CD9E03086E
:1000C000D59E0308C19E0308C99E0308F18B04084E
:1000D000F18B0408CDA3000831A3000895A2000805
:1000E00085AE0008F18B040809DC02086195000860
:1000F0002D960008F18B0408ED960008A1980308DE
:10010000F18B0408F18B0408F18B0408F18B0408CF
:10011000F9A100085DA1000859F2020845F20208A1
:100120008D9803087998030885910308659803085A
:1001300051980308F18B0408F18B0408F18B040833
:10014000F18B0408F18B0408F18B0408D1A5020897
:100150003D9803082998030815980308F18B0408B3
:10016000B59E0308BD9E0308F18B0408F18B0408BB
:10017000F18B0408F18B0408F18B0408F18B04085F
:10018000F18B0408F18B0408D08604000100000004
:100190001A023C0098280020482A00200000000095
:1001A000656003082700040094280020842A0020AA
:1001B00000000000F4060008031233002C31002078
:1001C0001C38002000000000F806000825009600FA
:1001D000D03600206637002000000000000000003C
:1001E000F6210C009C3400204C360020000000005A
:1001F0002C070008150070006C350020DC3500204D
:1002000000000000000000002A006000AC34002064
:100210000C350020000000001DA003082C00100079
:10022000FC3700200C380020000000008519010870
:100230002B002400733800204F38002000000000FD
:100240005519010829107800A833002058360020DD
:100250000000000000000000140003003433002000
:10026000A834002000000000380700081010020029
:10027000AC310020DC380020000000003C07000802
:1002800028101000302F0020E0380020000000006F
:100290002DFD000823001000542E0020F03800200F
:1002A0000000000045FD0008F8210600AE2F0020E8
:1002B00000390020000000003E0700080E50200119
:1002C000024A0020245200200000000045A003083C
:1002D00013000400044F00204453002000000000DD
:1002E00044070008010104007E4900204853002013
:1002F000000000000000000000010400764900201A
:100300004C530020000000004807000802010300D1
:10031000714900205053002000000000E1E3020872
:100320000902010048510020545300200000000041
:100330004C0700080C106C005A4B0020585300204A
:1003400000000000B9E30208010205008649002010
:10035000C4530020000000008D9701080002050032
:10036000884E0020CC530020000000000000000058
:100370001B0208001C510020D45300200000000084
:10038000655703080120080000500020DC530020BE
:10039000000000004E07000819000500B0500020C2
:1003A000E4530020000000005607000837001E003C
:1003B00088500020EC530020000000005C0700087B
:1003C0001E000500484C00200C54002000000000D6
:1003D0007A0700081B00F400103900201454002094
:1003E0000000000049A801080E020200984F0020FA
:1003F0000855002000000000800700082F001100B1
:10040000045200200C550020000000008207000864
:100410001600080030550020F457002000000000AE
:100420009407000805100600046E0020EC720020FE
:10043000000000009C070008F5317000646D00208A
:10044000F4720020000000003DA2010826000E000A
:10045000747300206473002000000000DD80020837
:100460000B201000746A0020A87300200000000018
:10047000A20700081F201C00C4610020B8730020E0
:1004800000000000B2070008050204002C6D0020E7
:10049000D473002000000000CE07000803010A000A
:1004A0002C6A0020D873002000000000D20700084A
:1004B000130203002C600020E47300200000000001
:1004C000DC07000807020200088700204C87002094
:1004D00000000000E007000802000C00DC8600209D
:1004E00050870020000000000000000006020C0001
:1004F000D08600205C87002000000000BD5E03085D
:1005000008120900548600206887002000000000BF
:10051000C5570308F70106004E86002074870020A7
:1005200000000000E20700080A020A0064850020BB
:100530007C87002000000000E8070008030001009D
:100540004486002088870020000000000000000092
:10055000100201002C9100202891002000000000D2
:10056000F20700081A000E00C0B1002054B30020AA
:1005700000000000F40700080400800054DA0020A6
:100580000CDB002000000000000000000D00340023
:10059000F0D900208CDB00200000000031E40208CC
:1005A000FD011E002CD10020C0DB00200000000057
:1005B0006181000818202C00FCD00020E0DB002026
:1005C00000000000595E03080610180058C40020FF
:1005D0000CDC002000000000A1A00308FB010100CA
:1005E00054C4002024DC0020000000002D5E03081D
:1005F000FC01090020C3002028DC002000000000CE
:100600003D5E03083400100048C2002034DC0020A6
:100610000000000075A003081102080020C200209D
:1006200044DC002000000000020800081212040050
:1006300018C200204CDC0020000000000A0800085E
:1006400012200D0008C2002050DC00200000000035
:100650000E080008F9010400ACBC002060DC00209A
:1006600000000000D981000818020200B0B6002086
:1006700064DC0020000000000000000017020B00F6
:10068000A4B6002068DC00200000000081570308A9
:10069000FA01020080B6002074DC00200000000097
:1006A000E958030802020300BCB3002078DC0020F4
:1006B00000000000000000000C02030078B30020DE
:1006C0007CDC00200000000071570308FE010900D7
:1006D00054B6002080DC002000000000FD57030815
:1006E0000A403200FCB500208CDC00200000000035
:1006F0001C080008200300000000000000000000AB
:1007000000000000000000000000000000000000E9
:1007100000000000000000000000000000000000D9
:1007200000000000000000000000010000000000C8
:1007300001000000020200000300000000050201A9
:10074000F401190008044430FA0000000000E80336
:100750006400040A000100002801000020003200AB
:10076000C800D0079600140032002800B0044006EC
:100770000005500014000F000801000001000000F7
:100780000000000000000000000000000000000069
:1007900000000000C4090000190128282000010100
:1007A00000002B21231E64010100000001000A014A
:1007B0002900000000000001000000050000010207
:1007C0000300000000000000000000000000000026
:1007D0000000040101006C16000000000000000091
:1007E000023C3F010000000000004A01B400D601B5
:1007F000260000007E05EA05B4053200E803D007B4
:1008000000000000000001010101FFFFFFFF0000E8
:100810000001000005484553500000000030010071
:1008200000000100000000000000000000000000C7
:100830000000020000019E077D0000002000010072
:10084000B80BB80BB80B2000500050005000FF0050
:100850000000D6010000650B010800000000000048
:100860000000010000000001010100006A00010118
:10087000FFFFFFFFFFFF00000100E0010101010099
:100880000000619B010800000000A8010020D83E84
:10089000050800000000000000000000000000004B
:1008A00000001034050800000000000000003E02B7
:1008B000002004000000843E05080D000000E5C58E
:1008C0000108BC1C002000000000BC3705080D001A
:1008D00000000DC60108B01C0020000000002439F3
:1008E00005080800000000000000A41C002004000F
:1008F0000000283805080D000000159C0108981C10
:10090000002000000000D83805080300000009C8D6
:1009100001088C1C002000000000E83E05080300D0
:10092000000009C80108801C0020000000005834A5
:1009300005080100000000000000000000000000A9
:100940000000000000000E00000000000000000099
:10095000000000000000D83E050800000000000074
:100960000000000000000000000010340508000036
:100970000000000000003E02002004000000303EA5
:100980000508030000002DA30108741C00200800C6
:100990000000283805080D000000159C0108981C6F
:1009A000002000000000D83805080300000009C836
:1009B00001088C1C002000000000E83E0508030030
:1009C000000009C80108801C002000000000583405
:1009D0000508010000000000000000000000000009
:1009E0000000000000000E000000000000000000F9
:1009F000000000000000F03E0508000000000000BC
:100A00000000000000000000000010340508000095
:100A10000000000000003E02002004000000383EFC
:100A200005080300000009C80108C81C00200000D8
:100A3000000058340508010000000000000000001C
:100A4000000000000000000000000E000000000098
:100A50000000000000000000000020700020702D49
:100A60007200FFFFFFFF010000000000803F080050
:100A70000000000000000000000030180020FA0014
:100A800000000100000001000000FFFF2D202D2DBF
:100A9000202D2D2D2D202D2D2D00000000000000DB
:100AA0000000000000000000000000000000FFFF48
:100AB000FFFF2C34050834340508503405080000C5
:100AC00000000000000000000000000000000B32E9
:100AD000050804000000ADC301080000000000008C
:100AE000000058340508010000000000000000006C
:100AF000000000000000000000000E0000000000E8
:100B000000000000000000000000F4DA00200100F6
:100B1000C40900000000F2DA00200100C40900004E
:100B20000000F0DA00200100C40900000000EEDA45
:100B300000200100C40900000000EADA00200100E2
:100B4000C40900000000ECDA00200100C409000024
:100B50000000E8DA00200100C40900000000E6DA25
:100B600000200100C4090000000098490020010095
:100B7000C8000100000096490020320030753200A4
:100B8000000094490020055A05009149002000FF0B
:100B900001009349002001000000640200208F49F9
:100BA000002002000000DCD404089049002000FF6F
:100BB00001009249002001000000640200208E49DB
:100BC000002002000000DCD404088449002080C119
:100BD000803E050000008249002080C1803E050063
:100BE00000007C49002080C1803E050000007A4959
:100BF000002080C1803E050000007449002000FFF5
:100C00000100704900200A3201006F4900200400F1
:100C1000000094CD04086E49002002000000A8CD19
:100C2000040800000000000000006C020020DC6CE2
:100C300000209CFF2C01000000002E0000200A0074
:100C40000000B4CD040864490020E0150C17000032
:100C500000003000002008000000B0D404082F007D
:100C6000002005000000D8CE0408664900200200DC
:100C70000000CCCD0408E04B00200100FF7F010004
:100C80000000DF4B002002000000D8CD04082E4BEE
:100C900000200000C201010000002A4B00200000DB
:100CA000C201010000002C4B00200000C201010025
:100CB0000000264B00200000803E32000000244B44
:100CC00000200000803E32000000224B0020000087
:100CD000803E32000000284B002000002C01010063
:100CE00000003A4B00200000F40101000000384BE6
:100CF00000200000F40101000000364B002000003D
:100D0000F40101000000344B00200000F401010058
:100D10000000324B00200000803E01000000304BFC
:100D200000200000803E01000000564B0020E80338
:100D3000D0070A000000544B0020006401000A00A4
:100D40000000494B002000640100484B0020006473
:100D50000100504B0020006401000A0000004F4BCE
:100D60000020006401000A0000004E4B00200064D7
:100D700001000A000000534B0020006401000A003B
:100D80000000524B0020006401000A000000514B9B
:100D90000020006401000A0000004D4B002000FF0D
:100DA00001000A0000004C4B002000FF01000A0077
:100DB00000004B4B002000FF01000A000000FE492C
:100DC00000200000F40101000000FC4900200000A8
:100DD000F40101000000FA4900200000F4010100C4
:100DE0000000F84900200000F40101000000F6496D
:100DF00000200000F40101000000464B00200064C8
:100E00000100444B00201400E80301000000424BA5
:100E10000020E80330750A000000404B002000C8A5
:100E200001003F4B002000C801003E4B002000C8DD
:100E300001003D4B0020006401000A000000D44B7B
:100E400000200000D00701000000CF4B002000C8A8
:100E50000100CE4B002000C80100CD4B002000C88F
:100E60000100D24B00200000D00701000000CC4B55
:100E7000002000C80100CB4B002000C80100CA4B75
:100E8000002000C80100D04B00200000D007010066
:100E90000000C94B002000C80100C84B002000C85A
:100EA0000100C74B002000C8010080340508000085
:100EB0000000000000000000000000000000F40638
:100EC00005080900000000000000100300200400D5
:100ED0000000FC06050809000000000000000403F3
:100EE000002004000000183C050809000000000074
:100EF0000000F80200200400000002330508090089
:100F0000000000000000EC0200200400000090340B
:100F100005080900000000000000E00200200400B5
:100F20000000983405080900000000000000D40209
:100F3000002004000000A0340508090000000000A3
:100F40000000C802002004000000A83405080900C1
:100F5000000000000000BC02002004000000583423
:100F60000508010000000000000000000000000073
:100F70000000000000000E00000000000000000063
:100F8000000000000000A836050800000000000076
:100F900000000000000000000000282505080700F0
:100FA0000000000000003403002000000000B836FC
:100FB00005080800000000000000280300200000D1
:100FC0000000C436050808000000000000001C03F3
:100FD0000020000000005834050801000000000057
:100FE00000000000000000000000000000000E00F3
:100FF0000000000000000000000000000000CC36EF
:1010000005080000000000000000000000000000D3
:101010000000DC3605080D00000000000000700331
:10102000002000000000E43605080D00000000006C
:1010300000006403002000000000EC3605080700F3
:101040000000000000005C03002000000000F436F7
:1010500005080D0000000000000050030020000003
:101060000000FC3605080D000000000000004403ED
:101070000020000000000437050807000000000001
:1010800000003C0300200000000058340508010067
:101090000000000000000000000000000000000050
:1010A00000000E0000000000000000000000000032
:1010B00000000C37050800000000000000000000E0
:1010C000000000000000282505080C0000000000BA
:1010D00000009A49002000000000203705080C009D
:1010E0000000000000009C49002000000000303794
:1010F00005080C00000000000000D249002000009C
:101100000000403705080C00000000000000C64940
:10111000002000000000543705080C00000000000B
:1011200000009E49002000000000603705080C0008
:10113000000000000000A049002000000000683707
:1011400005080C00000000000000A249002000007B
:1011500000007C3705080C00000000000000A449D6
:10116000002000000000843705080C00000000008B
:101170000000A6490020000000008C3705080C0084
:10118000000000000000E449002000000000A43737
:1011900005080C00000000000000A8490020000025
:1011A0000000B03705080C00000000000000AA494C
:1011B000002000000000040705080C0000000000EB
:1011C0000000AC49002000000000B83705080C0002
:1011D000000000000000AE49002000000000C437FD
:1011E00005080C00000000000000B04900200000CD
:1011F0000000D03705080C00000000000000B249D4
:10120000002000000000DC3705080C000000000092
:101210000000B449002000000000E83705080C0079
:10122000000000000000B649002000000000F43774
:1012300005080C00000000000000CA490020000062
:101240000000FC3705080C00000000000000C84941
:10125000002000000000043805080C000000000019
:101260000000D649002000000000103805080C00DE
:10127000000000000000D8490020000000001C38D9
:1012800005080C00000000000000DE4900200000FE
:1012900000004C3505080C00000000000000B849B3
:1012A000002000000000283805080C0000000000A5
:1012B0000000C049002000000000303805080C0084
:1012C000000000000000BA490020000000003C3887
:1012D00005080C00000000000000BC4900200000D0
:1012E0000000483805080C00000000000000BE495E
:1012F000002000000000503805080C00000000002D
:101300000000C249002000000000482505080C002C
:10131000000000000000CC490020000000005C3804
:1013200005080C00000000000000C4490020000077
:101330000000983305080C00000000000000D449AC
:10134000002000000000683805080C0000000000C4
:101350000000CE49002000000000703805080C0095
:10136000000000000000D049002000000000783894
:1013700005080C00000000000000DA490020000011
:101380000000803805080C00000000000000DC4967
:10139000002000000000883805080C000000000054
:1013A0000000EE490020000000005834050801004C
:1013B000000000000000000000000000000000002D
:1013C00000000E000000000000000000000000000F
:1013D0000000903805080000000000000000000038
:1013E0000000000000009C3805080D00000000000F
:1013F0000000C803002000000000A43805080D000C
:10140000000000000000BC03002000000000AC3819
:1014100005080700000000000000B40300200000E1
:101420000000B83805080700000000000000AC0309
:10143000002000000000C43805080900000000007A
:101440000000A003002000000000D03805080900BB
:101450000000000000009403002000000000DC38C1
:1014600005080900000000000000880300200000BB
:101470000000EC38050809000000000000007C03B3
:1014800000200000000058340508010000000000A2
:1014900000000000000000000000000000000E003E
:1014A0000000000000000000000000000000003903
:1014B000050800000000000000000000000000001F
:1014C0000000103905080500000000000000F54983
:1014D0000020000000005834050801000000000052
:1014E00000000000000000000000000000000E00EE
:1014F000000000000000000000000000000018399B
:1015000005080000000000000000000000000000CE
:1015100000001034050800000000000000006C1EF0
:10152000002004000000FE3205080D00000011C478
:1015300001081C04002000000000843E05080D0086
:101540000000199B01081004002000000000BC37B7
:1015500005080D000000FD9A0108040400200000A9
:101560000000243905080800000000000000F8030E
:10157000002004000000283805080D000000459AEE
:101580000108EC030020000000002C3905080900C8
:10159000000000000000E003002004000000D83834
:1015A00005080300000009C80108D403002000005A
:1015B0000000583405080100000000000000000091
:1015C000000000000000000000000E00000000000D
:1015D0000000000000000000000034390508000091
:1015E000000000000000000000000000000044397E
:1015F00005080D0000000000000034040020000079
:1016000000004C3905080A00000000000000604F8F
:10161000002000000000583905080A000000000002
:101620000000684F002000000000603905080A0033
:10163000000000000000704F00200000000068392A
:101640000508080000000000000028040020000039
:10165000000070390508040000003DC901080000C1
:1016600000000000000058340508010000000000E0
:1016700000000000000000000000000000000E005C
:1016800000000000000000000000000000007C39A5
:10169000050800000000000000000000000000003D
:1016A0000000903905080000000000000000000064
:1016B000000000000000B03905080800000000002C
:1016C00000008804002000000000B8390508080068
:1016D0000000000000007C04002000000000C03971
:1016E0000508080000000000000070040020000051
:1016F0000000C8390508080000000000000064046C
:10170000002000000000D03905080800000000009B
:1017100000005804002000000000DC390508080023
:101720000000000000004C04002000000000E83928
:101730000508080000000000000040040020000030
:1017400000005834050801000000000000000000FF
:10175000000000000000F03905080200000091C9F7
:1017600001080200000000000000000000000E0060
:101770000000000000000000000000000000FC3934
:10178000050800000000000000000000000000004C
:101790000000103A05080800000000000000D00416
:1017A0000020000000001C3A0508080000000000AE
:1017B0000000C404002000000000283A05080800CA
:1017C000000000000000B804002000000000343ACF
:1017D00005080800000000000000AC040020000024
:1017E0000000403A05080800000000000000A004C6
:1017F0000020000000004C3A05080800000000002E
:101800000000940400200000000058340508010086
:1018100000000000000000000000000000000000C8
:1018200000000E00000000000000000000000000AA
:101830000000583A050800000000000000000F02F8
:10184000002000000000643A05080B0000000000C2
:1018500000006405002000000000703A05080B003D
:1018600000000000000058050020000000007C3A45
:1018700005080B000000000000004C0500200000DF
:101880000000883A05080B00000000000000400539
:10189000002000000000943A05080B000000000042
:1018A00000003405002000000000A03A05080B00ED
:1018B0000000000000002805002000000000AC3AF5
:1018C00005080B000000000000001C0500200000BF
:1018D0000000B83A05080B000000000000001005E9
:1018E000002000000000C43A05080B0000000000C2
:1018F00000000405002000000000D03A05080700A1
:10190000000000000000FC04002000000000D83AA5
:1019100005080700000000000000F404002000009B
:101920000000E43A05080B00000000000000E80495
:10193000002000000000F03A050808000000000048
:101940000000DC04002000000000583405080100FD
:101950000000000000000000000000000000000087
:1019600000000E0000000000000000000000000069
:101970000000FC3A05080000000000000000000024
:10198000000000000000103B0508080000000000F7
:101990000000A0050020000000001C3B0508080016
:1019A0000000000000009405002000000000283B1B
:1019B0000508080000000000000088050020000065
:1019C0000000343B050808000000000000007C0512
:1019D000002000000000E8390508080000000000B1
:1019E00000007005002000000000583405080100C8
:1019F00000000000000000000000000000000000E7
:101A000000000E00000000000000000000000000C8
:101A10000000403B050800000000000000000C0230
:101A2000002000000000503B05080B0000000000F3
:101A30000000E4050020000000005C3B05080700F2
:101A4000000000000000DC05002000000000683BF2
:101A500005080700000000000000D4050020000079
:101A60000000743B05080700000000000000CC05E2
:101A7000002000000000803B050808000000000076
:101A80000000C005002000000000883B0508080099
:101A9000000000000000B405002000000000903BA2
:101AA00005080700000000000000AC050020000051
:101AB000000058340508010000000000000000008C
:101AC000000000000000000000000E000000000008
:101AD000000000000000000000009C3B0508000022
:101AE0000000000000000C02002000000000A83BE5
:101AF0000508070000000000000054060020000058
:101B00000000B03B050807000000000000004C0684
:101B1000002000000000B83B05080700000000009E
:101B200000004406002000000000C03B050808003B
:101B30000000000000003806002000000000C83B44
:101B4000050807000000000000003006002000002B
:101B50000000D03B05080700000000000000280638
:101B6000002000000000D83B05080700000000002E
:101B700000002006002000000000E03B05080800EF
:101B80000000000000001406002000000000E83BF8
:101B9000050807000000000000000C0600200000FF
:101BA0000000F03B050807000000000000000406EC
:101BB000002000000000F83B0508070000000000BE
:101BC0000000FC05002000000000003C05080800A3
:101BD000000000000000F005002000000000583464
:101BE00005080100000000000000000000000000E7
:101BF0000000000000000E000000000000000000D7
:101C000000000000000000000000899E01085C0642
:101C10000020F34900202B000000E8CD0408F24921
:101C2000002000C80100F0490020E803D0070100AF
:101C3000000048454C494F535052494E47008D498A
:101C40000020000301008C49002000030100D19D09
:101C50000108A99D010838070020659D0108199D0C
:101C60000108B0070020119E0108F99D01086408D1
:101C70000020859C0108399C0108840B00209F9E50
:101C8000010835C60108600C0020859A0108000093
:101C90000000B00C002019C9010889A101088C0DB1
:101CA0000020699F01082D9F0108400E0020D99F48
:101CB0000108A59F0108300F00205DA00108A9A020
:101CC0000108E40F0020474B002001060100F99EA7
:101CD0000108C59E0108241100200DA0010865C659
:101CE0000108C4110020D9A00108B5C601088C1252
:101CF00000203C4B002001030100083C05080000C7
:101D00000000000000000000000000000000143C83
:101D100005080800000000000000D81300200000A3
:101D200000001C3C05080700000000000000D01364
:101D30000020000000002C3C05080D000000000001
:101D40000000C413002000000000383C0508030018
:101D5000000009C80108B813002000000000583432
:101D60000508010000000000000000000000000065
:101D70000000000000000E00000000000000000055
:101D8000000000000000403C0508000000000000CA
:101D900000000000000000000000503C05080A00A0
:101DA000000000000000583C050800000000603CF6
:101DB00005080A0000000000000000F5040800000B
:101DC0000000683C05080A00000000000000D64B37
:101DD000002000000000703C05080A000000000020
:101DE0000000E41300200000000058340508010042
:101DF00000000000000000000000000000000000E3
:101E000000000E00000000000000000000000000C4
:101E10000000783C05080000000000000000000001
:101E2000000000000000843C05080300000009C811
:101E300001081814002000000000903C0508030071
:101E4000000009C801080C14002000000000983CA4
:101E500005080300000009C8010800140020000064
:101E60000000A03C050805000000000000008B49B0
:101E7000002000000000A83C05080700000000004A
:101E80000000F813002000000000B43C0508070023
:101E9000000000000000F013002000000000583493
:101EA0000508010000000000000000000000000024
:101EB0000000000000000E00000000000000000014
:101EC000000000000000C03C050800000000000009
:101ED00000000000000000000000D43C05080300E2
:101EE000000009C801084814002000000000E03C80
:101EF00005080300000009C80108340000200000A4
:101F00000000E83C05080300000009C801083C1473
:101F1000002000000000F03C05080300000009C894
:101F200001083014002000000000283805080300D4
:101F3000000009C8010824140020000000005834E3
:101F40000508010000000000000000000000000083
:101F50000000000000000E00000000000000000073
:101F6000000000000000FC3C05080000000000002C
:101F7000000000000000000000000C3D0508070004
:101F8000000011C70108A4140020000000004C3814
:101F900005080300000009C801089814002000008B
:101FA0000000183D05080300000009C801088C1452
:101FB000002000000000203D05080300000009C8C3
:101FC00001088014002000000000283D05080700DB
:101FD0000000F5C601087814002000000000284128
:101FE00005080300000009C801086C140020000067
:101FF0000000343D05080300000009C80108601412
:10200000002000000000403D05080300000009C852
:102010000108541400200000000058340508010095
:1020200000000000000000000000000000000000B0
:1020300000000E0000000000000000000000000092
:102040000000599E0108299E0108AC14002055A1EA
:1020500001080000000038150020F59C0108D19C03
:102060000108C415002000000000000000007816E0
:1020700000202DA101082DC7010818170020483D98
:102080000508000000000000000000000000000043
:102090000000543D05080300000009C80108241889
:1020A0000020000000005C3D05080300000009C896
:1020B0000108181800200000000040260508030051
:1020C000000009C801080C18002000000000683D4D
:1020D00005080300000009C80108001800200000DE
:1020E0000000743D05080300000009C80108F4174A
:1020F0000020000000007C3D05080200000091C99E
:1021000001080000000000000000843D05080200F6
:10211000000091C901080100000000000000F03932
:1021200005080200000091C901080200000000003B
:102130000000000000000E00000000000000000091
:102140000000000000006A49002088136F1701009A
:1021500000006C49002088136F1700000000903DBC
:102160000508000000000000000000000000000062
:102170000000A03D05080800000000000000041950
:10218000002004000000AC3D05080800000000002D
:102190000000F818002000000000D83805080400EE
:1021A000000039C40108000000000000000058349D
:1021B0000508010000000000000000000000000011
:1021C0000000000000000E00000000000000000001
:1021D0000000000000006849002088136F1701000C
:1021E0000000186D002088136F1700000000C99BC5
:1021F00001080000000010190020014F002001001C
:10220000000098CE04081A6D002001000000A4CE42
:102210000408106D002002000000ACCE0408166215
:1022200000200000000000000000146200200000F8
:10223000000000000000126200200000000000000A
:1022400000001062002000000000000000000E628C
:10225000002000000000000000000C6200200000D0
:10226000000000000000A41E00200000000000008C
:1022700000006749002002000000B8CE0408E83DD5
:102280000508000000000000000000000000000041
:102290000000A03D0508080000000000000094199F
:1022A000002004000000AC3D05080800000000000C
:1022B00000008819002000000000D838050804003C
:1022C0000000999B01080000000000000000583445
:1022D00005080100000000000000000000000000F0
:1022E0000000000000000E000000000000000000E0
:1022F000000000000000F83D05080000000000009C
:1023000000000000000000000000083E05080D006D
:10231000000089C50108C419002004000000143E13
:1023200005080D000000F19B0108B8190020040009
:102330000000203E05080D0000004DC50108AC1945
:102340000020000000002C3E0508030000004DA303
:102350000108A019002008000000383E050803000D
:10236000000009C80108C81C002000000000583403
:10237000050801000000000000000000000000004F
:102380000000000000000E0000000000000000003F
:1023900000000000000050340508000000000000AC
:1023A000000000000000000000000B3205080400DF
:1023B000000051C401080000000000000000583473
:1023C00005080100000000000000000000000000FF
:1023D0000000000000000E000000000000000000EF
:1023E0000000000000008C3E050800000000000016
:1023F00000000000000000000000240B05080D0094
:10240000000000000000241A0020040000009C3E90
:1024100005080800000000000000181A0020040051
:102420000000A83E050808000000000000000C1A8B
:10243000002004000000B03E050808000000000075
:102440000000001A002004000000B83E0508080043
:10245000000000000000F419002004000000C03E4D
:1024600005080800000000000000E8190020040032
:102470000000C83E05080800000000000000DC194C
:10248000002004000000D03E050808000000000005
:102490000000D01900200400000058340508010095
:1024A000000000000000000000000000000000002C
:1024B00000000E000000000000000000000000000E
:1024C0000000B19B010800000000301A002000004D
:1024D000000000000000A81A00200000000000001A
:1024E0000000481B0020166D002004000000C4CE30
:1024F0000408146D0020E0150C1700000000136D97
:10250000002008000000B0D40408126D002005006F
:102510000000D8CE04080000000000000000981B56
:102520000020010102FFFF00000004030904120162
:102530000002EF020140830456320002010203014F
:102540000000120100020202004083044057000212
:1025500001020301000009022000010104C0320948
:10256000040000020806500507058102400000072C
:1025700005010240000009026400030100C03209A5
:1025800004000001030000000921110100012226BE
:10259000000705830308000A080B0102020201007C
:1025A00009040100010202010005240010010524B4
:1025B0000100020424020205240601020705820329
:1025C0000800FF09040200020A00000007050102DA
:1025D000400000070581024000000902430002019B
:1025E00000C03209040000010202010005240010AD
:1025F000010524010001042402020524060001074C
:102600000582030800FF09040100020A0000000718
:102610000501024000000705810240000000FF00A4
:10262000000000FFFF0000000000AA5505010000A7
:10263000010005010905A101A100050109300931C9
:102640000932093309350934094009381581257FD4
:10265000750895088102C0C000000902220001012E
:1026600000E0320904000001030102000921110108
:1026700000012226000705830308000A000000006D
:1026800000000102030401020304060708099597EC
:1026900002085D9E0208D9990208617502088577D3
:1026A0000208717502088D750208397502082975CE
:1026B000020800000000000000002D202D2D202D1C
:1026C0002D2D2D202D2D2D2D0000000000000000AF
:1026D000000000000000000000AA550B010000AA45
:1026E0005507010000AA5509020000000000010082
:1026F0000000C012AA5503009F00FF1FFF1F01002A
:10270000000084730020000000000C24002004005E
:10271000000074250508D441050800000000F5E319
:102720000208A08601000400000000000000000074
:102730000000000000000000000000000000000099
:1027400000000000000074250508C84305080000CB
:10275000000001800008E803000004000000000001
:102760000000000000000000000000000000000069
:10277000000000000000000000004C3805081007B1
:10278000050800000000150C03087D00000006008D
:102790000000000000000000000000000000000039
:1027A0000000000000000000000000000000CC2439
:1027B00005080000000000000000BDE60008E80376
:1027C0000000030000000000000000000000000006
:1027D00000000000000000000000000000000000F9
:1027E0000000D0430508000000000000000065A3C1
:1027F0000308102700000300000000000000000094
:1028000000000000000000000000000000000000C8
:10281000000000000000103F0508000000005116F5
:1028200001084DBC00085F760000050000000000B4
:102830000000000000000000000000000000000098
:102840000000000000000000000034270508000020
:1028500000000000000005F2000810270000010041
:102860000000000000000000000000000000000068
:102870000000000000000000000000000000DC4339
:102880000508000000000000000005800008E803C3
:102890000000050000000000000000000000000033
:1028A0000000000000000000000000000000000028
:1028B0000000E843050800000000000000002DF7BC
:1028C0000208204E0000030000000000000000008D
:1028D00000000000000000000000000000000000F8
:1028E000000000000000F8430508000000000000A0
:1028F000000019F50208204E00000300000000004F
:1029000000000000000000000000000000000000C7
:10291000000000000000000000000844050800005E
:1029200000000000000051850008400D0300030076
:102930000000000000000000000000000000000097
:102940000000000000000000000000000000382629
:1029500005080000000000000000DD460308102705
:102960000000010000000000000000000000000066
:102970000000000000000000000000000000000057
:102980000000E42405080000000000000000E5DE6F
:1029900001081027000003000000000000000000F4
:1029A0000000000000000000000000000000000027
:1029B00000000000000018440508000000000000AE
:1029C0000000D9270108A0860100010000000000D6
:1029D00000000000000000000000000000000000F7
:1029E000000000000000000000004C350508000059
:1029F000000000000000110F0208A86100000100A3
:102A000000000000000000000000000000000000C6
:102A10000000000000000000000000000000204452
:102A200005080000000000000000E9FA0108A08687
:102A30000100010000000000000000000000000094
:102A40000000000000000000000000000000000086
:102A500000003C270508000000000000000089225B
:102A60000208A00F000001000000000000000000AC
:102A70000000000000000000000000000000000056
:102A80000000000000002C440508000000000000C9
:102A9000000031A401081027000001000000000020
:102AA0000000000000000000000000000000000026
:102AB00000000000000000000000402605080000A3
:102AC000000000000000C1BB02081A410000010024
:102AD00000000000000000000000000000000000F6
:102AE00000000000000000000000000000009C2723
:102AF00005080000000000000000917D020810277A
:102B000000000100000000000000000000000000C4
:102B100000000000000000000000000000000000B5
:102B20000000E8410508000000000000000011CB93
:102B300001081A4100000100000000000000000030
:102B40000000000000000000000000000000000085
:102B500000000000000038440508000000000000EC
:102B600000003DB70208400D030000000000000017
:102B70000000000000000000000000000000000055
:102B800000000000000000000000404405080000B4
:102B9000000000000000CD0E0208400D0300000000
:102BA0000000000000000000000000000000000025
:102BB0000000000000000000000000000000484489
:102BC0000508000000000000000061EC010850C38F
:102BD00000000300000000000000000000000000F2
:102BE00000000000000000000000000000000000E5
:102BF00000005444050800000000000000008DF4AF
:102C0000020840420F000000000000000000000029
:102C100000000000000000000000000000000000B4
:102C200000000000000060440508000000000000F3
:102C300000001549030850C3000000000000000018
:102C40000000000000000000000000000000000084
:102C5000000000000000000000000002000510025B
:102C6000700B000000003C870020080000000000FE
:102C700000002C87002008000000ED7A0208B976D9
:102C80000208B5990208000000002575020869A134
:102C90000208A17A0208ED96020800000000000078
:102CA0000000E17402087574020869740208398E24
:102CB0000208558E02081D8E0208018E0208E58D5D
:102CC0000208A57A020895760208F5980208000025
:102CD0000000F9740208F1960208757A02084D9610
:102CE00002080000000000000000ED74020800006F
:102CF000803F0000000000000000000000008CDCAD
:102D000004080508040000000000D8CE0408B0D470
:102D10000408C4CE04080000000000000000B8DC75
:102D2000040805080A0000000000D8CE0408B0D44A
:102D30000408B4CD040800000000000000001A03DD
:102D40000000000000000000000000000000000083
:102D5000000000000000000000000403090412014C
:102D6000000200000040830420570002010203011A
:102D70000000D176030845580308415803083D5820
:102D80000308ED610308395803083558030884DE49
:102D9000040809A1020875760208F19F02080000E4
:102DA000000000000000259602084195020800007E
:102DB00000000000000000000000D5740208DD588B
:102DC0000308D15803083D67030859670308895869
:102DD000030821670308056703080100000050018C
:102DE00000000700000002000000000000000000DA
:102DF000000001020304060708090000803F0000EC
:102E0000000000000000000000000000803F000003
:102E100000000000000000000000000000000000B2
:102E200000000000000000000000000000000000A2
:102E30000000010000000000803F000000000000D2
:102E40000000000000000000803F010000000800BA
:102E5000000065740208617402085D740208517410
:102E600002084D74020859740208557402080100E2
:102E700000000060024010600240000000000000FE
:102E80000000000B00000000000000000000000037
:102E900000000060024028600240010000000000C5
:102EA0000000060C00000000000000000000000010
:102EB000000000600240406002400200000000008C
:102EC0000000100D000000000000000000000000E5
:102ED0000000006002405860024003000000000053
:102EE0000000160E000000000000000000000000BE
:102EF000000000600240706002400400000000001A
:102F00000000200F00000000000000000000000092
:102F100000000060024088600240050000000000E0
:102F2000000026100000000000000000000000006B
:102F3000000000600240A0600240060000000000A7
:102F40000000301100000000000000000000000040
:102F5000000000600240B86002400700000000006E
:102F60000000362F000000000000000000000000FC
:102F700000000064024010640240000000000000F5
:102F80000000003800000000000000000000000009
:102F900000000064024028640240010000000000BC
:102FA00000000639000000000000000000000000E2
:102FB0000000006402404064024002000000000083
:102FC0000000103A000000000000000000000000B7
:102FD000000000640240586402400300000000004A
:102FE0000000163B00000000000000000000000090
:102FF0000000006402407064024004000000000011
:103000000000203C00000000000000000000000064
:1030100000000064024088640240050000000000D7
:103020000000264400000000000000000000000036
:10303000000000640240A06402400600000000009E
:10304000000030450000000000000000000000000B
:10305000000000640240B864024007000000000065
:1030600000003646000000000000000000000000E4
:1030700000002828002000000000000000000000E0
:103080000000000000000000000000000000000040
:103090000000000000000000000000000000000030
:1030A0000000000000000000000000000000000020
:1030B0000000000000000000000000000000000010
:1030C0000000000000000000000000000000000000
:1030D00000000000000001000000000000000000EF
:1030E00000000000000000000000000000000000E0
:1030F00000000000000000000000000000000000D0
:1031000000000000000000000000000000000000BF
:1031100000000000000000000000000000000000AF
:10800000704700BF38B50B4C23688BB15A68821A91
:10801000002A054604DA0BE05A68AA1A002A07DB90
:108020009A68226018461A6890472368002BF3D19B
:1080300038BD00BF682C0020436A8269D154436A6E
:108040000169C26B01338B4228BF00234362DAB15E
:10805000EFF31183502282F31288C26B1168C907B3
:108060000ED470B45468FCB9D0E909518D4211D1D5
:10807000012280F86020DBB283F3118870BC704766
:10808000DBB283F311887047C26DD36843F080037D
:10809000D360704786690E44D6600ED9691A516064
:1080A0008562002180F86010116841F00101DBB2A7
:1080B000116083F3118870BC70470569691A5160BB
:1080C0008462EEE7034610B4846BD968406954B10A
:1080D0001A6D8C1A013A005D5DF8044B08BF0A4620
:1080E000C0B21A6570471A6A805C01328A4228BFA2
:1080F0002246C0B21A625DF8044B7047C36B13B1DD
:1081000090F860007047D0E90903181AB0FA80F0BF
:1081100040097047D0E909120369914238BFC91874
:108120008A1AC16B013B19B149680A449A4201D2CB
:10813000981A704700207047836B43B1026D5B68EB
:108140009A4291BF981AC0689B1AC0187047D0E92C
:1081500007239A422FBFD01AC0688018C01A7047F0
:108160000A4B30B503F1140493F900205D78072A17
:10817000C8BF143A811804338D7213F8025C855419
:1081800013F8012C0A759C42EED130BD20A50408DD
:1081900003682DE9F0415D6A1DB12B46BDE8F04151
:1081A0001847002A174611DD04460E460F4400E02A
:1081B00023689B68204698470028F9D0236816F862
:1081C000011B1B6820469847BE42F1D1BDE8F081F3
:1081D00003681B69184700BF002327220270437001
:1081E0008370C370704700BF0028F0B403DA2D23FA
:1081F0000B7040420131092804464FF0010307DDAE
:1082000003EB83035B00B0FBF3F2092AF8D883B1D8
:108210000F48A0FB0326B4FBF3F2092A02F1570C26
:1082200002F1300709DD03FB1244F30801F801CB2A
:10823000EFD100230B70F0BC704703FB1244F3082E
:1082400001F8017BE5D100230B70F0BC704700BF43
:10825000CDCCCCCC884270B44FF0010442D301FBAA
:1082600004F4B0FBF4F58D42F9D2ECB142BB092D18
:1082700004FB150005F1570605F130020EDDB4FBD5
:10828000F1F403F8016B7CB1B0FBF4F5092D04FBAC
:10829000150005F1570605F13002F0DCB4FBF1F4EE
:1082A00003F8012B002CEFD100221A7070BC70472C
:1082B00003F8016BB4FBF1F4002CF5D0B0FBF4F53E
:1082C000092D04FB150005F1370605F13002EFDC3E
:1082D000B4FBF1F403F8012B002CEFD100221A704B
:1082E00070BC70470546002AEAD1C0E72DE9F04787
:1082F00014461D4606464FF47A720023204629464E
:1083000040F046FA4D4BDFF850814D4A4D4F034443
:1083100088FB03101844D91782FB032CC1EB6010B3
:1083200088FB002887FB03279C44474AC1EBEC2CC1
:10833000C0EB001E82FB0C29A3EB8E0E1F44434AA8
:1083400086F806E0C1EB27474FEAEC7E08EB000A0F
:10835000CEEBA90E82FB07824FEAE0780EEB4E0EC1
:10836000C8EB6A18ACEBCE0CC8EB0818DFF8ECE0F1
:1083700086F804C0A0EB880070718EFB0303F81729
:10838000C0EBE21240F2B55000FB1272C1EBE353B6
:10839000B2F5896F4FEA83073FDA40F2DA239A4257
:1083A00043DCB2F5B77FB4BF4FF0000E4FF0010EC3
:1083B0004FEA4E08264B08EB0E0103EBC1031FFAF0
:1083C0008EFC588D234908EB0E0301EBC3011631D7
:1083D0000B2301E031F8020D90421BDD013BF9D186
:1083E0001B4BC64403EBCE0E0123BEF81400B37042
:1083F00007F5FA670132121ABC44F270A6F800C001
:10840000204629464FF47A72002340F0C1F93281A8
:10841000BDE8F0870133DBB2E9E74FF0030CE64635
:1084200040F296504FF00608CCE74FF0020CE646BB
:1084300040F229404FF00408C4E700BF80BC92C757
:10844000C5B3A29107452EC2ABAAAA2A73B06D1676
:1084500020A5040834A5040889888888792D03118B
:1084600030B403888278174DC478A3F5FA6303F01B
:10847000030101EB4101013A02EB810205EB4202EB
:10848000611E958A027940F2B5549B0804FB0313E0
:108490002B4403EB430302EBC303427984790A497B
:1084A0000089C3EB031302EB83032144C3EB0313E3
:1084B00001EB83034FF47A720021C2FB030130BC4D
:1084C000704700BF20A5040880436D3803685A1C1C
:1084D00002601970704700BF2DE9F047089C2578AD
:1084E000002B804689460CBF4FF0200A4FF0300A1F
:1084F000661C25B3002A26DD334601E0024698B10A
:1085000013F8011B501E0029F8D1971E60B13D469B
:10851000013D51464046C8476B1C002BF8DC2578CE
:1085200027EAE770013045B1041B29464046C84799
:10853000301916F8015B002DF7D1BDE8F087002A4D
:1085400003DC2846F9E70020EEE7571EDFE700BF0F
:108550002DE9F0478C4A8D4B12781C78D2070646DD
:1085600048D58B4D012C00F091801ED3022C40F099
:108570009B808849884A09881288884F914201D98E
:1085800001241C70EB7AFBB12B89EBB1844B1B7877
:10859000D3B126F097FE002800F0E2802B7B8342C7
:1085A0002CBF012300233B700FE0DFF8E8C17B4FB5
:1085B0007C4CBCF800002288697B521A8242DFDAC8
:1085C000EB7A0024002BDFD13B782A79632A07D885
:1085D0007549022C087800F0B880002840F0A0808F
:1085E0007249AA7A9C4238BF1C460C70002A44D1BA
:1085F000BDE8F087DFF89CC1654DBCF80000BCF811
:10860000021095F803E06A4F411A0029A4F1030211
:10861000B8BF4942704597F80080D2B211D32F7885
:1086200087420ED3012A45D9B8F1020F9AD15C488E
:10863000604A007890800229CCBF00210121D180BE
:1086400090E7B0EB4E0FEDDC012A40F28C8002295E
:10865000EADC0324514F524852494F4A1C70B8F18A
:10866000020F4FF000033C7003700B80138089D120
:10867000504A01219380D18084E7012C6BD0022CD9
:10868000B6D10720BDE8F04727F0D8BD424A41499E
:108690001288687B0988121A914207DD414A1288C4
:1086A0008A423CBF00241C703C4F6BE702241C70C4
:1086B0003A4F67E70229B7DC95F800E090FBFEFE31
:1086C0000EF1010EBEF1080FDFF8D4A0AA78697888
:1086D000DFF8C490334C314FA8BF4FF0080E8AF832
:1086E00000E01FFA8EFA11FB0AF112FB0AF2DFF822
:1086F000B8A0A9F8001092B200214FF06409B8F1B7
:10870000020F228039701970CAF804108AF801909B
:108710007FF452AF274A0121A2F804E0D18048E754
:108720004868301A244EB042C8BF4A703FF758AF6D
:10873000C2F16402214E00FB02F086FB0062C0170A
:10874000A0EBA250643048704AE70028E8D1012726
:108750004E600F70ECE70820BDE8F04727F06EBDD3
:1087600002233B7031E7032C7FF471AFB8F1020FA5
:108770009AD10B4A0F4B12789A800229CCBF002164
:108780000121D980054FFDE6366A0020C084002013
:10879000746A00205C6A0020C484002020850020C8
:1087A000626A0020C2840020C8840020186E002065
:1087B000ADB30020B0B300207F9698006BCA5F6B0A
:1087C00070B53C4B3C481A785B783C493C4C3D4D7D
:1087D00002EB420203EBC30301EB430300EB421243
:1087E0002B60226038F01EFA00213022364840F01B
:1087F0009BFA206834F000FF344B256803F17801C0
:1088000002E006338B4252D01A78002AF9D19C78C4
:10881000D878844202D358790028F2D02C492D4BC5
:108820000C792D4EC820642111FB040159602B4C9A
:108830002B4832700021C3E90211C3E90411C3E9D6
:10884000061183F8201083F82110264B0560236061
:108850000DF0C6FBA3889FED245A244AA1799FED11
:10886000246A507906EE903AF8EEE66A1388C5EE6F
:10887000265A07EE103A1F4B1960538812791E4989
:1088800007EE903AB8EEC77A1C4BC1ED005AF8EEED
:10889000E77A18725A7227EE067A67EE867ABDE892
:1088A000704083ED017AC3ED007A14F035BE0122E9
:1088B000B4E700BF08C20020024A00205A4B002043
:1088C000FC6F0020007000208CB20020A833002034
:1088D00000500020386A0020FC250020902800204D
:1088E000C0B200205A2E0020C0C9FB4830550020DD
:1088F00017B7D1380CB0002010B00020E4AF002032
:1089000030B50446C06D21718389A26823F40053F9
:108910001B041B0C838185B06379009213F0040F54
:108920004FEA03324FEA03230CBF00254FF4805572
:1089300003F4806302F40052ADF80450ADF808303F
:10894000002511F00103ADF80620ADF80C501CD144
:10895000ADF80A3008238A07694648BFADF80A30E7
:1089600022F050F9637913F0080FE36D9A8A05BF7E
:1089700022F00802120442F00802120C9A829A892C
:1089800042F400529A8105B030BD0423ADF80A309C
:108990000C23E0E730B50446C06DA160838923F461
:1089A00000531B041B0C8381637985B013F0040F03
:1089B000009108BF0025217918BF4FF48055ADF80C
:1089C00004501A0300251B0203F48063ADF80A501B
:1089D000ADF80C50CD07ADF8083002F4005244BF9A
:1089E0000423ADF80A30ADF806204CBF0C23082351
:1089F0008A07694648BFADF80A3022F003F9637967
:108A000013F0080FE36D9A8A05BF22F008021204E2
:108A100042F00802120C9A829A8942F400529A811A
:108A200005B030BDF8B50468C4F30D0405460E4624
:108A300004B32F6821F0A2FB092840F08880454C40
:108A4000236923F440732361236943F40073236192
:108A5000236943F0010323613E6021F08FFB23690A
:108A6000092823F00103236171D12B6804332B60A3
:108A7000002035E0384B394A93422BD902F5804229
:108A8000934226D902F5804293422AD902F58042C8
:108A9000934228D902F58032934226D902F500325A
:108AA000934224D902F50032934222D902F50032D2
:108AB000934220D902F5003293421ED902F580225A
:108AC00093421CD9B3F1016F1BD33CF09DF930F0F8
:108AD0000FFD082421F052FB092814D04FF0FF307D
:108AE000F8BD1024F6E71824F4E72024F2E7282440
:108AF000F0E73024EEE73824ECE74024EAE74824A6
:108B0000E8E75824E6E7134F3B6923F440733B61E1
:108B10003B6943F400733B613B6923F0F8033B611D
:108B20003B6943F002031C433C613B6943F48033DF
:108B30003B6121F023FB3B6923F002033B613B696E
:108B4000092823F0F8033B613FF473AFC6E76FF0E9
:108B50000100C5E7003C024000400008FF3F00085C
:108B6000F8B504460D468E180027B542206900D19D
:108B7000F8BDE368591CE160234415F8012B1A7213
:108B80000429F2D118B9A1682046FFF74BFFC4E9C8
:108B90000370EAE702280FD8094A0A4B0A4910B4C1
:108BA00000EB40041070013003EB4413C0B25DF8D9
:108BB000044B0B6027F080BB0130C0B227F07CBBB8
:108BC00008C20020024A0020FC6F0020DFED2B7A53
:108BD000B4EEE70AF1EE10FA4ADDDFED296A9FED07
:108BE000297A01E0B0EE670AB4EEC70AF1EE10FA96
:108BF00070EE667AF6DC9FED247AF4EEC77AF1EE39
:108C000010FA38D5DFED1E6A9FED207A01E0F0EE14
:108C1000407AF4EEC77AF1EE10FA37EEA60AF6D4EF
:108C2000DFED1B7AB4EEE70AF1EE10FA14DDDFEDAA
:108C3000137A37EEC00A60EE006A9FED166A9FED68
:108C4000167ADFED167AA6EE867A20EE266AE6EE32
:108C5000877AA6EE270A7047DFED117AB4EEE70AAD
:108C6000F1EE10FA44BFDFED087A37EEC00AE2E712
:108C7000F0EE407ABFE7B0EE670AD1E7DB0F49407C
:108C8000DB0FC940E4CB1641DB0F49C0E4CB16C172
:108C9000DB0FC93F92E741B99730083C15A82ABEBF
:108CA000DB0FC9BF074B1B7853B9074B00F12002FC
:108CB00050F8041B43F8041B9042F9D1012070477F
:108CC00000207047F0300020F130002010B5154C26
:108CD00094F84230002B144B14BF012200221A706A
:108CE0000BD0042204F12801104840F05BF8142254
:108CF00004F12D010E4840F055F894F84330002B54
:108D00000C4B14BF012200221A7009D00A4B0B4AE7
:108D100003F1200153F8040B42F8040B8B42F9D104
:108D200010BD00BF9028002011310020123100201A
:108D300017310020F030002098280020F13000206A
:108D40000B4B1B7810B58BB90A4B0B4A03F1200172
:108D500053F8040B42F8040B8B42F9D1074B012462
:108D600083F84340FFF7B2FF204610BD0020FCE728
:108D7000F0300020F13000209828002090280020BA
:108D800038B50C4B1B789BB90B4D0C49042205F1EF
:108D9000280040F007F801241422094905F12D00AC
:108DA00040F000F885F84240FFF790FF204638BDBC
:108DB0000020FCE711310020902800201231002013
:108DC00017310020F0B50C2934D8DFE801F08A33E0
:108DD00033335F333333343333330700048C9689B2
:108DE000B2F802C01788744D24F480542404240C73
:108DF0000484038C8488818B23F4005321F4E6419E
:108E00001B0409041B0C46EA0C06090C43EA063352
:108E100041EA0721A8429BB2A4B289B200F09E8029
:108E200005F58065A84200F099809268848081836E
:108E300002640384F0BD048C9589B2F802E01788BF
:108E40005D4E24F480742404240C0484038CB0F854
:108E500004C0818B23F400731B0421F0730145EAE5
:108E60000E041B0C090443EA0423090CB0429BB214
:108E70001FFA8CF541EA07015BD0504CA04258D054
:108E8000926885808183C2630384F0BD048C9589D8
:108E9000B2F802E0B2F800C0474E24F010042404F7
:108EA000240C0484038C8788018B23F0200321F495
:108EB000E6411B0409041B0C45EA0E04090C43EAB5
:108EC000041341EA0C21B0429BB2BFB289B25BD01D
:108ED0003A4CA04258D09268878001838263038411
:108EE000F0BD048C9589B2F802C01788324E24F088
:108EF00001042404240C0484018C8488038B21F055
:108F0000020123F0730309041B04090C45EA0C0554
:108F10001B0CB04241EA0501A4B243EA070324D086
:108F2000264DA84221D09268848003834263018445
:108F3000F0BDD489168A578A23F4006343EA0423D8
:108F40004FF6FF341C40938825F440553E4344EAD5
:108F5000032345EA06149BB2A5B291E7158A24F4CF
:108F6000804444EA8514A4B25FE7D689158A578AFB
:108F700021F008013143968824F4407421F0040163
:108F80003D4331432C43CEE7D489168AB2F812C050
:108F900023F0800343EA04134FF6BF741C40938808
:108FA00027F4406546EA0C0644EA031345EA8604C2
:108FB0009BB2A7B28FE700BF000001400004014050
:108FC0002DE9F84FA022904C9048914DDFF860A217
:108FD000904FDFF86082DFF8609200213FF0A4FE3E
:108FE0008D48DFF858C2DFF858E204F1FC06A346CA
:108FF000DBF80030AB4200F0E280B3F1804F00F0CC
:10900000E080BB4200F0DF80634500F0EA807345FA
:1090100000F0E980434500F0E8804B4500F0E78030
:109020007E4A934200F0E58002F57052934200F0D0
:10903000E28002F58062934200F0DF8002F58062F8
:10904000934200F0DC80A2F59832934200F0D98080
:1090500002F58062934200F0958002F580629342AF
:1090600008BF0D2300F08F800BF1240B5E45BFD1AC
:109070006B4E6C4D4FF003094FF00208A379002BA3
:109080007AD023791F09013F032F03F00F0373D810
:1090900036F8170040FA03F2D2076DD54FF0010AF7
:1090A0000AFA03F3013B18403FF0C2FB5E4BDB5D65
:1090B000184415EBC0075FD055F830305B48217A73
:1090C00003F13F4202F57E02920A825C02F01F0029
:1090D0005209032A0AFA00FA7DD0042A75D0022A1E
:1090E00004D14D48426C4AEA02024264B7F804C017
:1090F000BCFA8CF2C2F11F0292B2D00803EB8000DE
:1091000002F00702076A92004FF00F0E0EFA02FEFD
:1091100027EA0E070762076A01FA02F23A4302627F
:109120004FF0010E00220EFA02F737EA0C0120D1AF
:109130005000D3F800A009FA00F1C9430AEA010A75
:10914000C3F800A0D3F800A008FA00F040EA0A0033
:10915000186098680840986098689860586820EA95
:1091600007075F6058685860D8680140D960D968BF
:10917000D9600132102AD6D12434A3457FF47EAFC2
:10918000BDE8F88F0C230AEBC30301211B7903F020
:109190001F025B09032B01FA02F208D0042B0AD04C
:1091A000022B7FF461AF416C0A4342645CE7016CBF
:1091B0000A43026458E7016B0A43026354E7002341
:1091C000E1E70123DFE70223DDE71348026B4AEA08
:1091D000020202638AE71048026C4AEA0202026451
:1091E00084E70323CFE70423CDE70523CBE706235A
:1091F000C9E70723C7E70823C5E70923C3E70A230D
:10920000C1E70B23BFE700BF60EB0408EC8300203D
:10921000000001400004004000380240000401400A
:109220005CEC0408C4B3002064EC040868EC040897
:10923000A0EC0408001000400014004000080040AA
:10924000000C004000B9704703682DE9F04F03F1AE
:109250003F4404F57E04534EA40A0125345D04F016
:109260001F066409032C05FA06F500F09580042C0E
:1092700000F08D80022C45D08588B5FA85F0C0F1CC
:109280001F0080B2C40803EB840400F00700266AC4
:1092900080000F27874026EA07062662276A01F02A
:1092A00003068240701E3A4301282262C1F3810EF8
:1092B000C1F300184FF000024FEA51114FF0010CBA
:1092C00025D94FF0030E0CFA02F0A84315D1500037
:1092D0001F680EFA00F4E44327401F60D3F80080B3
:1092E00006FA00F747EA08071F60DF683C40DC60C9
:1092F000DC6801FA00F02043D8600132102AE2D184
:10930000BDE8F08F284C666C35436564B4E74FF0D8
:1093100003090CFA02F737EA050033D15000D3F8FD
:1093200000A009FA00F4E4430AEA040AC3F800A022
:10933000D3F800B006FA00FA4AEA0B0AC3F800A014
:10934000D3F808A004EA0A0AC3F808A0D3F808B0C2
:109350000EFA00FA4AEA0B0AC3F808A0D3F804A0F0
:109360002AEA07075F60D3F804A008FA02F747EA81
:109370000A075F60DF683C40DC60DC6801FA00F0EF
:109380002043D8600132102AC3D1BDE8F08F064CCB
:10939000266B354325636FE7034C266C3543256404
:1093A0006AE700BF68EC04080038024003682DE952
:1093B000F04F03F13F4404F57E04534EA40A012507
:1093C000345D04F01F066409032C05FA06F500F06D
:1093D0009580042C00F08D80022C46D08588B5FA4B
:1093E00085F0C0F11F0080B2C40803EB840400F0D4
:1093F0000700266A80000F27874026EA07062662B4
:10940000276A01F0030602FA00F0721E3843012AAF
:10941000C1F3810EC1F3001820624FEA51114FF0E1
:1094200000024FF0010C25D94FF0030E0CFA02F0A8
:10943000A84315D150001F680EFA00F4E4432740FA
:109440001F60D3F8008006FA00F747EA08071F609C
:10945000DF683C40DC60DC6801FA00F02043D86043
:109460000132102AE2D1BDE8F08F284C666C3543FA
:109470006564B3E74FF003090CFA02F737EA050019
:1094800033D15000D3F800A009FA00F4E4430AEA0B
:10949000040AC3F800A0D3F800B006FA00FA4AEABA
:1094A0000B0AC3F800A0D3F808A004EA0A0AC3F81C
:1094B00008A0D3F808B00EFA00FA4AEA0B0AC3F87B
:1094C00008A0D3F804A02AEA07075F60D3F804A035
:1094D00008FA02F747EA0A075F60DF683C40DC6091
:1094E000DC6801FA00F02043D8600132102AC3D1B1
:1094F000B9E7064C266B354325636FE7034C266CB2
:10950000354325646AE700BF68EC04080038024070
:1095100010B50409013C032C17D80E4B33F8142066
:1095200000F00F0042FA00F313F001030FD0012303
:1095300003FA00F0013810403FF07AF9064A074B71
:10954000125D104403EBC00010BD002010BD184692
:1095500010BD00BF5CEC040864EC0408C4B3002038
:109560002DE9F8432F4D2B8AB5F80C8018EA030833
:1095700027D02D4E4FF00047B8FA88F327FA03F2B0
:10958000D24391B21B3B08EA02082982042B15D86A
:10959000DFE803F0352B22190300D6F89C30002BAE
:1095A00037D1EB6A1FFA83F9D6F8984034B12368B3
:1095B0002046494698476468002CF8D1B8F1000F5E
:1095C000DAD1BDE8F883B06F696B036889B2984758
:1095D000B8F1000FD0D1F4E7F06FA96B036889B23E
:1095E0009847B8F1000FC7D1EBE7D6F88000E96BD8
:1095F000036889B29847B8F1000FBDD1E1E7D6F80A
:109600008400296C036889B29847B8F1000FB3D180
:10961000D7E703F1FF3900231FFA89F9C6F89C3018
:10962000C2E700BF00180040EC8300202DE9F8439A
:109630002C4D2B8AB5F80C8018EA030825D02A4E49
:109640004FF00047B8FA88F327FA03F2D24391B2F9
:109650001B3B08EA02082982042B13D8DFE803F039
:10966000322920170300736F002B34D1EB6A1FFAE5
:1096700083F9346F34B123682046494698476468BB
:10968000002CF8D1B8F1000FDCD1BDE8F883306DC3
:10969000696B036889B29847B8F1000FD2D1F4E73B
:1096A000706DA96B036889B29847B8F1000FC9D1F2
:1096B000EBE7B06DE96B036889B29847B8F1000F2A
:1096C000C0D1E2E7F06D296C036889B29847B8F120
:1096D000000FB7D1D9E703F1FF3900231FFA89F949
:1096E0007367C6E700040140EC8300202DE9F843CE
:1096F0002C4D2B8AB5F80C8018EA030825D02A4E89
:109700004FF00047B8FA88F327FA03F2D24391B238
:109710001B3B08EA02082982042B13D8DFE803F078
:10972000322920170300736F002B34D1EB6A1FFA24
:1097300083F9346F34B123682046494698476468FA
:10974000002CF8D1B8F1000FDCD1BDE8F883306D02
:10975000696B036889B29847B8F1000FD2D1F4E77A
:10976000706DA96B036889B29847B8F1000FC9D131
:10977000EBE7B06DE96B036889B29847B8F1000F69
:10978000C0D1E2E7F06D296C036889B29847B8F15F
:10979000000FB7D1D9E703F1FF3900231FFA89F988
:1097A0007367C6E700040140EC8300202DE9F8430D
:1097B0002C4D2B8AB5F80C8018EA030825D02A4EC8
:1097C0004FF00047B8FA88F327FA03F2D24391B278
:1097D0001B3B08EA02082982042B13D8DFE803F0B8
:1097E000322920170300F36C002B34D1EB6A1FFAE7
:1097F00083F9B46C34B123682046494698476468BD
:10980000002CF8D1B8F1000FDCD1BDE8F883B06AC4
:10981000696B036889B29847B8F1000FD2D1F4E7B9
:10982000F06AA96B036889B29847B8F1000FC9D1F3
:10983000EBE7306BE96B036889B29847B8F1000F2A
:10984000C0D1E2E7706B296C036889B29847B8F120
:10985000000FB7D1D9E703F1FF3900231FFA89F9C7
:10986000F364C6E700080040EC8300202DE9F843CC
:109870002C4D2B8AB5F80C8018EA030825D02A4E07
:109880004FF00047B8FA88F327FA03F2D24391B2B7
:109890001B3B08EA02082982042B13D8DFE803F0F7
:1098A000322920170300736A002B34D1EB6A1FFAA8
:1098B00083F9346A34B1236820464946984764687E
:1098C000002CF8D1B8F1000FDCD1BDE8F883306886
:1098D000696B036889B29847B8F1000FD2D1F4E7F9
:1098E0007068A96B036889B29847B8F1000FC9D1B5
:1098F000EBE7B068E96B036889B29847B8F1000FED
:10990000C0D1E2E7F068296C036889B29847B8F1E2
:10991000000FB7D1D9E703F1FF3900231FFA89F906
:109920007362C6E700000140EC8300202DE9F84394
:109930002C4D2B8AB5F80C8018EA030825D02A4E46
:109940004FF00047B8FA88F327FA03F2D24391B2F6
:109950001B3B08EA02082982042B13D8DFE803F036
:10996000322920170300736A002B34D1EB6A1FFAE7
:1099700083F9346A34B123682046494698476468BD
:10998000002CF8D1B8F1000FDCD1BDE8F8833068C5
:10999000696B036889B29847B8F1000FD2D1F4E738
:1099A0007068A96B036889B29847B8F1000FC9D1F4
:1099B000EBE7B068E96B036889B29847B8F1000F2C
:1099C000C0D1E2E7F068296C036889B29847B8F122
:1099D000000FB7D1D9E703F1FF3900231FFA89F946
:1099E0007362C6E700000140EC830020F0B5066812
:1099F0003F4CB30AA3426CD065D93E4CA3425AD027
:109A00000134A34256D1702702254379B6F80CE001
:109A1000022023FA00F4A0401FFA80FCA80023468D
:109A2000441903EB4403344C002955D04CEA0E0C86
:109A300003F1040E44F8231044F82E20A6F80CC0BD
:109A4000E319EFF31181502282F31288421904EBDB
:109A5000C202D2F810C0BCF1000F03D044F807C016
:109A600013690433421904EBC202576917B11F602E
:109A700053690433421904EBC202976917B11F609E
:109A800093690433421904EBC202D76917B11F600E
:109A9000D36904330027CAB21F6082F311882844B7
:109AA00004EBC004236A4BB9B38923F001031B0400
:109AB0001B0CB381F0BD20270025A6E7B38943F036
:109AC0000103B381F0BD043CA342F3D14827012533
:109AD0009BE79827032598E72EEA0C0C03F1040E68
:109AE000A6F80CC044F8231044F82E20A8E700BFC5
:109AF0000600100040001000EC83002010B5036841
:109B00007C487D4C0139834282B0246889B200F0E0
:109B1000AF80A0F58060834200F0AA8000F580400D
:109B2000834200F0818000F5806083427CD000F5A4
:109B30008060834278D018886408B4FBF2F4013C5A
:109B4000A4B282B2B3F1804F0AD06C48834207D0EE
:109B500000F58060834203D000F58060834202D12B
:109B600022F0700292B26648834200F08F8000F5C6
:109B70008060834200F0938022F4407200F56C40D4
:109B800092B283421A80D9621C8540F091800121F3
:109B900000221A86998219885A4841F001018342AD
:109BA000198049D0B3F1804F00F08D80534A934221
:109BB00000F08B8002F58062934200F0888002F50D
:109BC0008062934200F0858002F58062934200F04B
:109BD000828002F5806293427FD002F57042934208
:109BE0007DD002F5705293427BD002F580629342A1
:109BF00079D002F58062934277D0A2F598329342F1
:109C000075D002F58062934215D002F580629342CE
:109C100008BF0D2210D002A84FF0012340F8043DE8
:109C200020F092FB02B010BD1888B4FBF2F4013CA6
:109C3000A4B282B286E70C22334B03EBC20201A826
:109C400054798DF80440012300228DF805308DF8F9
:109C500007308DF8062020F077FB1B2C0FD02E2C20
:109C6000E0D12A4B019301A820F06EFB02B010BD99
:109C70001888B4FBF2F4013CA4B282B270E7244B22
:109C8000019301A820F060FB02B010BD01201A80F2
:109C9000D9621C8598821A8802431A8086E70120BF
:109CA0001A80D9621C8598821A8802431A8079E743
:109CB000104A93423FF46BAF01229A821A8842F015
:109CC00001021A806EE70122B6E70222B4E70322FE
:109CD000B2E70422B0E70522AEE70622ACE707228E
:109CE000AAE70822A8E70922A6E70A22A4E70B228E
:109CF000A2E700BF0004014018C300200004004098
:109D00000010004000000140A0EC04082C010001FC
:109D1000190100012B4B98423CD0B0F1804F3BD051
:109D2000A3F57C43984239D003F58063984237D03D
:109D300003F58063984235D003F58063984233D0B1
:109D400003F58063984233D003F57043984231D0D5
:109D500003F57053984229D003F5806398422BD0C5
:109D600003F58063984229D0A3F59833984227D011
:109D700003F58063984207D003F58063984208BFDB
:109D80000D2202D0002070470C220F4B03EBC203C0
:109D9000187970470022F8E70122F6E70222F4E77B
:109DA0000322F2E70422F0E70522EEE70822ECE7BF
:109DB0000622EAE70722E8E70922E6E70A22E4E7C3
:109DC0000B22E2E700000140A0EC040830B40024BC
:109DD0000F4A2346254604E00133072B0DD012F825
:109DE000244C30EA040402F12402F5D1A94207D040
:109DF00001330135072BEDB2F1D1002030BC7047A3
:109E0000044A03EBC30302EB830330BC18797047A9
:109E10008AEB040860EB0408B8B10C4A262188429A
:109E20004FF0000302F1240208D00133072B0BD0BE
:109E300012F8241C884202F12402F6D1044803EBF4
:109E4000C30300EB830070470020704788EB0408D1
:109E500060EB0408224B5B68C3F3080330B4D3B94A
:109E6000EFF31183BBB91F4A1F4D20481368846864
:109E700011688B42FAD129688C42F7D81C4A1168C4
:109E80004FF47A7202FB01F0001B30BCB0FBF1F022
:109E900002FB03007047EFF31182102383F3128853
:109EA00003F1E023D2B29C68196811F4803F114994
:109EB0001EBF012008609C680A4B18680B6882F37B
:109EC00011880B4A11684FF47A72034402FB01F0C7
:109ED000001B30BCB0FBF1F002FB0300704700BF79
:109EE00000ED00E04CB5002060BF002010E000E075
:109EF0005CBF002058BF00202DE9F84F8046274C5A
:109F0000274DDFF8A490274EFFF7A4FFDFF89CE071
:109F1000DFF89CC04FF0100A4FF47A77DCF8043079
:109F2000C3F30803CBB9EFF31183B3B92368A9686E
:109F300022689342FAD132689142F7D8DEF80020C5
:109F400007FB02FBABEB0101B1FBF2F107FB0313D3
:109F50001B1A4345E2D3BDE8F88FEFF311818AF372
:109F60001288D5F808B02B68DB0304D50123C9F8A3
:109F70000030D5F808B02368D9F80020C9B281F3C1
:109F80001188DEF80010134407FB01F2A2EB0B026C
:109F9000B2FBF1F207FB0323DAE700BF4CB5002068
:109FA00010E000E060BF002058BF00205CBF002030
:109FB00000ED00E0064B53F820302BB11A689B8867
:109FC00051690B4201D1138370475383704700BF1F
:109FD000B0BC00202DE9F04FDFF834C1494CDFF868
:109FE00034E1DFF83481484E824648481AF1FF3A9E
:109FF000C0F08680DCF80430C3F30803002B5ED188
:10A00000EFF31183002B5AD10568A26803689D42C3
:10A01000FAD133689A42F7D8DEF800704FF47A71BB
:10A0200001FB07F39B1AB3FBF7F301FB0535DCF8E3
:10A030000430C3F308034FF010094FF47A77F3B9F3
:10A04000EFF31183DBB90368A16802689342FAD188
:10A0500032689142F7D8DEF8002007FB02FBABEB39
:10A060000101B1FBF2F107FB03135B1BB3F57A7F30
:10A07000BCD2DCF80430C3F30803002BE0D0EFF3CC
:10A08000118189F31288D4F808B02368DB0304D562
:10A090000123C8F80030D4F808B00368D8F80020CD
:10A0A000C9B281F31188DEF80010134407FB01F2F6
:10A0B000A2EB0B02B2FBF1F207FB0323D5E7EFF3B0
:10A0C0001183102282F31288A1682268D20303D57B
:10A0D0000122C8F80020A168D0F80090D8F80050FC
:10A0E000DBB283F31188DEF800704FF47A724D44CE
:10A0F00002FB07F35B1AB3FBF7F302FB053596E7A8
:10A10000BDE8F08F10E000E060BF00204CB50020FB
:10A1100000ED00E05CBF002058BF002030B4EFF33A
:10A120001183102282F31288084809490268094DF8
:10A13000094C013202608A682A6000222260DBB288
:10A140000A6883F3118830BC704700BF4CB500200B
:10A1500010E000E060BF002058BF002038B5254B5C
:10A160001C69A26BE36D62B1E26BC2B1998A1A8875
:10A17000C90592B204D5D20744BF4FF6F7721A80D0
:10A1800038BD99891A88890692B2EDD59206EBD529
:10A19000E26AFAB19888216B9047E36DE4E7998908
:10A1A0001A880D0692B2E1D51006DFD5D4E909125E
:10A1B0008A420AD0A1692569885C98800132B2FB85
:10A1C000F5F105FB1122A262D0E7DA6822F08002E5
:10A1D000DA60CBE79B88E2696169DBB28B54E269A4
:10A1E000E068E36D0132B2FBF0F100FB1122E261A5
:10A1F000BAE700BF540B001038B5254BDC68A26BE2
:10A20000E36D62B1E26BC2B1998A1A88C90592B254
:10A2100004D5D20744BF4FF6F7721A8038BD99892A
:10A220001A88890692B2EDD59206EBD5E26AFAB1A8
:10A230009888216B9047E36DE4E799891A880D06A9
:10A2400092B2E1D51006DFD5D4E909128A420AD0CC
:10A25000A1692569885C98800132B2FBF5F105FBA4
:10A260001122A262D0E7DA6822F08002DA60CBE73E
:10A270009B88E2696169DBB28B54E269E068E36D57
:10A280000132B2FBF0F100FB1122E261BAE700BF3C
:10A29000540B001038B5254B9C68A26BE36D62B17E
:10A2A000E26BC2B1998A1A88C90592B204D5D20765
:10A2B00044BF4FF6F7721A8038BD99891A8889060B
:10A2C00092B2EDD59206EBD5E26AFAB19888216B8D
:10A2D0009047E36DE4E799891A880D0692B2E1D5BB
:10A2E0001006DFD5D4E909128A420AD0A16925698E
:10A2F000885C98800132B2FBF5F105FB1122A26265
:10A30000D0E7DA6822F08002DA60CBE79B88E26966
:10A310006169DBB28B54E269E068E36D0132B2FB44
:10A32000F0F100FB1122E261BAE700BF540B00100C
:10A3300038B5254B5C68A26BE36D62B1E26BC2B1CC
:10A34000998A1A88C90592B204D5D20744BF4FF63C
:10A35000F7721A8038BD99891A88890692B2EDD5AC
:10A360009206EBD5E26AFAB19888216B9047E36DCB
:10A37000E4E799891A880D0692B2E1D51006DFD577
:10A38000D4E909128A420AD0A1692569885C9880BB
:10A390000132B2FBF5F105FB1122A262D0E7DA68C7
:10A3A00022F08002DA60CBE79B88E2696169DBB268
:10A3B0008B54E269E068E36D0132B2FBF0F100FB1F
:10A3C0001122E261BAE700BF540B001038B5254BEB
:10A3D0001C68A26BE36D62B1E26BC2B1998A1A8804
:10A3E000C90592B204D5D20744BF4FF6F7721A805E
:10A3F00038BD99891A88890692B2EDD59206EBD5B7
:10A40000E26AFAB19888216B9047E36DE4E7998995
:10A410001A880D0692B2E1D51006DFD5D4E90912EB
:10A420008A420AD0A1692569885C98800132B2FB12
:10A43000F5F105FB1122A262D0E7DA6822F0800272
:10A44000DA60CBE79B88E2696169DBB28B54E26931
:10A45000E068E36D0132B2FBF0F100FB1122E26132
:10A46000BAE700BF540B00100368DB6A03B118475A
:10A47000704700BF03689B6A03B11847704700BF6D
:10A4800003682DE9F0415D6A1DB12B46BDE8F0413E
:10A490001847002A174611DD04460E460F4400E017
:10A4A00023689B68204698470028F9D0236816F84F
:10A4B000011B1B6820469847BE42F1D1BDE8F081E0
:10A4C00003689B69184700BF03685B69184700BFB2
:10A4D0000368DB68184700BF03689B68184700BF24
:10A4E00003685B68184700BF03681B68184700BF14
:10A4F000014B586CF8E700BF9028002038B50C4697
:10A50000097849B1054601342B6828461B689847ED
:10A5100014F8011B0029F7D138BD00BF2DE9F04F19
:10A520004A484B494B4B4C4C4FF0010A4FF0020943
:10A530004FF004084FF0080E4FF0100C2027402673
:10A54000802530F8022B12F0010F03D01960A3F818
:10A5500004A0083312F0020F03D01960A3F804908E
:10A56000083312F0040F03D01960A3F804800833F5
:10A5700012F0080F03D01960A3F804E0083312F0BA
:10A58000100F03D01960A3F804C0083312F0200F95
:10A5900002D019609F80083312F0400F02D019607A
:10A5A0009E80083312F0800F02D019609D8008331E
:10A5B00012F4807F05D04FF4807B1960A3F804B0BB
:10A5C000083312F4007F05D04FF4007B1960A3F824
:10A5D00004B0083312F4806F05D04FF4806B19601B
:10A5E000A3F804B0083312F4006F05D04FF4006BE9
:10A5F0001960A3F804B0083312F4805F05D04FF45B
:10A60000805B1960A3F804B0083312F4005F05D032
:10A610004FF4005B1960A3F804B0083312F4804FC4
:10A6200005D04FF4804B1960A3F804B00833D20B67
:10A6300004D04FF4004219609A80083301F580611C
:10A64000A1427FF47EAFBDE8F08F00BF5CEC040850
:10A6500000000240C4B300200010024000B970475F
:10A66000036803F13F4202F57E022DE9F04F920AA2
:10A67000464DAA5C02F01F0552090124032A04FA80
:10A6800005F47ED0042A77D0022A30D001F00306E8
:10A69000721E012AC1F3810EC1F300188588C1F32F
:10A6A00041114FF000024FF0010C25D94FF0030E7D
:10A6B0000CFA02F0A84315D150001F680EFA00F4FE
:10A6C000E44327401F60D3F8008006FA00F747EA0A
:10A6D00008071F60DF683C40DC60DC6801FA00F0BE
:10A6E0002043D8600132102AE2D1BDE8F08F284A19
:10A6F000556C2C435464C9E74FF003090CFA02F778
:10A7000037EA050033D15000D3F800A009FA00F46D
:10A71000E4430AEA040AC3F800A0D3F800B006FA3A
:10A7200000FA4AEA0B0AC3F800A0D3F808A004EA2A
:10A730000A0AC3F808A0D3F808B00EFA00FA4AEAE9
:10A740000B0AC3F808A0D3F804A02AEA07075F6041
:10A75000D3F804A008FA02F747EA0A075F60DF6847
:10A760003C40DC60DC6801FA00F02043D860013234
:10A77000102AC3D1BDE8F08F054A156B2C43146332
:10A7800084E7034A156C2C4314647FE768EC0408E3
:10A790000038024010B1036882885A83704700BFB6
:10A7A00010B1036882881A83704700BF18B103682C
:10A7B000828809B95A8370471A83704710B40A4BCC
:10A7C0000A4A1C7801238340234052F8200029B90B
:10A7D000B3FA83F149095DF8044BE7E7191C18BF88
:10A7E00001215DF8044BE1E7A8BC0020B0BC0020CB
:10A7F00008B501210220FFF7E1FF0C4B1B7803F0A5
:10A800000503052B0ED000210120FFF7D7FF002103
:10A810000846FFF7D3FF3220FFF7DCFB0220FFF7EB
:10A82000C9FBF8E735F0D2FBEDE700BF4C8600200E
:10A830000E4B1B8801463BB90D4B0E4A1B78106826
:10A840000BB981F00101B1E70B4B5A691AB11A68D3
:10A8500010B910605874704708480949008891FB86
:10A86000F0F1012011605874704700BF34BF002020
:10A8700036BF002038BF00203CBF002054BF00205E
:10A8800020A107002DE9F04F85B0CDE90210A94DB8
:10A89000DFF8C4A2029B013B0293013300F0C9829E
:10A8A0003AF012F9A44CDFF8B4B2DFF8A8C2A34E14
:10A8B0004FF4FA7301934FF0100EDCF80430C3F339
:10A8C0000803002B40F08B81EFF31183002B40F045
:10A8D00086812068AA6823689842FAD133689A4230
:10A8E000F7D8DBF800704FF47A7101FB07F39B1A7D
:10A8F000B3FBF7F301FB00304FF47A774FF0010818
:10A90000DCF80430C3F30803002B40F04981EFF377
:10A910001183002B40F044812368A9682268934288
:10A92000FAD132689142F7D8DBF8002007FB02F930
:10A93000A9EB0101B1FBF2F107FB03131B1AB3F5FD
:10A940007A7FDDD3019B013B0193B6D17C4E039B03
:10A9500031787C4F01337868C1F34001DBB2019359
:10A96000FFF724FF31783868C94301F00101FFF790
:10A970001DFF019B013BDBB2FF2B019300F0C78160
:10A98000704B5A6832B11368928859690A4214BFF1
:10A990005A831A836B4B1A6832B1136892885969CB
:10A9A0000A4214BF5A831A83674B1B88002B40F05E
:10A9B0009F81664A664B11781868FFF7F7FEFA2305
