:020000040800F2
:10000000F0FF001011920408912A02089D3B01089C
:10001000AD920408AD920408AD92040800000000FF
:100020000000000000000000000000009D2A0208FF
:10003000992A020800000000952A0208C934010824
:10004000AD920408AD920408AD920408AD92040884
:10005000AD920408AD9204086D420108994301086D
:100060005D43010821430108E54201083598030872
:10007000259803081598030805980308F1970308C5
:10008000DD970308C9970308AD920408AD920408F0
:10009000AD920408AD920408AD920408A94201088B
:1000A000AD920408192C0108AD920408D92C01085E
:1000B000AD920408AD920408592B0108E19D030894
:1000C000E99D0308D59D0308DD9D0308AD92040852
:1000D000AD92040879370108DD3601084136010880
:1000E00031420108AD920408357902080D29010852
:1000F000D9290108AD920408992A0108B597030887
:10010000AD920408AD920408AD920408AD920408C3
:10011000A53501080935010821EE02080DEE020897
:10012000A19703088D97030899900308799703080E
:1001300065970308AD920408AD920408AD920408D7
:10014000AD920408AD920408AD920408D9420208A9
:10015000519703083D97030829970308AD920408B7
:10016000C99D0308D19D0308AD920408AD9204080F
:10017000AD920408AD920408AD920408AD92040853
:08018000AD920408AD920408E1
:08018800B88D04000100000025
:10019000031233000C300020E03600200000000085
:1001A000F406000825009600943500202A36002029
:1001B0000000000000000000150070003C3400202A
:1001C000AC34002000000000000000002A006000A5
:1001D0007C330020DC330020000000003DF30308E6
:1001E0002C001000C0360020D03600200000000097
:1001F000599C00082B0024003737002013370020BB
:1002000000000000299C0008291078008832002096
:100210001C35002000000000000000001400030056
:100220001432002079330020000000002807000865
:10023000101002008C300020A037002000000000C9
:100240002C07000828101000382D0020A4370020AB
:100250000000000001800008230010005C2C00203A
:10026000B43700200000000019800008F8210600C3
:10027000B62D0020C4370020000000002E07000823
:100280001A023C00D437002084390020000000000E
:100290001D5D030827000400D0370020C03900206E
:1002A00000000000340700080E502001B64A00206C
:1002B000D05200200000000065F30308090201008D
:1002C000F4510020F053002000000000380700081F
:1002D0000C106C000E4C0020F453002000000000B5
:1002E0007DDF0208010205003A4A00206054002028
:1002F000000000004598010800020500384F00206A
:100300006854002000000000000000001B020800EC
:10031000C85100207054002000000000C95203089A
:1003200001200800AC50002078540020000000009C
:100330003A070008190005005C5100208054002095
:10034000000000004207000837001E003451002062
:100350008854002000000000480700081E00050027
:10036000FC4C0020A8540020000000006607000894
:100370001B00F400D0390020B05400200000000021
:1003800021A901080E02020044500020A4550020BB
:10039000000000006C0700082F001100B052002080
:1003A000A8550020000000006E0700080510060098
:1003B0002C6B002014700020000000008007000853
:1003C00026000E002C7000201C7000200000000091
:1003D000D91D02081F201C00805F002060700020D3
:1003E000000000008607000805020400C46A00201F
:1003F0007C70002000000000A207000803010A0032
:10040000E86700208070002000000000A6070008B8
:1004100013020300E85D00208C7000200000000043
:10042000B0070008160008005883002064830020ED
:1004300000000000B4070008070202001C8600202C
:100440006086002000000000BC07000802000C00CD
:10045000F0850020648600200000000000000000FD
:1004600006020C00E48500207086002000000000D9
:10047000755B030808120900688500207C8600204F
:100480000000000029530308F701060062850020E0
:100490008886002000000000BE0700080A020A004B
:1004A000808400209086002000000000C40700081F
:1004B00003000100588500209C86002000000000F9
:1004C0000000000010020100409000203C9000203D
:1004D00000000000CE0700080400800038D700208C
:1004E000F0D7002000000000000000000D003400E4
:1004F000D4D6002070D8002000000000F5DF0208EC
:10050000130004002CCD0020A4D80020000000001F
:10051000D0070008F5317000D4CD0020A8D8002005
:100520000000000015A3010801010400D0CD002047
:1005300018D90020000000000000000000010400A5
:10054000CCCD00201CD9002000000000D4070008FA
:1005500002010300C8CD002020D9002000000000C7
:10056000A5DF02080B20100040CD002024D9002078
:1005700000000000D8070008F6210C0030CD002054
:1005800034D9002000000000E8070008FD011E002B
:10059000A4CC002040D9002000000000F51501087F
:1005A00018202C0074CC002060D90020000000002E
:1005B000115B030806101800D0BF00208CD9002062
:1005C00000000000C1F30308FB010100CCBF0020C4
:1005D000A4D9002000000000E55A0308FC0109002E
:1005E00098BE0020A8D9002000000000F55A03089A
:1005F00034001000C0BD0020B4D90020000000006D
:1006000095F303081102080098BD0020C4D900200A
:1006100000000000F40700081212040090BD002042
:10062000CCD9002000000000FC07000812200D00BB
:1006300080BD0020D0D90020000000000008000884
:10064000F901040028B80020E0D9002000000000D3
:100650006D160108180202002CB20020E4D9002017
:10066000000000000000000017020B0020B2002074
:10067000E8D9002000000000E5520308FA0102005A
:10068000FCB10020F4D90020000000004D54030804
:100690000202030034AF0020F8D90020000000005F
:1006A000000000000C020300F0AE0020FCD9002086
:1006B00000000000D5520308FE010900CCB1002063
:1006C00000DA002000000000615303080A403200F5
:1006D00074B100200CDA0020000000000E080008B1
:1006E0001A000E00D04101206443012000000000E8
:0406F00040080008B6
:1006F40000000000000000000000000000000000F6
:1007040000000000000000000000000000000000E5
:1007140000000000000000000000000000000000D5
:10072400000001000300000000050201F4011900AB
:10073400200300000000E8036400040A0001000034
:100744002801000020003200C800D00796001400E1
:1007540032002800B00440060005500014000F00C9
:10076400080100000100000000000000000000007B
:100774000000000000000000000000002000010153
:10078400000000000000000100000005000001025C
:100794000300000000000000000000000000000052
:1007A4000000040101006C160000000000000000BD
:1007B400C409000019012828023C3F010000000080
:1007C40000004A01B400D6012600000008044430A9
:1007D400FA0000002B21231E640101000000010027
:1007E4000A012900000000000100000002020000CC
:1007F4000000000001010101FFFFFFFF00000001F4
:10080400000005484553500000000030010000007E
:1008140001000000000000000000000000000000D3
:10082400020000019E077D00000020000100B80BBB
:10083400B80BB80B20005000500050007E05EA05AC
:0A084400B4053200E803D0070000FD
:10084E00D6010000398E00080000000000000000F4
:10085E00010000000001010100006A000101FFFF1C
:10086E00FFFFFFFFFF00000000000100E00101019B
:10087E0001000000199C010800000000A8010020E2
:10088E0010450508000000000000000000000000F8
:10089E0000000000483A05080000000000000000BB
:1008AE003E02002004000000BC4405080D000000BC
:1008BE00BDC60108BC1C002000000000F43D050868
:1008CE000D000000E5C60108B01C0020000000006D
:1008DE005C3F05080800000000000000A41C00207A
:1008EE0004000000603E05080D000000CD9C0108CC
:1008FE00981C002000000000103F050803000000B7
:10090E00E1C801088C1C00200000000020450508ED
:10091E0003000000E1C80108801C00200000000058
:10092E00903A0508010000000000000000000000E1
:10093E0000000000000000000E000000000000009B
:10094E000000000000000000104505080000000037
:10095E00000000000000000000000000483A0508FA
:10096E0000000000000000003E0200200400000015
:10097E00684405080300000005A40108741C00204B
:10098E0008000000603E05080D000000CD9C010827
:10099E00981C002000000000103F05080300000016
:1009AE00E1C801088C1C002000000000204505084D
:1009BE0003000000E1C80108801C002000000000B8
:1009CE00903A050801000000000000000000000041
:1009DE0000000000000000000E00000000000000FB
:1009EE00000000000000000028450508000000007F
:1009FE00000000000000000000000000483A05085A
:100A0E0000000000000000003E0200200400000074
:100A1E007044050803000000E1C80108C81C00204E
:100A2E0000000000903A05080100000000000000E0
:100A3E000000000000000000000000000E0000009A
:100A4E0000000000000000000000000020700020E8
:100A5E00702D7200FFFFFFFF010000000000803FBD
:100A6E000800000000000000000000003018002008
:100A7E00FA0000000100000001000000FFFF2D2021
:100A8E002D2D202D2D2D2D202D2D2D000000000083
:100A9E000000000000000000000000000000000048
:100AAE00FFFFFFFF643A05086C3A0508883A05080F
:100ABE000000000000000000000000000000000028
:100ACE00443805080400000085C401080000000039
:100ADE0000000000903A0508010000000000000030
:100AEE000000000000000000000000000E000000EA
:100AFE00000000000000000000000000D8D7002019
:100B0E000100C40900000000D6D700200100C4096E
:100B1E0000000000D4D700200100C409000000002E
:100B2E00D2D700200100C40900000000CED700205B
:100B3E000100C40900000000D0D700200100C40944
:100B4E0000000000CCD700200100C4090000000006
:100B5E00CAD700200100C409000000004C4A002042
:100B6E000100C800010000004A4A00203200307522
:100B7E0032000000484A0020055A0500454A002070
:100B8E0000FF0100474A002001000000640200201F
:100B9E00434A002002000000BCD60408444A00204C
:100BAE0000FF0100464A0020010000006402002000
:100BBE00424A002002000000BCD60408384A002039
:100BCE0080C1803E05000000364A002080C1803E74
:100BDE0005000000344A002080C1803E0500000060
:100BEE00324A002080C1803E05000000314A0020BC
:100BFE0000FF0100304A00200A3201002F4A002077
:100C0E000400000074D404082E4A002002000000E4
:100C1E0088D4040800000000000000006C020020D0
:100C2E00746A00209CFF2C01000000002E000020A2
:100C3E000A00000094D40408244A0020E0150C1782
:100C4E0000000000300000200800000090D60408CC
:100C5E002F00002005000000B8D50408264A002009
:100C6E0002000000ACD40408944C00200100FF7F69
:100C7E0001000000934C002002000000B8D40408CC
:100C8E00E24B00200000C20101000000DE4B0020FC
:100C9E000000C20101000000E04B00200000C20174
:100CAE0001000000DA4B00200000803E3200000000
:100CBE00D84B00200000803E32000000D64B0020B2
:100CCE000000803E32000000DC4B002000002C01B2
:100CDE0001000000EE4B00200000F40101000000B6
:100CEE00EC4B00200000F40101000000EA4B002054
:100CFE000000F40101000000E84B00200000F401A8
:100D0E0001000000E64B00200000803E01000000C4
:100D1E00E44B00200000803E010000000A4C002041
:100D2E00E803D0070A000000084C00200064010010
:100D3E000A000000FD4B002000640100FC4B002067
:100D4E0000640100044C0020006401000A00000051
:100D5E00034C0020006401000A000000024C002039
:100D6E00006401000A000000074C0020006401002E
:100D7E000A000000064C0020006401000A0000007A
:100D8E00054C0020006401000A000000014C002008
:100D9E0000FF01000A000000004C002000FF0100CF
:100DAE000A000000FF4B002000FF01000A000000B7
:100DBE00B24A00200000F40101000000B04A0020F9
:100DCE000000F40101000000AE4A00200000F40112
:100DDE0001000000AC4A00200000F40101000000F8
:100DEE00AA4A00200000F40101000000FA4B002086
:100DFE0000640100F84B00201400E803010000001D
:100E0E00F64B0020E80330750A000000F44B00207A
:100E1E0000C80100F34B002000C80100F24B002077
:100E2E0000C80100F14B0020006401000A00000020
:100E3E00884C00200000D00701000000834C0020E9
:100E4E0000C80100824C002000C80100814C002027
:100E5E0000C80100864C00200000D00701000000F1
:100E6E00804C002000C801007F4C002000C801000B
:100E7E007E4C002000C80100844C00200000D007EA
:100E8E00010000007D4C002000C801007C4C0020B9
:100E9E0000C801007B4C002000C80100B83A0508CC
:100EAE000000000000000000000000000000000034
:100EBE00600C05080900000000000000100300206F
:100ECE0004000000680C0508090000000000000086
:100EDE000403002004000000504205080900000031
:100EEE0000000000F8020020040000003B39050855
:100EFE000900000000000000EC02002004000000C9
:100F0E00C83A05080900000000000000E0020020B9
:100F1E0004000000D03A050809000000000000009F
:100F2E00D402002004000000D83A05080900000091
:100F3E0000000000C802002004000000E03A05088E
:100F4E000900000000000000BC02002004000000A8
:100F5E00903A0508010000000000000000000000AB
:100F6E0000000000000000000E0000000000000065
:100F7E000000000000000000E03C0508000000003A
:100F8E00000000000000000000000000942A050888
:100F9E0007000000000000003403002000000000E5
:100FAE00F03C0508080000000000000028030020A7
:100FBE0000000000FC3C05080800000000000000D6
:100FCE001C03002000000000903A050801000000FC
:100FDE000000000000000000000000000000000003
:100FEE000E000000000000000000000000000000E5
:100FFE00043D050800000000000000000000000095
:10100E0000000000143D05080D0000000000000067
:10101E0070030020000000001C3D05080D000000BC
:10102E00000000006403002000000000243D0508BD
:10103E0007000000000000005C030020000000001C
:10104E002C3D05080D00000000000000500300209C
:10105E0000000000343D05080D00000000000000F7
:10106E0044030020000000003C3D0508070000007E
:10107E00000000003C03002000000000903A05082C
:10108E000100000000000000000000000000000051
:10109E00000000000E000000000000000000000034
:1010AE0000000000443D05080000000000000000A4
:1010BE000000000000000000942A05080C0000004B
:1010CE00000000004E4A002000000000583D0508B8
:1010DE000C00000000000000504A0020000000003C
:1010EE00683D05080C00000000000000864A002044
:1010FE0000000000783D05080C0000000000000014
:10110E007A4A0020000000008C3D05080C0000000B
:10111E0000000000524A002000000000983D050823
:10112E000C00000000000000544A002000000000E7
:10113E00A03D05080C00000000000000564A0020EB
:10114E0000000000B43D05080C0000000000000087
:10115E00584A002000000000BC3D05080C000000AD
:10116E00000000005A4A002000000000C43D05089F
:10117E000C00000000000000984A00200000000053
:10118E00DC3D05080C000000000000005C4A002059
:10119E0000000000E83D05080C0000000000000003
:1011AE005E4A002000000000700C05080C000000D4
:1011BE0000000000604A002000000000F03D05081D
:1011CE000C00000000000000624A00200000000039
:1011DE00FC3D05080C00000000000000644A0020E1
:1011EE0000000000083E05080C0000000000000092
:1011FE00664A002000000000143E05080C000000A6
:10120E0000000000684A002000000000203E050893
:10121E000C000000000000006A4A002000000000E0
:10122E002C3E05080C000000000000007E4A002045
:10123E0000000000343E05080C0000000000000015
:10124E007C4A0020000000003C3E05080C00000017
:10125E00000000008A4A002000000000483E0508F9
:10126E000C000000000000008C4A0020000000006E
:10127E00543E05080C00000000000000924A0020B9
:10128E0000000000843B05080C0000000000000078
:10129E006C4A002000000000603E05080C000000B3
:1012AE0000000000744A002000000000683E05089F
:1012BE000C000000000000006E4A0020000000003C
:1012CE00743E05080C00000000000000704A00206B
:1012DE0000000000803E05080C0000000000000029
:1012EE00724A002000000000883E05080C00000035
:1012FE0000000000764A002000000000B42A050815
:10130E000C00000000000000804A002000000000D9
:10131E00943E05080C00000000000000784A0020F2
:10132E0000000000D13905080C000000000000008C
:10133E00884A002000000000A03E05080C000000B6
:10134E0000000000824A002000000000A83E0508B0
:10135E000C00000000000000844A00200000000085
:10136E00B03E05080C000000000000008E4A002070
:10137E0000000000B83E05080C0000000000000050
:10138E00904A002000000000C03E05080C0000003E
:10139E0000000000A24A002000000000903A05085C
:1013AE00010000000000000000000000000000002E
:1013BE00000000000E000000000000000000000011
:1013CE0000000000C83E05080000000000000000FC
:1013DE000000000000000000D43E05080D000000D3
:1013EE0000000000C803002000000000DC3E0508DD
:1013FE000D00000000000000BC03002000000000F3
:10140E00E43E05080700000000000000B4030020C1
:10141E0000000000F03E050807000000000000007C
:10142E00AC03002000000000FC3E0508090000008F
:10143E0000000000A003002000000000083F050887
:10144E0009000000000000009403002000000000CE
:10145E00143F05080900000000000000880300206A
:10146E0000000000243F05080900000000000000F5
:10147E007C03002000000000903A050801000000E7
:10148E00000000000000000000000000000000004E
:10149E000E00000000000000000000000000000030
:1014AE00383F0508000000000000000000000000AA
:1014BE0000000000483F0508050000000000000085
:1014CE00A94A002000000000903A05080100000023
:1014DE0000000000000000000000000000000000FE
:1014EE000E000000000000000000000000000000E0
:1014FE00503F050800000000000000000000000042
:10150E0000000000483A050800000000000000003E
:10151E00641E002004000000373905080D0000008D
:10152E00E9C401081C04002000000000BC440508AA
:10153E000D000000D19B01081004002000000000E7
:10154E00F43D05080D000000B59B010804040020C1
:10155E00000000005C3F05080800000000000000CD
:10156E00F803002004000000603E05080D00000096
:10157E00FD9A0108EC03002000000000643F0508FE
:10158E000900000000000000E0030020040000003D
:10159E00103F050803000000E1C80108D403002035
:1015AE0000000000903A0508010000000000000055
:1015BE000000000000000000000000000E0000000F
:1015CE000000000000000000000000006C3F050855
:1015DE0000000000000000000000000000000000FD
:1015EE007C3F05080D0000000000000034040020C0
:1015FE0000000000843F05080A0000000000000003
:10160E000C50002000000000903F05080A0000006A
:10161E00000000001450002000000000983F050854
:10162E000A000000000000001C5000200000000016
:10163E00A03F05080800000000000000280400205C
:10164E0000000000A83F05080400000015CA0108AC
:10165E000000000000000000903A050801000000A4
:10166E00000000000000000000000000000000006C
:10167E000E0000000000000000000000000000004E
:10168E00B43F05080000000000000000000000004C
:10169E0000000000C83F0508000000000000000028
:1016AE000000000000000000E83F050808000000F0
:1016BE00000000008804002000000000F03F050834
:1016CE0008000000000000007C0400200000000064
:1016DE00F83F05080800000000000000700400201C
:1016EE000000000000400508080000000000000097
:1016FE0064040020000000000840050808000000F7
:10170E0000000000580400200000000014400508EE
:10171E0008000000000000004C0400200000000043
:10172E0020400508080000000000000040040020D2
:10173E0000000000903A05080100000000000000C3
:10174E000000000000000000284005080200000014
:10175E0069CA01080200000000000000000000003D
:10176E000E0000000000000000000000000000005D
:10177E0034400508000000000000000000000000DA
:10178E0000000000484005080800000000000000AE
:10179E00D00400200000000054400508080000009E
:1017AE0000000000C4040020000000006040050896
:1017BE000800000000000000B80400200000000037
:1017CE006C4005080800000000000000AC0400207A
:1017DE00000000007840050808000000000000002E
:1017EE00A00400200000000084400508080000004E
:1017FE00000000009404002000000000903A05084C
:10180E0001000000000000000000000000000000C9
:10181E00000000000E0000000000000000000000AC
:10182E0000000000904005080000000000000000CD
:10183E000F020020000000009C4005080B00000075
:10184E00000000006405002000000000A84005080C
:10185E000B000000000000005805002000000000F2
:10186E00B44005080B000000000000004C050020ED
:10187E0000000000C04005080B0000000000000042
:10188E004005002000000000CC4005080B000000C1
:10189E00000000003405002000000000D8400508BC
:1018AE000B000000000000002805002000000000D2
:1018BE00E44005080B000000000000001C0500209D
:1018CE0000000000F04005080B00000000000000C2
:1018DE001005002000000000FC4005080B00000071
:1018EE00000000000405002000000000084105086B
:1018FE000700000000000000FC04002000000000B3
:10190E00104105080700000000000000F40400204C
:10191E00000000001C4105080B0000000000000044
:10192E00E80400200000000028410508080000001F
:10193E0000000000DC04002000000000903A0508C2
:10194E000100000000000000000000000000000088
:10195E00000000000E00000000000000000000006B
:10196E0000000000344105080000000000000000E7
:10197E0000000000000000004841050808000000BB
:10198E0000000000A00500200000000054410508E2
:10199E000800000000000000940500200000000078
:1019AE0060410508080000000000000088050020C6
:1019BE00000000006C410508080000000000000057
:1019CE007C050020000000002040050808000000F3
:1019DE00000000007005002000000000903A05088D
:1019EE0001000000000000000000000000000000E8
:1019FE00000000000E0000000000000000000000CB
:101A0E000000000078410508000000000000000002
:101A1E000C02002000000000884105080B000000A9
:101A2E0000000000E40500200000000094410508BD
:101A3E000700000000000000DC0500200000000090
:101A4E00A04105080700000000000000D40500209A
:101A5E0000000000AC410508070000000000000077
:101A6E00CC05002000000000B84105080800000069
:101A7E0000000000C005002000000000C041050865
:101A8E000800000000000000B40500200000000067
:101A9E00C84105080700000000000000AC0500204A
:101AAE0000000000903A0508010000000000000050
:101ABE000000000000000000000000000E0000000A
:101ACE00000000000000000000000000D4410508E6
:101ADE0000000000000000000C02002000000000CA
:101AEE00E041050807000000000000005406002039
:101AFE0000000000E841050807000000000000009B
:101B0E004C06002000000000F04105080700000010
:101B1E00000000004406002000000000F841050807
:101B2E000800000000000000380600200000000041
:101B3E0000420508070000000000000030060020EB
:101B4E000000000008420508070000000000000029
:101B5E0028060020000000001042050807000000C3
:101B6E0000000000200600200000000018420508BA
:101B7E000800000000000000140600200000000015
:101B8E002042050807000000000000000C0600209F
:101B9E0000000000284205080700000000000000B9
:101BAE000406002000000000304205080700000077
:101BBE0000000000FC05002000000000384205086F
:101BCE000800000000000000F005002000000000EA
:101BDE00903A05080100000000000000000000001F
:101BEE0000000000000000000E00000000000000D9
:101BFE00000000000000000000000000519F0108DE
:101C0E005C060020A74A00202B000000C8D4040860
:101C1E00A64A002000C80100A44A0020E803D0070D
:101C2E000100000048454C494F535052494E470061
:101C3E00414A002000030100404A00200003010039
:101C4E00999E0108719E0108380700202D9E0108FB
:101C5E00E19D0108B0070020D99E0108C19E010830
:101C6E0064080020459D0108F19C0108840B0020AA
:101C7E00679F01080DC70108600C00203D9B0108FD
:101C8E0000000000B00C0020F1C9010861A201089B
:101C9E008C0D002039A00108FD9F0108400E002088
:101CAE00A9A0010875A00108300F002031A101087C
:101CBE007DA10108E40F0020FB4B0020010601006E
:101CCE00C19F01088D9F010824110020DDA001088D
:101CDE003DC70108C4110020ADA101088DC7010840
:101CEE008C120020F04B0020010301004042050839
:101CFE0000000000000000000000000000000000D6
:101D0E004C4205080800000000000000D813002017
:101D1E00000000005442050807000000000000000B
:101D2E00D013002000000000644205080D000000E2
:101D3E0000000000C41300200000000070420508DF
:101D4E0003000000E1C80108B813002000000000E5
:101D5E00903A05080100000000000000000000009D
:101D6E0000000000000000000E0000000000000057
:101D7E00000000000000000078420508000000008E
:101D8E00000000000000000000000000884205086E
:101D9E000A0000000000000090420508000000004C
:101DAE00984205080A0000000000000001FB04082C
:101DBE0000000000A04205080A000000000000001C
:101DCE008A4C002000000000A84205080A0000000E
:101DDE0000000000E413002000000000903A050807
:101DEE0001000000000000000000000000000000E4
:101DFE00000000000E0000000000000000000000C7
:101E0E0000000000B04205080000000000000000C5
:101E1E000000000000000000BC42050803000000A6
:101E2E00E1C801081814002000000000C84205088F
:101E3E0003000000E1C801080C140020000000009F
:101E4E00D042050803000000E1C80108001400207C
:101E5E0000000000D8420508050000000000000048
:101E6E003F4A002000000000E04205080700000085
:101E7E0000000000F813002000000000EC420508EE
:101E8E000700000000000000F0130020000000001A
:101E9E00903A05080100000000000000000000005C
:101EAE0000000000000000000E0000000000000016
:101EBE000000000000000000F842050800000000CD
:101ECE000000000000000000000000000C430508A8
:101EDE0003000000E1C801084814002000000000C3
:101EEE001843050803000000E1C801083400002073
:101EFE00000000002043050803000000E1C80108AF
:101F0E003C140020000000002843050803000000D8
:101F1E00E1C801083014002000000000603E0508F2
:101F2E0003000000E1C80108241400200000000096
:101F3E00903A0508010000000000000000000000BB
:101F4E0000000000000000000E0000000000000075
:101F5E0000000000000000003443050800000000EF
:101F6E0000000000000000000000000044430508CF
:101F7E0007000000E9C70108A414002000000000BB
:101F8E00843E050803000000E1C8010898140020F3
:101F9E00000000005043050803000000E1C80108DE
:101FAE008C140020000000005843050803000000B8
:101FBE00E1C80108801400200000000060430508FD
:101FCE0007000000CDC701087814002000000000B3
:101FDE006047050803000000E1C801086C140020EA
:101FEE00000000006C43050803000000E1C8010872
:101FFE006014002000000000784305080300000074
:10200E00E1C801085414002000000000903A0508B1
:10201E0001000000000000000000000000000000B1
:10202E00000000000E000000000000000000000094
:10203E0000000000219F0108F19E0108AC14002051
:10204E002DA201080000000038150020BD9D0108DA
:10205E00999D0108C415002000000000000000003A
:10206E007816002005A2010805C8010818170020DF
:10207E008043050800000000000000000000000082
:10208E00000000008C43050803000000E1C80108B1
:10209E0024180020000000009443050803000000EF
:1020AE00E1C801081818002000000000AC2B05083C
:1020BE0003000000E1C801080C1800200000000019
:1020CE00A043050803000000E1C801080018002025
:1020DE0000000000AC43050803000000E1C8010841
:1020EE00F417002000000000B443050802000000B1
:1020FE0069CA01080000000000000000BC4305088A
:10210E000200000069CA0108010000000000000082
:10211E00284005080200000069CA010802000000FC
:10212E0000000000000000000E0000000000000093
:10213E0000000000000000002A4A002088136F17DC
:10214E00010000002C4A002088136F1700000000C9
:10215E00C843050800000000000000000000000059
:10216E0000000000D8430508080000000000000031
:10217E000419002004000000E443050808000000D4
:10218E0000000000F818002000000000103F0508B5
:10219E000400000011C5010800000000000000004E
:1021AE00903A050801000000000000000000000049
:1021BE0000000000000000000E0000000000000003
:1021CE000000000000000000284A002088136F174E
:1021DE0001000000B06A002088136F170000000095
:1021EE00819C01080000000010190020B14F002052
:1021FE000100000078D50408B26A0020010000003A
:10220E0084D50408A86A0020020000008CD50408BA
:10221E00D25F00200000000000000000D05F002010
:10222E000000000000000000CE5F00200000000053
:10223E0000000000CC5F0020000000000000000045
:10224E00CA5F00200000000000000000C85F0020F0
:10225E0000000000000000009C1E00200000000096
:10226E0000000000274A00200200000098D5040854
:10227E0020440508000000000000000000000000DF
:10228E0000000000D8430508080000000000000010
:10229E009419002004000000E44305080800000023
:1022AE00000000008819002000000000103F050803
:1022BE0004000000519C0108000000000000000016
:1022CE00903A050801000000000000000000000028
:1022DE0000000000000000000E00000000000000E2
:1022EE00000000000000000030440508000000005F
:1022FE00000000000000000000000000404405083F
:10230E000D00000061C60108C41900200400000081
:10231E004C4405080D000000A99C0108B8190020C6
:10232E0004000000584405080D00000025C60108F1
:10233E00AC190020000000006444050803000000F2
:10234E0025A40108A019002008000000704405080B
:10235E0003000000E1C80108C81C002000000000B6
:10236E00903A050801000000000000000000000087
:10237E0000000000000000000E0000000000000041
:10238E000000000000000000883A05080000000070
:10239E0000000000000000000000000044380508A6
:1023AE000400000029C50108000000000000000024
:1023BE00903A050801000000000000000000000037
:1023CE0000000000000000000E00000000000000F1
:1023DE000000000000000000C444050800000000DA
:1023EE000000000000000000000000009010050832
:1023FE000D00000000000000241A00200400000060
:10240E00D44405080800000000000000181A00203F
:10241E0004000000E0440508080000000000000071
:10242E000C1A002004000000E84405080800000013
:10243E0000000000001A002004000000F04405080F
:10244E000800000000000000F41900200400000045
:10245E00F84405080800000000000000E8190020FC
:10246E000400000000450508080000000000000000
:10247E00DC190020040000000845050808000000D3
:10248E0000000000D019002004000000903A05085A
:10249E00010000000000000000000000000000002D
:1024AE00000000000E000000000000000000000010
:1024BE0000000000699C010800000000301A002096
:1024CE000000000000000000A81A0020000000001C
:1024DE0000000000481B0020AE6A0020040000002F
:1024EE00A4D50408AC6A0020E0150C17000000000B
:1024FE00AB6A00200800000090D60408AA6A0020EB
:10250E0005000000B8D5040800000000000000001F
:10251E00981B00200403090412010002EF0201407F
:10252E008304563200020102030100001201000270
:10253E000202004083044057000201020301000022
:10254E0009022000010104C032090400000208063D
:10255E0050050705810240000007050102400000FA
:10256E0009026400030100C03209040000010300E7
:10257E00000009211101000122260007058303082E
:10258E00000A080B01020202010009040100010207
:10259E00020100052400100105240100020424029A
:1025AE00020524060102070582030800FF09040242
:1025BE0000020A0000000705010240000007058125
:1025CE000240000009024300020100C0320904006B
:1025DE000001020201000524001001052401000182
:1025EE00042402020524060001070582030800FFE9
:1025FE0009040100020A0000000705010240000064
:10260E000705810240000000FF00000000FFFF00F0
:10261E0000000000AA550501000001000501090592
:10262E00A101A1000501093009310932093309352B
:10263E000934094009381581257F750895088102EE
:10264E00C0C0000009022200010100E032090400AE
:10265E0000010301020009211101000122260007D9
:10266E0005830308000A00000000000001020304B5
:10267E0001020304060708099D340208653B02089F
:10268E00E13602085D120208811402086D1202087A
:10269E0089120208351202082512020800000000F5
:1026AE00000000002D202D2D202D2D2D2D202D2D27
:1026BE002D2D0000000000000000000000000000B2
:1026CE00000000AA550B010000AA5507010000AA40
:1026DE00550902000000000001000000C012AA55BA
:1026EE0003009F00FF1FFF1F010000003C70002031
:1026FE00000000000424002004000000E02A050869
:10270E000C48050800000000B9DF0208A086010091
:10271E0004000000000000000000000000000000A7
:10272E00000000000000000000000000000000009B
:10273E00E02A050838490508000000009514010834
:10274E00E80300000400000000000000000000008C
:10275E00000000000000000000000000000000006B
:10276E0000000000843E05087C0C050800000000F7
:10277E00A50703087D000000060000000000000011
:10278E00000000000000000000000000000000003B
:10279E000000000000000000382A050800000000BC
:1027AE0000000000397A0108E80300000300000071
:1027BE00000000000000000000000000000000000B
:1027CE000000000000000000000000004049050865
:1027DE00000000000000000085F60308102700002E
:1027EE0003000000000000000000000000000000D8
:1027FE0000000000000000000000000000000000CB
:10280E00484505080000000025990008C94F010839
:10281E005F760000050000000000000000000000D0
:10282E00000000000000000000000000000000009A
:10283E0000000000A02C05080000000000000000B1
:10284E00698501081027000001000000000000004B
:10285E00000000000000000000000000000000006A
:10286E0000000000000000004C49050800000000B8
:10287E000000000099140108E803000005000000A4
:10288E00000000000000000000000000000000003A
:10289E00000000000000000000000000584905087C
:1028AE000000000000000000C5F20208204E0000EB
:1028BE000300000000000000000000000000000007
:1028CE0000000000000000000000000000000000FA
:1028DE00684905080000000000000000B1F0020881
:1028EE00204E000003000000000000000000000069
:1028FE0000000000000000000000000000000000CA
:10290E0000000000784905080000000000000000EB
:10291E006D190108400D03000300000000000000C7
:10292E000000000000000000000000000000000099
:10293E000000000000000000A42B050800000000AD
:10294E00000000006D420308102700000100000087
:10295E000000000000000000000000000000000069
:10296E00000000000000000000000000502A0508D2
:10297E000000000000000000BDDF0108102700006D
:10298E000300000000000000000000000000000036
:10299E000000000000000000000000000000000029
:1029AE0088490508000000000000000099AA0008F0
:1029BE00A0860100010000000000000000000000E1
:1029CE0000000000000000000000000000000000F9
:1029DE0000000000843B050800000000000000001D
:1029EE00C5790208A8610000010000000000000087
:1029FE0000000000000000000000000000000000C9
:102A0E0000000000000000009049050800000000D2
:102A1E0000000000C1FB0108A086010001000000BB
:102A2E000000000000000000000000000000000098
:102A3E00000000000000000000000000A82C0508A7
:102A4E000000000000000000F57A0208A00F000050
:102A5E000100000000000000000000000000000067
:102A6E000000000000000000000000000000000058
:102A7E009C490508000000000000000009A501089F
:102A8E001027000001000000000000000000000000
:102A9E000000000000000000000000000000000028
:102AAE0000000000AC2B0508000000000000000034
:102ABE00C95802081A410000010000000000000081
:102ACE0000000000000000000000000000000000F8
:102ADE000000000000000000082D050800000000A6
:102AEE00000000008D1A02081027000001000000EF
:102AFE0000000000000000000000000000000000C8
:102B0E000000000000000000000000002048050842
:102B1E000000000000000000E9CB01081A4100008F
:102B2E000100000000000000000000000000000096
:102B3E000000000000000000000000000000000087
:102B4E00A8490508000000000000000045540208D6
:102B5E00400D030000000000000000000000000017
:102B6E000000000000000000000000000000000057
:102B7E0000000000B0490508000000000000000041
:102B8E0081790208400D03000000000000000000E3
:102B9E000000000000000000000000000000000027
:102BAE000000000000000000B84905080000000009
:102BBE000000000039ED010850C3000003000000C2
:102BCE0000000000000000000000000000000000F7
:102BDE00000000000000000000000000C4490508CD
:102BEE00000000000000000025F0020840420F0027
:102BFE0000000000000000000000000000000000C7
:102C0E0000000000000000000000000000000000B6
:102C1E00D04905080000000000000000A54403088C
:102C2E0050C3000000000000000000000000000083
:102C3E000000000000000000000000000000000086
:102C4E0000000000000200051002700B010102FFDF
:102C5E00FF00000000000000508600200800000069
:102C6E00000000004086002008000000E91702085E
:102C7E00B5130208BD36020800000000211202083A
:102C8E00713E02089D170208F5330208000000008D
:102C9E0000000000DD110208711102086511020822
:102CAE00412B02085D2B0208252B0208092B020876
:102CBE00ED2A0208A117020891130208FD35020839
:102CCE0000000000F5110208F9330208711702081E
:102CDE00553302080000000000000000E911020850
:102CEE000000803F00000000000000000000000017
:102CFE0044E304080508040000000000B8D50408E9
:102D0E0090D60408A4D504080000000000000000BE
:102D1E0070E3040805080A0000000000B8D5040896
:102D2E0090D6040894D404080000000000000000AF
:102D3E001A03000000000000000000000000000068
:102D4E000000000000000000000000000403090461
:102D5E00120100020000004083042057000201020D
:102D6E0003010000F1740308A9530308A5530308D7
:102D7E00A1530308A55E03089D5303089953030846
:102D8E003CE50408113E020871130208F93C0208E2
:102D9E0000000000000000002D3302084932020836
:102DAE00000000000000000000000000D111020829
:102DBE0041540308355403080D64030829640308BD
:102DCE00ED530308F1630308D56303080100000007
:102DDE00500100000700000002000000000000008B
:102DEE0000000000010203040607080908000000A5
:102DFE00611102085D110208591102084D110208F5
:102E0E004911020855110208511102080100000073
:102E1E000060024010600240000000000000000050
:102E2E00000B000000000000000000000000000089
:102E3E000060024028600240010000000000000017
:102E4E00060C000000000000000000000000000062
:102E5E0000600240406002400200000000000000DE
:102E6E00100D000000000000000000000000000037
:102E7E0000600240586002400300000000000000A5
:102E8E00160E000000000000000000000000000010
:102E9E00006002407060024004000000000000006C
:102EAE00200F0000000000000000000000000000E5
:102EBE000060024088600240050000000000000033
:102ECE0026100000000000000000000000000000BE
:102EDE0000600240A06002400600000000000000FA
:102EEE003011000000000000000000000000000093
:102EFE0000600240B86002400700000000000000C1
:102F0E00362F00000000000000000000000000004E
:102F1E000064024010640240000000000000000047
:102F2E00003800000000000000000000000000005B
:102F3E00006402402864024001000000000000000E
:102F4E000639000000000000000000000000000034
:102F5E0000640240406402400200000000000000D5
:102F6E00103A000000000000000000000000000009
:102F7E00006402405864024003000000000000009C
:102F8E00163B0000000000000000000000000000E2
:102F9E000064024070640240040000000000000063
:102FAE00203C0000000000000000000000000000B7
:102FBE00006402408864024005000000000000002A
:102FCE002644000000000000000000000000000089
:102FDE0000640240A06402400600000000000000F1
:102FEE00304500000000000000000000000000005E
:102FFE0000640240B86402400700000000000000B8
:10300E003646000000000000000000000000000036
:10301E000000803F000000000000000000000000E3
:10302E000000803F000000000000000000000000D3
:10303E000000000000000000000000000000000082
:10304E000000000000000000010000000000803FB2
:10305E000000000000000000000000000000803FA3
:10306E0001000000282800200000000000000000E1
:10307E000000000000000000000000000000000042
:10308E000000000000000000000000000000000032
:10309E000000000000000000000000000000000022
:1030AE000000000000000000000000000000000012
:1030BE000000000000000000000000000000000002
:0C30CE00000000000000000001000000F5
:1080000000230122C2708370038003714371837166
:10801000C37103724372704700230A2203604360F6
:10802000C381C0F80630C0F80A300280704700BF34
:108030002DE9F843704CE279237A9A427FD0E279B5
:10804000E379C2EBC20204EB8202C3EBC30304EB8D
:10805000830392F82B101E7C8B1E9E422CD0674A05
:10806000B4F864301278E16801339BB21B2AA4F89B
:10807000643067D00025E379614A0133A2FB030233
:10808000520802EB42029B1ADBB2E37100293BD09B
:108090000BF0B6F8D4F89830C01AB0F5FA7F04DBCC
:1080A000002345F0040584F89630D4F89030002B76
:1080B00032D12846BDE8F883E37904F11007C3EB19
:1080C000C30307EB830361B11944002213F8015B7A
:1080D0002A44994292B2F9D1D3B203EB1222FF2A79
:1080E00038D0464AB4F864301278E16801339BB264
:1080F0001B2AA4F86430BDD1424BB4F864205A80E6
:1081000004229A800025B6E794F89630002BBFD160
:10811000D4F89030002BCCD03B4A1268D31AB3F578
:10812000FA7FC6D994F86630032B04BF0023A4F865
:108130008C300023C4F890302846BDE8F883E1680D
:108140000025A3E72F4BB4F864205A8003229A80BD
:10815000002590E7E37901221C2101FB0323FA1893
:10816000FD5C5DB3012D15D1082E3CD0234AB4F837
:1081700064301278E16801339BB21B2AA4F86430A2
:108180007FF478AF1F4BB4F864205A8006229A809F
:10819000002570E7194AB4F864301278E1680133B9
:1081A0009BB21B2AA4F864307FF464AF154BB4F87B
:1081B00064205A8005229A8000255CE7192EE16828
:1081C00024D00E4AB4F86430127801339BB21B2AD3
:1081D000A4F864307FF44FAF0A4BB4F864205A809F
:1081E00006229A8047E794F89430002B40F0E9800B
:1081F0001D46E1683FE700BF9028002025AF002022
:10820000ABAAAAAA28AF0020C4B0002092F802C0EE
:108210005578036992F8038092F804909679D7799B
:1082200092F808E00CF0070C45EA0C2508F03F082E
:1082300092F80AC01D8095784FEA481848EAD50898
:10824000957BA3F8028092F803804FEA890040EA08
:10825000981092F8058008F0010840EA882098807C
:1082600006F00F06507992F80780F60146EA5000B2
:10827000567AD8804FEA4E0E4EEAD81E06F0030614
:1082800092F80680D07A07F07F074EEA462E3F012B
:10829000567BA3F80AE047EA18171F8106F0070784
:1082A000967A92F809E0C00040EA5610167B0CF06E
:1082B0001F0C46EA072605F03F05577BD8816D0164
:1082C0004FEA8C1C45EAD7004CEA9E0CA3F80CC080
:1082D0001E825882D07B92F80EE0D77C92F81280F2
:1082E00092F811C0967C557D800040EA9E1092F86D
:1082F00010E07F000EF0010E47EAD8170CF00F0CCB
:1083000092F8108040EA8E204FEACC1C92F814E0DC
:1083100098824CEA580C907DA3F816C006F07F06B0
:1083200092F811C00EF0030E47EA4E27360146EAD6
:108330001C165F8392F814C0577D1E8305F01F053D
:10834000AD01C00045EA9C0540EA5710D8839D83E3
:10835000D57D40F2147015F0010F14BF0646AD260E
:1083600015F0020F08BFAD201E8458842B0759D486
:1083700015F0040F0CBF0125092594F86630032B76
:108380001AD194F86700137E2B4FA26E04EB4006BF
:10839000C3EB8323A7FB0373B6F86C705B09D21B96
:1083A00001301A4400F00F0084F867001009A6F8A5
:1083B0006C30A266A4F88C00204B1B68C4F8903087
:1083C00059E65378102B14D01ED8D3B994F89530B1
:1083D000E168002B7FF44EAE94F89730012B23D93F
:1083E00019B10A78303A012A1ED9002584F897502D
:1083F00041E694F895300BB984F89550012384F840
:108400009630E168002536E6303B012BF9D852F86A
:10841000010FE46091889379A1802060A3710849DD
:10842000002528E60325A8E70133012284F89730C8
:1084300084F8962000251EE61F85EB51C4B000206D
:108440009028002010B504460AF0DAFE514B0022B5
:1084500083F89C2093F89D20012A19D9D3F8A020F5
:1084600040F6AC51821A8A4212DD4B49B3F86420BF
:108470000978013292B21B29A3F8642005D1474A3A
:10848000B3F86410518001219180002283F89D206F
:10849000E2B27E2A27D093F89D1019B393F89D106D
:1084A0001B2956D893F8AC1000296CD0002182F01B
:1084B000200283F8AC1093F89D10022903D1012A01
:1084C00008BF83F8A420197A93F89D4093F89D0083
:1084D000C1EBC10103EB810121440130C0B2CA7379
:1084E00083F89D0010BD93F89D20012A2BD91A7A9C
:1084F0002B49DC790132A1FB02C1490801EB4101A2
:10850000521AD2B294420AD093F89D40197A1A7244
:10851000C1EBC10103EB8101621E81F82B2093F8AE
:10852000A4203AB10121002283F89C1083F8A420F2
:10853000C3F89800184A12781B2A1ED00022C3F8EC
:10854000A80083F8AC20012283F89D20C3F8A00086
:1085500010BD002283F89D200F49B3F864200978EC
:10856000013292B21B29A3F86420BBD10B4AB3F8A5
:10857000643053800223938010BDD3F8A8200749AC
:10858000821A0A80DAE77D2A95D1012283F8AC208D
:1085900010BD00BF9028002025AF002028AF00208C
:1085A000ABAAAAAA03788B4283BF034B03EB41011A
:1085B000B1F8B0000020704790280020044B93F8D9
:1085C000C80018B1002283F8C8200120704700BFFE
:1085D00090280020F0B4C24D95F8EF6005F1CC0270
:1085E0000244B41E1444A24200F07881013A013CD6
:1085F000002341F2210112F8017F83EA07231FB211
:10860000BBB2002FACBF5B0081EA43039BB21F04E7
:1086100054BF5B0081EA43039BB21F0454BF5B005D
:1086200081EA43039BB21F0454BF5B0081EA43030A
:108630009BB21F0454BF5B0081EA43039BB21F043B
:1086400054BF5B0081EA43039BB21F0454BF5B002D
:1086500081EA43039BB21F0454BF5B0081EA4303DA
:10866000A2429BB2C7D10644B21E013E2A442E4408
:1086700092F8CC1096F8CC2002EB012292B29A42EA
:1086800001D0F0BC704795F8F020002A00F021815D
:10869000431CDBB25C1C2C442B444FF4AF6193F8B9
:1086A000CC6094F8CC3003EB06239BB201FB03F3C0
:1086B0001B1303F54873012AA5F8B03000F00981B7
:1086C000C31CDBB25C1C2C442B44022A93F8CC6004
:1086D00094F8CC3003EB06239BB201FB03F34FEA83
:1086E000233303F54873A5F8B23000F0F280431D40
:1086F000DBB25C1C2C442B44032A93F8CC6094F826
:10870000CC3003EB06239BB201FB03F34FEA233388
:1087100003F54873A5F8B43000F0DB80C31DDBB26D
:108720005C1C2C442B44042A93F8CC6094F8CC3085
:1087300003EB06239BB201FB03F34FEA233303F55C
:108740004873A5F8B63000F0C48000F10903DBB22D
:108750005C1C2C442B44052A93F8CC6094F8CC3054
:1087600003EB06239BB201FB03F34FEA233303F52C
:108770004873A5F8B83000F0AC8000F10B03DBB211
:108780005C1C2C442B44062A93F8CC6094F8CC3023
:1087900003EB06239BB201FB03F34FEA233303F5FC
:1087A0004873A5F8BA3000F0948000F10D03DBB2F5
:1087B0005C1C2C442B44072A93F8CC6094F8CC30F2
:1087C00003EB06239BB201FB03F34FEA233303F5CC
:1087D0004873A5F8BC307CD000F10F03DBB25C1C01
:1087E0002C442B44082A93F8CC6094F8CC3003EB4B
:1087F00006239BB201FB03F34FEA233303F54873CF
:10880000A5F8BE3065D000F11103DBB25C1C2C442E
:108810002B44092A93F8CC6094F8CC3003EB062360
:108820009BB201FB03F34FEA233303F54873A5F82A
:10883000C0304ED000F11303DBB25C1C2C442B443F
:108840000A2A93F8CC6094F8CC3003EB06239BB251
:1088500001FB03F34FEA233303F54873A5F8C23055
:1088600037D000F11503DBB25C1C2C442B440B2ADF
:1088700093F8CC6094F8CC3003EB06239BB201FB59
:1088800003F34FEA233303F54873A5F8C43020D02F
:1088900000F11703DBB25C1C2C442B440C2A93F828
:1088A000CC6094F8CC3003EB06239BB201FB03F3BE
:1088B0004FEA233303F54873A5F8C63009D000F119
:1088C0001903DBB25A1C2A442B4493F8CC3092F89B
:1088D000CC30012385F8C830F0BC70470023C2E6D5
:1088E0009028002070B55C4C06460AF089FCD4F84C
:1088F000F430C4F8F400C01AB0F5FA5F1AD90023B6
:1089000084F8F83084F8F930A12E2FD0A22E00F090
:108910009C8094F8F92094F8EF300025A2B16A1CED
:108920006119D5B2F6B29D4281F8CC6084F8F85056
:108930000CD070BD94F8F850002DE5D094F8F920D3
:1089400094F8EF30002AEAD19D42F2D194F8FA303F
:10895000052B72D0062B03D194F8CD301E2B0DD0F1
:10896000002384F8F93084F8F83070BD01221B230D
:1089700084F8F92084F8EF300025D0E76A1E002A39
:108980004FF0000150DD08460B462344013093F8B8
:10899000CC30DBB283EA0105ED074FEA530348BF51
:1089A00083F08C0383EA5105EE074FEA530348BF77
:1089B00083F08C0383EA9105ED074FEA530344BF2C
:1089C00083F08C03DBB283EAD105EE074FEA530351
:1089D00044BF83F08C03DBB283EA1115ED074FEA45
:1089E000530344BF83F08C03DBB283EA5115EE07D7
:1089F0004FEA530344BF83F08C03DBB283EA911543
:108A0000ED074FEA530344BF83F08C03DBB283EAE4
:108A1000D1155908EB0748BF81F08C01C0B248BF9F
:108A2000C9B282420346B0DC224492F8CC308B4279
:108A300096D10320FFF7CEFD92E70020FFF7CAFD95
:108A400094F8CD301E2B8BD198E70122232384F894
:108A5000F92084F8EF308FE79028002007299DBF88
:108A6000034B03EB8101B1F8FC000020704700BF0D
:108A7000902800201A4B93F81C2132B193F8202142
:108A80000021A82A83F81C1101D00020704793F818
:108A90003321002AF9D110B4DFED126A03F5907189
:108AA00003F1F80003F59872B4EE047ACC780B79F0
:108AB00003EB042307EE903AF8EEE77AB0EE666A2D
:108AC000A7EE876A02318A42FCEEC67A17EE903A28
:108AD00040F8043FEAD101205DF8044B704700BF25
:108AE000902800200080BBC310B504460AF088FB24
:108AF0000F4BD3F83821C3F83801801A41F288327D
:108B00009042E4B205D983F82041012283F83C2148
:108B100010BD93F83C219918142A81F8204103D103
:108B2000012283F81C2110BD0132D2B2EEE700BF52
:108B300090280020034B03EB4101B1F84001C0082D
:108B4000704700BF90280020724B93F86021002AE4
:108B500000F0C28070B493F86141B3F8625103EB46
:108B60004401002091F8676191F8682183F8600161
:108B700042EA0622954202D0002070BC704793F86A
:108B80006521012A00F0AA80812AF6D10320102C49
:108B900040F2A68093F8694193F8675193F8681101
:108BA00093F86A2141EA052142EA04221024A3F83D
:108BB0004011A3F8422183F8614193F86B1193F8B7
:108BC0006C21032C42EA0122A3F84421D5D093F86A
:108BD0006D1193F86E21042C42EA0122A3F846217C
:108BE000CBD093F86F1193F87021052C42EA012243
:108BF000A3F84821C1D093F8711193F87221062C83
:108C000042EA0122A3F84A21B7D093F8731193F8EE
:108C10007421072C42EA0122A3F84C21ADD093F82D
:108C2000751193F87621082C42EA0122A3F84E210F
:108C3000A3D093F8771193F87821092C42EA012206
:108C4000A3F8502199D093F8791193F87A210A2C3E
:108C500042EA0122A3F852218FD093F87B1193F8B6
:108C60007C210B2C42EA0122A3F8542185D093F8F1
:108C70007D1193F87E210C2C42EA0122A3F85621A3
:108C80003FF47BAF93F87F1193F880210D2C42EADB
:108C90000122A3F858213FF470AF93F8811193F8A3
:108CA00082210E2C42EA0122A3F85A213FF465AF3B
:108CB00093F8831193F88421102C42EA0122A3F83F
:108CC0005C217FF45AAF93F8851193F8862142EA2C
:108CD0000122A3F85E2150E700207047104656E7B6
:108CE000002C3FF44AAF93F8671193F86821012CE8
:108CF00042EA0122A3F840213FF43FAF93F8691103
:108D000093F86A21022C42EA0122A3F842217FF45F
:108D100054AF32E79028002038B504460AF070FAC4
:108D2000444AD2F88C31C31AB3F57A6F16D892F848
:108D30009031C2F88C01B3B1022B1FD0242B92F8D2
:108D4000611175D901330231DBB249008B4282F8DF
:108D500090311BDB01318B4263D038BD0023C2F858
:108D60008C0182F89031A82CF7D1002382F8603171
:108D7000A2F8623192F86111204603E0E0B282F875
:108D800061010146D51885F86401DBE7B2F862316C
:108D9000E4B283EA042424B2002CB8BF41F22101DA
:108DA000A3B2B4BF81EA43035B009BB21C0446BF7D
:108DB00041F2210181EA43035B009BB2180446BFE4
:108DC00041F2210181EA43035B009BB2190446BFD3
:108DD00041F2210181EA43035B009BB21D0446BFBF
:108DE00041F2210181EA43035B009BB21C0446BFB0
:108DF00041F2210181EA43035B009BB2180446BFA4
:108E000041F2210181EA43035B009BB2190446BF92
:108E100041F2210181EA43035B009BB2A2F8623177
:108E200038BD0021012382F8901182F8603138BDED
:108E3000E0B2A7E790280020F8B5124D95F8A921D7
:108E400002B9F8BD104B1C6823685E6A3EB120462B
:108E500005F5CA71B047002385F8A931F8BD05F5BD
:108E6000CA77BE1800E023689B6820469847002810
:108E7000F9D0236817F8011B1B6820469847B742B2
:108E8000F1D1E8E790280020AC6F002003788B42F6
:108E900010D9094B03EB810193F8DC31D1F8AC0117
:108EA0001BB900F5777080B27047400800F5777005
:108EB00080B2704700207047902800202DE9F041D3
:108EC000CD4C94F8E40108B9BDE8F08194F8E511BF
:108ED000002384F8E431002900F0368194F8E83169
:108EE000C64D94F8F8215BB213F1630FB8BF95F942
:108EF0000030002A40D013F1310F80F2B48113F119
:108F0000380F80F2D38113F13D0F80F2D38113F13A
:108F1000420F80F2D38113F1450F80F2D38113F118
:108F2000470F80F2D38113F1490F80F2D38113F1FF
:108F30004A0F00F0D38113F14B0F00F0D28113F1EF
:108F40004C0F00F0D28113F14D0F00F0D18113F1DD
:108F50005C0FB8BF642680F2CE81D4F8FC01A84F24
:108F600000FB06F087FB0076C017C0EB661004EB31
:108F7000820680B2C6F8AC012B7094F8F47194F8B4
:108F8000F53194F8F60194F8F7611B0443EA07639E
:108F9000334343EA002303F0F020B0F1E02F00F068
:108FA000CA80102794F8070294F8EA31D4F80862CE
:108FB00094F80CC23678034103F00F039E4210D997
:108FC0000B2B0ED8002A40F0258194F8EA8194F802
:108FD000EBE104EB83030CEA08080EEB082EC3F860
:108FE000ACE194F8EC31034103F00F039E4210D939
:108FF0000B2B0ED8002A40F0118194F8EC8194F8E4
:10900000EDE104EB83030CEA08080EEB082EC3F82D
:10901000ACE194F8EE31034103F00F039E4210D906
:109020000B2B0ED8002A40F0FD8094F8EE8194F8C6
:10903000EFE104EB83030CEA08080EEB082EC3F8FB
:10904000ACE194F8F031034103F00F039E4210D9D4
:109050000B2B0ED8002A40F0E98094F8F08194F8A8
:10906000F1E104EB83030CEA08080EEB082EC3F8C9
:10907000ACE194F8F231034103F00F039E423DD876
:109080000D2F32DD94F8F431034103F00F039E42BB
:1090900010D90B2B0ED80AB19A420BD094F8F48158
:1090A00094F8F5E104EB83030CEA08080EEB082EB4
:1090B000C3F8ACE1102F18D194F8F63143FA00F060
:1090C00000F00F00B04210D20B280ED80AB1904227
:1090D0000BD094F8F62194F8F73104EB800002EA03
:1090E0000C0C03EB0C23C0F8AC3109B394F8A93194
:1090F000002B56D1012084F80602E5E60B2BBFD8E1
:109100000AB19A42BCD094F8F28194F8F3E104EBEE
:1091100083030CEA08080EEB082EC3F8ACE1AFE7B6
:109120003849394AEB600A6094F8A931002BE1D044
:109130000120BDE8F08194F8EA0100063FF531AF67
:1091400032480C2703602DE70AF05AF82B4D304BBC
:109150006A78A3FB00135B0C002A3ED094F8E80168
:1091600094F8E921D2B2122A18BF012A08D002F0DD
:10917000EF02A2F1A202B2FA82F2520902B96A70B7
:10918000D4F8001294F8F82179B38B4252D0591ACE
:10919000012952D094F8E511A4F80402C4F8003271
:1091A000EBE694F8EA311B06C2D40AF029F8D4F8A9
:1091B000E03100F57A70A860002BB1D05A68121A1D
:1091C000002A04DBACE75A68121A002AA9DA03F174
:1091D00008019B68002BF6D1A3E794F8E82194F8E6
:1091E000E90100EB022080B2CAE7A4F80402C4F847
:1091F000003294F8E511C0E690280020000000201D
:109200001F85EB51702A002004000020A41E0020BE
:1092100083DE1B4393427FF4D8AEE2E693427FF4B1
:10922000ECAEF6E693427FF400AF0AE79A427FF491
:1092300014AF1EE794F8E5119FE6002AAAD0B4F80F
:109240000462D4F8FC112E4F861B143E01FB06F17C
:1092500087FB0176C917A1EBE60104EB820689B210
:10926000C6F8AC1196E76FF0300C0126254806F1E0
:10927000FF3800EB480E00EB46069EF801E07778D9
:1092800010F91860A7EB0E07981B00FB07F0ACEB7A
:10929000060690FBF6F0704440B2002801DA002682
:1092A0005BE66428A8BF6420064656E66FF0370CDC
:1092B0000226DBE76FF03C0C0326D7E76FF0410C8A
:1092C0000426D3E76FF0440C0526CFE76FF0460C79
:1092D0000626CBE76FF0480C0726C7E79C46082612
:1092E000C4E76FF04A0C0926C0E79C460A26BDE792
:1092F0009C460B26BAE76FF05B0C0C26B6E700BF66
:1093000067666666D8AB0408344B5B68C3F3080332
:1093100070B4CBB9EFF31183B3B9314A314E324D4A
:109320001368AC6811688B42FAD131688C42F7D867
:109330002E4A15684FF47A7101FB05F2141BB4FB39
:10934000F5F401FB034321E0EFF31181102383F3D4
:10935000128803F1E023C9B29D681A6812F4803FB5
:10936000234A1EBF012414609D681D4B1E681368AC
:1093700081F311881D4A14684FF47A71334401FB5C
:1093800004F2521BB2FBF4F201FB0323194AD2F898
:109390001012C2F810325B1A41F288318B420AD99E
:1093A000C0B2012382F8E80182F81432002382F867
:1093B000E43170BC704792F814320F2BF9D8D118F1
:1093C0000133DBB2C0B2102B81F8E80182F814320D
:1093D000ECD1012382F8E43170BC704700ED00E06D
:1093E000C4B00020D8BA002010E000E0D4BA0020B9
:1093F000D0BA002090280020036933F8110000EB58
:109400008000C01000F55C7080B27047436993F82B
:109410002320002A00F0CF802DE9F0477B4ADE7D33
:10942000127800211A2A06F0040506F0080483F8D1
:10943000231000F0C280002D40F0CC80002C40F0C2
:10944000D980254693F802A093F8068093F801E0AE
:109450000269DF7893F8049093F807C00AF00700D8
:1094600008F00F014FEAC1184EEA002107F03F074C
:10947000187A1180997893F805A093F80AE07F0193
:1094800047EAD107D97857804FEA890949EA911903
:10949000997B0AF0010A01F03F014F0149EA8A2154
:1094A0009180597948EA5101D1800CF07F0C99796B
:1094B00093F807804FEA0C1C4CEA111C597AA2F869
:1094C00008C0400040EAD81001F0030140EA412002
:1094D00093F80DC0D97A50810EF01F0E587A4FEADA
:1094E0008E1E4EEA90009081187B93F80AE00CF0F3
:1094F000070C40EA0C20C90093F80DC0108241EA25
:109500005E11D18147EADC01518293F80FE093F8B4
:109510000E80597CDF7C93F812C0587D4FEA8E0E86
:109520004EEA981E93F8108008F001084EEA882E43
:1095300001F00F0193F81280A2F814E093F810E004
:109540007F00C90141EA5E0147EAD81793F814E0A9
:1095500093F81180D1820CF07F0C4FEA0C1C997D9E
:109560000EF0030E4CEA181C47EA4E2716F0010FC6
:1095700093F814E0A2F818C000F01F0093F815C08B
:10958000578340F2147314BF1F46AD278001C900F2
:1095900016F0020F40EA9E0041EA5C1108BFAD23BD
:1095A0009083D183178453840CBB002D0CBF012002
:1095B0000920BDE8F0871046704715491F8C0E80C2
:1095C00075B147F002021A8412B274B147F0030277
:1095D0001A8409E01A8C94B942F002021A8431E725
:1095E0008CB147F001021A8412B24A802AE70320A4
:1095F000BDE8F0871A8C42F001021A8422E742F09B
:1096000003021A841EE73AB22546EEE725AF002092
:1096100028AF00203B4B5B68C3F30803F0B42BBBBF
:10962000EFF3118313BB384A384F394E1368B568CE
:109630001468A342FAD13C68A542F7D8354A1668A7
:109640004FF47A7404FB06F2551BCA69B5FBF6F5B4
:1096500004FB03539A1A40F6AC54A2422EDC91F854
:10966000224074B3182C38D9F0BC7047EFF3118442
:10967000102383F3128803F1E023E4B29E681A6892
:1096800012F4803F244A1EBF012515609E681E4BC0
:109690001F68136884F311881E4A15684FF47A74A2
:1096A00004FB05F23B44921BB2FBF5F204FB0323DF
:1096B000CA6940F6AC549A1AA242D0DD002281F861
:1096C00022200F28D0D10122CB61087081F82220FE
:1096D000002381F82330F0BC7047631CDBB2192BE8
:1096E00081F822300855F3D10C4B1B781A2B08BF98
:1096F0000B4B4FF0010081F8230008BF9A80F0BCAB
:10970000704700BF00ED00E0C4B00020D8BA0020D0
:1097100010E000E0D4BA0020D0BA002025AF00202D
:1097200028AF0020094BDFED0A6ADFED0A7A03EB70
:10973000810191ED867AB8EE477AE7EE267AFCEE63
:10974000E77A17EE903A98B2704700BF9028002051
:1097500001F11F3F00405C44714A92F8583233B126
:1097600092F85E320021162B82F8581201D00020A8
:10977000704792F85D32022BF0B440F2CE8002F5D1
:109780001770184402F25E21D32311F8014F634091
:1097900013F0800F4FEA430318BF83F0D503DBB209
:1097A00013F0800F4FEA430318BF83F0D503DBB2F9
:1097B00013F0800F4FEA430318BF83F0D503DBB2E9
:1097C00013F0800F4FEA430318BF83F0D503DBB2D9
:1097D00013F0800F4FEA430318BF83F0D503DBB2C9
:1097E00013F0800F4FEA430318BF83F0D503DBB2B9
:1097F00013F0800F4FEA430318BF83F0D503DBB2A9
:1098000013F0800F4FEA430318BF83F0D50388425B
:10981000DBB2BAD192F87512994202D00020F0BCA6
:10982000704792F8640292F8636292F8681292F8B4
:109830006C3292F8704292F86052B2F860C2D2F87C
:10984000607200F00F00C00140EA560001F01F01F5
:1098500092F86762C2F82402890141EA960103F096
:109860003F0392F86B6292F86F02C2F830125B010C
:1098700043EAD60392F85F12C2F83C3204F07F0448
:10988000B2F86432D2F86462240105F0070544EAB4
:10989000101041EA0521C3F30A13C2F84802B2F8D6
:1098A0006852C2F81812B2F86A42D2F86C02B2F8E2
:1098B0006E12C2F82832D2F87032C0F38A10C1F3A7
:1098C0004A01C3F3CA13CCF3CA0CC7F38A37C6F3F1
:1098D000CA366D09C4F30A04C2F84002C2F8441241
:1098E000C2F81CC2C2F82072C2F82C62C2F834520C
:1098F000C2F83842C2F84C3292F8743292F87302CD
:10990000B2F87212DB0043EA5013C1F38A01C2F8C5
:109910005432C2F85012012081E7D3237AE700BF06
:1099200090280020F8B5674B1C68E707054616D558
:10993000654B93F89C2293F89D1291423BD1D3F84A
:10994000A022AA4202D8614A00211170D3F8C002B5
:10995000281A002821DD012083F8C402F8BD14F480
:10996000005449D15A4883689847C6071CD5594ABC
:10997000554BC0F3400110F00A0F117493F86620A4
:109980002AD0052A6BD04207D9D5012283F8C522F7
:10999000D3F8A022AA42D9D8D5E793F8C402002868
:1099A000DCD193F8C502F8BD4107474BC7D501226A
:1099B00083F8C522ECE7D3F8A402464C434983F868
:1099C0009D22284401220025C3F8A002012025740D
:1099D0000A7083F8C402C1E7D3F8A412052A0D4423
:1099E000C3F8A05251D0400767D4384A0121012062
:1099F000117083F8C402B1E7334BB3F8A82212BB4D
:109A0000B3F8AA22FAB9B3F8AC22E2B9B3F8AE229D
:109A1000CAB9B3F8B022B2B9B3F8B2229AB9B3F85E
:109A2000B42282B9B3F8B6226AB9B3F8B82252B9EF
:109A3000B3F8BA223AB9B3F8BC2222B9B3F8BE22BD
:109A4000002A3FF47CAFD3F8A42222481F492A44BD
:109A50000024C3F8A022012204740A7076E793F868
:109A60006720996E03EB42060132B6F86C70A6F8D7
:109A70006C40C91B0C0902F00F02A3F88C4044078C
:109A800083F86720996680D459E793F867109A6E37
:109A900003EB410402F2FF32B4F86C500131521B67
:109AA00001F00F0140F2FF3583F867101109A4F8A7
:109AB0006C509A66A3F88C1095E7012283F8C522B2
:109AC00093E700BFC4CC0020902800204D3B00202D
:109AD000D051002000000020002070470020704777
:109AE00001207047024B03EB4101B1F8C8027047F7
:109AF00090280020044B93F8EC0218B1002283F860
:109B0000EC220120704700BF90280020024B03EB9D
:109B10008101B1F8F00270479028002003788B4251
:109B200083BF034B03EB4101B1F8280300207047CA
:109B30009028002038B5394C054609F061FBD4F86F
:109B40007C33C4F87C03C01AB0F57A7F1CDD002397
:109B5000282284F8803384F8823384F8833384F8AD
:109B600081233D2D42D03E2D0DD12D4AC4F88423B2
:109B7000012384F882330123157084F8803394F82C
:109B800081239A4220D038BD94F88023002AE8D05F
:109B9000531CDBB2D4F8841384F88033062B8D5425
:109BA000EDD194F88233012B27D094F88333012B25
:109BB00027D00023282284F8803384F8823384F865
:109BC000833384F8812338BD94F88233012B04BF9A
:109BD000022384F8823394F88333012B15D00022BA
:109BE000282384F8802384F8813338BD0D4AC4F8D3
:109BF0008423012384F88333BDE78B78282BD4D8C2
:109C0000F1E78B78092BD4D8EDE7022384F883336E
:109C100009F0F6FAC4F88803E1E700BF90280020B5
:109C2000E42B0020D82B002030B402460023052569
:109C30001E2400E00232032BD4BF0021012100F8D2
:109C400013100133042B04D0122B5470F2D130BC0A
:109C500070475570EEE700BF024B036043608360BE
:109C6000C3607047E803D007024B03EB4101B1F832
:109C7000A802704790280020024B03EB4101B1F885
:109C8000A80270479028002030B4264C94F8823304
:109C9000022B02D0002030BC704794F85653EDB12F
:109CA000013D04F2553353FA85F504F55570002251
:109CB00010F8013B534083EA0313DBB2120AD900C8
:109CC00042EA0322854281EA131382EA0302EFD1BA
:109CD00022B1002084F8820330BC7047B4F85433BA
:109CE0005BBA9BB243F60162934209D043F603622A
:109CF000934205D0002384F88233012030BC7047A2
:109D0000094AA2F12E0102F12005D079937902329D
:109D100003EB0023C3F3CC03AA4221F8023FF4D1A2
:109D2000E8E700BF90280020E42B0020504B5B6840
:109D3000C3F3080370B4CBB9EFF31183B3B94D4A41
:109D40004D4E4E4D1368AC6811688B42FAD13168A4
:109D50008C42F7D84A4A15684FF47A7101FB05F234
:109D6000141BB4FBF5F401FB034321E0EFF3118175
:109D7000102383F3128803F1E023C9B29D681A68A7
:109D800012F4803F3F4A1EBF012414609D68394B86
:109D90001E68136881F31188394A14684FF47A7188
:109DA000334401FB04F2521BB2FBF4F201FB032328
:109DB000354AD2F88C13591AB1F5FA7F14D900211B
:109DC000C2F88C3382F8901382F89113C3B2042B3B
:109DD00026D0202B24D092F8941309B9552838D0D6
:109DE000814216D1002109E092F8911399B992F8B5
:109DF0009013C2F88C33C3B20029E8D092F89203D2
:109E000054180138814284F89C331DD0013182F806
:109E1000901370BC7047013982F8911370BC704781
:109E2000002102244FF6FF7082F89843A2F89603AF
:109E30005418581E814282F8943382F8923382F883
:109E4000931384F89C33E1D1012382F8BC3370BCB6
:109E5000704701241F2582F89403A2F8961382F814
:109E60009C3382F8934382F8984382F89253CDE76B
:109E700000ED00E0C4B00020D8BA002010E000E0FF
:109E8000D4BA0020D0BA0020902800200D49B1F8A3
:109E9000BD3330B508224AF2010580EA030414F00C
:109EA000010F4FEA530318BF6B4002F1FF3218BF96
:109EB0009BB212F0FF024FEA5000EED1A1F8BD3381
:109EC00030BD00BF90280020084616F02BB900BF17
:109ED0000FB400B583B004AB054953F8042B0193CC
:109EE00000200EF075FF03B05DF804EB04B070477E
:109EF000C99E00080EB470B583B007AC0646482072
:109F000054F8045B16F00EF9202016F00BF93046D9
:109F100016F07AF83A2016F005F92A462346094940
:109F2000019400200EF054FF04460A2016F0FAF8BF
:109F3000054A136803341B1B136003B0BDE870406F
:109F400003B07047C99E000814520020F8B50F4BAB
:109F5000D3F8C053D3F8C443D3F8C863A9B1831E60
:109F600000EB410727441E4404441D4434F9022BEE
:109F700036F9023F35F9020F134403EBD373A0EB1C
:109F8000630016F0B6F9A742F0D1F8BD9028002082
:109F9000F8B5264C264E3C22002120463FF022FAFE
:109FA000244B96F8CF73B3F86020228410330FCB84
:109FB00096F8D05384F82450102F04F1080585E852
:109FC0000F0009D801231C48BB40184020B90FB925
:109FD0003846F8BD012FFCD0184A194913681948B2
:109FE000206043F0020313601025174A0F48626097
:109FF0004FF4807323834D752BF04CFAB6F8DC33A5
:10A000004FF47A72A2627BB1104D05F16C07B6F87D
:10A01000DC33A16A00EE103A2846B8EE400A243537
:10A020002CF092FDAF42F2D10120F8BD680B001078
:10A0300090280020A40B0010011D010034680020AE
:10A04000000000209554030865540308702C00207C
:10A050002DE9F04F2DED068BC74EDFF8B883B37DA9
:10A06000012B8FB000F0D183022B0CBF07230023FC
:10A0700088F800307379C14CDFF89C93003318BF27
:10A080000123202284F865302320002384F86920EE
:10A0900084F8623089F84C3409F072F9B84AA3693F
:10A0A000626102222274002B00F0D7841420A36185
:10A0B00008F004FC99F84D54E061002D00F05E8337
:10A0C000B04F94F86030E26DC9F850240D2B40F089
:10A0D0004583AD49F2780B68AC48206043F001033A
:10A0E0000B604FF07E53AA492362012A4FF00F0301
:10A0F000E1653B7584F86B3040F2BE8300239FED31
:10A10000A57A84F86330012307EE903AF8EEE77AF7
:10A11000A14D3179994884F8662067EE877A013B32
:10A12000FCEEE77A84F86830C5ED007A84F86710B1
:10A130002EF00AFD002318463289F17D84F86A303A
:10A1400032F088FB7289317EDFF8D092012032F044
:10A1500081FBB2892968914BB3FBF1F39342C4F8B8
:10A160009891F08980F0748483422BD99AB248B3D5
:10A1700007EE900A07EE102AF8EE677AB8EE478AE3
:10A1800027EEE77A68EE277AA8EE087A844B8548AE
:10A19000C4F89831C7EE878AB0EE480AF0EE680A34
:10A1A00031F056FBF0EE680AB0EE480A29687E48A6
:10A1B00031F04EFBF0EE680AB0EE480A29687B48A1
:10A1C00031F046FB328A2968744BB3FBF1F39342BA
:10A1D000C4F80892708A80F0368483422BD99AB2F0
:10A1E00048B307EE900A07EE102AF8EE677AB8EE49
:10A1F000478A27EEE77A68EE277AA8EE087A684B56
:10A200006B48C4F80832C7EE878AB0EE480AF0EE11
:10A21000680A31F01DFBF0EE680AB0EE480A2968C2
:10A22000644831F015FBF0EE680AB0EE480A296880
:10A23000614831F00DFB614BC4F878921B689B00BC
:10A240001AD55F4BDFED5F0A29689FED5F0A5F4813
:10A25000C4F8783231F0FCFADFED5A0A29689FED34
:10A260005A0A5B4831F0F4FADFED560A29689FED8F
:10A27000560A584831F0ECFAD5F800A09FED560A7E
:10A2800007EE90AAF8EE677A032580EE270A3FF0E2
:10A29000BDF940F2355390FBF5F59D42A8BF1D4630
:10A2A0001FFA85F94FEA59034FEA990BA8F81030C5
:10A2B000A8F80490A8F808B007EE909A9FED477AA6
:10A2C000DFED476AF8EE677A87EE270A67EEA67A2F
:10A2D000B7EE087A30EE470AC8ED037A3FF096F9F8
:10A2E0000128B8BF01203F499FED3F5ADFED3F5A9B
:10A2F000DFED3F3A9FED3F2ADFED3F2A9FED3F3AEA
:10A300009FED3F1ADFED3F1ADFED3F6A88F814003A
:10A31000002307E00133F6EE007A202BE1EC017A0E
:10A3200000F0AB8007EE903AB8EEE77A27EE057AB8
:10A3300077EE257ABDEEE76A16EE102A2032402A23
:10A34000E8D8B4EEE57AF1EE10FA40F3AB829FED77
:10A350002F6A01E0F0EE477AF4EEC67AF1EE10FAD9
:10A3600037EEE67AF6DCB4EEE37AF1EE10FA40F17D
:10A3700096829FED276A55E074B10020A40B00106F
:10A38000003001400000002034680020498B0308A1
:10A390009D63030800007A443012001020A10700DA
:10A3A00011520308400D0010640D0010880D0010BC
:10A3B000B00D0010D40D0010F80D0010C4CC00201A
:10A3C0005952030885F99D410000C843200E001032
:10A3D000440E0010680E001000247449000034453B
:10A3E0000000003D200000103C8C4F3EDB0FC93FB9
:10A3F000DB0F49C092E741B99730083C15A82ABE47
:10A40000DB0FC9BFDB0F4940DB0FC940E4CB16416E
:10A41000E4CB16C10800001090280020C5520308A4
:10A42000B0EE677AB4EEC67AF1EE10FA77EE267ADD
:10A43000F6D4F4EEE57AF1EE10FA40F3288271EEEC
:10A44000E77A27EEA76AB0EE624AA6EE024A013327
:10A45000202BF0EE430AE4EE060AB7EE007A66EE31
:10A46000674A77EE677AB6EE007AE4EEA07A67EE96
:10A47000877AE1EC017A7FF455AFB17FA4F810350B
:10A4800006EE901A0C2303FB0AF3E24A9FEDE25A10
:10A49000B2FBFAF1F8EEE66AB2FBF5FA9A4538BF7C
:10A4A0009A4685EE261A89B2B1FBF9F1C9B292FB40
:10A4B000F5F3F07F84F8F912D84AA2F5437606EE58
:10A4C00090AA07EE901AB8EE665AF8EEE75ABCEE7C
:10A4D000C55AF7EE004ADFEDD21ADFEDD20A9FED42
:10A4E000D24A9FEDD27A9FEDD28A9FEDD26A9FED3C
:10A4F000D23ADFEDD23A9FEDD22ADFEDD22A84EEB6
:10A50000A50AB8EE455A05EE903A25EE215A07EE17
:10A51000900AF8EEE55A06EE90BA65EEA05AF8EE0B
:10A52000666AF8EEE77A75EE040A65EEA65A77EEEB
:10A53000677ABDEEE07A75EE841A17EE10EABDEE8A
:10A54000C57AC14BC4F8083517EE10CABDEEE17AE2
:10A5500003F1280117EE105ABDEEE57AA833C4F8CE
:10A56000143517EE100A102367EE887AA4F8003528
:10A570001423A4F80C35C4F80415A2F55E730EF18B
:10A58000200E0CF1200C84EDBF0A20352030C8EDE0
:10A59000267AC821402822F8021B00F2DA81F4EE64
:10A5A000C35AF1EE10FA40F36482B0EE657A9FED83
:10A5B000AD0ADFEDAB6A01E0B0EE677AB4EEE67AA1
:10A5C000F1EE10FA77EE407AF6DCF4EEE37AF1EE93
:10A5D00010FA40F151829FEDA30ADFEDA36A01E07A
:10A5E000F0EE477AF4EEE67AF1EE10FA37EE807A82
:10A5F000F6D4B4EEC47AF1EE10FA40F3068233EEEC
:10A60000477A67EE076AB0EE628AA6EE828A402D2C
:10A61000DFED967AE8EE267A27EE260AA0EE277A74
:10A6200067EE016A36EEA49A34EEE60AC4EE897A41
:10A6300066EEA76A20EE270AF1EE669A40F2948150
:10A64000B0EE467ABCF1400FC3ED006A83ED016ABB
:10A65000C3ED029A83ED037A83ED040A83ED066A63
:10A6600083ED056A83ED086A83ED076A00F21D81B8
:10A67000B4EEC35AF1EE10FA40F3F881B0EE457A29
:10A680009FED780ADFED766A01E0B0EE677AB4EE0E
:10A69000E67AF1EE10FA77EE407AF6DCF4EEE37A41
:10A6A000F1EE10FA40F1DF819FED6E0ADFED6E6A88
:10A6B00001E0F0EE477AF4EEE67AF1EE10FA37EECA
:10A6C000807AF6D4B4EEC47AF1EE10FA40F39381B6
:10A6D00033EE477A67EE077AB0EE628AA7EE828A97
:10A6E000BEF1400FDFED616A9FED580AE8EE276A80
:10A6F00067EE277AB0EE648AA7EEA67AF0EE647A67
:10A70000A7EE008AE7EE407AC7EE888A40F2D5804D
:10A71000B0EE467AF6EE006AB7EE000AC4EE887A2A
:10A720002433C3EDBE8A66EEA76A20EE270A67EEE1
:10A73000277AC3EDBA6AC3EDBC6A83EDBB0AC3EDE9
:10A74000BD7A83EDC06A83EDBF6A83EDC26A83ED93
:10A75000C16A9E427FF41DAF012002E0002084F810
:10A760006B003B7F23B194F86A30003318BF01239C
:10A770003B770FB0BDEC068BBDE8F08F2FF02CFCC3
:10A7800010B12023C5718371402109F03DF9642087
:10A7900008F088FDA06918B11C2200238271C371E2
:10A7A000092109F031F9A069294FDFF8ACA009F0BF
:10A7B000CDF9012389F84D344FF0000B254B0525C9
:10A7C0001C60002301AA792150462EF0FBF828B125
:10A7D000BDF80C307B837B8B692B12D8013DF0D107
:10A7E0000BF1010B42F20F73BBF1030F7B833FF4BC
:10A7F00068AC2EF03DFBC82000FB0BF008F0C0FD5C
:10A80000DCE70D2384F860305BE4042388F8003033
:10A8100030E400BF40420F00000048422812001000
:10A82000E5A6C53927D4D236DB0FC93F0000C842A0
:10A830000AD7233C00000000DB0F4940DB0F49C072
:10A8400092E741B99730083CF4AB0408F304353F74
:10A8500000000020E4B10020A40B00100000FA4228
:10A86000E4CB1641DB0FC940E4CB16C115A82ABEC4
:10A87000DB0FC9BF0000FA41B179B378002940F07D
:10A880000181032184F863101FED0C7A3CE4F4EE9F
:10A89000C17AF1EE10FA48BF73EEE77AD1E5F0EE37
:10A8A000477AC6E5B0EE677A5DE5F7EE008ABEF15D
:10A8B000400FB0EE688A3FF62BAFB4EEC45AF1EE0B
:10A8C00010FA40F3E680B0EE607A1FED1A0A5FEDF1
:10A8D0001C6A01E0B0EE677AB4EEE67AF1EE10FAA7
:10A8E00077EE407AF6DCF4EEE37AF1EE10FA0FD56B
:10A8F000B0EE677A1FED250A5FED256A01E0B0EE44
:10A90000677AB4EEE67AF1EE10FA77EE807AF6D452
:10A91000F4EEC47AF1EE10FA40F38B8073EE677AAE
:10A9200027EEA77AB0EE629AA7EE029A5FED316A3F
:10A93000E7EE096A27EE270AB8EE007AE0EE267AFB
:10A94000F6EE006A34EEE70A27EE877A60EE266AB2
:10A95000E4E6B7EE000A402DB0EE409AF0EE469ADB
:10A96000F0EE466A3FF66CAEF4EEC45AF1EE10FA21
:10A9700040F38580B0EE617A5FED468A1FED488A2C
:10A9800001E0B0EE677AB4EEC87AF1EE10FA77EE35
:10A99000687AF6DCF4EEE37AF1EE10FA0FD5B0EE59
:10A9A000677A5FED508A1FED508A01E0B0EE677A5A
:10A9B000B4EEC87AF1EE10FA77EEA87AF6D4F4EE97
:10A9C000C47AF1EE10FA2ADD73EE677A27EEA77AE1
:10A9D000B0EE62AAA7EE02AA1FED5C8AAAEE078A71
:10A9E00067EE878AB8EE007AE8EE887A67EE877AB3
